:1020000000800020B58300009D8300009D830000B8
:1020100000000000000000000000000000000000C0
:102020000000000000000000000000009D83000090
:1020300000000000000000009D83000009840000F3
:102040009D8300009D8300004D4400007D3700000B
:102050009D8300009D8300009D830000A1830000FC
:102060009D830000A96600009D8300009D83000001
:10207000253000009D830000B96600009D830000AC
:102080009D8300009D830000255300002F53000016
:10209000395300009D8300009D8300009D83000054
:1020A0009D8300009D8300009D8300009D830000B0
:1020B0000000000010B5064C2378002B07D1054B1B
:1020C000002B02D0044800E000BF0123237010BDA4
:1020D0007001002000000000CCF8000008B5084B9B
:1020E000002B03D00748084900E000BF07480368F9
:1020F000002B03D0064B002B00D0984708BDC046EC
:1021000000000000CCF800007401002060010020F5
:10211000000000007047000070B5061C0024335D0D
:10212000074D0F2B03D8281C064905F0A1FB315D94
:10213000281C1022013405F010FC082CEFD170BDD2
:10214000B008002048E4000010B50B4801F012FB75
:102150000A4802F069FA0A4C0B21201C01F0D4FD58
:10216000211C084801F090FE074800F06FFF074867
:1021700002F096F810BDC046C50100201C020020E8
:10218000C8010020A8010020E40100209C010020DB
:10219000F8B50024201C0221013406F087FB172C1F
:1021A000F8D12024201C0221013406F07FFB2A2CC8
:1021B000F8D11920022106F079FB1A20022106F03D
:1021C00075FB0820012106F071FB0820002106F0B4
:1021D000C7FB0920002106F069FB0920012106F058
:1021E00065FB0920012106F0BBFB0F20012106F051
:1021F0005DFB0F20002106F0B3FB0021132006F049
:1022000055FB0C2006F08CFA534E9621301C8901A8
:1022100004F038FB514C9621201C890105F0E6FFA3
:102220000121082006F09CFB4D4806F001F908202A
:10223000002106F095FB4B49201C05F02BFB4A4D75
:102240000021281C01F048FC0022281C131C0A2134
:1022500001F03AFB1123281C1421022201F080FB1B
:10226000424802F0F7F9424D42492870201C05F01F
:10227000FFFA2B78201C002B01D03F4900E03F499A
:1022800005F008FB3E4F0026381C01F0DEFE3D4DF8
:10229000311C0822281C09F08AFE3B48291C012217
:1022A0002E81AE7201F04EFDB04213D03749201C92
:1022B00005F0DEFA281CFFF72FFF201C344905F03B
:1022C000E9FA0123AB72381C291C0C22331C01F0E3
:1022D000F8FE03E0201C2F4905F0DCFA2E4D4421C6
:1022E000281C01F0DFFF00280BD1201C2B4905F032
:1022F000D1FA2B4B0122281C2A491A7001F0DCFF6D
:1023000003E0201C284905F0C5FA2848772200235D
:102310000125427003220370C270037143718571FD
:10232000C571057200F00CFF602806D1201C204901
:1023300005F0B0FA1F4B1D7003E0201C1E4905F08C
:10234000A9FA1E49201C05F0A5FA034804F09BFADF
:102350001B4804F075FDF8BD8C090020B008002072
:1023600010270000ECE20000C50100201C02002044
:10237000DD010020F2E2000003E300000AE30000B8
:10238000A80100208C010020C801002012E30000F9
:1023900082EB00001FE300009C0100202BE3000003
:1023A000C401002010C6FFFF37E30000E401002055
:1023B00044E30000DC0100204EE3000059E300008C
:1023C000570E002000000000F0B5DF4F93B03878C2
:1023D000032801D900F08BFCDC4C06F0B5FB0400AF
:1023E0006400A400DE02DA4D281C02F023F8FA2172
:1023F0000022281C890102F065F8D64DD64B281C16
:10240000197802F021FAD54E00213070092006F02B
:10241000A7FAFA20400006F00BF80920012106F087
:102420009FFACD4B281C197802F06CFACC49307019
:10243000201C05F01DFA307802F0BAF90021281CA2
:1024400002F0B8FA307002F0B3F9201CC54905F06B
:102450000FFAC54B0A22E95C201C05F082FA002124
:10246000281C02F09DFC307002F0A2F9201CBF492C
:1024700005F0FEF9BE4B0A22E95C201C05F071FA5A
:10248000BC49281C02F02AFC307002F091F9201C93
:10249000B94905F0EDF9CF235B00E95C201C0A2265
:1024A00005F047FA3DE0AA4D281C01F0C3FFFA21D0
:1024B00089010022281C02F005F8A64802F0CCFA97
:1024C000A64E307002F074F93378201C002B06D130
:1024D000AA4905F0DFF902233B7000F008FCA84987
:1024E00005F0D8F9A74E33685A1C3260092B12D96F
:1024F000A549201C05F0CEF90024281C346001F009
:102500008FFFFA21281C8900221C01F0DBFFFA2032
:10251000C00005F08DFF281C01F082FF9B4805F0EC
:1025200087FF0123D8E79A4E012100250F2035703F
:1025300006F016FAFA20400005F07AFF132006F0A4
:1025400043F9291C071C0F2006F00AFA381C07F073
:10255000B7F9904906F0FAFE8F49071C07F020F8FA
:1025600009F040F8734B724A07F072FD724A734BE0
:1025700008F0D8F9724A734B07F04EFA09F084F864
:102580000021051C06F0F4FB00280BD18349281C10
:1025900006F002FCFE21002805D1281C06F04CFCA8
:1025A000C1B200E001216B4802F0C6F96B4B187014
:1025B00002F0FEF87A49381C06F0E4FC794906F08E
:1025C000C5FE0021051C06F0D3FB00280BD1281CFA
:1025D000744906F0E1FBFF22002805D1281C06F013
:1025E0002BFCC2B200E000226F4F0DA8391C09F08D
:1025F000B7FD0DA9301C09F0D5FD6C4B391C1A78BC
:102600000DA809F0ADFD301C0DA909F0CBFD684BFC
:102610000AAD1F78002F3FD0664F381C02F040F8FB
:1026200065490590201C05F023F9059808F0DAFFAC
:102630000B1C0221021C0091201C05F061FA381CC1
:1026400002F07AF85D49071C201C05F011F9381CCE
:1026500008F0C8FF0B1C0221021C0091201C05F091
:102660004FFA059B564C0A93A9782A786B7800910B
:10267000E9780DA80191211C09F072FD0DA9301C0B
:1026800009F090FD0A97A9782A786B780091E9788B
:102690000DA80191211C12E0494C3A1C3B1C211C45
:1026A000009701970DA809F05BFD0DA9301C09F0FA
:1026B00079FD009701970DA8211C3A1C3B1C09F0DD
:1026C0004FFD301C0DA909F06DFD3E4F3E49381CF1
:1026D00001F040FC3C49051C88721C4C2C4E77D004
:1026E000381C01F07BFDC820800005F0A1FE3649B2
:1026F000381C01F0C9FD3549051C201C05F0B8F84F
:10270000281C08F06FFF0B1C0221021C0091201CEA
:1027100005F0F6F90A950AA988780A784B780090AE
:10272000C9780DA8019126495CE0C046C046C04664
:10273000333333333333F33F0000000000C06F40C6
:10274000000000000000F03FA4010020B0080020BD
:10275000BC030020C003002001000020180200205C
:1027600064E3000073E300004B03000087E3000014
:10277000420200009AE300009DE30000ACE3000089
:10278000BCE30000E0010020CFE3000010270000C0
:10279000020000200000B03A0000404000007E43EC
:1027A0000000204100007F4307E40000DE0100201C
:1027B000DD0100201C020020E6E30000F1E3000040
:1027C000FBE30000A80100208C0100200CE40000C5
:1027D000E549201C05F05EF8E449009501950DA837
:1027E0002A1C2B1C09F0BCFC301C0DA909F0DAFCDA
:1027F000DF4BDE4D1F78002F2CD00BAF381CDD498E
:1028000001F006FE0623FB56201C002B18D1DA49E6
:1028100005F02EF80B9808F0E5FE0B1C0221021CB7
:102820000091201C05F06CF90B9B0AA90A9388788B
:102830000A784B780090C9780DA80191291C13E003
:10284000CE4905F027F80023009301930DA8291C19
:102850001A1C09E0CA49201C05F01CF800970197D2
:102860000DA8291C3A1C3B1C09F07AFC301C0DA950
:1028700009F098FCC34B1B78002B66D0C249201C82
:1028800004F0F6FFC14D0226281C00F0A9FE071C2B
:1028900008F0A8FE0096021C0B1C201C05F030F965
:1028A000BB49201C04F0E4FF281C00F049FE059001
:1028B00008F098FE0096021C0B1C201C05F020F965
:1028C000B449201C04F0D4FF281C00F059FD0690E8
:1028D000281C00F055FD08F085FE0096021C0B1C1C
:1028E000201C05F00DF90AAC0A97A17822786378CC
:1028F00000919E4FE1780DA80191391C09F030FC40
:10290000A54D0DA9281C09F04DFC05990DA80A91AB
:10291000A178227863780091E1780191391C09F05F
:102920001FFC0DA9281C09F03DFC069B0DA80A936D
:10293000A178227863780091E1780191391C09F03F
:102940000FFC281C0DA909F02DFC0026934C201C1F
:1029500001F066FD002E02D0914805F069FD914C12
:102960009149201C04F084FF311C0A22201C04F031
:10297000E0FF8E4B8E4F1978874A381C02F0D6F84C
:102980008C4D287001F014FF2D78002D00D157E1F7
:102990000136042E00D153E1D8E78749201C04F00A
:1029A00079FF8649201C04F063FF854D201C2968AF
:1029B0000A2204F0E0FF2B68002B0FD1012381498C
:1029C000201C2B6004F066FF664B654A784802F0D5
:1029D00027FA784B187001F0EBFE88E15A1E102A96
:1029E00000D9FDE001332B60774D281C01F01CF865
:1029F0000590281C01F00EF80690281C01F000F844
:102A0000071C281C01F01AF80790281C01F020F878
:102A10000890281C01F026F86C4E079B0899059A2F
:102A2000009701930291069B0390311C0DA809F0B9
:102A300097FB0DA9201C04F02DFF281C00F0BEFE02
:102A4000281C00F0DDFF3C210A3006F02BF9281C81
:102A5000C9B200F097FF281C012100F09DFE5C49DF
:102A6000281C00F0B9FE281C00F0D6FE0590281C9A
:102A700000F0CAFE0690281C00F0BEFE071C281CB1
:102A800000F0D2FE0790281C00F0D6FE0890281C0B
:102A900000F0DAFE079B0899059A009701930291CE
:102AA000069B0390311C0DA809F05AFB0DA9201CB0
:102AB00004F0F0FE394F381C01F0BCFCFA21002272
:102AC0008901381C01F0FEFC4249201C04F0E2FEA2
:102AD000642005F0ADFC201C05F090FB281C00F0E4
:102AE00081FE9621201C890105F080FB3A49201CBB
:102AF00004F0D0FE281C00F097FF0590281C00F081
:102B000089FF0690281C00F07BFF0790281C00F02E
:102B100095FF0890281C00F09BFF0990281C00F0EE
:102B2000A1FF079B08990093099B059A01910293C5
:102B30000390069B311C0DA809F012FB0DA9201C67
:102B400004F0A8FE381C01F075FCFA210022381CA4
:102B5000890101F0B7FC214B03221A70C7E0C0467F
:102B600080841E00000000001AE40000FBE3000067
:102B7000C40100209C0100202FE4000039E4000083
:102B80004AE40000DC0100205BE40000E4010020D6
:102B900069E4000076E4000002000020BC0300208D
:102BA00088130000B008002085E400000000002029
:102BB000C0030020180200200DE5000013E500000E
:102BC0009801002020E50000C50100202EE500004E
:102BD000152100004BE5000057E50000A40100208E
:102BE0004449201C002604F055FE2E60424D02236D
:102BF000281C3B7002F04EF9404C207001F0D8FDCB
:102C0000642005F015FC281C01F024FE207001F062
:102C1000CFFD642005F00CFC281C01F01BFE207089
:102C200001F0C6FD642005F003FC281C01F012FE33
:102C3000207001F0BDFD2378B34258D03E7056E0BD
:102C40002F4B03221A70002D43D1201C2D4904F074
:102C500021FE2D4B2D4E1D60012333702C4BFB5C50
:102C6000002B44D02B49201C04F014FE2A49201CC0
:102C700004F0FEFDEF239B00F95C0A22201C04F007
:102C800070FE2649201C04F0F3FD2549201C7F1806
:102C9000391C04F0FFFD291C02231022381C33705C
:102CA00009F0A4FB051C291C201C0A2204F041FE8B
:102CB000612D1CD1201C1B4904F0ECFDFA21890078
:102CC0000022194801F0FEFBFA20C00005F0B0FB1D
:102CD0000DE00122062D00D13FE71449201C04F02D
:102CE000D9FD094A1368591C1160042BE2DC13B0AA
:102CF000F0BDC04662E50000C003002018020020BD
:102D0000A40100209FE40000A0010020DE010020BB
:102D100022040000B8E40000C6E40000D6E400008D
:102D2000BD030000E6E40000BC030020F1E4000065
:102D3000F8B5051C0F1C161C0024B44208D02B68E3
:102D4000395D1B68281C9847002801D00134F4E73E
:102D5000201CF8BD704708B5183004F04DFF08BDC1
:102D600008B5183004F05CFF08BD38B5837D0D1C34
:102D7000002B06D0041CC434201C04F067FF00287C
:102D800001D0002004E0201C291C04F01CFF0120BD
:102D900038BD08B5183004F04CFF08BDF7B50193F5
:102DA000FA239B0083600B4B00250833041C45600D
:102DB000036018300F1C161C04F0F8FE201CC430F1
:102DC00004F0F4FE019B27612675A575201C637530
:102DD000FEBDC04670E5000070B50D49041C0069D9
:102DE00005F0BCF9206905F050F81826207D331C49
:102DF0004343084D0821EB18595605F0E1FD607D6D
:102E000008214643AD19695605F0DAFD70BDC0468C
:102E1000A086010018F00000F7B5041C00200E1C6D
:102E2000151C0193824231D0271C1837381C04F03E
:102E3000DCFE2069311C012205F064F8002823D053
:102E4000206905F0CEF8011C381C04F0BCFE0126F8
:102E50002069AE420ED005F035F80221206905F058
:102E60003BF8206905F0BDF8011C381C04F0ABFEEE
:102E70000136EDE705F01DF8019B002B05D0206918
:102E8000032105F029F800E0051CE8B2FEBD08B5F5
:102E90000123FFF7C1FF08BD10B5B8235B00C15483
:102EA000041CC43004F0A1FE0123A37510BDF8B5C5
:102EB0000022B82382755B00041C0F1CC15C0069F2
:102EC00005F020F8002805D12069032105F004F859
:102ED00002251DE0261CC436301C04F0A1FE00288B
:102EE0000FD0301C256904F087FEC1B2281C05F004
:102EF00038F80028EED12069032104F0EDFF032506
:102F000006E0051C002F03D02069032104F0E4FF34
:102F1000281CF8BD08B50121FFF7C9FF08BD38B569
:102F2000041C006905F03BF8002879D0206905F001
:102F300044F800280ED1206905F049F800281FD078
:102F4000206905F03FF800281AD0206905F044F800
:102F5000002815D1206904F0B5FF2069032104F091
:102F6000BBFF231CFC33DD6F002D04D02368201C25
:102F70009B689847A847201C183004F036FE4FE0A5
:102F8000206905F024F8031C2069002B16D004F0FA
:102F900099FF2069032104F09FFF206905F01CF8C8
:102FA00000283DD0201CC43004F01FFE0123A3756F
:102FB000FC34A36F002B33D0984731E004F0F8FFC6
:102FC00000282DD0206905F007F8251C00280FD017
:102FD000C435281C04F024FEFF21002803D0281C3F
:102FE00004F00AFEC1B2206904F0CCFFA07517E01E
:102FF0001835281C04F02AFE031C2069002B02D07F
:1030000004F057FF08E004F0ECFF011C281C04F05A
:10301000DAFD206904F056FF2069032104F05CFF0B
:1030200038BD000008B50248FFF779FF08BDC0466B
:103030002402002008B50348034914221523FFF792
:10304000ADFE08BD24020020740900207722002371
:1030500042700A2203708270C3708371C37103725D
:1030600070470000F8B50578041C0F1C161C002DD5
:1030700013D0012D21D18078002105F071FC7F2132
:1030800039400E4800F054FB311C0C4800F050FB56
:10309000A078291C05F064FC0FE0094D4178281C3C
:1030A000FFF7FAFE391C281CFFF75FFE281C311CB5
:1030B000FFF75BFE281CFFF72DFFF8BDA8030020DB
:1030C00024020020F8B50578041C0F1C002D15D033
:1030D000012D2ED18078002105F042FC164E802172
:1030E0003943301C00F024FB301C002100F020FB91
:1030F000291C061CA07805F033FC1AE00F4D41781E
:10310000281CFFF7C9FE391C281CFFF72EFE281CBF
:10311000FFF700FF6178281C0122FFF7B8FE281C8A
:10312000FFF71EFE002804D0281CFFF714FEC6B2CD
:10313000F5E7301CF8BDC046A8030020240200209B
:1031400070B50578041C002D1AD0012D1BD1894EB5
:10315000301C00F09BFA301C602100F0E1FA301CBA
:10316000291C00F0BBFA301C291C00F0C1FAA07821
:10317000291C05F09BFBA078291C05F0F1FB02E05F
:103180007D48FFF729FE8921201CFFF79BFF88213E
:10319000051C201CFFF796FF2D02451965818B2128
:1031A000201CFFF78FFF8A21051C201CFFF78AFFD8
:1031B0002D024519A5818D21201CFFF783FF8C214D
:1031C000051C201CFFF77EFF2D024519E5818F218C
:1031D000201CFFF777FF8E21051C201CFFF772FFD4
:1031E0002D02451925829121201CFFF76BFF9021AC
:1031F000051C201CFFF766FF2D02451965829321EF
:10320000201CFFF75FFF9221051C201CFFF75AFFCF
:103210002D024519A5829521201CFFF753FF94210B
:10322000051C201CFFF74EFF2D024519E582972152
:10323000201CFFF747FF9621051C201CFFF742FFCB
:103240002D02451925839921201CFFF73BFF98216A
:10325000051C201CFFF736FF2D02451965839B21B5
:10326000201CFFF72FFF9A21051C201CFFF72AFFC7
:103270002D024519A5839D21201CFFF723FF9C21CA
:10328000051C201CFFF71EFF2D024519E5839F2119
:10329000201CFFF717FF9E21051C201CFFF712FFC3
:1032A0002D0245192584A121201CFFF70BFFE31CEB
:1032B000D877E221201CFFF705FFE121051C201C27
:1032C000FFF700FF2D024519A584E321201CFFF71D
:1032D000F9FEE31DD877E421201CFFF7F3FEE5217A
:1032E000051C201CFFF7EEFE0F2318402B01C5180C
:1032F0002585E621201CFFF7E5FEE521051C201CA5
:10330000FFF7E0FE0009C0B22D0145196585E721F0
:10331000201CFFF7D7FE231C2C331870F421201C2F
:103320000022FFF79FFE627923791C2592005B0142
:103330002A401A43D2B2201CF521FFF793FE227ACD
:1033400007231A40201CF221FFF78CFEE178A379B5
:1033500003225B010A401A43E379201C9B001D40B5
:103360001543EAB2F421FFF77DFED021201CFFF7C0
:10337000A9FE70BDA8030020240200200000000068
:10338000F0B5F7218DB00190FFF79CFEF821099070
:103390000198FFF797FEF9210A900198FFF792FE36
:1033A000019E0B90316B0A1CCB17161C1F1C5F492A
:1033B0005D4836184F41321C3B1C301C391C05F04F
:1033C00019FD0290039101980199408B019A069092
:1033D000098B019B0791D28A301C089212229A5EB7
:1033E000391CD31705F006FD030D040301980D03E6
:1033F0001422825E1D4302980399D31705F0FAFC4C
:103400000A069446020A604602430B12101C191C5D
:1034100000196941464A474B80185941019B1A8A55
:10342000002305F0E7FC4810031CC9170490059120
:103430000B430020002B72D006990AB2D3170298D2
:10344000039905F0D7FC079B041C1AB2D3170D1C77
:10345000301C391C05F0CEFC8C46664673040A9E6F
:10346000C10B3701099E0B434204A4185D4133038D
:103470000B9E3B433209D2B2134380225203D31A2C
:10348000089EDF175A08F90737B21143D807002200
:10349000FB0012196B41801A9941274A274B05F00E
:1034A000A9FC049A059B05F081FC0D1C4F13CB046D
:1034B0000199041C460B2020085E1E43321C3B1C55
:1034C000C11705F097FC321C3B1C05F093FC019AD8
:1034D000460E1E20105ECB01221C1E434F162B1CD5
:1034E000C11705F087FC36196F41C20C4C0322430B
:1034F000CB14B6185F41300A019E3B061C24345F92
:103500001843E617250F33012B4322013912801887
:10351000594105F0C9FCEE21890505F017FF0DB0F2
:10352000F0BDC046C046C046000CFEFFFFFFFFFFD7
:103530000000000000800000350C000000000000CA
:1035400038B5FD21041CFFF7BDFDFE21051C201C24
:10355000FFF7B8FD216B214A8B182902014328206F
:10356000225E89031205891A2A20225E5A43891A8B
:103570008022D2018918221C2C321078E21DD27FC1
:1035800058435A4380231B02D2128012D21842435E
:1035900080208003921212182420235EC9135A43FC
:1035A00080239B01D21892134A43D3135B43033405
:1035B000E07FDB1143431B11D31AD843C0171840D7
:1035C000C8235B05984200DD181C001306F078F94B
:1035D000EA21890505F0BAFE38BDC04600D4FEFFD9
:1035E00070B5FA21041CFFF76DFDFB21061C201CA1
:1035F000FFF768FDFC210501201CFFF763FD360382
:1036000000093543C0B22843628903119B1A5B430A
:103610000E25615FC0101B1352004B43821A0C2110
:10362000605E9B134243D2129B18052058438030A2
:103630002363001206F044F9014905F0A3FC70BDB4
:103640000000C842437A002B04D18372C372C36066
:1036500001234372704730B585B0041C02AD006889
:103660000291039204F0A2FB6B79E179227A009334
:103670002068002304F04EFD29792068029A04F0A6
:1036800065FB206804F088FB05B030BD70B5041CF4
:103690001826FFF7D7FF2079331C43430D4D08212F
:1036A000EB18595605F08CF9A079331C43430821D7
:1036B000EB18595605F084F9607908214643AD1995
:1036C000695605F07DF9044B201C06CBFFF7C3FFBC
:1036D00070BDC04618F00000A003002008B50068C7
:1036E000002901D1012100E0002104F069FB08BD9F
:1036F00008B5031C032912D8081C1B6805F01AFA28
:10370000050B0208181C002107E0181C012104E029
:10371000181C022101E0181C032104F07DFB08BDE8
:1037200008B50068032900D8042104F05DFB08BD3A
:1037300008B5006804F08EFB08BD0000094B0A4A7A
:103740000A491A6000225A711A71094B1960162130
:103750001971182199711721597101215A72D97162
:103760001A727047A003002000093D008409002060
:10377000A8030020002303707047000008B5044B25
:103780001B68002B00D09847024B01221A7208BD1B
:10379000B8030020001400400378002B0AD0064B29
:1037A000081C197F072210409143014319779A7A28
:1037B000D209FCD17047C046001400400378002BAA
:1037C00007D0044B07211A7F8A431A779A7AD209C5
:1037D000FCD1704700140040014B19607047C0468F
:1037E000B8030020034B04211A690A431A6130BF51
:1037F0007047C04600ED00E0024B98693F23184037
:103800007047C04600140040024B98690005800EC6
:103810007047C04600140040024B9869C003C00EB8
:103820007047C04600140040024B98698002C00EE9
:103830007047C04600140040024B98698001000F99
:103840007047C04600140040014B9869800E7047D5
:10385000001400400378002B0AD0064B081C19699D
:103860003F2210409143014319619A7AD209FCD159
:103870007047C046001400400378002B0BD0064B65
:103880003F2211408A01186904490140114319611E
:103890009A7AD209FCD17047001400403FF0FFFF34
:1038A0000378002B0BD0064B1F2211400A03186926
:1038B00004490140114319619A7AD209FCD1704739
:1038C00000140040FF0FFEFF70B5161C0278041CA8
:1038D0000D1C002A0AD0191CFFF7BCFF201C311C4C
:1038E000FFF7CAFF201C291CFFF7DAFF70BD00009C
:1038F0000378002B0BD0064B1F2211404A04186995
:1039000004490140114319619A7AD209FCD17047E8
:1039100000140040FFFFC1FF0378002B0BD0064BC3
:103920000F2211408A0518690449014011431961A9
:103930009A7AD209FCD1704700140040FFFF3FFC87
:103940000378002B09D0054B8A061969890189097A
:10395000114319619A7AD209FCD1704700140040D2
:1039600070B51D1C0378041C161C002B09D0FFF732
:10397000BFFF201C311CFFF7CFFF201C291CFFF7C5
:10398000DFFF70BD0378002B0AD0064B081C996935
:103990003F2210409143014399619A7AD209FCD1A8
:1039A0007047C046001400400A4B0B4A9A605A7890
:1039B00052B2002AFBDB0949064A51605A7852B2DA
:1039C000002AFBDB0649034A51805A78D209FCD110
:1039D0007047C046000C00400204000002051100C0
:1039E000044200000378002B05D0034B034A5A80A1
:1039F0009A7AD209FCD17047001400400080FFFF82
:103A000008B5FFF7EFFF024B18693F23184008BDC8
:103A10000014004008B5FFF7E5FF024B18690005E8
:103A2000800E08BD0014004008B5FFF7DBFF024B15
:103A30001869C003C00E08BD0014004008B5FFF7A8
:103A4000D1FF024B18698002C00E08BD001400406F
:103A500008B5FFF7C7FF024B18698001000F08BDCA
:103A60000014004008B5FFF7BDFF024B1869800E37
:103A700008BDC04600140040044B02211A888A4346
:103A80001A809A7AD209FCD17047C04600140040CF
:103A9000044B02211A880A431A809A7AD209FCD16F
:103AA0007047C04600140040044B01211A880A43A5
:103AB0001A809A7AD209FCD17047C046001400409F
:103AC000044B01211A888A431A809A7AD209FCD1C0
:103AD0007047C04600140040F7B52B4B0F1C9A6985
:103AE00020210A439A61294A294B0026051C9A8203
:103AF000284CB7420AD1284B1A7870231A4240D07A
:103B000023881A073DD5226901260192281CFFF758
:103B10004BFF281CFFF7B0FF281CFFF7C5FF62888A
:103B20001E4B134063801E4B2380A27A194BD2098F
:103B3000FBD11C4A08211160C021890050580002A5
:103B4000000A5050DA7901210A43DA711A7F0721FD
:103B50008A431A77A37ADB09FCD1281CFFF798FF68
:103B6000281CFFF7ADFF002F02D001232B70F7BDFB
:103B7000002EFAD0074B019A1A61A37ADB09FCD117
:103B8000F3E73E1CC2E7C04600040040CE0600003A
:103B9000000800400014004038040040FFBFFFFF51
:103BA000080A000000E100E00368426872B6536052
:103BB00062B67D200138C0B200281DD02021013915
:103BC000FDD1116A0B42F5D072B65361936062B6B3
:103BD000F02149010139FDD172B68C215360C90031
:103BE0000139FDD1106A034058425841C0B262B653
:103BF000CD225201013AFDD170470CC8C8070AD541
:103C000072B6A0215A619A600139FDD19A6162B6FB
:103C1000DC239B0009E072B682215A61C9009A60D8
:103C20000139FDD19A6162B65023013BFDD1704745
:103C30000368426872B63021936053610139FDD147
:103C4000A02153600139FDD1106A62B6D4229200DE
:103C5000013AFDD10340581E8341D8B27047F7B5F1
:103C6000041C0F1C019208250126391C31404B1EF3
:103C70009941C9B2201C7600013DFFF7BEFFF6B2A4
:103C8000002DF2D1019A002A06D172B6226863682B
:103C90005A6022685A6162B6F7BDF8B5071C08255C
:103CA00000240126381CFFF7C3FF002800D034434E
:103CB0007600013DF6B2002DF4D1201CF8BD70B5A0
:103CC00000220E1C5521051CFFF7C9FF0024315DA1
:103CD000281C00220134FFF7C2FF082CF7D170BD69
:103CE00008B5CC210022FFF7BAFF08BD00230374FA
:103CF000837443740723C218002111728B4201D0D0
:103D0000013BF8E77047000038B5041C0D1C081C87
:103D1000002104F0CBFD18225543084B01215A190C
:103D20005268EB569140064ADB019B18201C21602B
:103D30006360FFF7DBFF201C38BDC04618F00000B1
:103D400000440041F0B585B00391867C041C151C2D
:103D5000002E5AD1FFF728FF002857D0201C002D35
:103D600002D0F021321C01E0EC212A1CFFF777FF82
:103D70000126002101910291351C201CFFF758FFFC
:103D8000071C201CFFF754FF012F02D1012816D178
:103D900032E0019AA318874219D1277CBD4204D290
:103DA0001F7A37407A1E974102E0EF1B7A42574153
:103DB000FFB2002F03D1082D08D8657406E00199E1
:103DC000012763181A7A32431A7203E002951A7AAD
:103DD000B2431A727600201C391C0135F6B2FFF787
:103DE0000CFFEDB2002E04D1019B01260133DBB2A2
:103DF0000193019A072AC0D9402D06D9029B23744A
:103E0000002B07D10123A37404E000202074A074C8
:103E100060740BE0237A002BF7D00023E218127AAB
:103E20000399CA540133082BF8D1012005B0F0BD25
:103E3000031C00200139C9B2FF2905D01A780133CB
:103E40005040024A105CF5E77047C04690E500001C
:103E50000B78282B09D004D8102B06D0222B06D1A2
:103E600003E03B2B01D0422B01D1012000E00020D8
:103E700070470023037143710370092343700123CA
:103E800081608370C370704710B5041CFFF7F1FFA9
:103E90000023201CA36110BD10B5081C0C1C0721B9
:103EA000FFF7C6FFE379181A43425841C0B210BD6C
:103EB000F8B5051C80680E1C171CFFF717FF0024BF
:103EC000A868311C0122FFF73DFF00280BD0BC423F
:103ED00005D1281C311CFFF7DFFF002804D1013475
:103EE000E4B2BC42ECD90020F8BDF8B5041C8068EF
:103EF0000F1C161CFFF758FE0025A84216D0A0681C
:103F0000391CFFF7DCFEA068BE212A1CFFF7A7FEC4
:103F1000A068FFF7C2FE70550135092DF8D1A068E1
:103F2000FFF742FE451E6B425D41EDB2281CF8BD15
:103F300010B5141CFFF7D9FF031C0020834208D0E2
:103F4000201C0821FFF774FF237A181A43425841B6
:103F5000C0B210BD1FB501AAFFF7EAFF05B000BD52
:103F600070B5041C0D1C8068161CFFF71DFEA068B0
:103F7000291CFFF7A4FEA0684E210022FFF76FFE68
:103F8000B178A0680022FFF76AFEF178A0680022ED
:103F9000FFF765FE2B78102B04D03179A068002242
:103FA000FFF75DFEA068FFF7FFFDA068291CFFF783
:103FB00086FE2278A0684821FFF751FE142004F005
:103FC00037FA2378002B02D00A2004F031FAA068D7
:103FD000FFF7EAFD70BD38B5041C0D1C8068FFF7C3
:103FE000E3FDA068291CFFF76AFEB4210022A06847
:103FF000FFF735FEA068FFF71BFE051CA068FFF762
:10400000D3FD68426841C0B238BD1FB50A780C23A1
:10401000102A17D001AC221CFFF78AFF0023984218
:1040200010D022793F2A0CD003D809231F2A09D0A7
:1040300005E00B235F2A05D00C237F2A02D0002342
:1040400000E00A23181C04B010BD37B5041C8068BA
:10405000FFF74CFE002323716371A06869460122BB
:10406000FFF770FE00282BD0201C6946FFF714FFD5
:104070000028F2D02378002B05D1201C6946FFF7D9
:10408000AAFF002819D1201C69466578FFF7BDFFFB
:10409000854201D9607803E0201C6946FFF7B5FF2F
:1040A0002379607001332371201C6946FFF7D0FE2D
:1040B0000028D2D063790133CEE701232370E2E7F1
:1040C00037BDF0B589B0041C0F1C01930925082ADF
:1040D00004D9151C0C2A00D90C25EDB2201C391C62
:1040E000FFF793FFA84243D005AE201C391C321CB9
:1040F000FFF71EFF002398423BD03B78102B37D0B0
:104100000B2D08D00C2D04D01F230A2D04D13F23E2
:1041100002E07F2300E05F23321C201C391C337136
:10412000FFF71EFF62782B1C954200D2131CDAB2F7
:104130006370019B002B1BD1AA4219D965701D1C0D
:1041400023799D4214DA03A9EAB2201CFFF7B0FEDE
:10415000201C03A96678FFF758FF864201D96078D2
:1041600003E0201C03A9FFF750FF60700135E7E76B
:104170000123181C09B0F0BD08B58068FFF758FD91
:10418000013843425841C0B208BD00000939C9B2E4
:1041900070B5051C022903D80E4B4900CC5A00E02B
:1041A0000D4CEB78002B11D02B78002B0ED104F0A6
:1041B00039F9061C281CFFF7DFFF002809D104F09D
:1041C00031F923B2C01AB04203D2F3E720B204F0AF
:1041D0002FF970BD90E60000EE02000010B5041C3F
:1041E0008068FFF7E1FCA068FFF77AFD2278A068FD
:1041F0004421FFF734FDA378002B03D06178201C05
:10420000FFF7C4FF10BD10B553781478DB02E4004B
:104210001C430B78A4B2102B0BD1D1799079081ADA
:10422000C00104F0E9FC0F239C431038E40004199A
:10423000A4B220B210BD000030B585B001AA051CA3
:104240000C1CFFF775FE002805D0281C211C01AAB4
:10425000FFF7D9FF00E0024800B205B030BDC0460C
:1042600080E4000008B5064B984206DB05F028FB09
:10427000F021890505F06AF800E0024808BDC04653
:1042800081E4FFFF0000FEC208B5FFF7D5FFFFF78E
:10429000E9FF08BD08B50368C9B21B68984708BDA7
:1042A0007047000008B501700248FEF795FD002038
:1042B00008BDC0462402002038B50D4C8DB20178EF
:1042C000201CFEF7E9FD201C0121FFF7E3FF291266
:1042D000201CFFF7DFFFE9B2201CFFF7DBFF201CEB
:1042E000FEF718FE0A235B42584340B238BDC04671
:1042F0002402002038B5094C0D1C0178201CFEF763
:10430000CBFD291C201CFFF7C5FF201C0121FEF757
:10431000CEFD0A235B42584340B238BD2402002040
:1043200073B5114D0E1C02220178281CFEF7AFFD5B
:10433000FB24281CFEF714FD012807DC0A20013CA1
:1043400004F076F8002CF4D19C200BE001AC0222A2
:10435000281C211C03F033FF237862781B021343CF
:104360003380002040B276BD24020020000000000F
:10437000F0B5061C87B00C1C081C111CFFF7BAFF17
:10438000002834D103AF391C201CFFF7C9FF01906E
:10439000019904A80090002000291FD13B8878785B
:1043A0006A469382000907F0E9F8021C0B1C1549C4
:1043B000134800F0C9FF144A144B06F0B3FA041C6A
:1043C00038880D1C0005000D07F09AF8021C0B1C24
:1043D000201C291C06F0A6FA07F056F90490019853
:1043E0006B46009A9875331C03CA03C302E000238E
:1043F0003360B071301C07B0F0BDC046C046C04647
:1044000000000000000000407B14AE47E17A843FCA
:1044100010B50022041CFFF7ABFF201C10BD0000EC
:10442000034BA5221A72DA79D209FCD17047C04633
:1044300000100040044B02211A788A431A70DA797E
:10444000D209FCD17047C04600100040064B022143
:104450001A788A431A70D979034AC909FBD193792A
:1044600001210B4393717047001000400E4B0F4A1F
:1044700030B59A600E4A5A605A78D209FCD10D4A7A
:10448000094B0D495A800422CA670C4BC0214900D0
:104490005A50C02189005D58094C2C405C501A606C
:1044A0000123037030BDC046000C00400204000030
:1044B000020311000342000004E100E000E100E01B
:1044C000FFFF00FFF8B50378051C0F1C161C002B1E
:1044D00001D1FFF7CBFF4A4C00232370E379DB09BE
:1044E000FCD1484B9F4225DC002F23D0FA235B00F0
:1044F000BF02FA21F818890004F07EFB424B984273
:104500001CDC424B98421DDC414B98421EDC414B67
:1045100098421FDC404B984220DCFF2822DC7F2899
:1045200024DC3F2825DC1F2826DC0F2827DD01237B
:10453000102226E080220B23D20122E080220A23CF
:1045400092011EE08022092352011AE080220823F2
:10455000120116E080220723D20012E080220623F7
:1045600092000EE08022052352000AE004238022FC
:1045700007E00323402204E00223202201E000237D
:1045800008220121002E24D060790B26014361719D
:1045900060780F2188433043607060780B401B01C6
:1045A000014019436170237804210B432370E379A0
:1045B000DB09FCD1FA26B600564380239B00281C59
:1045C000F618FFF72DFF237802221343B61223704B
:1045D00010E020790143217160780F210B4088435E
:1045E00003436370237804218B432370E379DB0951
:1045F000FCD1DFE7E379DB09FCD1301CF8BDC04614
:10460000001000407F3E0000FF1F0000FF0F000071
:10461000FF070000FF030000FF010000014B002224
:104620001A707047BC0300207047000010B5084C9A
:104630004021201CFEF730FCFE21201CFFF72AFE43
:10464000201CFEF767FC0F2003F0F2FE10BDC046F1
:104650002402002038B5104C051C201CFEF7BCFBC2
:10466000281CFFF7E3FF201C4021FEF715FCE72183
:10467000201CFFF70FFE201CFEF74CFC40210122FE
:10468000201CFEF704FC201CFEF765FB02384342A9
:104690005841C0B238BDC0462402002000000000CE
:1046A00070B5234C4021201CFEF7F6FBE321201CB3
:1046B000FFF7F0FD201CFEF72DFC322003F0B8FEC2
:1046C000201C40210322FEF7E2FB201CFEF748FBE2
:1046D0000028FAD0201CFEF73EFB86B2201CFEF715
:1046E0003AFB3502ADB20543201CFEF734FBA8B2FD
:1046F00005F042F906F076FF0A4B094A06F012F976
:1047000006F0C2FFDE21890504F020FE06F06AFFF4
:10471000054A064B06F096FB06F0B6FF70BDC04694
:10472000D7A3703D0AF76540CDCCCCCCCC6C4740CC
:1047300024020020C046C04670B51A4C4021201CFF
:10474000FEF7AAFBE521201CFFF7A4FD201CFEF7C5
:10475000E1FB322003F06CFE201C40210322FEF717
:1047600096FB201CFEF7FCFA0028FAD0201CFEF76E
:10477000F2FA86B2201CFEF7EEFA3502ADB205431E
:10478000201CFEF7E8FAA8B205F0F6F8064904F096
:10479000DDFDDE21890504F0D9FD044904F000FFA8
:1047A00070BDC046240200200000FA420000C04054
:1047B00010B588B000236A461370082822D804F088
:1047C000B9F905080B0E1114171A1D006846134994
:1047D00016E06846124913E06846124910E0684640
:1047E00011490DE0684611490AE06846104907E0A2
:1047F0006846104904E068460F4901E00F496846E1
:1048000007F0E7FC0E4C0F49201C03F031F8201C88
:10481000694603F02DF808B010BDC046A8EA0000B4
:10482000BCEA0000D3EA0000E7EA0000FCEA00006E
:1048300013EB00002BEB000040EB000056EB0000F8
:10484000B00800206EEB000008B500F0AFFB0020C0
:1048500008BD0000F0B5051CA4358FB0041C002174
:10486000FA22281C07F0C5FB00210F2202A807F03E
:10487000C0FB0AAE00210F2206A807F0BAFB0F22E8
:104880000021301C07F0B5FB1A4B281CFE33598A57
:1048900007F066FC184F02A8B98A07F061FC3B1CC0
:1048A0005033198806A8543707F05AFC3988301C51
:1048B00007F056FCFA239B0001930096201C291C4C
:1048C00002AA06AB00F0DCFC012804D10B4BE0543B
:1048D0000B4BE05406E0022806D1084B0122E054BD
:1048E000074BE254002003E00338431E9841013097
:1048F0000FB0F0BD70EE000048EC00002A0400008C
:104900002B040000E1231B0210B54360012301705A
:104910000374041CC82003F08BFD201C00F02EFB48
:104920009620400003F084FD201CFFF793FF201C1D
:10493000FFF790FF10BD0000F0B5051CA4358BB04B
:10494000041C0E1CFA220021281C07F052FB002137
:104950000F2202A807F04DFB00210F2206A807F046
:1049600048FB114AA4235B00D15A281C321C07F0D3
:10497000F7FB0E4F02A8398807F0F2FBB98806A8AA
:1049800007F0EEFBC8230093201C06AB291C02AAEB
:1049900000F06CFC0223012802D1054BE6540023F1
:1049A000181C0BB0F0BDC04670EE000048EC0000D3
:1049B0004A030000F0B5061CA4368BB0041CFA2292
:1049C0000D1C301C002107F014FB00210F2202A84F
:1049D00007F00FFB06A800210F2207F00AFB1A4B75
:1049E000E35C012B02D0022B04D029E00720854292
:1049F00027D802E00720042D23D8144B2A1C483363
:104A00001988301C07F0ACFB114F02A8398807F059
:104A1000A7FBB98806A807F0A3FB64230093201C1A
:104A2000311C02AA06AB00F021FC012803D1094B7E
:104A30000020E55405E00238431E9841013000E0B3
:104A400008200BB0F0BDC0462A04000070EE000044
:104A500048EC00004B030000F0B5061CA4368FB0F4
:104A6000051C0021FA22301C07F0C3FA00210F2296
:104A700002A807F0BEFA0AAF00210F2206A807F02D
:104A8000B8FA0F220021381C07F0B3FA244B301C6F
:104A9000FE33598E07F064FB224C02A8218807F0F0
:104AA0005FFBA18806A807F05BFBA31DD98F381C0C
:104AB00007F056FBFA235B0001930097281C311C7A
:104AC00002AA06AB00F0DCFB01281DD10F22002159
:104AD00002A807F08EFA218B02A807F041FB4C34A4
:104AE0000F22002106A807F084FA218806A807F003
:104AF00037FB0D4B281C02A906AA00F010FB013859
:104B0000431E9841C0B208E0022805D00338431E76
:104B100098410323181A00E001200FB0F0BDC046F1
:104B200070EE000048EC0000204E0000F0B5644B31
:104B3000071C99B00025A437C5540391041C291CF7
:104B4000161C381CFA2207F054FA291C142204A857
:104B500007F04FFA291C142209A807F04AFA0EA8F8
:104B6000291C142207F045FA039B0720DF2B00D9EC
:104B7000A4E0301C07F035FB85420BD2735D1A1C94
:104B8000303A092A03D9413B052B00D991E0013580
:104B9000EDB2F1E74B4B039A998A381C331C07F0AE
:104BA000DFFA494D04A8298807F0DAFAA98809A88C
:104BB00007F0D6FA2B1C48330EAE1988301C07F0CC
:104BC000CFFAFA239B0001930096201C391C04AAFB
:104BD00009AB00F055FB012865D10021142204A87F
:104BE00007F007FA0021142209A807F002FA13AF10
:104BF00000211422301C07F0FCF914220021381C7B
:104C000007F0F7F9A98904A807F0AAFA298C09A8DE
:104C100007F0DFFA0235698F301C07F0DAFAE98F06
:104C2000381C07F0D6FA294B00970193201C04A9E1
:104C300009AA331C00F0FEF9051E012D2AD1FA2223
:104C4000201C2349520000F062FA231CA2331B8867
:104C5000002B1DD01F4E201C311C113007F0DCFA38
:104C600007F05AF9EF239B00E054311C002007F0B5
:104C7000D3FA194B071CE61800216522301C07F0F7
:104C8000B8F9301C391C642207F0B2FA0C4BE55419
:104C9000002013E00228FBD00520032D0ED0042DA8
:104CA00009D002200AE0022807D00328F9D1062003
:104CB00004E0072002E0281C00E0012019B0F0BD4C
:104CC0002204000070EE000048EC000020BF02004B
:104CD00080EB00007FEB0000BD030000F0B52C4E20
:104CE0008BB0051C0C1C081C311C07F068FA00284E
:104CF00006D0201C274907F062FA0723002844D178
:104D00002E1CA436301C0021FA2207F072F9002173
:104D10000F2202A807F06DF900210F2206A807F064
:104D200068F91D4B221C4C331988301C07F018FA07
:104D30001A4F02A8398807F013FAB98806A807F0B5
:104D40000FFAFA235B000093311C281C02AA06AB61
:104D500000F08CFA061E012E13D1201C0C4907F01E
:104D60002EFA002802D1CF235B00EE54201C094903
:104D700007F025FA0023984207D1CF225200AB5406
:104D800003E0023E731E9E41731C181C0BB0F0BD65
:104D90009AE3000083EB000070EE000048EC000096
:104DA000F0B5051CA4358BB0041C0E1CFA220021A2
:104DB000281C07F01EF900210F2202A807F019F99C
:104DC00000210F2206A807F014F9124B321CFE3303
:104DD000D98A281C07F0C4F90F4F02A8398807F0B8
:104DE000BFF9B98806A807F0BBF964230093201C1B
:104DF000291C02AA06AB00F039FA012803D1074B9F
:104E00000020E65403E00238431E984101300BB005
:104E1000F0BDC04670EE000048EC00004202000009
:104E2000F0B5061CA4368BB0071C141C301C0021E6
:104E3000FA221D1C07F0DDF802A800210F2207F05E
:104E4000D8F806A800210F2207F0D3F80F4AA223B2
:104E50005B00D15A301C221C2B1C07F081F90C4C32
:104E600002A8218807F07CF9A18806A807F078F944
:104E700064230093381C06AB311C02AA00F0F6F93B
:104E8000023843425841C0B20BB0F0BD70EE000092
:104E900048EC000030B5051CA43585B0041C002189
:104EA000281CFA2207F0A5F8684600210F2207F017
:104EB000A0F800232B70231C5522A5331A700A4B2F
:104EC0006846198807F04CF9201C291C022200F0C2
:104ED000E2F9201C6946642200F019F90138431EEA
:104EE0009841400005B030BD48EC0000074BE1227E
:104EF00012025A60064A07499A606422DA60012267
:104F00001A7400225A5404495A547047C0030020AE
:104F1000881300002B0400002A040000F7B5181CB9
:104F20000191161C1F1C07F05CF9051C0020041CD5
:104F3000AE4210D3731B9C420AD8019B391C18192E
:104F40002A1C07F025F8002804D00134A4B2F1E7A8
:104F5000002000E00120FEBD08B5031C002904D19B
:104F60000448191C01F08EFC03E00348191C03F0EF
:104F70003DF908BD8C090020EC07002008B5031C92
:104F800019784068FFF7E8FF08BD000008B5002861
:104F900003D1044801F077FC02E0034803F02EF946
:104FA00008BDC0468C090020EC07002008B5007839
:104FB000FFF7ECFF08BD000008B5031C002904D171
:104FC000191C044801F0CCFB03E00348191C03F052
:104FD00033F908BD8C090020EC07002038B5041C0B
:104FE0000D1C2078002804D0291C0134FFF7E4FFB1
:104FF000F7E738BD08B5002803D1044801F0BAFB33
:1050000002E0034803F009F908BDC0468C090020FE
:10501000EC07002008B5002803D1044801F0D2FBBA
:1050200002E0034803F003F908BDC0468C090020E4
:10503000EC070020F0B5051C85B01135041C039168
:10504000019200219022281C029306F0D2FF231C1B
:10505000A23300261E8003F0E5F9371C009003F010
:10506000E1F9009BC01A0B9B984245D22078FFF7CC
:10507000C1FF00280ED08E2F0CD82078FFF7CAFF72
:10508000E3195874231CA2331A887E1CB6B201326D
:105090001A80371C231CA2331E88201C291C321C9A
:1050A000039BFFF73BFF002828D1019B002B06D074
:1050B000201C291C321CFFF731FF002820D1029B45
:1050C000002B06D0201C291C321CFFF727FF0028CC
:1050D00018D10A9B002B06D0201C291C321CFFF77C
:1050E0001DFF002810D103F09DF9009B9842B6D215
:1050F00003F098F90090B2E7002006E0012004E0F8
:10510000022002E0032000E0042005B0F0BD07B556
:105110000023019200931A1CFFF78CFF0EBD13B5FC
:105120001C1C002300930194FFF784FF16BD0000B0
:1051300070B5002803D10E4801F022FB16E003F001
:1051400071F9051C0B4C201C03F067F8261C002885
:1051500004D003F067F9401B632803D9301C03F027
:1051600057F803E0201C03F062F8EBE770BDC0467F
:105170008C090020EC070020F0B585B00392029363
:10518000037C041C0D1C002B02D00078FFF7D0FF1D
:105190002178281C261CFFF721FF1136E06803F058
:1051A00047F900219022301C06F023FF231C002524
:1051B000A2331D8003F036F92F1C019003F032F961
:1051C000019BC01A0C9B984245D22078FFF712FF32
:1051D00000280ED08E2F0CD82078FFF71BFFE31984
:1051E0005874231CA2331A887D1CADB201321A8078
:1051F0002F1C231CA2331D88201C311C2A1C039B3E
:10520000FFF78CFE002828D1029B002B06D0201C23
:10521000311C2A1CFFF782FE002820D10A9B002B9C
:1052200006D0201C311C2A1CFFF778FE002818D15C
:105230000B9B002B06D0201C311C2A1CFFF76EFE96
:10524000002810D103F0EEF8019B9842B6D203F08B
:10525000E9F80190B2E7002006E0012004E0022016
:1052600002E0032000E0042005B0F0BD1FB50024DB
:1052700000940194069C0294FFF77EFF04B010BDD9
:105280001FB5069C009400240194079C0294FFF72C
:1052900073FF04B010BDF8B5037C041C0E1C171C72
:1052A000002B02D00078FFF743FF351CAB1B9BB2ED
:1052B000BB4205D228782178FFF77EFE0135F5E75D
:1052C000E06803F0B5F8F8BD154B70B58000C45820
:1052D00001262268257E937B1D40637E1D4035425A
:1052E00004D0201CA3689847226896730226354292
:1052F00004D0201CE3689847226896731026354234
:1053000004D0201C236998472268967320263542D2
:1053100004D06369201C984723689E7370BDC04603
:10532000880F002008B50020FFF7CEFF08BD08B5A4
:105330000120FFF7C9FF08BD08B50220FFF7C4FF31
:1053400008BD000000000000F0B546464F46C0B45E
:105350008FB0161C1F1C0090019100F0ADF9BC4AE3
:105360000023D356041C0D1C904602940395013370
:1053700005D0301C391C01F021F8002806D1029814
:1053800003990FB00CBC90469946F0BD0098019966
:1053900001F014F88146002831D1301C391CA14B92
:1053A0009F4A03F09BFC0028E9D001230493A94BFA
:1053B00004AC63604B462362009A019BA260E360E9
:1053C000994A9A4BA261E36142460023D356266173
:1053D00067615A1C0ED0022B0CD0201C01F01EF865
:1053E000002800D17BE0236A002B03D006F09AFD51
:1053F000236A0360A269E36902920393BFE70098FE
:105400000199884B864A03F069FC002822D0301CA1
:10541000391C844B824A03F061FC051E2CD0012309
:1054200004938C4B04AC636000232362009A019BBD
:10543000A260E3607B4B7A4AA261E36142460023AB
:10544000D35626616761002BC7D0774A774BA2619C
:10545000E361CFE7201C291C00F0A8FF814600284B
:1054600042D0201C291C6F4B6D4A03F037FC0028EA
:105470006CD10294039582E7301C391C00F096FF32
:10548000002800D17BE7301C391C664B644A03F0CE
:105490002BFC002800D172E7012304936D4B04AC70
:1054A0006360009A019BA260E3604346197825621D
:1054B00026616761002900D17AE05D4A5D4BA261F7
:1054C000E36102293CD106F02DFD21230360236A0C
:1054D000002B8FD006F026FD226A02608AE706F0D4
:1054E00021FD212303607EE70098019900F05EFF13
:1054F0000028B6D0301C391C00F058FF0028B0D06E
:10550000201C291C00F05AFF04AC002855D10123AF
:105510000493504B20626360009A019BA260E36099
:1055200043461D7826616761002D41D03D493C48C6
:10553000021C0B1C04F08CFDA061E161022DC2D0A5
:10554000201C00F06BFF0028C1D1BCE70098019936
:1055500000F02CFF02940395002800D10FE7301CC7
:10556000391C00F023FF02940395002800D106E7C0
:1055700004AC0423049326616761364B6360002307
:105580002362009A019BA260E360264B244AA26139
:10559000E36142460023D356022B04D0201C00F0C6
:1055A0003DFF002893D106F0BDFC222303608EE767
:1055B0001C4B1B4AA261E361C2E703230493254B02
:1055C0002661676163604B462362009A019BA2607B
:1055D000E36042460023D356002B3DD1164A174BB9
:1055E00000980199A261E3610E4B0D4A03F07CFB28
:1055F0000028CED0124A134B301C391C05F092F90A
:10560000061C0F1C00F014FF321C3B1C03F066FB51
:105610000028BED10C4A0D4BA261E361B9E7C04638
:105620000000000000000000000000000000F03F4B
:10563000000000000000F0FF000000E0FFFFEF4767
:10564000000000000000E03F000000E0FFFFEFC7A7
:1056500009000020CCEF0000104B0F4A0098019980
:10566000A261E3610E4A0F4B03F03EFB002890D08D
:105670000D4A0E4B301C391C05F054F9061C0F1C4A
:1056800000F0D6FE321C3B1C03F028FB002800D0A3
:105690007FE7074A074B7AE7000000000000F07F31
:1056A0000000000000000000000000000000E03FDB
:1056B000000000000000F0FFF0B55F4656464D4682
:1056C0004446F0B499464B465C00934664088FB05C
:1056D0000D1C0F1C5A46211C0090061C824602938A
:1056E0005846114337D069004908884668490495EF
:1056F00088452BDC28D066498C4227DC00D180E02D
:10570000002108910499002900DA7EE0002833D1B5
:105710005F4B9C4200D196E05E4B9C426AD002985F
:105720008023DB05984201D100F0E1FB5A4B02993E
:10573000994221D1049A002A1EDB291C009800F00E
:105740004BFD061C0D1C08E0002ED4D0534A131C40
:10575000434433430AD14F4D0026301C291C0FB05F
:105760003CBC90469946A246AB46F0BD4C4800F082
:1057700057FE061C0D1CF0E70098291C00F012FED5
:10578000534606908C46002B20D0FB0F013B049320
:10579000049E089B33436AD0424B9C4200DC8DE060
:1057A000414B9C4201DC00F035FC404B984500DC4D
:1057B00089E3029E002E00DC89E334493248021C52
:1057C0000B1C05F0AFF8061C0D1CC6E74046002870
:1057D00004D0304BBA0092089A42D6D1029C002CD9
:1057E00001DA00F0C4FB049E002E00DA73E3069E8B
:1057F0006546B2E7029C002C01DA00F076FC009EC0
:10580000ABE7002800D17BE7A0E729498C422BDCDD
:1058100026498C4200DC79E721158C4625498C45C8
:1058200001DC00F086FC244B61465B1A111CD94058
:105830000A1C9A40824200D068E701220A400223F3
:105840009B1A089362E7154A131C4344334300D163
:1058500081E7164B984500DC7FE3029C002C00DAC0
:1058600035E35E464D4678E7022108914EE7009801
:10587000009A291C2B1C05F0E5FA021C0B1C04F0F5
:10588000E7FB061C0D1C68E79C7500883CE4377E2E
:105890000000F07F0000F03F0000E03F000010C07B
:1058A00000F000000000E0410000F043FFFFEF3F88
:1058B000FFFF3F431304000033040000E24A0023CB
:1058C000904509DC0698C54BC34A614605F02AF8A5
:1058D0003523069088465B424046DC490215521843
:1058E000D21892460303DA4DDA4A1B0B1D4393424A
:1058F00001DC00F0F6FBD84A934201DC00F036FCF4
:10590000D64B01229244ED1800240021069A2B1C4C
:1059100006920793C900D24B8846434418685968D9
:105920000A900B910A9A0B9B0698079905F08AFA40
:105930000A9A0B9B061C0F1C0698079904F06CF83A
:10594000021C0B1CA648A74904F082FB0C900D9189
:105950000C9A0D9B301C391C04F0E4FF029003915B
:105960000B1C802189056D10802000220D4300034F
:10597000009201939C4A9D4B29180B19009801999C
:10598000141C1D1C04F0CEFF021C0B1C301C391C07
:1059900005F058FA0A9A0B9B061C0F1C201C291CA8
:1059A00005F050FA021C0B1C0698079905F04AFAFC
:1059B000021C0B1C0098019904F0B4FF021C0B1C84
:1059C000301C391C05F03EFA0C9A0D9B04F0AAFF1E
:1059D0000690079102980399021C0B1C04F0A2FF89
:1059E000041C0D1C221C2B1C04F09CFF804A814BC4
:1059F000061C0F1C201C291C04F094FF7E4A7F4BC0
:105A000004F00AF8221C2B1C04F08CFF7C4A7D4B0E
:105A100004F002F8221C2B1C04F084FF7A4A7B4B12
:105A200003F0FAFF221C2B1C04F07CFF784A794B10
:105A300003F0F2FF221C2B1C04F074FF764A774B14
:105A400003F0EAFF021C0B1C301C391C04F06AFF37
:105A5000029A039B041C0D1C0098019903F0DCFFC3
:105A6000069A079B04F05EFF221C2B1C03F0D4FF58
:105A7000061C0F1C00980199021C0B1C04F052FF1D
:105A8000674A684B0A900B9103F0C6FF321C3B1C1F
:105A900003F0C2FF00240D1C221C009801992B1C4E
:105AA00004F040FF221C2B1C0090019106980799DE
:105AB00004F038FF5A4A5B4B06900791201C291CC2
:105AC00005F0C0F90A9A0B9B05F0BCF9021C0B1CEF
:105AD000301C391C05F0B6F9029A039B04F022FF32
:105AE000021C0B1C0698079903F096FF061C0F1C5E
:105AF000321C3B1C0098019903F08EFF4A4A4B4B25
:105B00000024201C0D1C04F00DFF494A494B06904F
:105B10000791201C291C04F005FF009A019B0290AC
:105B20000391201C291C05F08DF9021C0B1C301C54
:105B3000391C05F087F9404A404B04F0F3FE021C83
:105B40000B1C0298039903F067FF464B43441A6805
:105B50005B6803F061FF061C50460F1C05F0D0FC8B
:105B60000D1C4149041C41440A684B68069807997A
:105B700002920393321C3B1C03F04EFF029A039BDC
:105B800003F04AFF221C2B1C03F046FF00220B1CD3
:105B900000920193101C2B1C221C05F053F9029A51
:105BA000039B05F04FF9069A079B05F04BF9021C81
:105BB0000B1C301C391C05F045F902900391089B21
:105BC000049C013B234300D0C2E11D481D490490C1
:105BD00005914BE0C046C046000000000000404375
:105BE000000000000000F03F000000000000000086
:105BF000EF4E454A287ECA3F65DBC9934A86CD3FB2
:105C000001411DA96074D13F4D268F515555D53F97
:105C1000FFAB6FDBB66DDB3F033333333333E33F2F
:105C20000000000000000840000000E009C7EE3F4F
:105C3000F5015B14E02F3EBEFD033ADC09C7EE3FE1
:105C4000000000000000F0BFFFFF0F0001FCFFFF9D
:105C50000000F03F8E98030079B60B000000F0FFC3
:105C6000F0EF0000E0EF0000D0EF00000026321C53
:105C70004B465846494605F0E5F8009A019B04F06A
:105C800051FE029A039B041C0D1C5846494604F021
:105C900049FE021C0B1C201C291C03F0BDFE009AAF
:105CA000019B02900391301C494604F03BFE00909A
:105CB0000191009A019B0298039903F0ADFECC4B31
:105CC000041C0D1C0F1C8846994200DC19E1C94ACE
:105CD0008B18034300D012E2AC4BAB4A02980399F5
:105CE00003F09AFE009A019B08900991201C291C40
:105CF00005F0A8F8021C0B1C0898099903F008F895
:105D0000A946002800D0FAE14A46BB4B8024111571
:105D10006403C918201C0841C11948009C4A9D4BC6
:105D20000B1C0903B54E090B400D0C43B4498519F2
:105D3000B44E081A04412E414046B343A146002800
:105D400000DA1EE20098019905F07CF800900191BC
:105D5000009A019B0298039903F05EFE4A461205E1
:105D600090460024201C8C4A8C4B0D1C0F1C04F008
:105D7000D9FD009A019B08900991201C291C05F06F
:105D800061F8021C0B1C0298039905F05BF8844A29
:105D9000844B04F0C7FD844A844B261C0D1C041C54
:105DA000391C301C04F0BEFD021C0B1C201C291CDD
:105DB00003F032FE041C0D1C221C2B1C08980999B0
:105DC00003F02AFE089A099B061C0F1C05F03AF8FE
:105DD000021C0B1C201C291C05F034F8321C0090FE
:105DE00001913B1C301C391C04F09CFD704A714B26
:105DF000041C0D1C04F096FD6F4A704B05F022F850
:105E0000221C2B1C04F08EFD6D4A6E4B03F004FE29
:105E1000221C2B1C04F086FD6B4A6C4B05F012F81B
:105E2000221C2B1C04F07EFD694A6A4B03F0F4FD32
:105E3000221C2B1C04F076FD021C0B1C301C391C90
:105E400005F000F8041C0D1C221C2B1C301C391CF6
:105E500004F068FD604A614B02900391201C291CEC
:105E600004F0F0FF021C0B1C0298039904F0F0F8F8
:105E7000009A019B041C0D1C301C391C04F052FDBF
:105E8000009A019B03F0C8FD021C0B1C201C291C5E
:105E900004F0D8FF321C3B1C04F0D4FF0B1C021C86
:105EA0004F48504904F0CEFF464673181C15002C8D
:105EB00000DC60E1021C0498059904F033FD061C27
:105EC0000D1CFFF74AFC029C002C00DA75E400264A
:105ED0000025FFF742FC4C48089C031C4344234325
:105EE00000D01AE106986146069A6346C3E4291C6D
:105EF0002B1C0098009A04F015FD061C0D1CFFF7E2
:105F00002CFC4B005B089946404B994500DC25E191
:105F10003F480B1823430DD1009A019B201C04F02D
:105F200091FF021C0B1C0298039902F0E7FE002867
:105F300000D1E9E62C4A2D4B0498059904F0F2FCB7
:105F4000294A2A4B04F0EEFC061C0D1CFFF705FC49
:105F50002349244A0491059288E6029E002EB6DA6F
:105F600080200006051C5E464D44FFF7F6FB069AAE
:105F700063461B481B4904F06BF806908C46FFF7FC
:105F800032FCC046C046C046FE822B654715973C92
:105F9000000000000000000000000000432EE63F6B
:105FA000EF39FAFE422EE63F396CA80C615C20BE48
:105FB000D0A4BE726937663EF16BD2C541BDBB3E0F
:105FC0002CDE25AF6A56113F93BDBE166CC1663FED
:105FD0003E5555555555C53F000000000000004096
:105FE000000000000000F03F59F3F8C21F6EA50149
:105FF000FFFF8F40000070BF02FCFFFF01FCFFFFAE
:1060000013040000FFFF0F00000010C0FFCB904002
:1060100000346F3F6C4B984500DC54E76B4B984560
:1060200001DDFFF7C6FB6146584B574A069804F05E
:1060300009FF574A574B041C0D1C04F073FC564AC9
:10604000564B061C0F1C201C291C04F06BFC221C48
:10605000009001912B1C201C291C04F063FC504A69
:10606000504B02900391201C291C04F05BFC021C85
:106070000B1C4D484D4904F0E5FE221C2B1C04F07E
:1060800051FC021C0B1C4A484A4904F0DBFE021C6E
:106090000B1C0298039904F045FC474A474B04F057
:1060A00041FC021C0B1C0098019904F0CBFE041C5F
:1060B0000D1C221C2B1C301C391C03F0ADFC0022D3
:1060C0000B1C00920193101C3B1C321C04F0BAFE06
:1060D000021C0B1C201C291C04F0B4FE029003912E
:1060E0006DE500240021FFF711FC2B1C27492648F1
:1060F000009A03F0ADFF061C0D1CFFF72EFB304A83
:10610000304B0498059904F00DFC2D4A2D4B04F0FA
:1061100009FC061C0D1CFFF720FB089E012E01D078
:10612000FFF765FB80200006051C069E6544FFF70F
:1061300014FB002801D0FFF71FFB6346C91A221C7D
:106140000A41101C8840A04201D0FFF7E5FA012364
:106150001A4002239B1A0893FFF7DEFA1C4B99455D
:1061600000DDD1E5002398469946FAE58024E40253
:106170000121FFF7CBFB4A4600F006FA021C0B1C7C
:1061800099E66442A146DDE5000000000000F03F12
:10619000000000604715F73F44DF5DF80BAE543E4A
:1061A000000000000000D03F555555555555D53FCE
:1061B000000000000000E03FFE822B654715F73F1E
:1061C0009C7500883CE4377EFEFFEF3F0000F03F07
:1061D0000000E03FC046C046F0B55F4656464D461B
:1061E0004446F0B46C4E0D1C371C83B0041C021CDA
:1061F0000B1C2F40B74200D1ADE0002900DC8BE042
:106200002F1500D194E0654D09038023090B5B0332
:106210007F190B43FE0700D570E07F10C20FB84610
:106220005B00002780219B18162442000097002065
:10623000890345189D4204DC68185B1B009D6D189E
:106240000095D50F5B00013C5B1952004908002CFA
:10625000EFD180210026090620250196B446894603
:1062600009E0834246D0D40F5B00013D1B19520068
:106270004908002D1CD066468C198342F1DD671851
:10628000E60FBC46F60782464E452CD01B1AA242AA
:1062900080414042019F1B1A121B7F18D40F5B00E4
:1062A000013D019750461B1952004908002DE2D1CB
:1062B000134328D101984308009D394E6A10921962
:1062C000ED0702D5802109060B4340460705B918A2
:1062D0001C1C0D1C201C291C03B03CBC904699467C
:1062E000A246AB46F0BDFF0FFF077E427E41B2469D
:1062F0008244CBE79442C2D9181CB4E7C20F5B00BA
:106300009B18400089E7019901312FD0019C01239E
:1063100023401B195B08CFE76B005B081A43D9D0F9
:10632000002700292BD1C10A153F40050029FAD0CA
:106330008022520311421ED1002349000133114231
:10634000FBD001242022E41AD21A3F19041CD440A5
:106350002143984057E7201C291C04F0E3FA221C33
:106360002B1C03F059FB041C0D1CB3E7009A0023FF
:1063700001320092A0E7202201240023E5E7221C3D
:106380002B1C201C291C04F05DFD021C0B1C03F0BF
:106390005FFE041C0D1C9DE70000F07F01FCFFFF69
:1063A0000000E03F4B0059087047C0464800024BD0
:1063B0004008C018C00F7047000010800B1C011C63
:1063C000021C30B519430220002900D130BD8021C4
:1063D00009068B4216D00D4904205C180C498C42EA
:1063E000F4D90C4D5C198C42F0D90B4C590049087A
:1063F0000320A142EAD9074C0020A142E6D1504235
:106400005041E3E7002AE1D0EFE7C0460000F0FF8B
:10641000FFFFDF7F0000F07FFFFF0F0000207047CD
:10642000024901487047C046000000000000F87FA4
:10643000F0B546464F46C0B4CA0F90464B004D4A91
:106440005B0D9E1883B0041C0D1C8C46071C132E7C
:106450003BDC002E5CDB484F021C37413B1C0B40F1
:106460000343994648460B1C002827D07B081A1C7A
:106470000A4022430027002A0AD0132E00D176E0DA
:10648000291C80229943D2020B1C324113439C46A3
:106490004046C1003948634641180C684D683A1CB3
:1064A000201C291C03F0B8FA009001910098019972
:1064B000221C2B1C04F0C6FC021C0B1C101C191CFB
:1064C00003B00CBC90469946F0BD332E0BDD0B1C7F
:1064D0008021021CC9008E42F0D1291C03F09CFAD5
:1064E000021C0B1CEAE7264A0126D2187642D64047
:1064F00091460B1C021C0642E0D076080642C7D02B
:106500008023B443DB0548460341271C1F43BFE7F4
:106510004E0076080643021C0B1C002ECED0090349
:10652000090B01434842014380200003090B01404D
:10653000680C40040B1C03434046C1000F4841183F
:106540000C684D68291C201C03F066FA009001912C
:10655000009801992B1C221C04F074FC0D1C414670
:10656000021CC80769004908031C0B43A6E78027E3
:106570003F0685E701FCFFFFFFFF0F0008F000006A
:10658000EDFBFFFF00000000F8B53D4E171C331C6B
:106590000B40041C0D1C0A1C1B1525D14B005B086D
:1065A00018431ED0201C291C2E4B2D4A04F0BAF98A
:1065B000344B041C0D1C9F4231DB0E4033150A1C6A
:1065C000363B3149DB198B4215DD221C2B1C26483A
:1065D000264900F061F8244A244B04F0A3F9041C76
:1065E0000D1C291C201CF8BD28498B421ED02649B1
:1065F000DB198B42E9DC002B05DD25491B050A4030
:106600001D1C1543EDE7191C353118DA214B9F424B
:10661000DBDC17481749221C2B1C00F03DF8144AFC
:10662000144B04F07FF9041C0D1CDAE7201C291C14
:10663000221C2B1C03F0F0F9041C0D1CD1E714499B
:1066400036331B050A401D1C1543201C291C0A4A11
:106650000A4B04F067F9041C0D1CC2E7C046C04693
:1066600000000000000050439C7500883CE4377E29
:1066700059F3F8C21F6EA501000000000000903C15
:106680000000F07FB03CFFFFFE070000FF070000A6
:10669000FFFF0F8050C3000030B5DA0FD2074B0068
:1066A0005B08111C194330BD08B5024801F0EEFD2E
:1066B00008BDC046EC07002008B5024801F0E6FD21
:1066C00008BDC046B0080020F7B5164F1649381C63
:1066D00001F0CCFA1549164801F0C8FA15491648D8
:1066E00001F0C4FA1549164801F0C0FA15491648D8
:1066F00001F0BCFA154D03260124281C144901F0B1
:10670000B5FA391C0096231C01940022114801F0AF
:1067100099FD0096291C01941F221E230E4801F0AA
:1067200091FDF7BD7809002000080042000C0042EE
:106730007C09002000100042800900200014004263
:1067400074090020001800428409002088090020F4
:10675000001C0042EC070020B00800203F207047DA
:1067600013B502686B46D97107335468191C0122AE
:10677000A04716BD08B50069022100F033FC08BD32
:1067800008B50069032100F043FC08BD38B50D1CB5
:10679000041C131C006903212A1C00F035FD00288D
:1067A00001D10123636038BD10B5054C23685A1C24
:1067B00004D10368DB6898472060031C181C10BDD7
:1067C0005C000020074A08B51368591C04D0012159
:1067D00049421160181C03E00069022100F006FD27
:1067E00008BDC0465C00002008B5037803490233A9
:1067F00003704222024800F0BDFD08BD18000020D1
:10680000570E002010B50178031C42780020A12902
:1068100008D1212A2FD118481849072200F0AAFDD3
:10682000012028E0212926D1202A05D11349072259
:10683000114800F033FC04E0222A10D19A780F4B63
:10684000DA710E4B96221968D200914210D1DC7990
:1068500001231C400CD1FA2001F060F90AE0232A40
:1068600009D1DA789B7812021A43054B1A6002E0CC
:1068700001F05AF9002010BD570E00200C00002036
:106880001400002070477047064BFA218900996078
:10689000054900220831196004495A6019611A76C5
:1068A0007047C0468C09002068F40000570E002095
:1068B00070B5C2B219495301CB189E68184DC02457
:1068C0002E40A40526439E60164E800109683018AC
:1068D000083258605201505C0726B043012630430D
:1068E00050549E6935402C439C610F4C5C61505C58
:1068F0007024A0431024204350549C680B488A18ED
:106900002040802464032043986098684021800BD5
:106910008003986053790B43537170BD600E002063
:10692000FFFFFF8F780C0020B40A0020FF3F00F02B
:1069300038B5041C08CC01211A78051C0A431A70CA
:106940008022201C0021520005F053FB2B689A780E
:10695000D107FCD45C6238BD134BF0B51B689903BA
:106960005A029B01C90ED20E5B0F1F2900D10521CF
:106970001F2A00D11D22072B00D1032304688E019A
:10698000278D0A491F2539403143218501682A4056
:106990000C8DAC4322430A8502681903108D044B09
:1069A00003400B431385F0BD246080003FF8FFFFD8
:1069B000FF8FFFFFEFF3108303600123436072B684
:1069C00070470368002B02D162B6BFF36F8F704728
:1069D00037B50569041C6846002D12D1FFF7EAFFA0
:1069E000019B013B03D3621DD57FEDB2F9E76846F9
:1069F0000193FFF7E6FF0020854217D0206AE36984
:106A000013E0FFF7D7FF019B0025013B04D3221CB5
:106A100034321578EDB2F8E768460193FFF7D1FFFD
:106A20000020854202D0206BE36AC01A3EBD000000
:106A3000436810B51A68037A01215B01D318FF334C
:106A40009A7A0A439A72037A42685B01D318C26841
:106A50009C6891040B4A090922400A439A60037A10
:106A600042685B01D3189A684021920B92039A60A6
:106A700043681A68037A08335B01D3181A790A430A
:106A80001A7110BDFF3F00F0F7B50569041C0E1C1C
:106A9000171C6846002D1FD1FFF78CFF019B013B9F
:106AA0005A1C06D0621DD17F5A1E00293AD0131CF1
:106AB000F6E768460193FFF784FF0025E369BD42CE
:106AC00035D0226A934232D25A1CE261A269D318AD
:106AD0001B7873550135F1E7FFF76CFF019B013B14
:106AE0005A1C08D0221C343215785A1EEDB2002DE3
:106AF00018D0131CF4E768460193FFF762FF0025E6
:106B0000E36ABD4226D0226B934241D322E0621D4C
:106B10000021D17730321678581E8E4214D1031CD2
:106B20005A1CF4D168460193FFF74BFF38E0226A04
:106B3000934235D10023E361012323616846FFF7C7
:106B400039FF019B013BEBE71170201C0193FFF71C
:106B50006FFFF6E7226B934222D10023E3622361A9
:106B60006846FFF727FF019B013B5A1CDAD0221C25
:106B700034320021117001321678581E8E4201D134
:106B8000031CF2E71170201C0193FFF751FFEAE7A5
:106B90005A1CE262A26AD3181B7873550135AFE71D
:106BA000281CFEBD37B54368027A1B6808325201C3
:106BB0009A18041CD0790123FF21184253D0D371B5
:106BC000A068656962680140002D20D14901521812
:106BD000916863618904890C2162A16A68465160E9
:106BE000621DD377FFF7E6FE019B013B5A1C33D0B1
:106BF000221C34321178581EC9B20132002903D048
:106C000001930123137023E01170031CEEE74B0185
:106C1000D3189A68A5699204920C226300226261DB
:106C200068465D60FFF7C6FE019B013B01E0117005
:106C30002B1C591C10D0221C343201201070621DF4
:106C4000D17F5D1EC9B230320029F0D0019310709F
:106C50006846FFF7B6FE06E068460193FFF7B1FE0F
:106C6000201CFFF7E5FE37BD37B500236C46E37106
:106C70000734201C0D1CFFF7B7FD2B68181828607F
:106C800001F046FF211C01F0FDFE2B68181828605A
:106C900020783EBD03290BD10D4BB2221B68520058
:106CA000985C8021494201439954022168220CE0FA
:106CB00001290CD1064B92221B685200985C80215E
:106CC00049420143995402212822FF3299547047C6
:106CD000600E002038B5304B00240121051C1A201D
:106CE0001C7001F0E3FD1A20012101F039FE2B4B4D
:106CF000192001211C7001F0D9FD1920012101F09A
:106D00002FFE274B2021DA6901200A43DA61254B47
:106D100006241A7802431A70234B0F2219789143E4
:106D2000197019782143197020490C782043087094
:106D300019780A401A701A7860210A431A701C4B9D
:106D40001C4A5A805A78D209FCD11B4801F064FBD6
:106D50001A4C201CFFF7ECFD201CFFF7FDFD2368FB
:106D60007F2219780A401A701A7804210A431A708F
:106D70001A890C218A431A81C121114A890050586D
:106D80000002000A5050802111601A7802210A4343
:106D90001A7001232B7038BD740C00205C0E00208B
:106DA00000040040584400413C4400415944004123
:106DB000000C00400640000001780000600E00203A
:106DC00000E100E00078002810D0094B01211B6889
:106DD0001A898A431A811A8B08210A431A831A8B4B
:106DE00004210A431A83034B00221A607047C046ED
:106DF000600E0020640F00200F4B9A69920B9203E3
:106E00009A611B680222FF331A72987980225242DB
:106E100002439A711A7A9007FCD5084B081C997A9C
:106E20007F221040914301439972997A8022524205
:106E30000A439A727047C046600E0020005000411D
:106E40000078002805D0034B01211B681A890A43EA
:106E50001A817047600E002010B50B790C1C002BB6
:106E60000BD1081CFFF7CEFC002804D1094B9A690E
:106E7000920B92039A6101200BE001F049FE211C64
:106E800001F034FE0028F6D1024B9A69920B92036E
:106E90009A6110BD600E0020F8B50D1C832A16D132
:106EA000CAB242495301CB189C694148AD01204008
:106EB000C024A405204398613E48083245195D610D
:106EC0000B685201D15C70208143402065E0022AAA
:106ED00045D1382001F0EAFA374B344F8026036061
:106EE00076000023421D036203614361C361476072
:106EF0008560C660D3772F32041CC36203631370AE
:106F0000301C537005F03AF8A061301C05F036F8DB
:106F1000FF232A1C1A405201A062BF18B968244AF4
:106F200007260A40C02189050A43BA60A168626841
:106F30001940126808314901885CAD00B04303264E
:106F400030438854A16862680B405B01A169D31883
:106F50005960201CFFF76CFD184BEC5025E0822A8D
:106F60001ED1CAB211495301CB189C691048AD011A
:106F70002040C024A405204398610E4808324519DA
:106F80005D610B68520199180C79802040422043C2
:106F90000871D15C7020814330200143D15404E05A
:106FA000002A02D1081CFFF783FCF8BD600E002008
:106FB000FFFFFF8FB40A002098F40000380E002075
:106FC00038B5051C0124064BA200D258002A06D071
:106FD000211C281C0134FFF75FFFE4B2F3E738BD42
:106FE0006000002008B5084B8A00D058002803D064
:106FF00003689B68984706E0C9B2044B49015918D9
:1070000088688004800C08BD380E0020600E0020C7
:1070100010B50C1CFFF7E6FF00280CD0064BE1B2C0
:107020001B680831490159184A7980235B42134390
:107030004B710223CB7110BD600E002070B5CAB237
:10704000134B1448540189015918031959609D685C
:107050001149083229408025AD0229439960996879
:107060004026890B890399600368510159180D79ED
:1070700035430D715101591889794D06FAD55101E1
:107080005918C979CD07FAD50419A068C0B270BDE6
:10709000780C0020600E0020FF3F00F038B50C4B4C
:1070A000141C1B680D1CFF335A7940210A435A7186
:1070B0000021FFF7C3FFA04200D9201C0023A342F8
:1070C00004D0044A9A5CEA540133F8E738BDC0465C
:1070D000600E0020780C002010B5C9B20C484901A0
:1070E00043189A689204920C3F2A08D9141C9A6893
:1070F000403CA404920BA40C9203224302E09A6841
:10710000920B92039A6041188868C0B210BDC046C5
:10711000600E0020F0B51C1C2F4B85B01B68061CB0
:107120000D1C0292002B51D02C4F3978C9B2002986
:1071300002D1192001F014FC64233B70284BAA00F3
:10714000D058002805D0036802995B68221C984734
:1071500040E0301C291CFFF745FFA04204D2301C40
:10716000291CFFF73FFF041C291C301CFFF7B4FF4C
:107170001C4FE9B24A010191396803928B18FF3321
:107180005A7A01210A4318495A72AB01C918029868
:10719000221C04F00CFF002C1BD0301C291CFFF714
:1071A00021FF002815D1019B3A6808335B01D318F1
:1071B00019794020014319710121D971039953189C
:1071C000FF339A7A01210A439A7202E00120404279
:1071D00000E0201C05B0F0BD640F00205C0E002014
:1071E000380E0020600E0020780C002013B56C468D
:1071F0000734221C0123FFF78DFF012801D12078DD
:1072000001E00120404216BDF0B51C1C3F4B85B08B
:107210001B680E1C0292002B6AD08023DB019C426B
:1072200066D83B4D2978C9B2002902D11A2001F055
:1072300097FB642300222B700092002C56D0354D12
:10724000F7B22B6801933B1C0833019A5B01D318FA
:107250009B79DB091AD0304B3049186801F07EFC6D
:107260002F4B1721584301F079FC3B1C0833019A3E
:107270005B01D318DB799A0708D42A4B9A5D002A60
:1072800038D1421E002835D0101CEEE7254B0022D5
:107290009A55251E3F2D00D93F25234AB301D31807
:1072A000181C02992A1C039304F081FE194A7B01E1
:1072B000D318039AA9045A619A69890C920B920314
:1072C0000A439A613B1C019A08335B01D3180222DE
:1072D000DA715979802252420A435A71009B029A0C
:1072E0005B1952190093641B0292A6E700980BE009
:1072F000012008E001229A557B01ED18AB69101CB2
:107300009B0B9B03AB61404205B0F0BD640F0020B6
:10731000740C0020600E00208C00002040420F0002
:1073200070110100AC0A0020B40A002070B50E4DA7
:107330001C1C8B01ED18281C0E1C111C221C04F0B7
:1073400036FEF6B20949760189194D618A69084B02
:10735000201C13408B618B69A2049B0B920C9B0336
:1073600013438B6170BDC046B40A0020600E00203C
:10737000FF3F00F0F7B5114B01901B780F1C141C58
:10738000002B19D10E4B1E78002E01D1151C08E0E0
:107390000C4D0D482E888019361904F008FE2E80F9
:1073A0000AE0002D08D0BA192B1C01980021FFF724
:1073B000BDFF36182D1AF4E7201CFEBD560E002026
:1073C000540E0020AA0A0020A9090020F8B50E1CBE
:1073D00000AF151E012D28D9D31DDB08DB006A463E
:1073E000D21A9546081C04F0FCFE01306C464000A1
:1073F0000323207063700222AA420ED23378002B3E
:107400000BD0511CC9B20136A354A94204D00023A9
:1074100002326354D2B2EFE72A1C0548211CFFF761
:10742000A9FF431E9841C0B200E00020BD46F8BD50
:10743000570E002008B5044B00221A70034B044974
:107440001A88FFF797FF08BD540E0020AA0A0020F3
:10745000A9090020F0B5204A87B001230026009139
:1074600002A91370051C0296FFF7FEFB03AC092767
:1074700001903A1C201C311C04F0BBFD02236370F8
:10748000A023E371FA232372029B0122DB1963809C
:10749000019B62712371104A009B27701670BB42DA
:1074A00005D1281C211C1A1CFFF764FF11E00B4BAF
:1074B00001221A700A4B211C3A1C281C1E800296BD
:1074C000FFF758FF281C02A9FFF7CEFB281CFFF787
:1074D000B1FF012007B0F0BD560E0020540E002071
:1074E000AA0A002070B5CE788AB0051C0C1C022EAA
:1074F00008D1C9882348FFF7ADFF031C581E8341FC
:10750000D8B23DE001F004FB211C01F0D0FA0028C4
:1075100003D0C3171B1AD80F32E0012E04D1E28822
:107520001949112A27D823E0032E29D1A278002A4D
:1075300005D11649E2880B78934219D81BE0022A3C
:1075400003D1A279281C124904E0012A05D1A279AD
:107550001049281CFFF73AFF12E0032A10D101F06E
:10756000D7FA01A901F0B3FAA279281C01A9F1E721
:10757000D2B2002A00D10A78281CFFF7FBFE0120B6
:107580000AB070BD570E0020B6F40000B2F400003F
:10759000C8F40000A8F4000073B5051C48780C1C62
:1075A0000B2878D801F0C6FA081C7728773E4306E6
:1075B000474B686F00206FE0097801AA002903D1CA
:1075C00011705170281C09E0002313705370334B65
:1075D0001B78012B00D11370281C002102234FE0DF
:1075E0008A780023012A04D101AA137053702C4B0E
:1075F000EEE72A4A137049E08E78012E07D1284B16
:1076000001AA00211E701170281C331C38E0002EC6
:1076100008D1224A01231370224A9169890B8903F8
:10762000916138E0A178281CFFF7E6FB33E0281CC5
:10763000FFF758FF30E0281C00211B4A1FE00A78A2
:107640000020D30628D1281CFFF7BAFCA2781549E0
:10765000154B02241A600A682A23FF33D05C2043AA
:10766000D0544A20FF30145C01231C4314548A690F
:10767000920B92038A610EE00C4A281C0021012320
:10768000FFF754FE07E08A78084B1A60054B9A69A9
:10769000920B92039A61012076BDC046A809002092
:1076A000550E0020600E0020640F0020580E0020B0
:1076B000F8B54B4B071C1C78002C00D08EE0494DD0
:1076C0002868838B19070DD5201CFFF7F1F82B686C
:1076D00010201A1CFF32917A01439172424A1460C1
:1076E00008229A832B689A8B50071FD504229A830D
:1076F0003E4B1A78002A0AD01A78013AD2B21A7090
:107700001B78002B03D11A20012101F029F9384BF5
:107710001A78002A0AD01A78013AD2B21A701B7865
:10772000002B03D11920012101F01AF92B68FF3336
:107730001A7AD10626D510221A725A7940210A43A4
:107740002C495A710A786023381C1A4202D1FFF77B
:1077500023FF01E0FFF780FB002806D02B68802282
:10776000FF33997952420A4301E0234B20229A7158
:107770002B68FF331A7A500604D540221A72597AC0
:107780000A435A722968FE230E8C00241E40E1B27F
:10779000002E23D0321C012322411A4216D0221C73
:1077A0002868083252018218D079184203D1D27960
:1077B000DA401A4207D0114BA200D058002809D055
:1077C00003681B6898470123A3409E430134092C9A
:1077D000DDD103E0381CFFF75DFAF4E7F8BDC046E1
:1077E000540E0020600E0020640F0020740C002056
:1077F0005C0E0020780C0020FF500041380E002065
:1078000008B50248FFF754FF08BDC046570E0020D8
:10781000014A024B1A60704700500041600E002080
:10782000F7B58A18061C0D1C01920C1C019B671BE6
:107830009C4207D0336821781B68301C984701347C
:107840000028F3D1381CFEBD08B50368C9B21B6817
:10785000984708BD38B5051C0C1C081E07D004F05D
:10786000C0FC2B68021C5B68281C211C984738BD93
:1078700008B5FFF7EFFF08BD08B503681B68984718
:1078800008BD000008B50249FFF7E4FF08BDC04687
:1078900080EB000038B5041CFFF7DCFF051C201C42
:1078A000FFF7F0FF281838BDF0B58DB0161C0BABF4
:1078B000002201900C1C1A70012E00D80A266D4679
:1078C0002B35201C311C01F08DF9201CCFB2311C4E
:1078D00001F044F9291C041C092F01D8303700E0BD
:1078E0003737FFB22F70013D002CEAD10198FFF726
:1078F000B1FF0DB0F0BDF8B5041C0D1C161E04D16F
:107900000368C9B21B68984712E00A2A0DD1002902
:107910000ADA2D21FFF7B0FF6942071C321C201C38
:10792000FFF7C2FFC01903E000E0D2B2FFF7BCFFCF
:10793000F8BD38B5041CFFF7DEFF051C201CFFF75F
:10794000A1FF281838BD08B5002A02D1FFF77CFF37
:1079500002E0D2B2FFF7A8FF08BD08B5FFF7F3FFBA
:1079600008BD38B5041CFFF7EEFF051C201CFFF70F
:1079700089FF281838BD38B5041CFFF7E4FF051C43
:10798000201CFFF77FFF401938BD000000000000F9
:10799000F7B51C1C08AB1B78071C211C101C151C00
:1079A0000093FEF70BFD002802D1381C504907E078
:1079B000281C211CFEF702FD012804D14D49381C6A
:1079C000FFF748FF7CE0281C211C404B3E4A01F099
:1079D0009FF9002802D0381C4749F1E7281C211CD8
:1079E0003B4A3C4B01F080F90028F4D1281C211CB3
:1079F000394A3A4B01F078F9002808D02D21381C7B
:107A0000FFF73AFF802109060190641800E0019019
:107A10000026334A334B00998E420AD0101C191CA1
:107A2000314A324B02F014FB0136021C0B1CF6B239
:107A3000F1E7281C211C01F0EFFF0D1C041C01F0D4
:107A400013FA061C03F09AFD0B1C021C291C201CB7
:107A500003F0F8F90A22041C0D1C381C311CFFF736
:107A600023FF019B0099C618002904D0381C234924
:107A7000FFF7F0FE3618009B002B20D01A4A1B4B54
:107A8000201C291C02F04EFF0D1C041C01F0ECF917
:107A900001900A220199381CFFF706FF3618019859
:107AA00003F06CFD0B1C021C291C201C03F0CAF9FE
:107AB000009B041C013BDBB20D1C0093DBE7301C78
:107AC000FEBDC046C046C046000000E0FFFFEF41DB
:107AD000000000E0FFFFEFC1000000000000000018
