:1020000000800020C94C0000B14C0000B14C000021
:1020100000000000000000000000000000000000C0
:10202000000000000000000000000000B14C0000B3
:102030000000000000000000B14C00001D4D000039
:10204000B14C0000B14C0000B14C0000D92500009B
:10205000B14C0000B14C0000B14C0000B54C000088
:10206000B14C000069340000B14C0000B14C0000DC
:10207000A9250000B14C000079340000B14C0000EB
:10208000B14C0000B14C0000B14C0000B14C00005C
:1020900000000000B14C0000B14C0000B14C000049
:1020A000B14C0000B14C0000B14C0000B14C00003C
:1020B0000000000010B5064C2378002B07D1054B1B
:1020C000002B02D0044800E000BF0123237010BDA4
:1020D00020010020000000002870000008B5084B17
:1020E000002B03D00748084900E000BF07480368F9
:1020F000002B03D0064B002B00D0984708BDC046EC
:1021000000000000287000002401002018010020B9
:102110000000000008B50248024902F097FA08BD25
:10212000B4070020A45F0000F8B5434B434D197875
:10213000434A281C00F05AFD424E307000F0E4FB88
:10214000414C3378201C002B1DD1404902F07EFA0F
:102150003F4BEB5C002B19D03E49201C02F076FA75
:102160003D49201C02F066FAEF239B00E95C0A223D
:10217000201C02F0A6FA3949201C02F05BFA384A0A
:10218000201CA91800E0374902F060FA012108205C
:1021900002F0CEFF9620400002F0D4FD002108207E
:1021A00002F0C6FF234B224A281C00F037FE307095
:1021B00000F0AAFB2C4F2D49381C02F03BFA2C4BA7
:1021C0000A221968381C0131196002F084FA294C7E
:1021D000201C00F031FA3C211E3003F041F9201C94
:1021E000C9B200F0C9FA201C012100F003FA201C3A
:1021F000214900F011FA0021082002F099FF201C6B
:1022000000F010FAFA20400002F09CFD1B49381C37
:1022100002F01CFA281C00F03BFE307000F074FB4A
:10222000281C00F0B5FB307000F06EFBF8BDC04616
:10223000E09304000000000008000020C402002019
:10224000000000203D01002054090020AB5F000089
:1022500022040000C45F0000D25F0000E25F0000C3
:10226000BD030000F25F0000B40700200E60000014
:10227000400100203C010020152100001C600000EE
:1022800008B5024800F0A4F908BDC0463C01002092
:10229000F8B50024201C0221013402F0EFFE172CB7
:1022A000F8D12024201C0221013402F0E7FE2A2C60
:1022B000F8D11920022102F0E1FE1A20022102F0D9
:1022C000DDFE0820012102F0D9FE0820002102F0E5
:1022D0002FFF0920002102F0D1FE0F20012102F082
:1022E000CDFE0F20002102F023FF1320002102F079
:1022F000C5FE364E9621301C890102F001FC0221F8
:10230000062002F045FF0221072002F041FF0121D3
:10231000082002F00DFF2E4802F014FD08200021D5
:1023200002F006FF2B4C0021201C00F085FA002251
:10233000201C131C0A2100F0C1F90222201C1421C8
:10234000112300F007FA244B244D1978281C00F0C3
:1023500077FB234C23492070301C02F06BF9207866
:1023600000F0D2FA0521281C00F084FB207000F058
:10237000CBFA1D4F301C391C02F05CF91B4B0A22B2
:10238000E95C301C02F09DF90021281C00F006FDDC
:10239000207000F0B9FA391C301C02F04BF9134BD5
:1023A0000A22E95C301C02F08CF9281C00F0B4FB16
:1023B000207000F0A9FA23780D48002B01D10D49B7
:1023C00000E00D4902F042F9F8BDC046B407002014
:1023D000102700003C01002007000020C40200205C
:1023E0003D01002027600000366000004A03000025
:1023F000540900204A6000005A600000F8B5051C2E
:102400000F1C161C0024B44208D02B68395D1B68D1
:10241000281C9847002801D00134F4E7201CF8BD9F
:10242000704708B5183002F0CFF908BD08B518306C
:1024300002F0DEF908BD38B5837D0D1C002B06D0F7
:10244000041CC434201C02F0E9F9002801D000204B
:1024500004E0201C291C02F09EF9012038BD08B5BB
:10246000183002F0CEF908BDF7B50193FA239B00AE
:1024700083600B4B00250833041C45600360183053
:102480000F1C161C02F07AF9201CC43002F076F9F9
:10249000019B27612675A575201C6375FEBDC0468E
:1024A0007060000038B5041C006902F06CFA002866
:1024B00079D0206902F075FA00280ED1206902F067
:1024C0007AFA00281FD0206902F070FA00281AD08A
:1024D000206902F075FA002815D1206902F026FA69
:1024E0002069032102F02CFA231CFC33DD6F002D40
:1024F00004D02368201C9B689847A847201C1830EC
:1025000002F05BF94FE0206902F055FA031C2069E4
:10251000002B16D002F00AFA2069032102F010FA0B
:10252000206902F04DFA00283DD0201CC43002F092
:1025300044F90123A375FC34A36F002B33D09847D3
:1025400031E002F029FA00282DD0206902F038FA93
:10255000251C00280FD0C435281C02F049F9FF21A2
:10256000002803D0281C02F02FF9C1B2206902F024
:10257000FDF9A07517E01835281C02F04FF9031C6F
:102580002069002B02D002F0C9F908E002F01DFA20
:10259000011C281C02F0FFF8206902F0C7F920692D
:1025A000032102F0CDF938BD08B50248FFF77AFFE4
:1025B00008BDC0464401002008B503480349142261
:1025C0001523FFF751FF08BD440100203C090020FE
:1025D000002303707047000008B5044B1B68002BF4
:1025E00000D09847024B01221A7208BDC002002099
:1025F000001400400378002B0AD0064B081C197FFA
:10260000072210409143014319779A7AD209FCD1ED
:102610007047C04600140040014B19607047C04627
:10262000C0020020034B04211A690A431A6130BF1B
:102630007047C04600ED00E0024B98693F23184008
:102640007047C046001400400378002B0AD0064BA8
:10265000081C19693F2210409143014319619A7A7D
:10266000D209FCD17047C046001400400378002B0B
:102670000BD0064B3F2211408A01186904490140E2
:10268000114319619A7AD209FCD1704700140040B5
:102690003FF0FFFF0378002B0BD0064B1F221140A9
:1026A0000A03186904490140114319619A7AD20951
:1026B000FCD1704700140040FF0FFEFF70B5161CE0
:1026C0000278041C0D1C002A0AD0191CFFF7BCFF5D
:1026D000201C311CFFF7CAFF201C291CFFF7DAFF62
:1026E00070BD00000378002B0BD0064B1F22114059
:1026F0004A04186904490140114319619A7AD209C0
:10270000FCD1704700140040FFFFC1FF0378002B8D
:102710000BD0064B0F2211408A051869044901406D
:10272000114319619A7AD209FCD170470014004014
:10273000FFFF3FFC0378002B09D0054B8A0619697F
:1027400089018909114319619A7AD209FCD170472C
:102750000014004070B51D1C0378041C161C002BCF
:1027600009D0FFF7BFFF201C311CFFF7CFFF201C53
:10277000291CFFF7DFFF70BD0378002B0AD0064B42
:10278000081C99693F2210409143014399619A7A4C
:10279000D209FCD17047C046001400400A4B0B4AD6
:1027A0009A605A7852B2002AFBDB0949064A516006
:1027B0005A7852B2002AFBDB0649034A51805A7804
:1027C000D209FCD17047C046000C00400204000052
:1027D0000205110004420000044B02211A888A43BA
:1027E0001A809A7AD209FCD17047C0460014004082
:1027F000044B02211A880A431A809A7AD209FCD122
:102800007047C04600140040044B01211A880A4357
:102810001A809A7AD209FCD17047C0460014004051
:10282000044B01211A888A431A809A7AD209FCD172
:102830007047C04600140040F7B52B4B0F1C9A6937
:1028400020210A439A61294A294B0026051C9A82B5
:10285000284CB7420AD1284B1A7870231A4240D02C
:1028600023881A073DD5226901260192281CFFF70B
:1028700095FF281CFFF7B0FF281CFFF7C5FF6288F3
:102880001E4B134063801E4B2380A27A194BD20942
:10289000FBD11C4A08211160C02189005058000258
:1028A000000A5050DA7901210A43DA711A7F0721B0
:1028B0008A431A77A37ADB09FCD1281CFFF798FF1B
:1028C000281CFFF7ADFF002F02D001232B70F7BDAE
:1028D000002EFAD0074B019A1A61A37ADB09FCD1CA
:1028E000F3E73E1CC2E7C04600040040CE060000ED
:1028F000000800400014004038040040FFBFFFFF04
:10290000080A000000E100E000B589B000236A4633
:102910001370082822D802F0F5FC05080B0E1114DC
:10292000171A1D006846104916E068460F4913E063
:1029300068460F4910E068460E490DE068460E49AA
:102940000AE068460D4907E068460D4904E068461C
:102950000C4901E00C49684602F0B4FE69460B4898
:1029600001F068FE09B000BDA2640000B66400007A
:10297000CD640000E1640000F66400000D65000015
:10298000256500003A65000050650000B40700208E
:10299000F0B5051CA4358FB0041C0021FA22281CB8
:1029A00002F0B8FD00210F2202A802F0B3FD0AAE2A
:1029B00000210F2206A802F0ADFD0F220021301CDD
:1029C00002F0A8FD1A4B281CFE33598A02F058FE6B
:1029D000184F02A8B98A02F053FE3B1C50331988E5
:1029E00006A8543702F04CFE3988301C02F048FE2D
:1029F000FA239B0001930096201C291C02AA06AB17
:102A000000F00EFD012804D10B4BE0540B4BE054B9
:102A100006E0022806D1084B0122E054074BE2549D
:102A2000002003E00338431E984101300FB0F0BD91
:102A300058680000406600002A0400002B040000D3
:102A4000E1231B0210B54360012301700374041CD1
:102A5000C82002F077F9201C00F08EFA9620400082
:102A600002F070F9201CFFF793FF201CFFF790FF86
:102A700010BD0000F0B5061CA4368BB0041CFA2271
:102A80000D1C301C002102F045FD00210F2202A880
:102A900002F040FD06A800210F2202F03BFD1A4B78
:102AA000E35C012B02D0022B04D029E007208542F1
:102AB00027D802E00720042D23D8144B2A1C4833C2
:102AC0001988301C02F0DCFD114F02A8398802F091
:102AD000D7FDB98806A802F0D3FD64230093201C1B
:102AE000311C02AA06AB00F091FC012803D1094B6E
:102AF0000020E55405E00238431E9841013000E013
:102B000008200BB0F0BDC0462A0400005868000041
:102B1000406600004A030000F0B5061CA4368FB0E2
:102B2000051C0021FA22301C02F0F4FC00210F22C7
:102B300002A802F0EFFC0AAF00210F2206A802F063
:102B4000E9FC0F220021381C02F0E4FC244B301C6D
:102B5000FE33598E02F094FD224C02A8218802F027
:102B60008FFDA18806A802F08BFDA31DD98F381C0C
:102B700002F086FDFA235B0001930097281C311CAC
:102B800002AA06AB00F04CFC01281DD10F22002147
:102B900002A802F0BFFC218B02A802F071FD4C34A8
:102BA0000F22002106A802F0B5FC218806A802F039
:102BB00067FD0D4B281C02A906AA00F0D7FA0138C0
:102BC000431E9841C0B208E0022805D00338431ED6
:102BD00098410323181A00E001200FB0F0BDC04651
:102BE0005868000040660000204E0000F0B5644BBD
:102BF000071C99B00025A437C5540391041C291C57
:102C0000161C381CFA2202F085FC291C142204A888
:102C100002F080FC291C142209A802F07BFC0EA8FB
:102C2000291C142202F076FC039B0720DF2B00D91D
:102C3000A4E0301C02F04EFD85420BD2735D1A1CDD
:102C4000303A092A03D9413B052B00D991E00135DF
:102C5000EDB2F1E74B4B039A998A381C331C02F012
:102C60000FFD494D04A8298802F00AFDA98809A88A
:102C700002F006FD2B1C48330EAE1988301C02F002
:102C8000FFFCFA239B0001930096201C391C04AA28
:102C900009AB00F0C5FB012865D10021142204A86E
:102CA00002F038FC0021142209A802F033FC13AF13
:102CB00000211422301C02F02DFC14220021381CAB
:102CC00002F028FCA98904A802F0DAFC298C09A8E2
:102CD00002F0F8FC0235698F301C02F0F3FCE98F3A
:102CE000381C02F0EFFC294B00970193201C04A92B
:102CF00009AA331C00F086F9051E012D2AD1FA22FB
:102D0000201C2349520000F029FA231CA2331B88FF
:102D1000002B1DD01F4E201C311C113002F0F6FC80
:102D200002F0AAFBEF239B00E054311C002002F0CC
:102D3000EDFC194B071CE61800216522301C02F03F
:102D4000E9FB301C391C642202F0CBFC0C4BE5542F
:102D5000002013E00228FBD00520032D0ED0042D07
:102D600009D002200AE0022807D00328F9D1062062
:102D700004E0072002E0281C00E0012019B0F0BDAB
:102D800022040000586800004066000020BF0200D6
:102D90007565000074650000BD030000F0B5051CFA
:102DA000A4358BB0041C0E1CFA220021281C02F052
:102DB000B1FB00210F2202A802F0ACFB00210F2280
:102DC00006A802F0A7FB124B321CFE33D98A281C3E
:102DD00002F056FC0F4F02A8398802F051FCB98866
:102DE00006A802F04DFC64230093201C291C02AAB3
:102DF00006AB00F00BFB012803D1074B0020E65483
:102E000003E00238431E984101300BB0F0BDC046CC
:102E1000586800004066000042020000F0B5061C41
:102E2000A4368BB0071C141C301C0021FA221D1C78
:102E300002F070FB02A800210F2202F06BFB06A833
:102E400000210F2202F066FB0F4AA2235B00D15A39
:102E5000301C221C2B1C02F013FC0C4C02A82188F5
:102E600002F00EFCA18806A802F00AFC642300937D
:102E7000381C06AB311C02AA00F0C8FA02384342E3
:102E80005841C0B20BB0F0BD586800004066000069
:102E900030B5051CA43585B0041C0021281CFA227D
:102EA00002F038FB684600210F2202F033FB0023BA
:102EB0002B70231C5522A5331A700A4B68461988BB
:102EC00002F0DEFB201C291C022200F0B4FA201CB8
:102ED0006946642200F042F90138431E98414000DF
:102EE00005B030BD40660000074BE12212025A6077
:102EF000064A07499A606422DA6001221A740022A5
:102F00005A5404495A547047C402002088130000E0
:102F10002B0400002A040000F7B5181C0191161CB0
:102F20001F1C02F0D7FB051C0020041CAE4210D36E
:102F3000731B9C420AD8019B391C18192A1C02F0E9
:102F4000D1FA002804D00134A4B2F1E7002000E057
:102F50000120FEBD08B5031C002904D10448191C3A
:102F600000F07AFB03E00348191C01F0C9FD08BD1D
:102F700054090020F006002008B5031C19784068A9
:102F8000FFF7E8FF08BD000008B5031C002904D1C5
:102F9000191C044800F0CEFA03E00348191C01F0A4
:102FA000D5FD08BD54090020F006002038B5041CEA
:102FB0000D1C2078002804D0291C0134FFF7E4FF01
:102FC000F7E738BD08B5002803D1044800F0BCFA83
:102FD00002E0034801F0ABFD08BDC04654090020E3
:102FE000F006002008B5002803D1044800F0D4FA08
:102FF00002E0034801F0A5FD08BDC04654090020C9
:10300000F0060020F0B5051C85B01135041C0391B5
:10301000019200219022281C029302F07BFA231CCB
:10302000A23300261E8001F087FE371C009001F0BD
:1030300083FE009BC01A0B9B984200D382E020784D
:10304000FFF7C0FF00280ED08E2F0CD82078FFF796
:10305000C9FFE3195874231CA2331A887E1CB6B228
:1030600001321A80371C231CA2331E88201C291C05
:10307000321C039BFFF750FF00280ED0334C34491D
:10308000201C01F0D3FA3349201C01F0CFFA32485A
:10309000039901F0DBFA012055E0019B002B15D0CC
:1030A000201C291C321CFFF737FF00280ED0274CAC
:1030B0002749201C01F0BAFA2649201C01F0B6FA73
:1030C0002548019901F0C2FA02203CE0029B002B46
:1030D00015D0201C291C321CFFF71EFF00280ED023
:1030E0001A4C1B49201C01F0A1FA1A49201C01F0BE
:1030F0009DFA1948029901F0A9FA032023E00A9BDE
:10310000002B15D0201C291C321CFFF705FF0028BE
:103110000ED00E4C0E49201C01F088FA0D49201CDF
:1031200001F084FA0C480A9901F090FA04200AE0B0
:1031300001F002FE009B984200D378E701F0FCFD0D
:10314000009074E7002005B0F0BDC046B407002031
:10315000AD690000B56900005409002007B50023DF
:10316000019200931A1CFFF74DFF0EBD13B51C1CF6
:10317000002300930194FFF745FF16BD70B50028AA
:1031800003D10E4800F0E6F916E001F0D5FD051C6C
:103190000B4C201C01F0CBFC261C002804D001F0B5
:1031A000CBFD401B632803D9301C01F0BBFC03E0BE
:1031B000201C01F0C6FCEBE770BDC046540900209E
:1031C000F0060020F0B5874D874E85B00F1C041C1B
:1031D000311C281C0193029201F028FA8349281C13
:1031E00001F024FA391C281C01F030FA311C281C8B
:1031F00001F01CFA7E49281C01F018FA281C0299DB
:1032000001F024FA019B002B0BD0311C281C01F08B
:103210000DFA7849281C01F009FA281C019901F0DF
:1032200015FA0A9B002B0CD06E4D6F49281C01F03B
:10323000FDF97149281C01F0F9F9281C0A9901F0DF
:1032400005FA0B9B002B0CD0664D6749281C01F03A
:10325000EDF96A49281C01F0E9F9281C0B9901F0E5
:10326000F5F9237C002B02D02078FFF787FF217827
:10327000381C251CFFF79AFE1135E06801F062FD4D
:1032800000219022281C02F045F9231C0026A233BD
:103290001E8001F051FD371C009001F04DFD009B98
:1032A000C01A0C9B984200D383E02078FFF78AFE77
:1032B00000280FD08E2F0DD87B1C9BB22078039353
:1032C000FFF790FEE619231C7074A2331A88039F3F
:1032D00001321A80231CA2331E88201C291C321C98
:1032E000029BFFF719FE00280ED03E4C3E49201CE1
:1032F00001F09CF94249201C01F098F9201C029928
:1033000001F0A4F901206BE0019B002B15D0201CDB
:10331000291C321CFFF700FE00280ED0314C324928
:10332000201C01F083F93649201C01F07FF9201C94
:10333000019901F08BF9022052E00A9B002B15D075
:10334000201C291C321CFFF7E7FD00280ED0254C5D
:103350002549201C01F06AF92949201C01F066F971
:10336000201C0A9901F072F9032039E00B9B002B15
:1033700015D0201C291C321CFFF7CEFD00280ED0D2
:10338000184C1949201C01F051F91D49201C01F06D
:103390004DF9201C0B9901F059F9042020E001F0AF
:1033A000CBFC009B984200D377E701F0C5FC00906E
:1033B00073E70C4C0C4E201C311C01F037F91149FD
:1033C000201C01F033F9311C201C01F02FF90E49AB
:1033D000201C01F02BF9201C291C01F037F90020DA
:1033E00005B0F0BDB4070020AD690000BC69000065
:1033F000C1690000C7690000CD690000D369000001
:10340000B5690000D9690000E46900001FB5002417
:1034100000940194069C0294FFF7D4FE04B010BD02
:103420001FB5069C009400240194079C0294FFF7AA
:10343000C9FE04B010BDF8B5037C041C0E1C171C9B
:10344000002B02D00078FFF799FE351CAB1B9BB216
:10345000BB4205D228782178FFF796FD0135F5E7C4
:10346000E06801F06FFCF8BD08B5024801F098FB78
:1034700008BDC046F006002008B5024801F090FBE8
:1034800008BDC04678080020F7B51A4F1A49381C05
:1034900001F0D4F919491A4801F0D0F919491A482C
:1034A00001F0CCF919491A4801F0C8F919491A482C
:1034B00001F0C4F9194D03260124281C184901F014
:1034C000BDF9391C0096231C01940022154801F017
:1034D00043FB291C0096019407220623124801F0A1
:1034E0003BFB0096291C01941F221E230F4801F06C
:1034F00033FBF7BD4009002000080042000C0042E9
:103500004409002000100042480900200014004235
:103510003C090020001800424C09002050090020FE
:10352000001C0042F0060020B407002078080020AC
:103530003F20704713B502686B46D9710733546852
:10354000191C0122A04716BD08B50069022100F030
:1035500027FC08BD08B50069032100F037FC08BD51
:1035600038B50D1C041C131C006903212A1C00F033
:1035700029FD002801D10123636038BD10B5054C39
:1035800023685A1C04D10368DB6898472060031C39
:10359000181C10BD5C000020074A08B51368591CB0
:1035A00004D0012149421160181C03E00069022186
:1035B00000F0FAFC08BDC0465C00002008B50378A6
:1035C0000349023303704222024800F0B1FD08BDF6
:1035D000180000201F0E002010B50178031C42784F
:1035E0000020A12908D1212A2FD1184818490722E3
:1035F00000F09EFD012028E0212926D1202A05D1B6
:1036000013490722114800F027FC04E0222A10D1B8
:103610009A780F4BDA710E4B96221968D2009142BC
:1036200010D1DC7901231C400CD1FA2001F05EF8A6
:103630000AE0232A09D1DA789B7812021A43054B53
:103640001A6002E001F058F8002010BD1F0E0020A3
:103650000C0000201400002070470000064BFA21E7
:1036600089009960054900220831196004495A60AF
:1036700019611A767047C04654090020406E000058
:103680001F0E002070B5C2B219495301CB189E68B5
:10369000184DC0242E40A40526439E60164E80017E
:1036A00009683018083258605201505C0726B04350
:1036B0000126304350549E6935402C439C610F4C89
:1036C0005C61505C7024A0431024204350549C68DB
:1036D0000B488A182040802464032043986098682F
:1036E0004021800B8003986053790B43537170BD68
:1036F000280E0020FFFFFF8F400C00207C0A0020D6
:10370000FF3F00F038B5041C08CC01211A78051CD5
:103710000A431A708022201C0021520001F0FAFE98
:103720002B689A78D107FCD45C6238BD134BF0B596
:103730001B6899035A029B01C90ED20E5B0F1F2909
:1037400000D105211F2A00D11D22072B00D1032300
:1037500004688E01278D0A491F2539403143218590
:1037600001682A400C8DAC4322430A850268190384
:10377000108D044B03400B431385F0BD2460800083
:103780003FF8FFFFFF8FFFFFEFF31083036001237C
:10379000436072B670470368002B02D162B6BFF374
:1037A0006F8F704737B50569041C6846002D12D12C
:1037B000FFF7EAFF019B013B03D3621DD57FEDB20A
:1037C000F9E768460193FFF7E6FF0020854217D02E
:1037D000206AE36913E0FFF7D7FF019B0025013B57
:1037E00004D3221C34321578EDB2F8E76846019311
:1037F000FFF7D1FF0020854202D0206BE36AC01A98
:103800003EBD0000436810B51A68037A01215B01D0
:10381000D318FF339A7A0A439A72037A42685B019B
:10382000D318C2689C6891040B4A090922400A43D4
:103830009A60037A42685B01D3189A684021920B20
:1038400092039A6043681A68037A08335B01D318BD
:103850001A790A431A7110BDFF3F00F0F7B50569E8
:10386000041C0E1C171C6846002D1FD1FFF78CFF8F
:10387000019B013B5A1C06D0621DD17F5A1E0029B4
:103880003AD0131CF6E768460193FFF784FF002542
:10389000E369BD4235D0226A934232D25A1CE261BA
:1038A000A269D3181B7873550135F1E7FFF76CFF58
:1038B000019B013B5A1C08D0221C343215785A1E39
:1038C000EDB2002D18D0131CF4E768460193FFF702
:1038D00062FF0025E36ABD4226D0226B934241D3AA
:1038E00022E0621D0021D17730321678581E8E42B8
:1038F00014D1031C5A1CF4D168460193FFF74BFF07
:1039000038E0226A934235D10023E3610123236129
:103910006846FFF739FF019B013BEBE71170201C64
:103920000193FFF76FFFF6E7226B934222D100234A
:10393000E36223616846FFF727FF019B013B5A1CA6
:10394000DAD0221C34320021117001321678581E50
:103950008E4201D1031CF2E71170201C0193FFF786
:1039600051FFEAE75A1CE262A26AD3181B7873552A
:103970000135AFE7281CFEBD37B54368027A1B68E6
:10398000083252019A18041CD0790123FF211842F1
:1039900053D0D371A068656962680140002D20D1C1
:1039A00049015218916863618904890C2162A16AF6
:1039B00068465160621DD377FFF7E6FE019B013B2D
:1039C0005A1C33D0221C34321178581EC9B201322D
:1039D000002903D001930123137023E01170031C0D
:1039E000EEE74B01D3189A68A5699204920C226302
:1039F0000022626168465D60FFF7C6FE019B013BE5
:103A000001E011702B1C591C10D0221C34320120F3
:103A10001070621DD17F5D1EC9B230320029F0D016
:103A2000019310706846FFF7B6FE06E06846019302
:103A3000FFF7B1FE201CFFF7E5FE37BD37B50023C9
:103A40006C46E3710734201C0D1CFFF7B7FD2B6893
:103A50001818286001F044FC211C01F0FBFB2B68C6
:103A60001818286020783EBD03290BD10D4BB222D7
:103A70001B685200985C80214942014399540221FD
:103A800068220CE001290CD1064B92221B685200DF
:103A9000985C802149420143995402212822FF3237
:103AA00099547047280E002038B5304B002401216E
:103AB000051C1A201C7001F0E1FA1A20012101F006
:103AC00037FB2B4B192001211C7001F0D7FA19206C
:103AD000012101F02DFB274B2021DA6901200A4347
:103AE000DA61254B06241A7802431A70234B0F2201
:103AF00019789143197019782143197020490C786D
:103B00002043087019780A401A701A7860210A4315
:103B10001A701C4B1C4A5A805A78D209FCD11B4897
:103B200001F004F91A4C201CFFF7ECFD201CFFF7F4
:103B3000FDFD23687F2219780A401A701A78042143
:103B40000A431A701A890C218A431A81C121114A29
:103B5000890050580002000A5050802111601A78E4
:103B600002210A431A7001232B7038BD3C0C00203F
:103B7000240E002000040040584400413C44004111
:103B800059440041000C004006400000BD450000C3
:103B9000280E002000E100E00078002810D0094B3A
:103BA00001211B681A898A431A811A8B08210A434A
:103BB0001A831A8B04210A431A83034B00221A60CA
:103BC0007047C046280E00202C0F00200F4B9A692A
:103BD000920B92039A611B680222FF331A72987942
:103BE0008022524202439A711A7A9007FCD5084B00
:103BF000081C997A7F221040914301439972997A67
:103C0000802252420A439A727047C046280E002012
:103C10000050004110B50B790C1C002B0BD1081C77
:103C2000FFF7DAFC002804D1094B9A69920B920342
:103C30009A6101200BE001F053FB211C01F03EFBD7
:103C40000028F6D1024B9A69920B92039A6110BD3B
:103C5000280E0020F8B50D1C832A16D1CAB242499D
:103C60005301CB189C694148AD012040C024A405F4
:103C7000204398613E48083245195D610B68520146
:103C8000D15C70208143402065E0022A45D1382074
:103C900001F096F8374B344F8026036076000023FE
:103CA000421D036203614361C36147608560C66072
:103CB000D3772F32041CC36203631370301C53701C
:103CC00001F006FCA061301C01F002FCFF232A1C5D
:103CD0001A405201A062BF18B968244A07260A4058
:103CE000C02189050A43BA60A16862681940126858
:103CF00008314901885CAD00B04303263043885445
:103D0000A16862680B405B01A169D3185960201C4F
:103D1000FFF778FD184BEC5025E0822A1ED1CAB27D
:103D200011495301CB189C691048AD012040C024B3
:103D3000A405204398610E48083245195D610B685F
:103D4000520199180C798020404220430871D15CBF
:103D50007020814330200143D15404E0002A02D175
:103D6000081CFFF78FFCF8BD280E0020FFFFFF8F17
:103D70007C0A0020706E0000000E002038B5051C83
:103D80000124064BA200D258002A06D0211C281C70
:103D90000134FFF75FFFE4B2F3E738BD60000020B5
:103DA00008B5084B8A00D058002803D003689B68E8
:103DB000984706E0C9B2044B490159188868800445
:103DC000800C08BD000E0020280E002010B50C1C31
:103DD000FFF7E6FF00280CD0064BE1B21B68083164
:103DE000490159184A7980235B4213434B710223DE
:103DF000CB7110BD280E002070B5CAB2134B144809
:103E0000540189015918031959609D6811490832F4
:103E100029408025AD022943996099684026890B85
:103E2000890399600368510159180D7935430D7163
:103E30005101591889794D06FAD551015918C97996
:103E4000CD07FAD50419A068C0B270BD400C00209F
:103E5000280E0020FF3F00F038B50C4B141C1B68E7
:103E60000D1CFF335A7940210A435A710021FFF794
:103E7000C3FFA04200D9201C0023A34204D0044A5F
:103E80009A5CEA540133F8E738BDC046280E00209A
:103E9000400C002010B5C9B20C48490143189A687B
:103EA0009204920C3F2A08D9141C9A68403CA4043E
:103EB000920BA40C9203224302E09A68920B9203A5
:103EC0009A6041188868C0B210BDC046280E002014
:103ED000F0B51C1C2F4B85B01B68061C0D1C0292F4
:103EE000002B51D02C4F3978C9B2002902D11920AA
:103EF00001F01EF964233B70284BAA00D05800281B
:103F000005D0036802995B68221C984740E0301C8A
:103F1000291CFFF745FFA04204D2301C291CFFF7E3
:103F20003FFF041C291C301CFFF7B4FF1C4FE9B2F3
:103F30004A010191396803928B18FF335A7A0121A3
:103F40000A4318495A72AB01C9180298221C01F0A1
:103F5000D8FA002C1BD0301C291CFFF721FF0028A9
:103F600015D1019B3A6808335B01D31819794020B9
:103F7000014319710121D97103995318FF339A7ABA
:103F800001210A439A7202E00120404200E0201C15
:103F900005B0F0BD2C0F0020240E0020000E0020E4
:103FA000280E0020400C002013B56C460734221C5C
:103FB0000123FFF78DFF012801D1207801E00120C6
:103FC000404216BDF0B51C1C3F4B85B01B680E1C53
:103FD0000292002B6AD08023DB019C4266D83B4DC5
:103FE0002978C9B2002902D11A2001F0A1F864236E
:103FF00000222B700092002C56D0354DF7B22B6862
:1040000001933B1C0833019A5B01D3189B79DB09B0
:104010001AD0304B3049186801F07EF92F4B172128
:10402000584301F079F93B1C0833019A5B01D3181E
:10403000DB799A0708D42A4B9A5D002A38D1421EB0
:10404000002835D0101CEEE7254B00229A55251E7E
:104050003F2D00D93F25234AB301D318181C0299DC
:104060002A1C039301F04DFA194A7B01D318039AD5
:10407000A9045A619A69890C920B92030A439A61C6
:104080003B1C019A08335B01D3180222DA7159797B
:10409000802252420A435A71009B029A5B195219BC
:1040A0000093641B0292A6E700980BE0012008E051
:1040B00001229A557B01ED18AB69101C9B0B9B03E9
:1040C000AB61404205B0F0BD2C0F00203C0C00203D
:1040D000280E00208C00002040420F0070110100CB
:1040E000740A00207C0A002070B50E4D1C1C8B0148
:1040F000ED18281C0E1C111C221C01F002FAF6B24D
:104100000949760189194D618A69084B201C1340C1
:104110008B618B69A2049B0B920C9B0313438B61F5
:1041200070BDC0467C0A0020280E0020FF3F00F032
:10413000F7B5114B01901B780F1C141C002B19D1E3
:104140000E4B1E78002E01D1151C08E00C4D0D48B9
:104150002E888019361901F0D4F92E800AE0002D3E
:1041600008D0BA192B1C01980021FFF7BDFF3618A3
:104170002D1AF4E7201CFEBD1E0E00201C0E002090
:10418000720A002071090020F8B50E1C00AF151E40
:10419000012D28D9D31DDB08DB006A46D21A9546CB
:1041A000081C01F097FA01306C4640000323207090
:1041B00063700222AA420ED23378002B0BD0511C1E
:1041C000C9B20136A354A94204D000230232635479
:1041D000D2B2EFE72A1C0548211CFFF7A9FF431EB6
:1041E0009841C0B200E00020BD46F8BD1F0E00207F
:1041F00008B5044B00221A70034B04491A88FFF7D4
:1042000097FF08BD1C0E0020720A002071090020D3
:10421000F0B5204A87B001230026009102A913704F
:10422000051C0296FFF70AFC03AC092701903A1C13
:10423000201C311C01F06EF902236370A023E3718E
:10424000FA232372029B0122DB196380019B6271B6
:104250002371104A009B27701670BB4205D1281CA1
:10426000211C1A1CFFF764FF11E00B4B01221A708E
:104270000A4B211C3A1C281C1E800296FFF758FF8F
:10428000281C02A9FFF7DAFB281CFFF7B1FF012069
:1042900007B0F0BD1E0E00201C0E0020720A002088
:1042A00070B5CE788AB0051C0C1C022E08D1C988C6
:1042B0002348FFF7ADFF031C581E8341D8B23DE0F1
:1042C00001F00EF8211C00F0DAFF002803D0C3171C
:1042D0001B1AD80F32E0012E04D1E2881949112AA5
:1042E00027D823E0032E29D1A278002A05D1164928
:1042F000E2880B78934219D81BE0022A03D1A279F5
:10430000281C124904E0012A05D1A2791049281C71
:10431000FFF73AFF12E0032A10D100F0E1FF01A9F4
:1043200000F0BDFFA279281C01A9F1E7D2B2002A52
:1043300000D10A78281CFFF7FBFE01200AB070BDEF
:104340001F0E00208E6E00008A6E0000A06E00001E
:10435000806E000073B5051C48780C1C0B2878D8BB
:1043600000F0D0FF081C7728773E4306474B686F64
:1043700000206FE0097801AA002903D11170517063
:10438000281C09E0002313705370334B1B78012B5A
:1043900000D11370281C002102234FE08A780023EB
:1043A000012A04D101AA137053702C4BEEE72A4A5C
:1043B000137049E08E78012E07D1284B01AA002105
:1043C0001E701170281C331C38E0002E08D1224AC0
:1043D00001231370224A9169890B8903916138E0A6
:1043E000A178281CFFF7F2FB33E0281CFFF758FFE9
:1043F00030E0281C00211B4A1FE00A780020D30669
:1044000028D1281CFFF7BAFCA2781549154B0224C5
:104410001A600A682A23FF33D05C2043D0544A2014
:10442000FF30145C01231C4314548A69920B9203DD
:104430008A610EE00C4A281C00210123FFF754FE7C
:1044400007E08A78084B1A60054B9A69920B920331
:104450009A61012076BDC046700900201D0E002023
:10446000280E00202C0F0020200E0020F8B54B4B0A
:10447000071C1C78002C00D08EE0494D2868838BE7
:1044800019070DD5201CFFF7FDF82B6810201A1C0A
:10449000FF32917A01439172424A146008229A8352
:1044A0002B689A8B50071FD504229A833E4B1A78AB
:1044B000002A0AD01A78013AD2B21A701B78002B5F
:1044C00003D11A20012100F033FE384B1A78002A5C
:1044D0000AD01A78013AD2B21A701B78002B03D195
:1044E0001920012100F024FE2B68FF331A7AD1062F
:1044F00026D510221A725A7940210A432C495A7142
:104500000A786023381C1A4202D1FFF723FF01E02A
:10451000FFF780FB002806D02B688022FF339979B3
:1045200052420A4301E0234B20229A712B68FF3349
:104530001A7A500604D540221A72597A0A435A72DE
:104540002968FE230E8C00241E40E1B2002E23D0E9
:10455000321C012322411A4216D0221C286808323C
:1045600052018218D079184203D1D279DA401A4226
:1045700007D0114BA200D058002809D003681B684F
:1045800098470123A3409E430134092CDDD103E069
:10459000381CFFF769FAF4E7F8BDC0461C0E00208E
:1045A000280E00202C0F00203C0C0020240E0020A0
:1045B000400C0020FF500041000E002008B50248CA
:1045C000FFF754FF08BDC0461F0E0020014A024BF2
:1045D0001A60704700500041280E0020F7B58A1875
:1045E000061C0D1C01920C1C019B671B9C4207D0F2
:1045F000336821781B68301C984701340028F3D1B8
:10460000381CFEBD08B50368C9B21B68984708BDD1
:1046100038B5051C0C1C081E07D001F05BF82B6890
:10462000021C5B68281C211C984738BD08B5FFF7A1
:10463000EFFF08BD08B5FFF7EBFF08BD08B502495D
:10464000FFF7E6FF08BDC0467565000038B5041CDD
:10465000FFF7DEFF051C201CFFF7F0FF281838BD10
:10466000F0B58DB0161C0BAB002201900C1C1A701B
:10467000012E00D80A266D462B35201C311C00F077
:104680008FFE201CCFB2311C00F046FE291C041CFA
:10469000092F01D8303700E03737FFB22F70013DC6
:1046A000002CEAD10198FFF7B3FF0DB0F0BD08B5BB
:1046B000002A02D1FFF7A6FF02E0D2B2FFF7D0FF37
:1046C00008BD38B5041CFFF7F2FF051C201CFFF7DE
:1046D000B5FF281838BD38B5041CFFF7E8FF051CE6
:1046E000201CFFF7ABFF401938BD0000014B1860DC
:1046F0007047C04688000020024B012252421A60D7
:104700007047C04688000020154A1368581C25D001
:10471000013B1360002B21D172B6124A124B0432B6
:104720009A4207D8BFF34F8F104A114BDA60BFF39C
:104730004F8F11E00F4B197DC807FBD5188B202137
:10474000FF319208520001431983DA610A4A1A8044
:104750001A7DD107FCD5E5E7C046FDE77047C046A6
:104760008800002000200000030200000400FA0579
:1047700000ED00E00040004102A5FFFF10B5002160
:10478000041CA42200F0C6FE221CA4320023201C1C
:104790001360536010BDF8B5051CA4352E68041CC9
:1047A0000F1C701CA42100F0FBFD231CA8331B6808
:1047B000994201D0A7552960F8BD021C0023A432FC
:1047C000A83013600360704738B5021C041CA8347D
:1047D000A43223681268934207D0C55CA421581CF8
:1047E00000F0DEFD281C216001E00120404238BDC0
:1047F000031CA433A8301A680368D01A00D5A4306B
:104800007047031C021CA833A4321B681268934231
:1048100001D0C05C01E0012040427047031CA4337A
:1048200010B5041C1868A421013000F0B9FDA834AB
:104830002368C81A43425841C0B210BD0160704796
:10484000F7B508AC267804689D1E27686C1EA54144
:10485000ECB2920705683A4327063A432A60026899
:10486000072529405068B501002C00D05C0329437E
:1048700001430C435460F7BD30B50368C0251C6884
:10488000AD0312052A402243C024A402090421409A
:104890001143196003685A6814435C6030BD0368B3
:1048A00001211A680A431A6002681168012319423B
:1048B000FBD1D1691942F8D17047036802211A6807
:1048C0000A431A600268D3699907FCD470470368E9
:1048D0001A7ED10702D41A7E9107FCD5704703686F
:1048E00000225A8370470368187E4007C00F704744
:1048F0000368187EC009704703688022197E5242FF
:104900000A431A7670470368188DC0B2704703686F
:104910001A7E01200242FBD019857047036880226D
:1049200019685968D2020A435A6070470368034AFB
:10493000196859680A405A607047C046FFFFFBFF7C
:1049400030B5036803241D680C40074A59682404E5
:104950000A40ED0622436D0F5A60052D03D102680F
:10496000D3695907FCD430BDFFFFFCFF036828332F
:104970001970036800201A7E510703D55B8B012054
:104980009B089843704703681868C006400F0438B6
:1049900043425841C0B270470368187E4007C00FB9
:1049A00070470368187E0123184070470368588BCE
:1049B000C006C00F70470368187E8007C00F70479D
:1049C0000368588B0007C00F704703681A68D20647
:1049D000520F052A02D11A7E9107FCD52833187888
:1049E000C0B270470368224A30B5934211D0214AC1
:1049F000934211D0204A934211D0204A934211D0C1
:104A00001F4A934211D01F4A934230D10E231922DC
:104A10000DE0092314220AE00A23152207E00B23E4
:104A2000162204E00C23172201E00D231822DCB229
:104A3000154901209B08A0409B0008605B180320DB
:104A4000C021890004405D58E000FF248440A54354
:104A50002C1CC0258540281C204358508023DB0196
:104A60001A430A4B5A805A7852B2002AFBDB30BDF7
:104A700000080042000C00420010004200140042F6
:104A800000180042001C004200E100E0000C004061
:104A9000F8B5041C151C0E1C1F1CFFF7A3FF201CDF
:104AA000FFF7FDFEB1001C220A4069072368090CCC
:104AB0000A431A60226884239375012E1AD10821B3
:104AC000012D00D110210C4B79431868C00000F073
:104AD00023FC236807219A890140D2044903D20CA0
:104AE0000A439A8123680004C20C9889400B400352
:104AF00010439881F8BDC0468C000020012070470B
:104B000008B50368014ADB69984708BD1304000033
:104B100010B5041C0069FFF7C2FE201C1430FFF71B
:104B20004CFE10BD08B50069FFF7D1FE08BD08B501
:104B30001430FFF75DFE08BD08B51430FFF761FEC5
:104B400008BD08B51430FFF73FFE08BD08B5006981
:104B5000FFF7DDFE012008BDF7B51D1C08AB1B7873
:104B6000041C009309AB1B78161C019300234360BF
:104B7000FA239B008360094B0F1C08330360143039
:104B8000FFF7FCFD009A231CC03327619A70019A3D
:104B90001E705D70201CDA70FEBDC046C06E000045
:104BA00010B5041C0069FFF79EFE002807D020699D
:104BB000FFF7A9FE011C201C1430FFF7ECFD206953
:104BC000FFF796FE002805D02069FFF795FE2069C3
:104BD000FFF785FE10BDF023081C18403038434213
:104BE00058417047F0231B01194080239B009942D4
:104BF0000CD0C0239B00994206D080235B00052087
:104C0000994204D0002002E0072000E0062070470F
:104C10000F231940012905D002394B424B41022094
:104C2000C01A00E000207047F0B5031C85B0039166
:104C3000C033041C182718783B1C43431B4E082123
:104C4000F3185956151C00F0A3FA231CC133187829
:104C500008214743F619715600F09AFA01210A1CFF
:104C6000039B2069FFF714FF291C201CFFF7BAFFE4
:104C7000291C071C201CFFF7CBFF291C061C201C2D
:104C8000FFF7A9FF391C0090331C20690122FFF7B0
:104C9000D7FD231CC3331978013B1A782069FFF72D
:104CA000EBFD2069FFF709FE05B0F0BDF0690000DB
:104CB000FEE7000008B5034B1B68002B00D09847A7
:104CC00008BDC046300F002038B50F490F4CA14237
:104CD00004D100F079F800F053F80BE00C4D8D4250
:104CE000F7D00023CA18E818A24204D2006804339F
:104CF0001060F7E7FEE79042EBD0064B064A93427E
:104D0000E7D2002204C3F9E70000002020010020C0
:104D10002C70000020010020540F002008B500F086
:104D20002CF8002801D100F01DF808BD014B1860D7
:104D30007047C046300F0020014B18687047C046CE
:104D4000340F002070B5041E08D0054B1D681E1CD2
:104D500000F012F833685B1BA342F9D370BDC04664
:104D6000340F002008B5034B1A6801321A60FFF7B0
:104D7000CBFC08BD340F00207047002070477047FF
:104D800010B500F0D5F800F07DFBFFF7F8FF01202B
:104D9000FFF7D8FF084C201CFEF786FE201CFEF70C
:104DA000FBFEFDF775FAFDF7BFF9044B002BFAD0B7
:104DB00000E000BFF7E7C0461F0E00200000000023
:104DC00008B500F085FB08BD70B5494A1E2153683F
:104DD00002208B430343474953608B6908242343D4
:104DE0008B61454C454B9C829C8A20439882101CC9
:104DF000DA689407FCD5424A012414701478E50758
:104E000004D53F4C647864B2002CF7DB0124946035
:104E1000547864B2002CFBDB3A4D394C6560547811
:104E200064B2002CFBDB8225354CED0165805478A3
:104E300064B2002CFBDB02249C84DC68E606FCD513
:104E4000314D2E4CE562DD682C4CEE06FBD5A58C71
:104E50002E4E3543A584DD68284CEE06FBD5A58C87
:104E600002263543A584DC682506FCD5234CE4687E
:104E70006606F8D5DC68E506FCD500249460547815
:104E800064B2002CFBDB224D1D4C656055781C4C38
:104E90006DB2002DFADB1E6A1E4D35401D621D6A83
:104EA0008026B5431D620323A3601B4B63605378C8
:104EB0005BB2002BFBDB00230B72184A4B728B7228
:104EC000CB72174BFF211A60164B174A1B681268EA
:104ED0005C01D20E214011439A06520F12020B1CA4
:104EE0001343124A1385436880221343436070BD05
:104EF00000400041000400400C0600000008004093
:104F0000000C004001050100B805FF7D040A000007
:104F100000070300FFFCFFFF03060100006CDC023A
:104F20008C0000202460800020608000004000424F
:104F3000314BFA21186810B5890000F0EDF92F4BBC
:104F40000138984224D82E4A2E4B5060186AC0214E
:104F50000002000A09060143196200240721946037
:104F60001160196A80220902090A12060A431A62AC
:104F7000254BFC211A6A0A431A62196AFC22920123
:104F80000A431A62196AA022D2020A431A6200E096
:104F9000FEE7201C0021013400F070F8142CF8D139
:104FA0001A4C63785BB2002BFADB194B6380194B08
:104FB0005A7ED209012AFAD0E422D2009A803F22F6
:104FC000DA70597E134AC9090129FAD0C0235B015E
:104FD00000201361907000F023F863785BB2002B1F
:104FE000FBDB0D4A094B5A800C4BDA79D209012AB6
:104FF000FAD041225A7010BD8C000020FFFFFF0044
:1050000010E000E000ED00E000040040000C004073
:105010001E400000004000422140000000480042C5
:1050200000B5144A517E131CC9090129F9D0013871
:10503000042813D81969104A0A401A615A780F21B6
:105040008A4300F05FF9030509070300012102E02C
:10505000032100E002210A435A700AE01169F0239B
:105060001B050B43136153780F218B4302210B4324
:10507000537000BD00400042FFFFFFF010B5182440
:10508000021C201C5043274B1818007A40B20130F4
:1050900046D0032944D8081C211C00F033F9023300
:1050A0001121624398569A18C3011F4852681B1871
:1050B00099184031022008700121914059602FE079
:1050C0006243985618499A185268C3015B18991898
:1050D00040310620087001219140596099611FE01C
:1050E00051435A56104859184B68D2011118C81824
:1050F0004030062404700120984048600B49521843
:1051000050600DE0624398569A18C30106485268F1
:105110001B189918403102200870012191409960B4
:1051200010BDC046F0690000004400411044004139
:1051300018235843134AF0B5131808241C57013498
:105140001FD08256104ED2015D6801249019231C95
:105150008668AB401E420BD10E1C771EBE41401923
:1051600034404030A50004780426B4432C43047036
:10517000002903D105495218536002E0024E9219EA
:105180009361F0BDF069000000440041104400410B
:1051900018224243F8B52D4D0824AA181457031CB1
:1051A000621C50D0481C00240C284CD800F0AAF8EF
:1051B000071E1E1E1E1E1E1E1E0A0A0A0A000124AB
:1051C000644240E0092902D1181C002103E00A29A9
:1051D00004D1181C0221FFF751FF23E000240B2902
:1051E00031D1181C0121FFF749FF2CE0182253434D
:1051F000EA185268EB560120141C04405508DB01E4
:10520000002C11D0124C1B195D1930352E780C0171
:105210000F21314021439A18C9B2297040321378C6
:105220001843107000240EE0094E0F279B195D19DA
:1052300030352E789A18BE433143C9B229704032B6
:10524000137818431070201CF8BDC046F0690000A8
:105250000044004170B544680E1C0025002C09D0A4
:105260002368201C5B68311C9847002804DB2D183C
:10527000E468F3E7281C01E00120404270BD38B526
:1052800044680D1C002C08D02368201C9B68291C36
:105290009847002802D1E468F4E7201C38BD38B5EF
:1052A00044680D1C002C07D02368201C291CDB68D7
:1052B0009847E4682D18F5E72C7038BD38B5446878
:1052C0000D1C002C08D02368201C1B68291C984743
:1052D000002803D1E468F4E7201C00E0012038BD79
:1052E000064B0122196810B51140054805D102246A
:1052F00004700424447041601A6010BD400F002007
:10530000380F002002B4714649084900095C490081
:105310008E4402BC7047C046002934D001230022CD
:1053200010B488422CD301242407A14204D2814224
:1053300002D209011B01F8E7E400A14204D2814234
:1053400002D249005B00F8E7884201D3401A1A43B1
:105350004C08A04202D3001B5C0822438C08A042E8
:1053600002D3001B9C082243CC08A04202D3001B9E
:10537000DC082243002803D01B0901D00909E3E718
:10538000101C10BC7047002801D00020C04307B497
:10539000024802A14018029003BDC046D900000097
:1053A0000029F0D003B5FFF7B9FF0EBC4243891ABC
:1053B0001847C046002941D010B4041C4C40A446F4
:1053C00001230022002900D54942002800D540428F
:1053D00088422CD301242407A14204D2814202D264
:1053E00009011B01F8E7E400A14204D2814202D284
:1053F00049005B00F8E7884201D3401A1A434C0881
:10540000A04202D3001B5C0822438C08A04202D3B6
:10541000001B9C082243CC08A04202D3001BDC08DE
:105420002243002803D01B0901D00909E3E7101C1F
:105430006446002C00D5404210BC7047002806D0BE
:1054400003DB0020C043400801E08020000607B4D1
:10545000024802A14018029003BDC0461900000096
:105460000029EBD003B5FFF7A7FF0EBC4243891A12
:105470001847C0467047C04608B500210A2200F010
:105480002FFA08BD70B50E4B0E4D0024ED1AAD106D
:105490001E1CAC4204D0A300F35898470134F8E72F
:1054A00000F074FD084B094D0024ED1AAD101E1CD0
:1054B000AC4204D0A300F35898470134F8E770BD1C
:1054C000F8000020F8000020F8000020140100205F
:1054D00008B5034B011C186800F06CF808BDC04605
:1054E000F000002030B50023934208D0C55C0133A2
:1054F000CC18013C2478A542F6D0281B00E00020FF
:1055000030BD10B50023934203D0CC5CC4540133AA
:10551000F9E710BD031C8218934202D019700133C1
:10552000FAE7704730B5002940D004390B68002BEA
:1055300000DAC9181E4A1368141C002B02D14B60F4
:10554000116033E099420FD208680A189A4205D1D7
:1055500013685268C01808604A6000E04B60216020
:1055600024E08A4203D8131C5A68002AF9D11D6826
:105570005C198C420BD1096869185818196090425F
:1055800014D114685268091919605A600EE08C42EF
:1055900002D90C23036009E008680C18944203D177
:1055A00014685268001908604A60596030BDC046EE
:1055B000480F002070B50323CD1C9D430835061C01
:1055C0000C2D01D20C2501E0002D3FDB8D423DD397
:1055D000204B1C681A1C211C002913D00868431B8F
:1055E0000DD40B2B02D90B60CC181EE08C4202D1DB
:1055F000636813601AE0486860600C1C16E00C1CBD
:105600004968E9E7144C2068002803D1301C00F0F9
:1056100025F82060301C291C00F020F8431C15D010
:10562000C41C03239C4384420AD12560201C0B30F8
:105630000722231D9043C31A0BD05A42E25008E0C0
:10564000211A301C00F00AF80130EED10C2333602F
:10565000002070BD480F0020440F002038B5074CD3
:105660000023051C081C236000F076FC431C03D1BA
:105670002368002B00D02B6038BDC046500F00209F
:105680000EB400B59CB01DAB04CB822202A99200DF
:105690008A810A4A02908A604A6101225242CA8182
:1056A000074A086110681D9A019300F087F9029A71
:1056B000002313701CB008BC03B01847FFFFFF7F26
:1056C000F0000020031C0A7801311A700133002A0F
:1056D000F9D170470023C25C0133002AFBD1581E68
:1056E000704730B5031C002A07D00C7801335D1ECB
:1056F000013A2C700131002CF5D19A18934203D055
:10570000002119700133F9E730BD0000F8B5174BDF
:10571000071C1D680E1CAC6D002C1FD15020FFF71C
:10572000D7FEA8658460AB6D046044601C61DC60DA
:10573000AB6D9C615C61AB6DDC629C62AB6D5C636C
:105740001C63AB6DDC639C63AB6D5C641C64AB6D14
:10575000DC649C64AB6D1C77AB6D5C62AA6D381C1D
:10576000311C012300F004F8F8BDC046F000002011
:10577000F0B5002802D11068002826D00578441C16
:105780000E1C3778002F09D00136BD42F9D1002B0D
:1057900001D0201CF2E71460037016E0002D09D13F
:1057A0001560281C11E02F78B74207D00135002F73
:1057B000F9D11C1C631C26780D1CF4E7002E02D0C6
:1057C0000021217000E0331C1360F0BDF0B51D1CFA
:1057D000424B87B01B6805900293039101920B1C0A
:1057E0001C78029F5E1C3A19517808220A4001D0A9
:1057F000331CF5E72D2C04D101279E1C5C78009703
:1058000004E000922B2C01D15C789E1C10232A1CF2
:105810009A4311D1302C08D1327820218A43582A5A
:1058200007D174781D1C023606E0002D04D10A252C
:1058300002E0002D00D10825009F291C7B427B41FE
:1058400080273F06FF1A381CFFF7AAFD381C049179
:10585000291CFFF761FD0023021C181C029F391947
:1058600049784F0701D5303C07E003270F4017D098
:105870005721012F00D13721641AAC4210DA591C8C
:105880000BD0904207D802D1049FBC4203DC68438E
:105890000123201801E001235B4234780136DDE763
:1058A000009F591C0BD180207B427B410006059F45
:1058B000C01A22233B60019F002F09D10BE0002F6B
:1058C00000D04042019F002F05D0039A002B00D04A
:1058D000721E019F3A6007B0F0BDC046F400002080
:1058E00038B5131C044A051C0C1C1068291C221C0A
:1058F000FFF76CFF38BDC046F0000020F0B58D68A2
:1059000085B0071C0C1C03920193AB4245D3902237
:105910008B89D20013423DD0626903265643096940
:105920002068F20F401A96190290021C0198013269
:1059300012187610964200D2161C381C5A050FD544
:10594000311CFFF737FE051E13D0029A2169FFF7BD
:10595000D8FDA289184B134080221343A38111E084
:10596000321C00F0C9FA051E0CD1381C2169FFF762
:10597000D9FD0C233B60A389402213430120A3815E
:10598000404217E0029B2561ED1825606661019D8C
:10599000F61AA6600198A84200D2019D2A1C206830
:1059A000039900F090FAA2680020531BA3602368BB
:1059B0005D19256005B0F0BD7FFBFFFFF0B59FB01E
:1059C000039005938B890E1C171C19060FD532699D
:1059D000002A0CD14021FFF7EDFD30603061002836
:1059E00003D103990C230B60C9E04023736106AD1A
:1059F00000236B6120236B763023AB763C1C23782D
:105A0000002B03D1E21B029211D003E0252BF9D029
:105A10000134F4E70398311C3A1C029BFFF76EFF38
:105A2000013000D1A6E06969029A8B186B61237876
:105A3000002B00D19EE0012252426A606A46002398
:105A40005B3201342B60EB60AB601370AB654E4F83
:105A50002178381C052200F02BFA002807D0C71B3C
:105A60002B680120B840184328600134EFE72B6809
:105A7000D90603D56A4620215B3211701A0703D577
:105A80006A462B215B32117022782A2A01D0099BA9
:105A90000EE0059A111D12680591002A01DB09929A
:105AA00004E05242EA60022213432B60013409E011
:105AB0002278303A092A04D80A214B4301349B1832
:105AC000F6E7099323782E2B18D163782A2B09D176
:105AD000059B02341A1D1B680592002B0DDA012369
:105AE0005B420AE0013400232278303A092A04D8C4
:105AF0000A214B4301349B18F6E70793234F217883
:105B0000381C032200F0D4F9002806D0C71B2B68EC
:105B10004020B84018432860013421781C480622F0
:105B2000671C297600F0C4F9002812D0194B002B0D
:105B300006D1059B0722073393430833059314E0EE
:105B400005AB00930398291C321C134B00E000BFE7
:105B500007E005AB00930398291C321C0E4B00F0A4
:105B600091F804900499013104D06A69049953189A
:105B70006B6143E7B3895A0601D40B9801E0012019
:105B800040421FB0F0BDC046F26E0000F86E00004B
:105B9000FC6E000000000000FD580000F7B5151C69
:105BA00001930A698B68061C0C1C934200DA131CD3
:105BB000221C2B6043321278002A01D001332B6063
:105BC0002068800602D52B6802332B6021680627E7
:105BD0000F401FD0231C43331B785A1E9341226869
:105BE00092061FD5E11840313020C870211C5A1C84
:105BF00045310978A21840320233D17012E0221CDC
:105C0000301C019919320123089FB847013011D087
:105C1000009F01370097E0682968009F431A9F4260
:105C2000EDDBD7E7221C301C01994332089FB847AF
:105C3000013002D10120404223E0206806212B6878
:105C4000E26801400025042903D1D51AEB43DB1794
:105C50001D40A26823699A4201DDD31AED1800277E
:105C60000097009FAF420BDA221C301C01991A32B8
:105C70000123089FB8470130DCD0009F0137EFE7D0
:105C80000020FEBDF0B50D1C8BB04335069205908B
:105C9000079304950B7E0C1C109A6E2B00D1A7E085
:105CA00011D8632B22D009D8002B00D1B0E0582B9B
:105CB00000D0C0E045310B707B4D4EE0642B1CD012
:105CC000692B1AD0B7E0732B00D1A5E009D86F2B50
:105CD00029D0702B00D0AEE00E68202333430B6038
:105CE00036E0752B1FD0782B32D0A4E013680D1C42
:105CF000191D423511601B689FE0216813680E066C
:105D000003D5191D11601E6805E04806F9D5191D57
:105D1000116000215E5E644B002E3BDA049D2D2253
:105D200076422A7036E0216813680E0603D5191DE5
:105D300011601E6804E04806F9D5191D1E8811601F
:105D4000594B227E039308276F2A1ED00A271CE096
:105D5000231C78214533554D197011682368081D9F
:105D6000039510601E0601D50E6802E05806FBD5AB
:105D70000E88D90702D52022134323601027002E56
:105D800003D1226820239A432260231C002243333C
:105D90001A7001E003930A276368A360002B03DBFA
:105DA0002568042295432560002E02D1049D002B16
:105DB0000ED0049D301C391CFFF7F2FA0398013D08
:105DC000435C301C2B70391CFFF7A6FA061EF1D17C
:105DD000082F09D12168C90706D5626823699A424C
:105DE00002DC013D30232B70049E731B23612AE0EB
:105DF000086813684969050604D5181D10601B68FA
:105E0000196005E04606F8D5181D10601B6819805A
:105E100000232361049D16E01368191D11601D689D
:105E2000281CFFF757FC63682061984200D9236162
:105E30002069606004E0251C42352B70012323613A
:105E4000049E00233370079E05980096211C09AA22
:105E5000069BFFF7A3FE013002D10120404221E062
:105E60002A1C059806992369079DA8470130F4D09C
:105E70002668B60705D4099BE068984212DA181C18
:105E800010E00025E0680999431A9D42F3DA221CCC
:105E90000598069919320123079EB0470130DCD0DE
:105EA0000135EFE70BB0F0BD036F0000146F000089
:105EB000C9B28218904204D003788B4202D00130DC
:105EC000F8E70020704770B5814201D300230CE051
:105ED0008C18A042FAD28518131C013B0BD35142F7
:105EE0006618F65C6918CE54F7E7934203D0CC5C91
:105EF000C4540133F9E770BDF8B5061C0C1C151C21
:105F0000002904D1111CFFF755FB041C18E0002ADE
:105F100003D1FFF707FB2C1C12E000F013F8A84296
:105F20000ED2301C291CFFF745FB071E07D0211C91
:105F30002A1CFFF7E6FA301C211CFFF7F3FA3C1C81
:105F4000201CF8BD04390B68181F002B02DAC85852
:105F50001B18181F70470000094A1368002B0CD04B
:105F600018186946884202D81060181C7047054B03
:105F70000C2201201A604042F8E7034B1360EFE760
:105F80004C0F0020500F0020540F0020F8B5C046E1
:105F9000F8BC08BC9E467047F8B5C046F8BC08BCC3
:105FA0009E46704757616B6575700053656E64203F
:105FB000436F6E6669726D6564207061636B6574B2
:105FC000204F4B00446F776E6C696E6B2064617478
:105FD00061004C6F526157414E2E5F706F72743A80
:105FE00020004C6F526157414E2E5F646174613ADC
:105FF000200053656E6420436F6E6669726D656440
:10600000207061636B6574204552524F5200537487
:1060100061727420736C6565703A2000457869740C
:1060200020736C65657000312E2053776974636846
:10603000206F6E3A20004C6F526157414E2E5F64C4
:10604000617461526174653A20004A6F696E206E16
:106050006574776F726B204F4B004A6F696E206ECC
:106060006574776F726B206572726F72000000004A
:10607000000000000000000037240000FD230000A5
:106080002D240000232400005F24000021240000B0
:106090006D616320726573756D650D0A006D6163D6
:1060A0002073657420646576616464722025730DC5
:1060B0000A006D6163207365742064657665756997
:1060C0002025730D0A006D61632073657420617073
:1060D000706575692025730D0A006D616320736515
:1060E00074206E776B736B65792025730D0A006DD4
:1060F00061632073657420617070736B657920250E
:10610000730D0A006D616320736574206170706B9C
:1061100065792025730D0A006D6163207365742015
:106120007077726964782025750D0A006D616320AF
:106130007365742064722025750D0A006D616320FB
:10614000736574206164722025730D0A00726164A6
:10615000696F2073657420666465762025750D0A65
:1061600000726164696F207365742070726C656E73
:106170002025750D0A00726164696F2073657420B3
:106180006372632025730D0A00726164696F207366
:1061900065742063722025730D0A00726164696F53
:1061A000207365742077647420256C750D0A007265
:1061B0006164696F207365742062772025750D0A0C
:1061C00000726164696F20676574206D6F640D0AE9
:1061D00000726164696F2067657420667265710D75
:1061E0000A00726164696F20676574207077720DB0
:1061F0000A00726164696F206765742073660D0A16
:10620000006F6666006D61635F7061757365640041
:10621000726164696F5F657272000D0A0034323911
:1062200034393637323435006D61635F6572720020
:10623000696E76616C69645F646174615F6C656EE0
:10624000006B6579735F6E6F745F696E6974006E61
:106250006F745F6A6F696E65640064656E6965641A
:10626000006D6163207365742063682066726571D8
:1062700020257520256C750D0A006D6163207365FE
:106280007420636820646379636C6520257520251C
:10629000750D0A006D616320736574206368206466
:1062A0007272616E67652025752025752025750D34
:1062B0000A006D61632073657420636820737461E4
:1062C0007475732025752025730D0A006D61632098
:1062D00067657420646576616464720D0A006D619F
:1062E0006320676574206465766575690D0A006DC5
:1062F000616320676574206170706575690D0A00BF
:106300006D6163206765742064720D0A006D6163BE
:10631000206765742062616E640D0A006D61632000
:10632000676574207077726964780D0A006F6B007E
:10633000726164696F2067657420727862770D0AF4
:1063400000726164696F20676574206269747261AC
:1063500074650D0A00726164696F2067657420635B
:10636000720D0A00726164696F206765742077643A
:10637000740D0A00726164696F206765742062772A
:106380000D0A00726164696F2067657420736E7214
:106390000D0A00726164696F20676574206372631F
:1063A0000D0A00726164696F206765742070726CF9
:1063B000656E0D0A007379732067657420766572C7
:1063C0000D0A006D61632073657420726574782016
:1063D00025750D0A00524E3239303300696E7661F0
:1063E0006C69645F706172616D006D6163206765E7
:1063F00074206164720D0A006D616320676574200A
:10640000646379636C6570730D0A006D6163206766
:106410006574206D72676E0D0A006D61632067659B
:10642000742067776E620D0A006D61632067657482
:10643000207374617475730D0A006D616320676564
:106440007420636820667265712025750D0A006DE1
:1064500061632067657420636820646379636C6599
:106460002025750D0A006D616320676574206368DF
:1064700020647272616E67652025750D0A006D617A
:10648000632067657420636820737461747573207A
:1064900025750D0A00726164696F20727820300DD5
:1064A0000A004C4F524157414E5F414E535745529F
:1064B0005F4F4B0D0A004C4F524157414E5F414ECA
:1064C000535745525F4552524F520D0A004C4F529E
:1064D0004157414E5F4E4F5F414E535745520D0A53
:1064E000004C4F524157414E5F494E49545F45520F
:1064F000524F520D0A004C4F524157414E5F4C458E
:106500004E4754485F4552524F520D0A004C4F526D
:106510004157414E5F53454E44494E475F455252A5
:106520004F520D0A004C4F524157414E5F4E4F544F
:106530005F4A4F494E45440D0A004C4F5241574166
:106540004E5F494E5055545F4552524F520D0A000E
:106550004C4F524157414E5F56455253494F4E5F43
:106560004552524F520D0A0034333300383638004A
:1065700039303000200D0A006F6E006F6666002E05
:106580000D0A002573006D616320676574207265D4
:1065900074780D0A00726164696F20676574206603
:1065A0006465760D0A006D616320736574207570F3
:1065B00063747220256C750D0A006D616320676538
:1065C000742075706374720D0A006D6163207365C9
:1065D0007420646E63747220256C750D0A006D6101
:1065E000632067657420646E6374720D0A006D61C8
:1065F00063206A6F696E206F7461610D0A006D61BE
:106600006320736574206C696E6B63686B202575FD
:106610000D0A006D61632073657420727832202545
:106620007520256C750D0A006D61632073657420FB
:10663000727864656C6179312025750D0A0000005F
:10664000176800001A68000028680000336800001E
:106650003A680000466800004D6800000C680000C1
:10666000A0690000AA690000016200000562000044
:10667000106200001A6200001D6200002862000023
:1066800030620000416200004F6200005A62000068
:10669000D5630000DC6300002D6300007379732074
:1066A00072657365740D0A00737973206661637493
:1066B0006F727952455345540D0A00737973206700
:1066C00065742068776575690D0A007379732067B2
:1066D0006574207664640D0A006D616320726573D1
:1066E00065742025730D0A006D6163207478206342
:1066F0006E662025752025730D0A006D6163207478
:106700007820756E636E662025752025730D0A004E
:106710006D6163206A6F696E206162700D0A006DA1
:10672000616320736176650D0A006D61632070619D
:106730007573650D0A00726164696F207478202595
:10674000730D0A00726164696F206377206F6E0DAC
:106750000A00726164696F206377206F66660D0AB4
:1067600000726164696F20736574206D6F64202509
:10677000730D0A00726164696F207365742066721C
:10678000657120256C750D0A00726164696F207354
:106790006574207077722025690D0A007261646942
:1067A0006F207365742073662025730D0A00726173
:1067B00064696F2073657420727862772025730D89
:1067C0000A00726164696F20736574207278627761
:1067D0002025732E25730D0A00726164696F207382
:1067E000657420626974726174652025750D0A00F4
:1067F0006D61632072657365740D0A00737973208F
:10680000736C65657020256C750D0A007261646992
:106810006F5F72782020006F6B00696E76616C6923
:10682000645F706172616D006E6F5F667265655F57
:106830006368006D61635F727800726164696F5FA5
:1068400074785F6F6B00524E32343833006163638B
:1068500065707465640000009C660000A866000016
:10686000BB660000CB660000D9660000E866000049
:10687000FB660000106700001F6700002A67000029
:10688000906000009D600000B2600000C6600000E3
:10689000DA600000EF600000046100001861000091
:1068A0002C6100003C610000616200007A6200001F
:1068B00094620000B2620000CC620000DE62000060
:1068C000EF620000006300000D6300001C63000025
:1068D000EA630000F86300000B6400001A64000023
:1068E000296400003A6400004F6400006664000000
:1068F0007E64000095640000366700004467000075
:10690000526700006167000074670000896700003B
:106910009C670000AE670000C2670000D9670000F6
:106920004D61000061610000766100008961000036
:106930009B610000AF610000C1610000D1610000F7
:10694000E2610000F261000030630000416300007A
:1069500055630000646300007463000083630000FB
:1069600093630000A3630000B5630000C3630000ED
:106970008665000095650000A6650000BA65000008
:10698000CA650000DE650000EE650000FE650000DF
:106990001366000028660000F0670000FC67000036
:1069A0006D61635F74785F6F6B006F6E005B554164
:1069B00052545D2000666F756E643A00636D643AF0
:1069C00000616E73313A00616E73323A00616E732A
:1069D000333A00616E73343A006E6F20616E7377E4
:1069E00065720A005F6275666665723A00000000B3
:1069F000000000000B000000020000000400000086
:106A0000FF00FFFFFFFF0B00000000000A00000076
:106A10000200000004000000FF00FFFFFFFF0A006B
:106A2000000000000E00000008000000040000004C
:106A3000FF00FFFFFFFF0E00000000000900000044
:106A4000040000001C000000FF000100010009001C
:106A50000000000008000000040000001C0000000E
:106A6000FF00000000001000000000000F00000008
:106A7000040000001C000000FF00010301030F00E0
:106A80000000000014000000050000002C000000C1
:106A9000FF000200020004000000000015000000DA
:106AA0000800000004000000FF00FFFFFFFF0500DA
:106AB0000000000006000000040000001C000000B0
:106AC00006000001000106000000000007000000B1
:106AD000040000001C000000070001010101070084
:106AE0000000000012000000040000001C00000074
:106AF000FF0000030003020000000000100000007F
:106B0000040000001C000000FF0000020002000062
:106B10000000000013000000050000002C00000031
:106B2000FF0003000300030000000000110000004C
:106B3000040000001C000000FF000102010201002F
:106B40000000000002000000010000000200000040
:106B50000000FFFFFFFF020001000000080000002E
:106B600001000000180000000200000400040800FA
:106B700001000000090000000100000018000000F2
:106B800003000104010409000000000004000000EB
:106B900001000000000000000400FFFFFFFF0400F0
:106BA00000000000050000000100000000000000DF
:106BB0000500FFFFFFFF05000100000002000000CC
:106BC00001000000000000000A00FFFFFFFF0200BC
:106BD0000000000016000000020000000400000099
:106BE000FF00FFFFFFFF060000000000170000008D
:106BF0000200000004000000FF00FFFFFFFF07008D
:106C0000000000000C000000030000000400000071
:106C1000FF00FFFFFFFF0C00010000000A00000062
:106C20000300000004000000FF00FFFFFFFF0A0058
:106C3000010000000B000000030000000400000041
:106C4000FF00FFFFFFFF0B0001000000030000003A
:106C50000B00000004000000FF00FFFFFFFFFF002B
:106C6000000000001B0000000B00000004000000FA
:106C7000FF00FFFFFFFFFF00000000001C000000FE
:106C80000600000000000000FF00FFFFFFFFFF0004
:106C900000000000180000000600000000000000D6
:106CA000FF00FFFFFFFFFF000000000019000000D1
:106CB0000600000000000000FF00FFFFFFFFFF00D4
:106CC00001000000160000000300000000000000AA
:106CD000FF00FFFFFFFFFF000100000017000000A2
:106CE0000300000000000000FF00FFFFFFFFFF00A7
:106CF000000000001600000002000000000000007C
:106D0000FF00FFFFFFFFFF00000000001700000072
:106D10000200000000000000FF00FFFFFFFFFF0077
:106D2000000000001300000002000000000000004E
:106D3000FF00FFFFFFFFFF00000000001000000049
:106D40000200000000000000FF00FFFFFFFFFF0047
:106D5000000000001200000002000000000000001F
:106D6000FF00FFFFFFFFFF00000000001100000018
:106D70000200000000000000FF00FFFFFFFFFF0017
:106D8000000000000D000000040000000C000000E6
:106D9000FF000100FFFF0D000000000015000000D3
:106DA000050000000C000000FF000300FFFFFF00D3
:106DB0000000000006000000040000000C000000BD
:106DC000FF000001FFFFFF000000000007000000BF
:106DD000040000000C000000FF000101FFFFFF00A5
:106DE000000000000300000001000000020000009D
:106DF000FF00FFFFFFFFFF00000000000200000097
:106E000001000000020000001400FFFFFFFF02006D
:106E10000000000006000000010000000200000069
:106E2000060000010001060000000000070000004D
:106E3000010000000200000007000101010107003D
:106E40000000000000000000353500006135000042
:106E500049350000993500007D35000055350000AA
:106E600031350000000000000000000000000000BC
:106E7000793900005D380000A537000000000000EF
:106E800041646166727569740000040309041201AB
:106E90000002EF0201409A230B800001010203016E
:106EA00046656174686572204D30006E616E0069E0
:106EB0006E66006F7666002E000000000000000085
:106EC00000000000000000004D4B0000DD45000008
:106ED0002F4B0000434B0000394B0000254B0000B6
:106EE000014B0000294C0000114B0000FD4A00003E
:106EF0004300232D302B2000686C4C0065666745ED
:106F00004647003031323334353637383941424321
:106F100044454600303132333435363738396162D2
:106F20006364656600002020202020202020202887
:106F30002828282820202020202020202020202031
:106F40002020202020208810101010101010101069
:106F500010101010101004040404040404040404A9
:106F60001010101010101041414141414101010128
:106F70000101010101010101010101010101010101
:106F8000011010101010104242424242420202020E
:106F900002020202020202020202020202020202D1
:106FA000021010101020000000000000000000007F
:106FB00000000000000000000000000000000000D1
:106FC00000000000000000000000000000000000C1
:106FD00000000000000000000000000000000000B1
:106FE00000000000000000000000000000000000A1
:106FF0000000000000000000000000000000000091
:107000000000000000000000000000000000000080
:107010000000000000000000000000000000000070
:0C70200000000000000000000000000064
:10702C0030313032303300010100000000C2010069
:10703C0000000800FFFFFFFF080B00020202000027
:10704C0009040000010202000005240010010424C0
:10705C000206052406000105240101010705810330
:10706C0010001009040100020A00000007050202CA
:10707C00400000070583024000000000FFFFFFFFF7
:10708C0000000000830000000200000082000000ED
:10709C0000000000000000000000000000000000E4
:1070AC000000000000000000FFFFFFFF40420F0047
:1070BC0000000000000000000000000000000000C4
:1070CC0000000000000000000000000000000000B4
:1070DC00F06E000000000000000000000000000046
:1070EC000000000000000000000000000000000094
:1070FC000000000000000000000000000000000084
:10710C000000000000000000000000000000000073
:10711C0090000020256F0000DD200000812200007F
:10712C00B9250000E92E0000893400005D3600000E
:10713C00CD450000B520000000000000000000005C
:0400000300004CC9E4
:00000001FF
