:1020000000800020FD7F0000E57F0000E57F0000EC
:1020100000000000000000000000000000000000C0
:10202000000000000000000000000000E57F00004C
:102030000000000000000000E57F0000518000006B
:10204000E57F0000E57F00008D3F0000B533000014
:10205000E57F0000E57F0000E57F0000E97F0000EC
:10206000E57F000061630000E57F0000E57F000080
:102070005D2C0000E57F000071630000E57F00003B
:10208000E57F0000E57F0000DD4F0000E74F000026
:10209000F14F0000E57F0000E57F0000E57F0000D4
:1020A000E57F0000E57F0000E57F0000E57F0000A0
:1020B0000000000010B5064C2378002B07D1054B1B
:1020C000002B02D0044800E000BF0123237010BDA4
:1020D00070010020000000008CF3000008B5084BE0
:1020E000002B03D00748084900E000BF07480368F9
:1020F000002B03D0064B002B00D0984708BDC046EC
:10210000000000008CF3000074010020600100203A
:102110000000000070470000F0B5BD4F8BB03C7868
:10212000012C31D0002C02D0022C48D0A8E2B948B2
:1021300001F020FFFA21221C8901B64801F062FF5C
:10214000B54BB64E1978301C02F068F9B44D2870C2
:1021500002F0CEF80521301C02F0B8F9287002F028
:10216000C7F8211C301C02F0A7FB287002F0C0F851
:10217000AC49301C02F03EFB287002F0B9F8A548CB
:1021800001F0F8FE012313E0A24D281C01F0F2FE3D
:10219000A24802F0EDF9A24E307002F0A9F83278B0
:1021A000002A07D1FA21281C890101F02BFF022304
:1021B0003B7065E29C4805F05FFF3C7060E29B4D20
:1021C000012100240F202C7006F0EEF9FA204000C7
:1021D00005F052FF132006F01BF9211C061C0F20EE
:1021E00006F0E2F9301C07F087F9914906F0CAFEC3
:1021F0009049041C06F0F0FF09F010F87F4B7E4A6E
:1022000007F042FD7E4A7F4B08F0A8F97E4A7F4BDB
:1022100007F01EFA09F054F80021061C06F0C2FB74
:1022200000280BD18449301C06F0D0FBFE21002889
:1022300005D1301C06F01AFCC1B200E0012177483C
:1022400002F006F9764B187002F052F8201C7B4918
:1022500006F0B4FC7A4906F095FE0021041C06F055
:10226000A1FB00280BD1201C754906F0AFFBFF2213
:10227000002805D1201C06F0F9FBC2B200E00022C4
:10228000704907A809F088FD281C07A909F0A6FDD8
:102290006D4B04AC1E78002E40D06C4F381C01F002
:1022A0009FFF6B4E02906B49301C05F041F902987C
:1022B00008F0B4FF0B1C0221021C0091301C05F039
:1022C00043FA381C01F0D8FF6349071C301C05F0A5
:1022D0002FF9381C08F0A2FF0B1C0221021C0091F0
:1022E000301C05F031FA029B5C4E0493A1782278F1
:1022F00063780091E17807A80191311C09F04CFD49
:1023000007A9281C09F06AFD0497A1782278637850
:102310000091E17807A80191311C12E04F4C321C6A
:10232000331C211C0096019607A809F035FD07A96A
:10233000281C09F053FD0096019607A8211C321CA9
:10234000331C09F029FD281C07A909F047FD444E5C
:10235000444F311C381C01F09DFB344C031CB072FF
:102360003E4D15D0381C01F0D9FCC820800005F086
:1023700083FE311C381C01F027FD04A904908878E5
:102380000A784B780090C97807A80191291C04E0CD
:1023900000900190291C07A81A1C09F0FDFC201CC4
:1023A00007A909F01BFD304B1B78002B63D005AE4D
:1023B000301C2E4901F0CCFD0623F356002B59D1D9
:1023C000234E2B49301C05F0B3F8059808F026FF82
:1023D0000B1C0221021C0091301C05F0B5F9059977
:1023E000049104A988780A784B780090C97807A8E6
:1023F0000191291C44E0C046333333333333F33F78
:102400000000000000C06F40000000000000F03F2E
:10241000B5010020A803002007000020AC03002025
:10242000BE01002024DF0000307500000000002005
:102430000000B03A0000404000007E430000204110
:1024400000007F4348DF0000BF0100200802002099
:102450007809002027DF000032DF00003CDF0000A9
:102460008C01002098010020BC010020B401002054
:102470004DDF000000230093019307A8291C1A1CBC
:1024800009F08AFC201C07A909F0A8FC804B1B78E6
:10249000002B67D07F4C8049201C05F049F87F4D08
:1024A0000226281C00F0B8FE071C08F0B7FE0096B4
:1024B000021C0B1C201C05F047F97949201C05F073
:1024C00037F8281C00F058FE029008F0A7FE00968E
:1024D000021C0B1C201C05F037F97249201C05F06A
:1024E00027F8281C00F068FD0390281C00F064FD0C
:1024F00008F094FE0096021C0B1C201C05F024F929
:1025000004AC0497A178227863780091664FE17853
:1025100007A80191391C09F03FFC644D07A9281C4C
:1025200009F05CFC029B07A80493A17822786378E9
:102530000091E1780191391C09F02EFC07A9281CB3
:1025400009F04CFC039907A80491A17822786378DC
:102550000091E1780191391C09F01EFC281C07A9A3
:1025600009F03CFC524B534C1978504A201C02F0A5
:1025700069F8514E307001F0BBFE31784F4F0029A1
:1025800015D14F4BE35C002B20D04E4B1022E018AE
:1025900009F048FD612819D1FA21381C8900002270
:1025A00001F030FDFA20C00005F066FD0EE00022CB
:1025B000022902D0062903D10122434B1A7005E0FB
:1025C000424A1368591C1160042BE5DC01210820E4
:1025D00005F0EAFF9620400005F04EFD002108209E
:1025E00005F0E2FF294B284A201C02F0A5F93070C3
:1025F00001F07EFE364D281C00F00CFF3C2103301C
:1026000006F06AF9281CC9B200F0A4FF281C0221B8
:1026100000F0DEFE281C2F4900F0ECFE002108200F
:1026200005F0C2FF381C01F0A5FC281C00F0E8FEF4
:10263000FA2189010022381C01F0E4FCFA20400054
:1026400005F01AFD201C02F0B1F9307001F050FEC7
:102650000025FA20400005F00FFD201C01F086FE49
:10266000307001F045FE042D02DD174B00221A7078
:102670003378002B04D0144B01351B78002BE8D1A4
:102680000BB0F0BDC046C04620A10700000000000E
:10269000BD0100207809002057DF0000D401002090
:1026A00065DF000072DF00003CDF0000000000205A
:1026B00008000020AC030020BE010020A803002079
:1026C00022040000BD030000B5010020B801002075
:1026D000B60100201521000070B5061C0024335DF2
:1026E000074D0F2B03D8281C064904F021FF315D4C
:1026F000281C1022013404F068FF082CEFD170BDB3
:1027000078090020F8E50000F8B50024201C02211B
:10271000013405F0EFFE172CF8D12024201C0221F3
:10272000013405F0E7FE2A2CF8D11920022105F02A
:10273000E1FE1A20022105F0DDFE0820012105F04E
:10274000D9FE0820002105F02FFF0920002105F007
:10275000D1FE0920012105F0CDFE0920012105F05F
:1027600023FF0F20012105F0C5FE0F20002105F0F9
:102770001BFF0021132005F0BDFE0C2005F0F4FD29
:102780004E4C9621201C890103F0D8FE012108201F
:1027900005F00AFF4A4805F06FFC0820002105F00B
:1027A00003FF4849201C04F0D5FE474D0021281C9A
:1027B00000F032FF0022281C131C0A2100F06CFEDE
:1027C0001123281C1421022200F0B2FE3F4801F020
:1027D000E1FC3F4D3F492870201C04F0A9FE2B78F6
:1027E000201C002B01D03C4900E03C4904F0B2FE23
:1027F0003B4F0026381C01F0C8F93A4D311C082225
:10280000281C09F0F0F93848291C01222E81AE72EB
:1028100001F038F8B04213D03449201C04F088FE8F
:10282000281CFFF759FF201C314904F093FE0123B7
:10283000AB72381C291C0C22331C01F0E2F903E0B6
:10284000201C2C4904F086FE2B4D4421281C01F04D
:10285000C9FA00280BD1201C284904F07BFE284B24
:102860000122281C27491A7001F0C6FA03E0201C37
:10287000254904F06FFE2548772200230125427088
:1028800003220370C270037143718571C5710572B3
:1028900000F072FA602806D1201C1D4904F05AFE8F
:1028A0001C4B1D7003E0201C1B4904F053FE201C30
:1028B00003F045FE194804F01FF9F8BD780900201F
:1028C0001027000081DF0000B60100200802002070
:1028D000BF01002087DF000098DF00009FDF0000BD
:1028E000980100208C010020C0010020A7DF00001B
:1028F000FDE50000B4DF0000B4010020C0DF0000EF
:10290000BC01002010C6FFFFCCDF0000D401002076
:10291000D9DF0000BD010020E3DF0000430E0020EE
:1029200010B50B4800F042FD0A4801F01DFC0A4CAE
:102930000B21201C00F088FF211C084801F044F8FE
:10294000074800F09FF9074801F04AFA10BDC04659
:10295000B601002008020020C001002098010020DC
:10296000D4010020B4010020F8B5051C0F1C161C72
:102970000024B44208D02B68395D1B68281C984796
:10298000002801D00134F4E7201CF8BD704708B5D9
:10299000183004F055FF08BD08B5183004F064FF86
:1029A00008BD38B5837D0D1C002B06D0041CC43433
:1029B000201C04F06FFF002801D0002004E0201C40
:1029C000291C04F024FF012038BD08B5183004F09C
:1029D00054FF08BDF7B50193FA239B0083600B4BAE
:1029E00000250833041C4560036018300F1C161CBA
:1029F00004F000FF201CC43004F0FCFE019B2761A2
:102A00002675A575201C6375FEBDC046F0DF00006D
:102A100070B50D49041C006905F0C4F9206905F082
:102A200058F81826207D331C4343084D0821EB1825
:102A3000595605F0E9FD607D08214643AD196956F8
:102A400005F0E2FD70BDC046A0860100D8EA000096
:102A5000F7B5041C00200E1C151C0193824231D0D6
:102A6000271C1837381C04F0E4FE2069311C0122B1
:102A700005F06CF8002823D0206905F0D6F8011C79
:102A8000381C04F0C4FE01262069AE420ED005F0C9
:102A90003DF80221206905F043F8206905F0C5F8EA
:102AA000011C381C04F0B3FE0136EDE705F025F8F3
:102AB000019B002B05D02069032105F031F800E0CF
:102AC000051CE8B2FEBD08B50123FFF7C1FF08BD34
:102AD00010B5B8235B00C154041CC43004F0A9FE37
:102AE0000123A37510BDF8B50022B82382755B00E1
:102AF000041C0F1CC15C006905F028F8002805D1F2
:102B00002069032105F00CF802251DE0261CC436BF
:102B1000301C04F0A9FE00280FD0301C256904F0F9
:102B20008FFEC1B2281C05F040F80028EED12069C4
:102B3000032104F0F5FF032506E0051C002F03D058
:102B40002069032104F0ECFF281CF8BD08B5012121
:102B5000FFF7C9FF08BD38B5041C006905F043F84C
:102B6000002879D0206905F04CF800280ED12069A2
:102B700005F051F800281FD0206905F047F800281B
:102B80001AD0206905F04CF8002815D1206904F00E
:102B9000BDFF2069032104F0C3FF231CFC33DD6F5C
:102BA000002D04D02368201C9B689847A847201C50
:102BB000183004F03EFE4FE0206905F02CF8031CAD
:102BC0002069002B16D004F0A1FF2069032104F036
:102BD000A7FF206905F024F800283DD0201CC43050
:102BE00004F027FE0123A375FC34A36F002B33D020
:102BF000984731E005F000F800282DD0206905F055
:102C00000FF8251C00280FD0C435281C04F02CFE1A
:102C1000FF21002803D0281C04F012FEC1B2206955
:102C200004F0D4FFA07517E01835281C04F032FE1C
:102C3000031C2069002B02D004F05FFF08E004F0C1
:102C4000F4FF011C281C04F0E2FD206904F05EFF83
:102C50002069032104F064FF38BD000008B5024874
:102C6000FFF779FF08BDC0461002002008B50348F1
:102C7000034914221523FFF7ADFE08BD1002002002
:102C8000600900207722002342700A2203708270BC
:102C9000C3708371C371037270470000F8B5057883
:102CA000041C0F1C161C002D13D0012D21D180787F
:102CB000002105F079FC7F2139400E4800F054FBDB
:102CC000311C0C4800F050FBA078291C05F06CFC6E
:102CD0000FE0094D4178281CFFF7FAFE391C281C2B
:102CE000FFF75FFE281C311CFFF75BFE281CFFF777
:102CF0002DFFF8BD9403002010020020F8B50578E0
:102D0000041C0F1C002D15D0012D2ED18078002120
:102D100005F04AFC164E80213943301C00F024FB9C
:102D2000301C002100F020FB291C061CA07805F0B7
:102D30003BFC1AE00F4D4178281CFFF7C9FE391CF7
:102D4000281CFFF72EFE281CFFF700FF6178281CC7
:102D50000122FFF7B8FE281CFFF71EFE002804D052
:102D6000281CFFF714FEC6B2F5E7301CF8BDC046BC
:102D7000940300201002002070B50578041C002D7B
:102D80001AD0012D1BD1894E301C00F09BFA301C4B
:102D9000602100F0E1FA301C291C00F0BBFA301C65
:102DA000291C00F0C1FAA078291C05F0A3FBA0782B
:102DB000291C05F0F9FB02E07D48FFF729FE892177
:102DC000201CFFF79BFF8821051C201CFFF796FFA6
:102DD0002D02451965818B21201CFFF78FFF8A2169
:102DE000051C201CFFF78AFF2D024519A5818D21A6
:102DF000201CFFF783FF8C21051C201CFFF77EFFA2
:102E00002D024519E5818F21201CFFF777FF8E21C8
:102E1000051C201CFFF772FF2D0245192582912108
:102E2000201CFFF76BFF9021051C201CFFF766FF9D
:102E30002D02451965829321201CFFF75FFF922127
:102E4000051C201CFFF75AFF2D024519A58295216C
:102E5000201CFFF753FF9421051C201CFFF74EFF99
:102E60002D024519E5829721201CFFF747FF962187
:102E7000051C201CFFF742FF2D02451925839921CF
:102E8000201CFFF73BFF9821051C201CFFF736FF95
:102E90002D02451965839B21201CFFF72FFF9A21E6
:102EA000051C201CFFF72AFF2D024519A5839D2133
:102EB000201CFFF723FF9C21051C201CFFF71EFF91
:102EC0002D024519E5839F21201CFFF717FF9E2146
:102ED000051C201CFFF712FF2D0245192584A12196
:102EE000201CFFF70BFFE31CD877E221201CFFF723
:102EF00005FFE121051C201CFFF700FF2D024519ED
:102F0000A584E321201CFFF7F9FEE31DD877E42117
:102F1000201CFFF7F3FEE521051C201CFFF7EEFE49
:102F20000F2318402B01C5182585E621201CFFF72B
:102F3000E5FEE521051C201CFFF7E0FE0009C0B2FC
:102F40002D0145196585E721201CFFF7D7FE231CBD
:102F50002C331870F421201C0022FFF79FFE6279A9
:102F600023791C2592005B012A401A43D2B2201C0F
:102F7000F521FFF793FE227A07231A40201CF22145
:102F8000FFF78CFEE178A37903225B010A401A4324
:102F9000E379201C9B001D401543EAB2F421FFF7A2
:102FA0007DFED021201CFFF7A9FE70BD94030020F8
:102FB0001002002000000000F0B5F7218DB0019054
:102FC000FFF79CFEF82109900198FFF797FEF92181
:102FD0000A900198FFF792FE019E0B90316B0A1C3C
:102FE000CB17161C1F1C5F495D4836184F41321C19
:102FF0003B1C301C391C05F017FD02900391019811
:103000000199408B019A0690098B019B0791D28A06
:10301000301C089212229A5E391CD31705F004FD69
:10302000030D040301980D031422825E1D430298D0
:103030000399D31705F0F8FC0A069446020A604685
:1030400002430B12101C191C00196941464A474BD8
:1030500080185941019B1A8A002305F0E5FC4810AD
:10306000031CC917049005910B430020002B72D05C
:1030700006990AB2D3170298039905F0D5FC079B6D
:10308000041C1AB2D3170D1C301C391C05F0CCFCE3
:103090008C46664673040A9EC10B3701099E0B439A
:1030A0004204A4185D4133030B9E3B433209D2B264
:1030B000134380225203D31A089EDF175A08F907D8
:1030C00037B21143D8070022FB0012196B41801A56
:1030D0009941274A274B05F0A7FC049A059B05F068
:1030E0007FFC0D1C4F13CB040199041C460B2020C0
:1030F000085E1E43321C3B1CC11705F095FC321CB8
:103100003B1C05F091FC019A460E1E20105ECB017F
:10311000221C1E434F162B1CC11705F085FC3619C7
:103120006F41C20C4C032243CB14B6185F41300AE6
:10313000019E3B061C24345F1843E617250F33011C
:103140002B43220139128018594105F0C9FCEE21A8
:10315000890505F017FF0DB0F0BDC046C046C0465A
:10316000000CFEFFFFFFFFFF0000000000800000DA
:10317000350C00000000000038B5FD21041CFFF7ED
:10318000BDFDFE21051C201CFFF7B8FD216B214A67
:103190008B18290201432820225E89031205891A0F
:1031A0002A20225E5A43891A8022D2018918221CC1
:1031B0002C321078E21DD27F58435A4380231B02E1
:1031C000D2128012D2184243802080039212121829
:1031D0002420235EC9135A4380239B01D2189213E3
:1031E0004A43D3135B430334E07FDB1143431B119A
:1031F000D31AD843C0171840C8235B05984200DD96
:10320000181C001306F078F9EA21890505F0BAFECA
:1032100038BDC04600D4FEFF70B5FA21041CFFF78C
:103220006DFDFB21061C201CFFF768FDFC2105013C
:10323000201CFFF763FD360300093543C0B2284365
:10324000628903119B1A5B430E25615FC0101B133B
:1032500052004B43821A0C21605E9B134243D212F0
:103260009B180520584380302363001206F044F970
:10327000014905F0A3FC70BD0000C842437A002B51
:1032800004D18372C372C36001234372704730B5A7
:1032900085B0041C02AD00680291039204F0AAFB01
:1032A0006B79E179227A00932068002304F056FDBF
:1032B00029792068029A04F06DFB206804F090FBE5
:1032C00005B030BD70B5041C1826FFF7D7FF207974
:1032D000331C43430D4D0821EB18595605F094F962
:1032E000A079331C43430821EB18595605F08CF99B
:1032F000607908214643AD19695605F085F9044BFC
:10330000201C06CBFFF7C3FF70BDC046D8EA000003
:103310008C03002008B50068002901D1012100E0DC
:10332000002104F071FB08BD08B5031C032912D865
:10333000081C1B6805F022FA050B0208181C002166
:1033400007E0181C012104E0181C022101E0181CF0
:10335000032104F085FB08BD08B50068032900D8E7
:10336000042104F065FB08BD08B5006804F096FB75
:1033700008BD0000094B0A4A0A491A6000225A7126
:103380001A71094B196016211971182199711721A9
:10339000597101215A72D9711A7270478C03002039
:1033A00000093D00700900209403002000230370F1
:1033B0007047000008B5044B1B68002B00D09847ED
:1033C000024B01221A7208BDA40300200014004021
:1033D0000378002B0AD0064B081C197F07221040E7
:1033E0009143014319779A7AD209FCD17047C046BC
:1033F00000140040014B19607047C046A403002030
:10340000034B04211A690A431A6130BF7047C04652
:1034100000ED00E0024B98690005800E7047C04641
:10342000001400400378002B0AD0064B081C1969D1
:103430003F2210409143014319619A7AD209FCD18D
:103440007047C046001400400378002B0BD0064B99
:103450003F2211408A011869044901401143196152
:103460009A7AD209FCD17047001400403FF0FFFF68
:103470000378002B0BD0064B1F2211400A0318695A
:1034800004490140114319619A7AD209FCD170476D
:1034900000140040FF0FFEFF70B5161C0278041CDC
:1034A0000D1C002A0AD0191CFFF7BCFF201C311C80
:1034B000FFF7CAFF201C291CFFF7DAFF70BD0000D0
:1034C0000378002B0BD0064B1F2211404A041869C9
:1034D00004490140114319619A7AD209FCD170471D
:1034E00000140040FFFFC1FF0378002B0BD0064BF8
:1034F0000F2211408A0518690449014011431961DE
:103500009A7AD209FCD1704700140040FFFF3FFCBB
:103510000378002B09D0054B8A06196989018909AE
:10352000114319619A7AD209FCD170470014004006
:1035300070B51D1C0378041C161C002B09D0FFF766
:10354000BFFF201C311CFFF7CFFF201C291CFFF7F9
:10355000DFFF70BD0378002B0BD0064B3F221140DC
:103560008A01986904490140114399619A7AD20904
:10357000FCD17047001400403FF0FFFF0A4B0B4A9C
:103580009A605A7852B2002AFBDB0949064A516018
:103590005A7852B2002AFBDB0649034A51805A7816
:1035A000D209FCD17047C046000C00400204000064
:1035B0000205110004420000044B02211A888A43CC
:1035C0001A809A7AD209FCD17047C0460014004094
:1035D000044B02211A880A431A809A7AD209FCD134
:1035E0007047C04600140040044B01211A880A436A
:1035F0001A809A7AD209FCD17047C0460014004064
:10360000044B01211A888A431A809A7AD209FCD184
:103610007047C04600140040F7B52B4B0F1C9A6949
:1036200020210A439A61294A294B0026051C9A82C7
:10363000284CB7420AD1284B1A7870231A4240D03E
:1036400023881A073DD5226901260192281CFFF71D
:1036500095FF281CFFF7B0FF281CFFF7C5FF628805
:103660001E4B134063801E4B2380A27A194BD20954
:10367000FBD11C4A08211160C0218900505800026A
:10368000000A5050DA7901210A43DA711A7F0721C2
:103690008A431A77A37ADB09FCD1281CFFF798FF2D
:1036A000281CFFF7ADFF002F02D001232B70F7BDC0
:1036B000002EFAD0074B019A1A61A37ADB09FCD1DC
:1036C000F3E73E1CC2E7C04600040040CE060000FF
:1036D000000800400014004038040040FFBFFFFF16
:1036E000080A000000E100E00368426872B6536017
:1036F00062B67D200138C0B200281DD020210139DA
:10370000FDD1116A0B42F5D072B65361936062B677
:10371000F02149010139FDD172B68C215360C900F5
:103720000139FDD1106A034058425841C0B262B617
:10373000CD225201013AFDD170470CC8C8070AD505
:1037400072B6A0215A619A600139FDD19A6162B6C0
:10375000DC239B0009E072B682215A61C9009A609D
:103760000139FDD19A6162B65023013BFDD170470A
:103770000368426872B63021936053610139FDD10C
:10378000A02153600139FDD1106A62B6D4229200A3
:10379000013AFDD10340581E8341D8B27047F7B5B6
:1037A000041C0F1C019208250126391C31404B1EB8
:1037B0009941C9B2201C7600013DFFF7BEFFF6B269
:1037C000002DF2D1019A002A06D172B622686368F0
:1037D0005A6022685A6162B6F7BDF8B5071C082521
:1037E00000240126381CFFF7C3FF002800D0344313
:1037F0007600013DF6B2002DF4D1201CF8BD70B565
:1038000000220E1C5521051CFFF7C9FF0024315D65
:10381000281C00220134FFF7C2FF082CF7D170BD2D
:1038200008B5CC210022FFF7BAFF08BD00230374BE
:10383000837443740723C218002111728B4201D094
:10384000013BF8E77047000038B5041C0D1C081C4C
:10385000002104F04FFE18225543084B01215A194C
:103860005268EB569140064ADB019B18201C2160F0
:103870006360FFF7DBFF201C38BDC046D8EA0000BC
:1038800000440041F0B585B00391867C041C151CF2
:10389000002E5AD1FFF728FF002857D0201C002DFA
:1038A00002D0F021321C01E0EC212A1CFFF777FF47
:1038B0000126002101910291351C201CFFF758FFC1
:1038C000071C201CFFF754FF012F02D1012816D13D
:1038D00032E0019AA318874219D1277CBD4204D255
:1038E0001F7A37407A1E974102E0EF1B7A42574118
:1038F000FFB2002F03D1082D08D8657406E00199A6
:10390000012763181A7A32431A7203E002951A7A71
:10391000B2431A727600201C391C0135F6B2FFF74B
:103920000CFFEDB2002E04D1019B01260133DBB266
:103930000193019A072AC0D9402D06D9029B23740E
:10394000002B07D10123A37404E000202074A0748D
:1039500060740BE0237A002BF7D00023E218127A70
:103960000399CA540133082BF8D1012005B0F0BDEA
:10397000031C00200139C9B2FF2905D01A78013390
:103980005040024A105CF5E77047C04610E0000066
:103990000B78282B09D004D8102B06D0222B06D167
:1039A00003E03B2B01D0422B01D1012000E000209D
:1039B000704700230371437103700923437001238F
:1039C00081608370C370704710B5041CFFF7F1FF6E
:1039D0000023201CA36110BD10B5081C0C1C07217E
:1039E000FFF7C6FFE379181A43425841C0B210BD31
:1039F000F8B5051C80680E1C171CFFF717FF002484
:103A0000A868311C0122FFF73DFF00280BD0BC4203
:103A100005D1281C311CFFF7DFFF002804D1013439
:103A2000E4B2BC42ECD90020F8BDF8B5041C8068B3
:103A30000F1C161CFFF758FE0025A84216D0A068E0
:103A4000391CFFF7DCFEA068BE212A1CFFF7A7FE89
:103A5000A068FFF7C2FE70550135092DF8D1A068A6
:103A6000FFF742FE451E6B425D41EDB2281CF8BDDA
:103A700010B5141CFFF7D9FF031C0020834208D0A7
:103A8000201C0821FFF774FF237A181A434258417B
:103A9000C0B210BD1FB501AAFFF7EAFF05B000BD17
:103AA00070B5041C0D1C8068161CFFF71DFEA06875
:103AB000291CFFF7A4FEA0684E210022FFF76FFE2D
:103AC000B178A0680022FFF76AFEF178A0680022B2
:103AD000FFF765FE2B78102B04D03179A068002207
:103AE000FFF75DFEA068FFF7FFFDA068291CFFF748
:103AF00086FE2278A0684821FFF751FE142004F0CA
:103B0000BBFA2378002B02D00A2004F0B5FAA06893
:103B1000FFF7EAFD70BD38B5041C0D1C8068FFF787
:103B2000E3FDA068291CFFF76AFEB4210022A0680B
:103B3000FFF735FEA068FFF71BFE051CA068FFF726
:103B4000D3FD68426841C0B238BD1FB50A780C2366
:103B5000102A17D001AC221CFFF78AFF00239842DD
:103B600010D022793F2A0CD003D809231F2A09D06C
:103B700005E00B235F2A05D00C237F2A02D0002307
:103B800000E00A23181C04B010BD37B5041C80687F
:103B9000FFF74CFE002323716371A0686946012280
:103BA000FFF770FE00282BD0201C6946FFF714FF9A
:103BB0000028F2D02378002B05D1201C6946FFF79E
:103BC000AAFF002819D1201C69466578FFF7BDFFC0
:103BD000854201D9607803E0201C6946FFF7B5FFF4
:103BE0002379607001332371201C6946FFF7D0FEF2
:103BF0000028D2D063790133CEE701232370E2E7B6
:103C000037BDF0B589B0041C0F1C01930925082AA3
:103C100004D9151C0C2A00D90C25EDB2201C391C26
:103C2000FFF793FFA84243D005AE201C391C321C7D
:103C3000FFF71EFF002398423BD03B78102B37D074
:103C40000B2D08D00C2D04D01F230A2D04D13F23A7
:103C500002E07F2300E05F23321C201C391C3371FB
:103C6000FFF71EFF62782B1C954200D2131CDAB2BC
:103C70006370019B002B1BD1AA4219D965701D1CD2
:103C800023799D4214DA03A9EAB2201CFFF7B0FEA3
:103C9000201C03A96678FFF758FF864201D9607897
:103CA00003E0201C03A9FFF750FF60700135E7E730
:103CB0000123181C09B0F0BD08B58068FFF758FD56
:103CC000013843425841C0B208BD00000939C9B2A9
:103CD00070B5051C022903D80E4B4900CC5A00E0F0
:103CE0000D4CEB78002B11D02B78002B0ED104F06B
:103CF000BDF9061C281CFFF7DFFF002809D104F0DE
:103D0000B5F923B2C01AB04203D2F3E720B204F0EF
:103D1000B3F970BD10E10000EE02000010B5041C04
:103D20008068FFF7E1FCA068FFF77AFD2278A068C1
:103D30004421FFF734FDA378002B03D06178201CC9
:103D4000FFF7C4FF10BD10B553781478DB02E40010
:103D50001C430B78A4B2102B0BD1D1799079081A9F
:103D6000C00104F063FD0F239C431038E4000419E4
:103D7000A4B220B210BD000030B585B001AA051C68
:103D80000C1CFFF775FE002805D0281C211C01AA79
:103D9000FFF7D9FF00E0024800B205B030BDC046D1
:103DA00080E4000008B5064B984206DB05F0A4FB52
:103DB000F021890505F0E6F800E0024808BDC0469C
:103DC00081E4FFFF0000FEC208B5FFF7D5FFFFF753
:103DD000E9FF08BD08B50368C9B21B68984708BD6C
:103DE0007047000008B501700248FEF711FE002080
:103DF00008BDC0461002002038B50D4C8DB20178C8
:103E0000201CFEF765FE201C0121FFF7E3FF2912AD
:103E1000201CFFF7DFFFE9B2201CFFF7DBFF201CAF
:103E2000FEF794FE0A235B42584340B238BDC046B9
:103E30001002002038B5094C0D1C0178201CFEF73B
:103E400047FE291C201CFFF7C5FF201C0121FEF79F
:103E50004AFE0A235B42584340B238BD100200209C
:103E600073B5114D0E1C02220178281CFEF72BFEA3
:103E7000FB24281CFEF790FD012807DC0A20013CEA
:103E800004F0FAF8002CF4D19C200BE001AC0222E3
:103E9000281C211C03F0B7FF237862781B02134310
:103EA0003380002040B276BD1002002000000000E8
:103EB000F0B5061C87B00C1C081C111CFFF7BAFFDC
:103EC000002834D103AF391C201CFFF7C9FF019033
:103ED000019904A80090002000291FD13B88787820
:103EE0006A469382000907F065F9021C0B1C15490C
:103EF000134801F085F8144A144B06F02FFB041CFC
:103F000038880D1C0005000D07F016F9021C0B1C6B
:103F1000201C291C06F022FB07F0D2F9049001981E
:103F20006B46009A9875331C03CA03C302E0002352
:103F30003360B071301C07B0F0BDC046C046C0460B
:103F400000000000000000407B14AE47E17A843F8F
:103F500010B50022041CFFF7ABFF201C10BD0000B1
:103F6000034BA5221A72DA79D209FCD17047C046F8
:103F700000100040044B02211A788A431A70DA7943
:103F8000D209FCD17047C04600100040064B022108
:103F90001A788A431A70D979034AC909FBD19379EF
:103FA00001210B4393717047001000400E4B0F4AE4
:103FB00030B59A600E4A5A605A78D209FCD10D4A3F
:103FC000094B0D495A800422CA670C4BC021490095
:103FD0005A50C02189005D58094C2C405C501A6031
:103FE0000123037030BDC046000C004002040000F5
:103FF000020311000342000004E100E000E100E0E0
:10400000FFFF00FFF8B50378051C0F1C161C002BE2
:1040100001D1FFF7CBFF4A4C00232370E379DB0982
:10402000FCD1484B9F4225DC002F23D0FA235B00B4
:10403000BF02FA21F818890004F0F8FB424B9842BD
:104040001CDC424B98421DDC414B98421EDC414B2C
:1040500098421FDC404B984220DCFF2822DC7F285E
:1040600024DC3F2825DC1F2826DC0F2827DD012340
:10407000102226E080220B23D20122E080220A2394
:1040800092011EE08022092352011AE080220823B7
:10409000120116E080220723D20012E080220623BC
:1040A00092000EE08022052352000AE004238022C1
:1040B00007E00323402204E00223202201E0002342
:1040C00008220121002E24D060790B260143617162
:1040D00060780F2188433043607060780B401B018B
:1040E000014019436170237804210B432370E37965
:1040F000DB09FCD1FA26B600564380239B00281C1E
:10410000F618FFF72DFF237802221343B61223700F
:1041100010E020790143217160780F210B40884322
:1041200003436370237804218B432370E379DB0915
:10413000FCD1DFE7E379DB09FCD1301CF8BDC046D8
:10414000001000407F3E0000FF1F0000FF0F000036
:10415000FF070000FF030000FF010000014B0022E9
:104160001A707047A80300207047000010B5084C73
:104170004021201CFEF7ACFCFE21201CFFF72AFE8C
:10418000201CFEF7E3FC0F2003F076FF10BDC046B5
:104190001002002038B5104C051C201CFEF738FC1E
:1041A000281CFFF7E3FF201C4021FEF791FCE721CC
:1041B000201CFFF70FFE201CFEF7C8FC4021012247
:1041C000201CFEF780FC201CFEF7E1FB0238434276
:1041D0005841C0B238BDC0461002002000000000A7
:1041E00070B5234C4021201CFEF772FCE321201CFB
:1041F000FFF7F0FD201CFEF7A9FC322003F03CFF86
:10420000201C40210322FEF75EFC201CFEF7C4FBAD
:104210000028FAD0201CFEF7BAFB86B2201CFEF75D
:10422000B6FB3502ADB20543201CFEF7B0FBA8B2C9
:1042300005F0BEF906F0F2FF0A4B094A06F08EF9C6
:1042400007F03EF8DE21890504F09CFE06F0E6FF4B
:10425000054A064B06F012FC07F032F870BDC04666
:10426000D7A3703D0AF76540CDCCCCCCCC6C474091
:1042700010020020C046C04670B51A4C4021201CD8
:10428000FEF726FCE521201CFFF7A4FD201CFEF70D
:104290005DFC322003F0F0FE201C40210322FEF7DB
:1042A00012FC201CFEF778FB0028FAD0201CFEF739
:1042B0006EFB86B2201CFEF76AFB3502ADB20543E9
:1042C000201CFEF764FBA8B205F072F9064904F061
:1042D00059FEDE21890504F055FE044904F07CFFF7
:1042E00070BDC046100200200000FA420000C0402D
:1042F00000B589B000236A461370082822D804F05C
:104300003DFA05080B0E1114171A1D0068460E49D8
:1043100016E068460D4913E068460D4910E068460E
:104320000C490DE068460C490AE068460B4907E075
:1043300068460B4904E068460A4901E00A496846B4
:1043400007F063FD09B000BD28E500003CE5000072
:1043500053E5000067E500007CE5000093E5000000
:10436000ABE50000C0E50000D6E50000F0B5051C97
:10437000A4358FB0041C0021FA22281C07F055FC3C
:1043800000210F2202A807F050FC0AAE00210F22E4
:1043900006A807F04AFC0F220021301C07F045FC5C
:1043A0001A4B281CFE33598A07F0F6FC184F02A856
:1043B000B98A07F0F1FC3B1C5033198806A8543722
:1043C00007F0EAFC3988301C07F0E6FCFA239B0072
:1043D00001930096201C291C02AA06AB00F0ACFD3C
:1043E000012804D10B4BE0540B4BE05406E00228AB
:1043F00006D1084B0122E054074BE254002003E0B1
:104400000338431E984101300FB0F0BDECE80000C6
:10441000C4E600002A0400002B040000E1231B0274
:1044200010B54360012301700374041CC82003F01D
:1044300023FE201C00F02EFB9620400003F01CFE03
:10444000201CFFF793FF201CFFF790FF10BD00001A
:10445000F0B5051CA4358BB0041C0E1CFA220021FB
:10446000281C07F0E2FB00210F2202A807F0DDFB69
:1044700000210F2206A807F0D8FB114AA4235B00F5
:10448000D15A281C321C07F087FC0E4F02A839882D
:1044900007F082FCB98806A807F07EFCC8230093C9
:1044A000201C06AB291C02AA00F03CFD02230128B7
:1044B00002D1054BE6540023181C0BB0F0BDC046DA
:1044C000ECE80000C4E600004A030000F0B5061C5A
:1044D000A4368BB0041CFA220D1C301C002107F0FE
:1044E000A4FB00210F2202A807F09FFB06A80021D1
:1044F0000F2207F09AFB1A4BE35C012B02D0022B30
:1045000004D029E00720854227D802E00720042DA7
:1045100023D8144B2A1C48331988301C07F03CFC64
:10452000114F02A8398807F037FCB98806A807F0B0
:1045300033FC64230093201C311C02AA06AB00F05C
:10454000F1FC012803D1094B0020E55405E00238B5
:10455000431E9841013000E008200BB0F0BDC0467A
:104560002A040000ECE80000C4E600004B03000051
:10457000F0B5061CA4368FB0051C0021FA22301CB1
:1045800007F053FB00210F2202A807F04EFB0AAFF1
:1045900000210F2206A807F048FB0F220021381C3B
:1045A00007F043FB244B301CFE33598E07F0F4FB1D
:1045B000224C02A8218807F0EFFBA18806A807F08B
:1045C000EBFBA31DD98F381C07F0E6FBFA235B0039
:1045D00001930097281C311C02AA06AB00F0ACFC2A
:1045E00001281DD10F22002102A807F01EFB218BFC
:1045F00002A807F0D1FB4C340F22002106A807F0D7
:1046000014FB218806A807F0C7FB0D4B281C02A944
:1046100006AA00F037FB0138431E9841C0B208E0FB
:10462000022805D00338431E98410323181A00E0DE
:1046300001200FB0F0BDC046ECE80000C4E6000069
:10464000204E0000F0B5644B071C99B00025A4373C
:10465000C5540391041C291C161C381CFA2207F0AF
:10466000E4FA291C142204A807F0DFFA291C1422FA
:1046700009A807F0DAFA0EA8291C142207F0D5FAC7
:10468000039B0720DF2B00D9A4E0301C07F0C5FBFB
:1046900085420BD2735D1A1C303A092A03D9413B7B
:1046A000052B00D991E00135EDB2F1E74B4B039AB0
:1046B000998A381C331C07F06FFB494D04A82988E0
:1046C00007F06AFBA98809A807F066FB2B1C483392
:1046D0000EAE1988301C07F05FFBFA239B00019394
:1046E0000096201C391C04AA09AB00F025FC012807
:1046F00065D10021142204A807F097FA00211422A2
:1047000009A807F092FA13AF00211422301C07F019
:104710008CFA14220021381C07F087FAA98904A812
:1047200007F03AFB298C09A807F06FFB0235698F67
:10473000301C07F06AFBE98F381C07F066FB294B39
:1047400000970193201C04A909AA331C00F0E8F982
:10475000051E012D2AD1FA22201C2349520000F007
:1047600089FA231CA2331B88002B1DD01F4E201C4E
:10477000311C113007F06CFB07F0EAF9EF239B00C6
:10478000E054311C002007F063FB194B071CE618AE
:1047900000216522301C07F048FA301C391C6422C5
:1047A00007F042FB0C4BE554002013E00228FBD03D
:1047B0000520032D0ED0042D09D002200AE0022886
:1047C00007D00328F9D1062004E0072002E0281CC6
:1047D00000E0012019B0F0BD22040000ECE8000068
:1047E000C4E6000020BF0200FBE50000FAE500007F
:1047F000BD030000F0B52C4E8BB0051C0C1C081C32
:10480000311C07F0F8FA002806D0201C274907F0D1
:10481000F2FA0723002844D12E1CA436301C0021B4
:10482000FA2207F002FA00210F2202A807F0FDF990
:1048300000210F2206A807F0F8F91D4B221C4C336B
:104840001988301C07F0A8FA1A4F02A8398807F017
:10485000A3FAB98806A807F09FFAFA235B00009331
:10486000311C281C02AA06AB00F05CFB061E012EC0
:1048700013D1201C0C4907F0BEFA002802D1CF2327
:104880005B00EE54201C094907F0B5FA002398425A
:1048900007D1CF225200AB5403E0023E731E9E416B
:1048A000731C181C0BB0F0BD24DF0000FEE50000F7
:1048B000ECE80000C4E60000F0B5051CA4358BB0A0
:1048C000041C0E1CFA220021281C07F0AEF900215E
:1048D0000F2202A807F0A9F900210F2206A807F06D
:1048E000A4F9124B321CFE33D98A281C07F054FA63
:1048F0000F4F02A8398807F04FFAB98806A807F0C9
:104900004BFA64230093201C291C02AA06AB00F07A
:1049100009FB012803D1074B0020E65403E00238CD
:10492000431E984101300BB0F0BDC046ECE80000DA
:10493000C4E6000042020000F0B5061CA4368BB0AD
:10494000071C141C301C0021FA221D1C07F06DF9F5
:1049500002A800210F2207F068F906A800210F2203
:1049600007F063F90F4AA2235B00D15A301C221CC6
:104970002B1C07F011FA0C4C02A8218807F00CFA46
:10498000A18806A807F008FA64230093381C06AB38
:10499000311C02AA00F0C6FA023843425841C0B2A4
:1049A0000BB0F0BDECE80000C4E6000030B5051C1B
:1049B000A43585B0041C0021281CFA2207F035F923
:1049C000684600210F2207F030F900232B70231CCA
:1049D0005522A5331A700A4B6846198807F0DCF98E
:1049E000201C291C022200F0B2FA201C6946642215
:1049F00000F040F90138431E9841400005B030BD39
:104A0000C4E60000074BE12212025A60064A074939
:104A10009A606422DA6001221A7400225A5404490E
:104A20005A547047AC030020881300002B04000088
:104A30002A040000F7B5181C0191161C1F1C07F072
:104A4000ECF9051C0020041CAE4210D3731B9C42E1
:104A50000AD8019B391C18192A1C07F0B5F8002840
:104A600004D00134A4B2F1E7002000E00120FEBD33
:104A700008B5031C002904D10448191C01F05EFD8F
:104A800003E00348191C03F0D5F908BD780900209C
:104A9000D807002008B5031C19784068FFF7E8FF25
:104AA00008BD000008B5031C002904D1191C0448E6
:104AB00001F0B2FC03E00348191C03F0E1F908BD62
:104AC00078090020D807002038B5041C0D1C207878
:104AD000002804D0291C0134FFF7E4FFF7E738BDB4
:104AE00008B5002803D1044801F0A0FC02E0034807
:104AF00003F0B7F908BDC04678090020D8070020A8
:104B000008B5002803D1044801F0B8FC02E00348CE
:104B100003F0B1F908BDC04678090020D80700208D
:104B2000F0B5051C85B01135041C039101920021DC
:104B30009022281C029307F078F8231CA233002649
:104B40001E8003F093FA371C009003F08FFA009B4D
:104B5000C01A0B9B984200D382E02078FFF7C0FF79
:104B600000280ED08E2F0CD82078FFF7C9FFE3194C
:104B70005874231CA2331A887E1CB6B201321A80E4
:104B8000371C231CA2331E88201C291C321C039BAB
:104B9000FFF750FF00280ED0334C3449201C02F0A0
:104BA000C3FC3349201C02F0BFFC201C039902F017
:104BB000D1FC012055E0019B002B15D0201C291CA5
:104BC000321CFFF737FF00280ED0274C2749201C46
:104BD00002F0AAFC2649201C02F0A6FC201C019928
:104BE00002F0B8FC02203CE0029B002B15D0201CF8
:104BF000291C321CFFF71EFF00280ED01A4C1B493F
:104C0000201C02F091FC1A49201C02F08DFC201C93
:104C1000029902F09FFC032023E00A9B002B15D091
:104C2000201C291C321CFFF705FF00280ED00E4C5B
:104C30000E49201C02F078FC0D49201C02F074FC87
:104C4000201C0A9902F086FC04200AE003F00EFA08
:104C5000009B984200D378E703F008FA009074E7CD
:104C6000002005B0F0BDC0467809002045EA0000EC
:104C70004DEA000007B50023019200931A1CFFF7CC
:104C80004FFF0EBD13B51C1C002300930194FFF7CA
:104C900047FF16BD70B5002803D10E4801F0CCFBCC
:104CA00016E003F0E3F9051C0B4C201C03F0D9F8C7
:104CB000261C002804D003F0D9F9401B632803D92F
:104CC000301C03F0C9F803E0201C03F0D4F8EBE734
:104CD00070BDC04678090020D8070020F0B5874D88
:104CE000874E85B00F1C041C311C281C01930292B6
:104CF00002F01AFC8349281C02F016FC391C281CFF
:104D000002F028FC311C281C02F00EFC7E49281CF5
:104D100002F00AFC281C029902F01CFC019B002BEB
:104D20000BD0311C281C02F0FFFB7849281C02F034
:104D3000FBFB281C019902F00DFC0A9B002B0CD0F8
:104D40006E4D6F49281C02F0EFFB7149281C02F0E0
:104D5000EBFB281C0A9902F0FDFB0B9B002B0CD0EF
:104D6000664D6749281C02F0DFFB6A49281C02F0E7
:104D7000DBFB281C0B9902F0EDFB237C002B02D0FF
:104D80002078FFF787FF2178381C251CFFF79CFE51
:104D90001135E06803F070F900219022281C06F01C
:104DA00044FF231C0026A2331E8003F05FF9371C4A
:104DB000009003F05BF9009BC01A0C9B984200D353
:104DC00083E02078FFF78CFE00280FD08E2F0DD8BF
:104DD0007B1C9BB220780393FFF792FEE619231CFD
:104DE0007074A2331A88039F01321A80231CA233E5
:104DF0001E88201C291C321C029BFFF71BFE00286A
:104E00000ED03E4C3E49201C02F08EFB4249201C35
:104E100002F08AFB201C029902F09CFB01206BE04F
:104E2000019B002B15D0201C291C321CFFF702FE11
:104E300000280ED0314C3249201C02F075FB364957
:104E4000201C02F071FB201C019902F083FB022060
:104E500052E00A9B002B15D0201C291C321CFFF7A6
:104E6000E9FD00280ED0254C2549201C02F05CFBF2
:104E70002949201C02F058FB201C0A9902F06AFB09
:104E8000032039E00B9B002B15D0201C291C321C61
:104E9000FFF7D0FD00280ED0184C1949201C02F055
:104EA00043FB1D49201C02F03FFB201C0B9902F024
:104EB00051FB042020E003F0D9F8009B984200D376
:104EC00077E703F0D3F8009073E70C4C0C4E201CEE
:104ED000311C02F029FB1149201C02F025FB311C7A
:104EE000201C02F021FB0E49201C02F01DFB201C9F
:104EF000291C02F02FFB002005B0F0BD780900202E
:104F000045EA000054EA000059EA00005FEA0000A8
:104F100065EA00006BEA00004DEA000071EA00005B
:104F20007CEA00001FB5002400940194069C0294C2
:104F3000FFF7D4FE04B010BD1FB5069C00940024FA
:104F40000194079C0294FFF7C9FE04B010BDF8B5A8
:104F5000037C041C0E1C171C002B02D00078FFF7EA
:104F600099FE351CAB1B9BB2BB4205D22878217839
:104F7000FFF798FD0135F5E7E06803F07DF8F8BD2F
:104F8000154B70B58000C45801262268257E937B9E
:104F90001D40637E1D40354204D0201CA368984705
:104FA000226896730226354204D0201CE368984795
:104FB000226896731026354204D0201C2369984736
:104FC000226896732026354204D06369201C9847D6
:104FD00023689E7370BDC046740F002008B5002082
:104FE000FFF7CEFF08BD08B50120FFF7C9FF08BDD8
:104FF00008B50220FFF7C4FF08BD00000000000054
:10500000F0B546464F46C0B48FB0161C1F1C00902A
:10501000019100F0ADF9BC4A0023D356041C0D1CCD
:10502000904602940395013305D0301C391C01F0E1
:1050300021F8002806D1029803990FB00CBC9046C5
:105040009946F0BD0098019901F014F881460028B6
:1050500031D1301C391CA14B9F4A03F059FC002868
:10506000E9D001230493A94B04AC63604B4623624F
:10507000009A019BA260E360994A9A4BA261E361A6
:1050800042460023D356266167615A1C0ED0022B7C
:105090000CD0201C01F01EF8002800D17BE0236A10
:1050A000002B03D006F05AFD236A0360A269E3696E
:1050B00002920393BFE700980199884B864A03F058
:1050C00027FC002822D0301C391C844B824A03F074
:1050D0001FFC051E2CD0012304938C4B04AC636091
:1050E00000232362009A019BA260E3607B4B7A4A13
:1050F000A261E36142460023D35626616761002B1B
:10510000C7D0774A774BA261E361CFE7201C291C07
:1051100000F0A8FF8146002842D0201C291C6F4BBC
:105120006D4A03F0F5FB00286CD10294039582E7E9
:10513000301C391C00F096FF002800D17BE7301CA2
:10514000391C664B644A03F0E9FB002800D172E782
:10515000012304936D4B04AC6360009A019BA26031
:10516000E36043461978256226616761002900D112
:105170007AE05D4A5D4BA261E36102293CD106F011
:10518000EDFC21230360236A002B8FD006F0E6FCA0
:10519000226A02608AE706F0E1FC212303607EE7D1
:1051A0000098019900F05EFF0028B6D0301C391C31
:1051B00000F058FF0028B0D0201C291C00F05AFF36
:1051C00004AC002855D101230493504B2062636046
:1051D000009A019BA260E36043461D7826616761E7
:1051E000002D41D03D493C48021C0B1C04F04CFDF5
:1051F000A061E161022DC2D0201C00F06BFF0028ED
:10520000C1D1BCE70098019900F02CFF02940395EE
:10521000002800D10FE7301C391C00F023FF029456
:105220000395002800D106E704AC0423049326610B
:105230006761364B636000232362009A019BA26082
:10524000E360264B244AA261E36142460023D35621
:10525000022B04D0201C00F03DFF002893D106F063
:105260007DFC222303608EE71C4B1B4AA261E36195
:10527000C2E703230493254B2661676163604B46B5
:105280002362009A019BA260E36042460023D3564A
:10529000002B3DD1164A174B00980199A261E3619A
:1052A0000E4B0D4A03F03AFB0028CED0124A134BA6
:1052B000301C391C05F052F9061C0F1C00F014FFBD
:1052C000321C3B1C03F024FB0028BED10C4A0D4BC2
:1052D000A261E361B9E7C0460000000000000000E1
:1052E000000000000000F03F000000000000F0FFA0
:1052F000000000E0FFFFEF47000000000000E03F7B
:10530000000000E0FFFFEFC70900002088EA00006E
:10531000104B0F4A00980199A261E3610E4A0F4BAE
:1053200003F0FCFA002890D00D4A0E4B301C391CBB
:1053300005F014F9061C0F1C00F0D6FE321C3B1CB5
:1053400003F0E6FA002800D07FE7074A074B7AE728
:10535000000000000000F07F0000000000000000DE
:10536000000000000000E03F000000000000F0FF2F
:10537000F0B55F4656464D464446F0B499464B4616
:105380005C00934664088FB00D1C0F1C5A46211C0C
:105390000090061C824602935846114337D069009C
:1053A000490888466849049588452BDC28D0664919
:1053B0008C4227DC00D180E000210891049900296B
:1053C00000DA7EE0002833D15F4B9C4200D196E0AA
:1053D0005E4B9C426AD002988023DB05984201D143
:1053E00000F0E1FB5A4B0299994221D1049A002A1C
:1053F0001EDB291C009800F04BFD061C0D1C08E06C
:10540000002ED4D0534A131C434433430AD14F4D8A
:105410000026301C291C0FB03CBC90469946A24681
:10542000AB46F0BD4C4800F057FE061C0D1CF0E7E3
:105430000098291C00F012FE534606908C46002B63
:1054400020D0FB0F013B0493049E089B33436AD09A
:10545000424B9C4200DC8DE0414B9C4201DC00F061
:1054600035FC404B984500DC89E3029E002E00DCB1
:1054700089E334493248021C0B1C05F06FF8061C06
:105480000D1CC6E74046002804D0304BBA009208F5
:105490009A42D6D1029C002C01DA00F0C4FB049E93
:1054A000002E00DA73E3069E6546B2E7029C002CEC
:1054B00001DA00F076FC009EABE7002800D17BE724
:1054C000A0E729498C422BDC26498C4200DC79E795
:1054D00021158C4625498C4501DC00F086FC244BC7
:1054E00061465B1A111CD9400A1C9A40824200D0C6
:1054F00068E701220A4002239B1A089362E7154AD3
:10550000131C4344334300D181E7164B984500DC1C
:105510007FE3029C002C00DA35E35E464D4678E7D7
:10552000022108914EE70098009A291C2B1C05F0D7
:10553000A5FA021C0B1C04F0A7FB061C0D1C68E757
:105540009C7500883CE4377E0000F07F0000F03F4F
:105550000000E03F000010C0C0EA00000000E04191
:105560000000F043FFFFEF3FFFFF3F431304000045
:1055700033040000E24A0023904509DC0698C54B3D
:10558000C34A614604F0EAFF3523069088465B4231
:105590004046DC4902155218D21892460303DA4DF0
:1055A000DA4A1B0B1D43934201DC00F0F6FBD84A9C
:1055B000934201DC00F036FCD64B01229244ED18F8
:1055C00000240021069A2B1C06920793C900D24B97
:1055D00088464344186859680A900B910A9A0B9BB5
:1055E0000698079905F04AFA0A9A0B9B061C0F1CAD
:1055F0000698079904F02CF8021C0B1CA648A74932
:1056000004F042FB0C900D910C9A0D9B301C391C40
:1056100004F0A4FF029003910B1C802189056D10FA
:10562000802000220D430003009201939C4A9D4B71
:1056300029180B1900980199141C1D1C04F08EFFE9
:10564000021C0B1C301C391C05F018FA0A9A0B9B23
:10565000061C0F1C201C291C05F010FA021C0B1C38
:105660000698079905F00AFA021C0B1C009801998C
:1056700004F074FF021C0B1C301C391C05F0FEF9F1
:105680000C9A0D9B04F06AFF06900791029803990B
:10569000021C0B1C04F062FF041C0D1C221C2B1CA2
:1056A00004F05CFF804A814B061C0F1C201C291C47
:1056B00004F054FF7E4A7F4B03F0CAFF221C2B1CD0
:1056C00004F04CFF7C4A7D4B03F0C2FF221C2B1CD4
:1056D00004F044FF7A4A7B4B03F0BAFF221C2B1CD8
:1056E00004F03CFF784A794B03F0B2FF221C2B1CDC
:1056F00004F034FF764A774B03F0AAFF021C0B1C20
:10570000301C391C04F02AFF029A039B041C0D1C58
:105710000098019903F09CFF069A079B04F01EFF76
:10572000221C2B1C03F094FF061C0F1C00980199EF
:10573000021C0B1C04F012FF674A684B0A900B9185
:1057400003F086FF321C3B1C03F082FF00240D1C7B
:10575000221C009801992B1C04F000FF221C2B1C1A
:10576000009001910698079904F0F8FE5A4A5B4BA5
:1057700006900791201C291C05F080F90A9A0B9BC2
:1057800005F07CF9021C0B1C301C391C05F076F965
:10579000029A039B04F0E2FE021C0B1C0698079978
:1057A00003F056FF061C0F1C321C3B1C009801998D
:1057B00003F04EFF4A4A4B4B0024201C0D1C04F002
:1057C000CDFE494A494B06900791201C291C04F044
:1057D000C5FE009A019B02900391201C291C05F034
:1057E0004DF9021C0B1C301C391C05F047F9404ACE
:1057F000404B04F0B3FE021C0B1C0298039903F00B
:1058000027FF464B43441A685B6803F021FF061CE0
:1058100050460F1C05F090FC0D1C4149041C4144EE
:105820000A684B680698079902920393321C3B1C46
:1058300003F00EFF029A039B03F00AFF221C2B1CAD
:1058400003F006FF00220B1C00920193101C2B1C7E
:10585000221C05F013F9029A039B05F00FF9069A32
:10586000079B05F00BF9021C0B1C301C391C05F0C2
:1058700005F902900391089B049C013B234300D04F
:10588000C2E11D481D49049005914BE0C046C04649
:105890000000000000004043000000000000F03F56
:1058A0000000000000000000EF4E454A287ECA3F7D
:1058B00065DBC9934A86CD3F01411DA96074D13F84
:1058C0004D268F515555D53FFFAB6FDBB66DDB3F96
:1058D000033333333333E33F00000000000008405C
:1058E000000000E009C7EE3FF5015B14E02F3EBE6B
:1058F000FD033ADC09C7EE3F000000000000F0BFE6
:10590000FFFF0F0001FCFFFF0000F03F8E98030037
:1059100079B60B000000F0FFB0EA0000A0EA00003A
:1059200090EA00000026321C4B465846494605F0D6
:10593000A5F8009A019B04F011FE029A039B041C37
:105940000D1C5846494604F009FE021C0B1C201C85
:10595000291C03F07DFE009A019B02900391301CEC
:10596000494604F0FBFD00900191009A019B0298CA
:10597000039903F06DFECC4B041C0D1C0F1C8846D4
:10598000994200DC19E1C94A8B18034300D012E2A6
:10599000AC4BAB4A0298039903F05AFE009A019B64
:1059A00008900991201C291C05F068F8021C0B1CAA
:1059B0000898099902F0C6FFA946002800D0FAE12C
:1059C0004A46BB4B802411156403C918201C0841AA
:1059D000C11948009C4A9D4B0B1C0903B54E090B8D
:1059E000400D0C43B4498519B44E081A04412E41A8
:1059F0004046B343A146002800DA1EE20098019910
:105A000005F03CF800900191009A019B02980399DF
:105A100003F01EFE4A46120590460024201C8C4AC4
:105A20008C4B0D1C0F1C04F099FD009A019B0890F3
:105A30000991201C291C05F021F8021C0B1C02985E
:105A4000039905F01BF8844A844B04F087FD844ACF
:105A5000844B261C0D1C041C391C301C04F07EFDDC
:105A6000021C0B1C201C291C03F0F2FD041C0D1C45
:105A7000221C2B1C0898099903F0EAFD089A099B3F
:105A8000061C0F1C04F0FAFF021C0B1C201C291C16
:105A900004F0F4FF321C009001913B1C301C391CB7
:105AA00004F05CFD704A714B041C0D1C04F056FDA3
:105AB0006F4A704B04F0E2FF221C2B1C04F04EFDD9
:105AC0006D4A6E4B03F0C4FD221C2B1C04F046FDF6
:105AD0006B4A6C4B04F0D2FF221C2B1C04F03EFDE1
:105AE000694A6A4B03F0B4FD221C2B1C04F036FDFE
:105AF000021C0B1C301C391C04F0C0FF041C0D1CC4
:105B0000221C2B1C301C391C04F028FD604A614B00
:105B100002900391201C291C04F0B0FF021C0B1CF6
:105B20000298039904F0B0F8009A019B041C0D1C24
:105B3000301C391C04F012FD009A019B03F088FD13
:105B4000021C0B1C201C291C04F098FF321C3B1C5F
:105B500004F094FF0B1C021C4F48504904F08EFFC8
:105B6000464673181C15002C00DC60E1021C0498EA
:105B7000059904F0F3FC061C0D1CFFF74AFC029C7F
:105B8000002C00DA75E400260025FFF742FC4C48A3
:105B9000089C031C4344234300D01AE10698614645
:105BA000069A6346C3E4291C2B1C0098009A04F053
:105BB000D5FC061C0D1CFFF72CFC4B005B0899461E
:105BC000404B994500DC25E13F480B1823430DD19C
:105BD000009A019B201C04F051FF021C0B1C029830
:105BE000039902F0A5FE002800D1E9E62C4A2D4BCE
:105BF0000498059904F0B2FC294A2A4B04F0AEFC43
:105C0000061C0D1CFFF705FC2349244A049105924C
:105C100088E6029E002EB6DA80200006051C5E464D
:105C20004D44FFF7F6FB069A63461B481B4904F0F8
:105C30002BF806908C46FFF732FCC046C046C046A3
:105C4000FE822B654715973C000000000000000015
:105C500000000000432EE63FEF39FAFE422EE63FF9
:105C6000396CA80C615C20BED0A4BE726937663E58
:105C7000F16BD2C541BDBB3E2CDE25AF6A56113F4C
:105C800093BDBE166CC1663F3E5555555555C53F33
:105C90000000000000000040000000000000F03F95
:105CA00059F3F8C21F6EA501FFFF8F40000070BFBF
:105CB00002FCFFFF01FCFFFF13040000FFFF0F00C9
:105CC000000010C0FFCB904000346F3F6C4B9845F4
:105CD00000DC54E76B4B984501DDFFF7C6FB6146DE
:105CE000584B574A069804F0C9FE574A574B041CB4
:105CF0000D1C04F033FC564A564B061C0F1C201C8E
:105D0000291C04F02BFC221C009001912B1C201C50
:105D1000291C04F023FC504A504B02900391201C94
:105D2000291C04F01BFC021C0B1C4D484D4904F0BF
:105D3000A5FE221C2B1C04F011FC021C0B1C4A4863
:105D40004A4904F09BFE021C0B1C0298039904F0C4
:105D500005FC474A474B04F001FC021C0B1C009851
:105D6000019904F08BFE041C0D1C221C2B1C301C02
:105D7000391C03F06DFC00220B1C00920193101CD7
:105D80003B1C321C04F07AFE021C0B1C201C291C3C
:105D900004F074FE029003916DE500240021FFF7EA
:105DA00011FC2B1C27492648009A03F06DFF061CA6
:105DB0000D1CFFF72EFB304A304B0498059904F078
:105DC000CDFB2D4A2D4B04F0C9FB061C0D1CFFF723
:105DD00020FB089E012E01D0FFF765FB8020000606
:105DE000051C069E6544FFF714FB002801D0FFF751
:105DF0001FFB6346C91A221C0A41101C8840A0429E
:105E000001D0FFF7E5FA01231A4002239B1A0893F9
:105E1000FFF7DEFA1C4B994500DDD1E500239846DB
:105E20009946FAE58024E4020121FFF7CBFB4A46BC
:105E300000F006FA021C0B1C99E66442A146DDE55F
:105E4000000000000000F03F000000604715F73F31
:105E500044DF5DF80BAE543E000000000000D03F70
:105E6000555555555555D53F000000000000E03F01
:105E7000FE822B654715F73F9C7500883CE4377E12
:105E8000FEFFEF3F0000F03F0000E03FC046C0468D
:105E9000F0B55F4656464D464446F0B46C4E0D1C78
:105EA000371C83B0041C021C0B1C2F40B74200D1CE
:105EB000ADE0002900DC8BE02F1500D194E0654DAA
:105EC00009038023090B5B037F190B43FE0700D5F1
:105ED00070E07F10C20FB8465B00002780219B183E
:105EE0001624420000970020890345189D4204DCD7
:105EF00068185B1B009D6D180095D50F5B00013C79
:105F00005B1952004908002CEFD1802100260906B8
:105F100020250196B446894609E0834246D0D40F35
:105F20005B00013D1B1952004908002D1CD066463C
:105F30008C198342F1DD6718E60FBC46F6078246EE
:105F40004E452CD01B1AA24280414042019F1B1A91
:105F5000121B7F18D40F5B00013D019750461B199F
:105F600052004908002DE2D1134328D1019843087B
:105F7000009D394E6A109219ED0702D5802109065D
:105F80000B4340460705B9181C1C0D1C201C291C7E
:105F900003B03CBC90469946A246AB46F0BDFF0F0D
:105FA000FF077E427E41B2468244CBE79442C2D98B
:105FB000181CB4E7C20F5B009B18400089E70199E9
:105FC00001312FD0019C012323401B195B08CFE72F
:105FD0006B005B081A43D9D0002700292BD1C10AD6
:105FE000153F40050029FAD08022520311421ED1EC
:105FF0000023490001331142FBD001242022E41A7E
:10600000D21A3F19041CD4402143984057E7201C62
:10601000291C04F0A3FA221C2B1C03F019FB041CFE
:106020000D1CB3E7009A002301320092A0E7202262
:1060300001240023E5E7221C2B1C201C291C04F052
:106040001DFD021C0B1C03F01FFE041C0D1C9DE714
:106050000000F07F01FCFFFF0000E03F4B0059080B
:106060007047C0464800024B4008C018C00F704738
:10607000000010800B1C011C021C30B519430220CB
:10608000002900D130BD802109068B4216D00D4970
:1060900004205C180C498C42F4D90C4D5C198C42DC
:1060A000F0D90B4C590049080320A142EAD9074C0A
:1060B0000020A142E6D150425041E3E7002AE1D05E
:1060C000EFE7C0460000F0FFFFFFDF7F0000F07F3A
:1060D000FFFF0F0000207047024901487047C0468B
:1060E000000000000000F87FF0B546464F46C0B4FF
:1060F000CA0F90464B004D4A5B0D9E1883B0041C9E
:106100000D1C8C46071C132E3BDC002E5CDB484F1D
:10611000021C37413B1C0B400343994648460B1C6D
:10612000002827D07B081A1C0A4022430027002A97
:106130000AD0132E00D176E0291C80229943D20286
:106140000B1C324113439C464046C100394863460C
:1061500041180C684D683A1C201C291C03F078FA81
:106160000090019100980199221C2B1C04F086FCE0
:10617000021C0B1C101C191C03B00CBC9046994649
:10618000F0BD332E0BDD0B1C8021021CC9008E429A
:10619000F0D1291C03F05CFA021C0B1CEAE7264A2A
:1061A0000126D2187642D64091460B1C021C0642AC
:1061B000E0D076080642C7D08023B443DB054846CA
:1061C0000341271C1F43BFE74E0076080643021C0D
:1061D0000B1C002ECED00903090B0143484201439A
:1061E00080200003090B0140680C40040B1C034392
:1061F0004046C1000F4841180C684D68291C201CFE
:1062000003F026FA00900191009801992B1C221CA2
:1062100004F034FC0D1C4146021CC8076900490803
:10622000031C0B43A6E780273F0685E701FCFFFF21
:10623000FFFF0F00C8EA0000EDFBFFFF00000000B9
:10624000F8B53D4E171C331C0B40041C0D1C0A1CDA
:106250001B1525D14B005B0818431ED0201C291CA0
:106260002E4B2D4A04F07AF9344B041C0D1C9F422E
:1062700031DB0E4033150A1C363B3149DB198B42AA
:1062800015DD221C2B1C2648264900F061F8244A03
:10629000244B04F063F9041C0D1C291C201CF8BDC0
:1062A00028498B421ED02649DB198B42E9DC002BA2
:1062B00005DD25491B050A401D1C1543EDE7191C8A
:1062C000353118DA214B9F42DBDC17481749221C75
:1062D0002B1C00F03DF8144A144B04F03FF9041C49
:1062E0000D1CDAE7201C291C221C2B1C03F0B0F922
:1062F000041C0D1CD1E7144936331B050A401D1C34
:106300001543201C291C0A4A0A4B04F027F9041CD7
:106310000D1CC2E7C046C04600000000000050430C
:106320009C7500883CE4377E59F3F8C21F6EA501C6
:10633000000000000000903C0000F07FB03CFFFF38
:10634000FE070000FF070000FFFF0F8050C30000A2
:1063500030B5DA0FD2074B005B08111C194330BD72
:1063600008B5024801F0B6FD08BDC046D8070020B8
:1063700008B5024801F0AEFD08BDC0469C080020EB
:10638000F7B5164F1649381C01F094FA154916480E
:1063900001F090FA1549164801F08CFA1549164893
:1063A00001F088FA1549164801F084FA154D0326C4
:1063B0000124281C144901F07DFA391C0096231C85
:1063C00001940022114801F061FD0096291C0194FE
:1063D0001F221E230E4801F059FDF7BD640900205D
:1063E00000080042000C0042680900200010004232
:1063F0006C090020001400426009002000180042CF
:106400007009002074090020001C0042D8070020F9
:106410009C0800203F20704713B502686B46D97175
:1064200007335468191C0122A04716BD08B500693E
:10643000022100F033FC08BD08B50069032100F01B
:1064400043FC08BD38B50D1C041C131C0069032156
:106450002A1C00F035FD002801D10123636038BDFE
:1064600010B5054C23685A1C04D10368DB689847B3
:106470002060031C181C10BD5C000020074A08B5F2
:106480001368591C04D0012149421160181C03E013
:106490000069022100F006FD08BDC0465C00002036
:1064A00008B503780349023303704222024800F022
:1064B000BDFD08BD18000020430E002010B5017876
:1064C000031C42780020A12908D1212A2FD1184885
:1064D0001849072200F0AAFD012028E0212926D131
:1064E000202A05D113490722114800F033FC04E0AB
:1064F000222A10D19A780F4BDA710E4B9622196826
:10650000D200914210D1DC7901231C400CD1FA2039
:1065100001F028F90AE0232A09D1DA789B781202DF
:106520001A43054B1A6002E001F022F9002010BD69
:10653000430E00200C00002014000020704770471C
:10654000064BFA218900996005490022083119603B
:1065500004495A6019611A767047C04678090020CC
:1065600028EF0000430E002070B5C2B21949530154
:10657000CB189E68184DC0242E40A40526439E606B
:10658000164E800109683018083258605201505C7C
:106590000726B0430126304350549E6935402C43B2
:1065A0009C610F4C5C61505C7024A043102420431C
:1065B00050549C680B488A18204080246403204370
:1065C000986098684021800B8003986053790B4352
:1065D000537170BD4C0E0020FFFFFF8F640C002034
:1065E000A00A0020FF3F00F038B5041C08CC0121B0
:1065F0001A78051C0A431A708022201C00215200C0
:1066000005F013FB2B689A78D107FCD45C6238BD87
:10661000134BF0B51B6899035A029B01C90ED20EA9
:106620005B0F1F2900D105211F2A00D11D22072B36
:1066300000D1032304688E01278D0A491F253940A4
:106640003143218501682A400C8DAC4322430A85E1
:1066500002681903108D044B03400B431385F0BDF2
:10666000246080003FF8FFFFFF8FFFFFEFF31083F0
:1066700003600123436072B670470368002B02D1A8
:1066800062B6BFF36F8F704737B50569041C684663
:10669000002D12D1FFF7EAFF019B013B03D3621DDE
:1066A000D57FEDB2F9E768460193FFF7E6FF0020DA
:1066B000854217D0206AE36913E0FFF7D7FF019BFB
:1066C0000025013B04D3221C34321578EDB2F8E7E3
:1066D00068460193FFF7D1FF0020854202D0206B6E
:1066E000E36AC01A3EBD0000436810B51A68037A19
:1066F00001215B01D318FF339A7A0A439A72037A15
:1067000042685B01D318C2689C6891040B4A09096E
:1067100022400A439A60037A42685B01D3189A6860
:106720004021920B92039A6043681A68037A0833F7
:106730005B01D3181A790A431A7110BDFF3F00F0AC
:10674000F7B50569041C0E1C171C6846002D1FD1E7
:10675000FFF78CFF019B013B5A1C06D0621DD17FC5
:106760005A1E00293AD0131CF6E768460193FFF73A
:1067700084FF0025E369BD4235D0226A934232D2BC
:106780005A1CE261A269D3181B7873550135F1E7F1
:10679000FFF76CFF019B013B5A1C08D0221C3432CE
:1067A00015785A1EEDB2002D18D0131CF4E7684678
:1067B0000193FFF762FF0025E36ABD4226D0226BFA
:1067C000934241D322E0621D0021D1773032167806
:1067D000581E8E4214D1031C5A1CF4D168460193F2
:1067E000FFF74BFF38E0226A934235D10023E36183
:1067F000012323616846FFF739FF019B013BEBE76B
:106800001170201C0193FFF76FFFF6E7226B934294
:1068100022D10023E36223616846FFF727FF019B33
:10682000013B5A1CDAD0221C343200211170013293
:106830001678581E8E4201D1031CF2E71170201CFD
:106840000193FFF751FFEAE75A1CE262A26AD318EC
:106850001B7873550135AFE7281CFEBD37B543687B
:10686000027A1B68083252019A18041CD07901235D
:10687000FF21184253D0D371A06865696268014056
:10688000002D20D149015218916863618904890C57
:106890002162A16A68465160621DD377FFF7E6FE68
:1068A000019B013B5A1C33D0221C34321178581EF4
:1068B000C9B20132002903D001930123137023E0F0
:1068C0001170031CEEE74B01D3189A68A569920476
:1068D000920C22630022626168465D60FFF7C6FE8B
:1068E000019B013B01E011702B1C591C10D0221C94
:1068F000343201201070621DD17F5D1EC9B230326A
:106900000029F0D0019310706846FFF7B6FE06E04C
:1069100068460193FFF7B1FE201CFFF7E5FE37BD87
:1069200037B500236C46E3710734201C0D1CFFF7BC
:10693000B7FD2B681818286001F00EFF211C01F02C
:10694000C5FE2B681818286020783EBD03290BD19E
:106950000D4BB2221B685200985C802149420143D2
:106960009954022168220CE001290CD1064B922295
:106970001B685200985C80214942014399540221CE
:106980002822FF32995470474C0E002038B5304B06
:1069900000240121051C1A201C7001F0ABFD1A20F7
:1069A000012101F001FE2B4B192001211C7001F087
:1069B000A1FD1920012101F0F7FD274B2021DA6903
:1069C00001200A43DA61254B06241A7802431A7023
:1069D000234B0F22197891431970197821431970AC
:1069E00020490C782043087019780A401A701A78E8
:1069F00060210A431A701C4B1C4A5A805A78D209EB
:106A0000FCD11B4801F02CFB1A4C201CFFF7ECFDBD
:106A1000201CFFF7FDFD23687F2219780A401A70B9
:106A20001A7804210A431A701A890C218A431A81A0
:106A3000C121114A890050580002000A505080219B
:106A400011601A7802210A431A7001232B7038BD95
:106A5000600C0020480E0020000400405844004113
:106A60003C44004159440041000C004006400000F5
:106A7000B97400004C0E002000E100E0007800280E
:106A800010D0094B01211B681A898A431A811A8B7D
:106A900008210A431A831A8B04210A431A83034BE1
:106AA00000221A607047C0464C0E0020500F002094
:106AB0000F4B9A69920B92039A611B680222FF3373
:106AC0001A7298798022524202439A711A7A900778
:106AD000FCD5084B081C997A7F2210409143014352
:106AE0009972997A802252420A439A727047C0463C
:106AF0004C0E0020005000410078002805D0034BC8
:106B000001211B681A890A431A8170474C0E002024
:106B100010B50B790C1C002B0BD1081CFFF7CEFC19
:106B2000002804D1094B9A69920B92039A610120C3
:106B30000BE001F011FE211C01F0FCFD0028F6D154
:106B4000024B9A69920B92039A6110BD4C0E002081
:106B5000F8B50D1C832A16D1CAB242495301CB188D
:106B60009C694148AD012040C024A40520439861A0
:106B70003E48083245195D610B685201D15C7020B6
:106B80008143402065E0022A45D1382001F0B2FA65
:106B9000374B344F8026036076000023421D03628A
:106BA00003614361C36147608560C660D3772F325C
:106BB000041CC36203631370301C537004F0FAFFAB
:106BC000A061301C04F0F6FFFF232A1C1A4052017A
:106BD000A062BF18B968244A07260A40C021890567
:106BE0000A43BA60A1686268194012680831490115
:106BF000885CAD00B043032630438854A1686268C6
:106C00000B405B01A169D3185960201CFFF76CFD94
:106C1000184BEC5025E0822A1ED1CAB2114953010B
:106C2000CB189C691048AD012040C024A405204326
:106C300098610E48083245195D610B685201991838
:106C40000C798020404220430871D15C7020814340
:106C500030200143D15404E0002A02D1081CFFF780
:106C600083FCF8BD4C0E0020FFFFFF8FA00A002020
:106C700058EF0000240E002038B5051C0124064BF7
:106C8000A200D258002A06D0211C281C0134FFF78C
:106C90005FFFE4B2F3E738BD6000002008B5084BA1
:106CA0008A00D058002803D003689B68984706E004
:106CB000C9B2044B4901591888688004800C08BD8A
:106CC000240E00204C0E002010B50C1CFFF7E6FF30
:106CD00000280CD0064BE1B21B6808314901591855
:106CE0004A7980235B4213434B710223CB7110BD61
:106CF0004C0E002070B5CAB2134B144854018901E0
:106D00005918031959609D68114908322940802596
:106D1000AD022943996099684026890B89039960DF
:106D20000368510159180D7935430D7151015918F6
:106D300089794D06FAD551015918C979CD07FAD587
:106D40000419A068C0B270BD640C00204C0E002075
:106D5000FF3F00F038B50C4B141C1B680D1CFF33B3
:106D60005A7940210A435A710021FFF7C3FFA0421C
:106D700000D9201C0023A34204D0044A9A5CEA54A0
:106D80000133F8E738BDC0464C0E0020640C0020EB
:106D900010B5C9B20C48490143189A689204920C84
:106DA0003F2A08D9141C9A68403CA404920BA40CF6
:106DB0009203224302E09A68920B92039A60411870
:106DC0008868C0B210BDC0464C0E0020F0B51C1C37
:106DD0002F4B85B01B68061C0D1C0292002B51D056
:106DE0002C4F3978C9B2002902D1192001F0DCFBFF
:106DF00064233B70284BAA00D058002805D00368B4
:106E000002995B68221C984740E0301C291CFFF760
:106E100045FFA04204D2301C291CFFF73FFF041C91
:106E2000291C301CFFF7B4FF1C4FE9B24A01019145
:106E3000396803928B18FF335A7A01210A431849A3
:106E40005A72AB01C9180298221C04F0CCFE002C27
:106E50001BD0301C291CFFF721FF002815D1019BF6
:106E60003A6808335B01D31819794020014319713E
:106E70000121D97103995318FF339A7A01210A43EA
:106E80009A7202E00120404200E0201C05B0F0BDF3
:106E9000500F0020480E0020240E00204C0E002031
:106EA000640C002013B56C460734221C0123FFF745
:106EB0008DFF012801D1207801E00120404216BD5C
:106EC000F0B51C1C3F4B85B01B680E1C0292002BBA
:106ED0006AD08023DB019C4266D83B4D2978C9B239
:106EE000002902D11A2001F05FFB642300222B70DD
:106EF0000092002C56D0354DF7B22B6801933B1C05
:106F00000833019A5B01D3189B79DB091AD0304B07
:106F10003049186801F03CFC2F4B1721584301F011
:106F200037FC3B1C0833019A5B01D318DB799A07C5
:106F300008D42A4B9A5D002A38D1421E002835D049
:106F4000101CEEE7254B00229A55251E3F2D00D937
:106F50003F25234AB301D318181C02992A1C039316
:106F600004F041FE194A7B01D318039AA9045A611F
:106F70009A69890C920B92030A439A613B1C019A0D
:106F800008335B01D3180222DA7159798022524208
:106F90000A435A71009B029A5B1952190093641BB1
:106FA0000292A6E700980BE0012008E001229A5522
:106FB0007B01ED18AB69101C9B0B9B03AB6140423E
:106FC00005B0F0BD500F0020600C00204C0E0020DA
:106FD0008C00002040420F0070110100980A002030
:106FE000A00A002070B50E4D1C1C8B01ED18281C4A
:106FF0000E1C111C221C04F0F6FDF6B209497601A4
:1070000089194D618A69084B201C13408B618B697B
:10701000A2049B0B920C9B0313438B6170BDC04673
:10702000A00A00204C0E0020FF3F00F0F7B5114BE6
:1070300001901B780F1C141C002B19D10E4B1E78CD
:10704000002E01D1151C08E00C4D0D482E8880192A
:10705000361904F0C8FD2E800AE0002D08D0BA19B8
:107060002B1C01980021FFF7BDFF36182D1AF4E7FD
:10707000201CFEBD420E0020400E0020960A00207B
:1070800095090020F8B50E1C00AF151E012D28D95A
:10709000D31DDB08DB006A46D21A9546081C04F0B3
:1070A000BCFE01306C464000032320706370022256
:1070B000AA420ED23378002B0BD0511CC9B2013634
:1070C000A354A94204D0002302326354D2B2EFE7A2
:1070D0002A1C0548211CFFF7A9FF431E9841C0B296
:1070E00000E00020BD46F8BD430E002008B5044B6B
:1070F00000221A70034B04491A88FFF797FF08BD56
:10710000400E0020960A002095090020F0B5204A84
:1071100087B001230026009102A91370051C029676
:10712000FFF7FEFB03AC092701903A1C201C311C21
:1071300004F07BFD02236370A023E371FA23237222
:10714000029B0122DB196380019B62712371104A4B
:10715000009B27701670BB4205D1281C211C1A1CED
:10716000FFF764FF11E00B4B01221A700A4B211C40
:107170003A1C281C1E800296FFF758FF281C02A903
:10718000FFF7CEFB281CFFF7B1FF012007B0F0BDD1
:10719000420E0020400E0020960A002070B5CE78E6
:1071A0008AB0051C0C1C022E08D1C9882348FFF7A1
:1071B000ADFF031C581E8341D8B23DE001F0CCFA6C
:1071C000211C01F098FA002803D0C3171B1AD80F0E
:1071D00032E0012E04D1E2881949112A27D823E090
:1071E000032E29D1A278002A05D11649E2880B780E
:1071F000934219D81BE0022A03D1A279281C124914
:1072000004E0012A05D1A2791049281CFFF73AFFB2
:1072100012E0032A10D101F09FFA01A901F07BFAD4
:10722000A279281C01A9F1E7D2B2002A00D10A787C
:10723000281CFFF7FBFE01200AB070BD430E0020A2
:1072400076EF000072EF000088EF000068EF0000AA
:1072500073B5051C48780C1C0B2878D801F08EFA01
:10726000081C7728773E4306474B686F00206FE085
:10727000097801AA002903D111705170281C09E076
:10728000002313705370334B1B78012B00D1137004
:10729000281C002102234FE08A780023012A04D110
:1072A00001AA137053702C4BEEE72A4A137049E081
:1072B0008E78012E07D1284B01AA00211E70117073
:1072C000281C331C38E0002E08D1224A01231370F9
:1072D000224A9169890B8903916138E0A178281CC1
:1072E000FFF7E6FB33E0281CFFF758FF30E0281CCF
:1072F00000211B4A1FE00A780020D30628D1281C51
:10730000FFF7BAFCA2781549154B02241A600A68E7
:107310002A23FF33D05C2043D0544A20FF30145C32
:1073200001231C4314548A69920B92038A610EE074
:107330000C4A281C00210123FFF754FE07E08A783D
:10734000084B1A60054B9A69920B92039A610120CF
:1073500076BDC04694090020410E00204C0E00204E
:10736000500F0020440E0020F8B54B4B071C1C7832
:10737000002C00D08EE0494D2868838B19070DD56D
:10738000201CFFF7F1F82B6810201A1CFF32917AAD
:1073900001439172424A146008229A832B689A8BA7
:1073A00050071FD504229A833E4B1A78002A0AD030
:1073B0001A78013AD2B21A701B78002B03D11A2026
:1073C000012101F0F1F8384B1A78002A0AD01A7816
:1073D000013AD2B21A701B78002B03D11920012177
:1073E00001F0E2F82B68FF331A7AD10626D5102275
:1073F0001A725A7940210A432C495A710A7860233B
:10740000381C1A4202D1FFF723FF01E0FFF780FB8F
:10741000002806D02B688022FF33997952420A4314
:1074200001E0234B20229A712B68FF331A7A500611
:1074300004D540221A72597A0A435A722968FE23E7
:107440000E8C00241E40E1B2002E23D0321C0123FA
:1074500022411A4216D0221C286808325201821892
:10746000D079184203D1D279DA401A4207D0114BB1
:10747000A200D058002809D003681B689847012350
:10748000A3409E430134092CDDD103E0381CFFF7F3
:107490005DFAF4E7F8BDC046400E00204C0E002017
:1074A000500F0020600C0020480E0020640C0020CB
:1074B000FF500041240E002008B50248FFF754FF9A
:1074C00008BDC046430E0020014A024B1A607047B7
:1074D000005000414C0E0020F7B58A18061C0D1C08
:1074E00001920C1C019B671B9C4207D033682178DA
:1074F0001B68301C984701340028F3D1381CFEBDAE
:1075000008B50368C9B21B68984708BD38B5051CA3
:107510000C1C081E07D004F080FC2B68021C5B6862
:10752000281C211C984738BD08B5FFF7EFFF08BDA0
:1075300008B5FFF7EBFF08BD08B503681B6898475F
:1075400008BD000008B50249FFF7E0FF08BDC046CE
:10755000FBE5000038B5041CFFF7D8FF051C201C14
:10756000FFF7F0FF281838BDF0B58DB0161C0BAB37
:10757000002201900C1C1A70012E00D80A266D46BC
:107580002B35201C311C01F047F9201CCFB2311CD7
:1075900001F0FEF8291C041C092F01D8303700E047
:1075A0003737FFB22F70013D002CEAD10198FFF769
:1075B000ADFF0DB0F0BD08B5002A02D1FFF7A0FF66
:1075C00002E0D2B2FFF7D0FF08BD08B5FFF7F3FF26
:1075D00008BD000000000000F7B51C1C08AB1B78BC
:1075E000071C211C101C151C0093FEF743FD0028EE
:1075F00002D1381C504907E0281C211CFEF73AFD37
:10760000012804D14D49381CFFF780FF7CE0281C7D
:10761000211C404B3E4A01F095F9002802D0381C4D
:107620004749F1E7281C211C3B4A3C4B01F076F905
:107630000028F4D1281C211C394A3A4B01F06EF97C
:10764000002808D02D21381CFFF776FF802109067D
:107650000190641800E001900026334A334B0099F2
:107660008E420AD0101C191C314A324B02F00CFB1E
:107670000136021C0B1CF6B2F1E7281C211C01F09C
:10768000E7FF0D1C041C01F00BFA061C03F092FD31
:107690000B1C021C291C201C03F0F0F90A22041CFC
:1076A0000D1C381C311CFFF75FFF019B0099C618A9
:1076B000002904D0381C2349FFF728FF3618009B07
:1076C000002B20D01A4A1B4B201C291C02F046FF1D
:1076D0000D1C041C01F0E4F901900A220199381CE8
:1076E000FFF742FF3618019803F064FD0B1C021CE3
:1076F000291C201C03F0C2F9009B041C013BDBB2D7
:107700000D1C0093DBE7301CFEBDC046C046C046E2
:10771000000000E0FFFFEF41000000E0FFFFEFC1CD
:107720000000000000000000000000000000E03F3A
:10773000000000000000244093EF000097EF0000DD
:107740009BEF00009FEF000037B5041C0698C1B204
:107750000091201CFFF740FF051C201CFFF7F2FEE4
:1077600028183EBD014B18607047C04688000020B5
:10777000024B012252421A607047C0468800002026
:10778000154A1368581C25D0013B1360002B21D1EA
:1077900072B6124A124B04329A4207D8BFF34F8F87
:1077A000104A114BDA60BFF34F8F11E00F4B197D78
:1077B000C807FBD5188B2021FF31920852000143E6
:1077C0001983DA610A4A1A801A7DD107FCD5E5E7E8
:1077D000C046FDE77047C04688000020002000003A
:1077E000030200000400FA0500ED00E00040004143
:1077F00002A5FFFF10B50021041CA42204F015FA15
:10780000221CA4320023201C1360536010BDF8B565
:10781000051CA4352E68041C0F1C701CA42100F04C
:10782000FBFF231CA8331B68994201D0A755296090
:10783000F8BD021C0023A432A83013600360704717
:1078400038B5021C041CA834A43223681268934281
:1078500007D0C55CA421581C00F0DEFF281C216065
:1078600001E00120404238BD031CA433A8301A684F
:107870000368D01A00D5A4307047031C021CA8333B
:10788000A4321B681268934201D0C05C01E0012061
:1078900040427047031CA43310B5041C1868A4218F
:1078A000013000F0B9FFA8342368C81A4342584198
:1078B000C0B210BD01607047F7B508AC2678046807
:1078C0009D1E27686C1EA541ECB2920705683A43DD
:1078D00027063A432A600268072529405068B50107
:1078E000002C00D05C03294301430C435460F7BDD6
:1078F00030B50368C0251C68AD0312052A40224339
:10790000C024A402090421401143196003685A6885
:1079100014435C6030BD036801211A680A431A6091
:107920000268116801231942FBD1D1691942F8D1CB
:107930007047036802211A680A431A600268D36913
:107940009907FCD4704703681A7ED10702D41A7EC7
:107950009107FCD57047036800225A83704703687B
:10796000187E4007C00F70470368187EC009704733
:1079700003688022197E52420A431A7670470368D0
:10798000188DC0B2704703681A7E01200242FBD0F6
:107990001985704770B5036801268D07ED0F3140DA
:1079A0001C686D07090729432143196004685100C9
:1079B000034800F0EDFE0138C0B2207370BDC04630
:1079C000006CDC02036801211A680A431A6002682D
:1079D000116801231942FBD1D1691942F8D17047CE
:1079E000036802211A680A431A600268D36999077A
:1079F000FCD470470368DA699107FCD41A68022145
:107A00008A431A607047000038B5041C0D1CFFF74C
:107A1000F1FF236801221540AA0704491D68201CB4
:107A20000D4015431D60FFF7DBFF38BDFFFFFFBFB3
:107A300070B5041C0D1E10D0FFF7DCFF291C074891
:107A400000F0F4FE4100054800F0A2FE266801386F
:107A5000C0B23073201CFFF7C3FF70BD006CDC02A6
:107A600070B50125041C0D408907CE0FFFF7C2FF3A
:107A700023687107074A1E68201C16400E431E60CB
:107A800023682A0704491D680D4015431D60FFF750
:107A9000A7FF70BDFFFFFFDFFFFFFFEF03689A6ADC
:107AA000520A52021143996203681A7E5107FCD5AB
:107AB000986AC0B27047036801211A680A431A60C5
:107AC0000268116801231942FBD1D1691942F8D12A
:107AD0007047036802211A680A431A600368DA696A
