:1020000000800020357700001D7700001D7700005C
:1020100000000000000000000000000000000000C0
:102020000000000000000000000000001D7700001C
:1020300000000000000000001D770000897700000C
:102040001D7700001D7700001D770000ED320000B5
:102050001D7700001D7700001D770000217700002C
:102060001D770000815A00001D7700001D770000D9
:10207000992B00001D770000915A00001D77000089
:102080001D7700001D7700001D7700001D77000000
:10209000000000001D7700001D7700001D77000084
:1020A0001D7700001D7700001D7700001D770000E0
:1020B0000000000010B5064C2378002B07D1054B1B
:1020C000002B02D0044800E000BF0123237010BDA4
:1020D0006001002000000000CCE7000008B5084BBC
:1020E000002B03D00748084900E000BF07480368F9
:1020F000002B03D0064B002B00D0984708BDC046EC
:1021000000000000CCE70000640100205401002022
:102110000000000008B50248024904F0A9FD08BD0E
:1021200064080020A4D2000084B030B587B001ACB0
:102130000A900B910C920AA8211C01220D9301F028
:1021400035FB002804D10AA801F004FB01206CE053
:10215000201C072101F0A0FBE379834205D035481C
:10216000354904F085FD02205FE02378222B0BD057
:10217000282B09D0102B05D02E48304904F078FDCB
:10218000032052E0012500E000250AA801F046FAEC
:10219000211C0AA801F0CDFA012244210AA801F06D
:1021A00098FAFA20800005F003FB0AA801F036FA3D
:1021B000211C0AA801F0BDFA0AA8BE21002201F0E4
:1021C00088FA00240AA801F0A2FA03ABE054013413
:1021D000092CF7D158781A7800021043002D0CD042
:1021E000DA7900B2C000102A05D19B790C22D31AEB
:1021F0000F229043181880B20DE01A796023134023
:1022000001D1072306E0202B01D1032302E0402B5C
:1022100001D10123984300B206F038FBF62189056D
:1022200006F09AF8064B1860002007B030BC08BCD6
:1022300004B0184764080020ABD20000C5D20000EB
:10224000D001002000000000F0B5D04F8BB03978ED
:102250000291012938D0002902D002294ED032E261
:10226000CB4BCC4D1978281C01F046FDCA4CCB4E07
:10227000CB493070201C04F0E9FC307801F0A0FC60
:102280000521281C01F052FD307001F099FCC54970
:10229000201C04F0DBFCC44A201CA95C0A2204F0C8
:1022A00022FD0299281C01F0D5FE307001F088FC57
:1022B000BC49201C04F0CAFCBB4B201CE95C0A2270
:1022C00004F011FD01230EE0B24801F081FDB34C92
:1022D000207001F075FC2378B448002B05D1B44977
:1022E00004F0C6FC02233B70EDE1B24904F0C0FCEF
:1022F000B14805F05DFA02993970E4E1AF4D002371
:102300002B70AF4B1B78002B45D0AE4E301C01F02C
:10231000CFFBA14C071CAC49201C04F097FC381CD7
:1023200008F046F90B1C0299021C0091201C04F0D5
:10233000A7FD301C01F008FCA449061C201C04F079
:1023400085FC301C08F034F90B1C0299021C00912A
:10235000201C04F095FD04AC0497A17822786378E2
:1023600000919B4FE17807A80191391C08F0DEFE2F
:1023700007A9281C08F0FCFE0496A178227863784F
:102380000091E17807A80191391C08F0CFFE281CC4
:1023900007A908F0EDFE8F4B1A690092186859687A
:1023A0009A68DB68FFF7C0FE7B4C844D00281FD184
:1023B0008949201C04F04AFC884E306808F0F8F87F
:1023C0000B1C0221021C0091201C04F059FD3668F0
:1023D00004A9049688780A784B780090C97807A8F1
:1023E00001917B4908F0A2FE281C07A908F0C0FE55
:1023F0007B4B1B78002B27D005AE301C794901F0B0
:1024000017FB0623F356002B1ED17749201C04F03E
:102410001DFC059808F0CCF80B1C0221021C009151
:10242000201C04F02DFD059B04A9049388780A78EC
:102430004B780090C97807A80191654908F076FEAD
:10244000281C07A908F094FE684B1B78002B66D067
:102450006749201C04F0FAFB664D0226281C00F098
:1024600077FE071C08F0A4F80096021C0B1C201C29
:1024700004F006FD6049201C04F0E8FB281C00F075
:1024800017FE029008F094F80096021C0B1C201C0A
:1024900004F0F6FC5949201C04F0D8FB281C00F07D
:1024A00027FD0390281C00F023FD08F081F800961A
:1024B000021C0B1C201C04F0E3FC04AC0497A17864
:1024C000227863780091424FE17807A80191391C86
:1024D00008F02CFE394D07A9281C08F049FE029986
:1024E00007A80491A178227863780091E17801919E
:1024F000391C08F01BFE07A9281C08F039FE039AB6
:1025000007A80492A178227863780091E17801917C
:10251000391C08F00BFE281C07A908F029FE384BCF
:102520001C4D1978254A281C01F0BCFC1B4E30704C
:1025300001F046FB1D4C3378201C002B1DD1314986
:1025400004F096FB304BEB5C002B6CD02F49201C29
:1025500004F08EFB2E49201C04F078FBEF239B0037
:10256000E95C0A22201C04F0BEFB2A49201C04F06E
:102570006DFB294B201CE91853E0062B50D127494D
:1025800004F076FB014B01221A704CE0950100200B
:102590000700002074030020640800209901002037
:1025A000ECD20000FBD200004A030000040A002025
:1025B0000FD300001FD300001027000000000020F0
:1025C0009A010020D401002032D300003DD3000046
:1025D00047D300007C01002058D30000D001002028
:1025E000970100209401002067D30000980100208B
:1025F00071D300009C0100207FD300008CD3000029
:10260000080000209BD3000022040000B4D3000087
:10261000C2D30000D2D30000BD030000E2D300000B
:10262000354904F025FB0121082005F0B7FA962072
:10263000400005F0BDF80021082005F0AFFA2D4B51
:102640002B4A281C01F046FD307001F0B9FA2B4FDF
:102650002B49381C04F0FAFA2A4B0A221968381C54
:102660000131196004F049FB274C201C00F06EFE7C
:102670003C211E3005F02AFC201CC9B200F006FFE8
:10268000201C012100F040FE201C204900F04EFEDD
:102690000021082005F082FA201C00F04DFEFA20EF
:1026A000400005F085F81A49381C04F0E1FA281CAE
:1026B00001F04AFD307001F083FA281C01F0C4FAE1
:1026C000307001F07DFA0121082005F067FAFA2048
:1026D000800005F06DF80021082005F05FFAFA206F
:1026E000800005F065F80BB0F0BDC046C046C0469E
:1026F000E09304000000000001D400006408002002
:102700001DD400009001002096010020152100003A
:102710002BD40000C046C04608B5084800F0E2FDD2
:10272000074801F08CF9074800F04AFA064801F022
:10273000C9F806480B2101F01BF808BD96010020DE
:10274000D40100209C010020940100207C01002085
:1027500038B50024201C0221013405F0C5F9172CDE
:10276000F8D12024201C0221013405F0BDF92A2CC7
:10277000F8D11920022105F0B7F91A20022105F03D
:10278000B3F90820012105F0AFF90820002105F078
:1027900005FA0920002105F0A7F90F20012105F015
:1027A000A3F90F20002105F0F9F91320002105F00D
:1027B0009BF92F4C9621201C890104F0D7FE0221A1
:1027C000062005F01BFA0221072005F017FA012167
:1027D000082005F0E3F9274804F0EAFF082000216B
:1027E00005F0DCF9244D0021281C00F0AFFE00228A
:1027F000281C131C0A2100F0EBFD1123281C1421B6
:10280000022200F031FE1D4801F02EF91C4D1D4939
:102810002870201C04F01AFA2B78201C002B01D001
:10282000194900E0194904F023FA194877220023D6
:102830000124427003220370C270037143718471DA
:10284000C471047200F036FA602801D1114B1C707B
:10285000114C4421201C01F037F8002806D10F4B01
:102860000122201C0E491A7001F038F838BDC0460C
:10287000640800201027000096010020D4010020E9
:102880009A01002036D4000047D400004AD400004A
:102890009C01002098010020940100209701002055
:1028A00010C6FFFFF8B5051C0F1C161C0024B4420F
:1028B00008D02B68395D1B68281C9847002801D078
:1028C0000134F4E7201CF8BD704708B5183004F057
:1028D00053FB08BD08B5183004F062FB08BD38B5DD
:1028E000837D0D1C002B06D0041CC434201C04F076
:1028F0006DFB002801D0002004E0201C291C04F0FE
:1029000022FB012038BD08B5183004F052FB08BD89
:10291000F7B50193FA239B0083600B4B0025083326
:10292000041C4560036018300F1C161C04F0FEFAEE
:10293000201CC43004F0FAFA019B27612675A575A6
:10294000201C6375FEBDC04650D4000070B50D4913
:10295000041C006904F0C2FD206904F056FC18262E
:10296000207D331C4343084D0821EB18595605F0D0
:1029700045F9607D08214643AD19695605F03EF9D9
:1029800070BDC046A086010020DF0000F7B5041C22
:1029900000200E1C151C0193824231D0271C1837D1
:1029A000381C04F0E2FA2069311C012204F06AFCB0
:1029B000002823D0206904F0D4FC011C381C04F04A
:1029C000C2FA01262069AE420ED004F03BFC02217F
:1029D000206904F041FC206904F0C3FC011C381C90
:1029E00004F0B1FA0136EDE704F023FC019B002B63
:1029F00005D02069032104F02FFC00E0051CE8B29B
:102A0000FEBD08B50123FFF7C1FF08BD10B5B8230F
:102A10005B00C154041CC43004F0A7FA0123A37561
:102A200010BDF8B50022B82382755B00041C0F1C92
:102A3000C15C006904F026FC002805D1206903214F
:102A400004F00AFC02251DE0261CC436301C04F0EC
:102A5000A7FA00280FD0301C256904F08DFAC1B206
:102A6000281C04F03EFC0028EED12069032104F06C
:102A7000F3FB032506E0051C002F03D0206903218A
:102A800004F0EAFB281CF8BD08B50121FFF7C9FFD7
:102A900008BD38B5041C006904F041FC002879D059
:102AA000206904F04AFC00280ED1206904F04FFC94
:102AB00000281FD0206904F045FC00281AD02069A6
:102AC00004F04AFC002815D1206904F0BBFB206902
:102AD000032104F0C1FB231CFC33DD6F002D04D067
:102AE0002368201C9B689847A847201C183004F0D6
:102AF0003CFA4FE0206904F02AFC031C2069002BFB
:102B000016D004F09FFB2069032104F0A5FB206987
:102B100004F022FC00283DD0201CC43004F025FA2B
:102B20000123A375FC34A36F002B33D0984731E009
:102B300004F0FEFB00282DD0206904F00DFC251CBC
:102B400000280FD0C435281C04F02AFAFF210028E1
:102B500003D0281C04F010FAC1B2206904F0D2FBA3
:102B6000A07517E01835281C04F030FA031C206902
:102B7000002B02D004F05DFB08E004F0F2FB011C26
:102B8000281C04F0E0F9206904F05CFB20690321B3
:102B900004F062FB38BD000008B50248FFF779FF7A
:102BA00008BDC046DC01002008B5034803491422D3
:102BB0001523FFF7ADFE08BDDC010020EC09002065
:102BC0007722002342700A2203708270C3708371DF
:102BD000C371037270470000F8B50578041C0F1C20
:102BE000161C002D13D0012D21D18078002104F076
:102BF000D5FF7F2139400E4800F052FB311C0C48B4
:102C000000F04EFBA078291C04F0C8FF0FE0094D2E
:102C10004178281CFFF7FAFE391C281CFFF75FFEDD
:102C2000281C311CFFF75BFE281CFFF72DFFF8BDA9
:102C300060030020DC010020F8B50578041C0F1C9F
:102C4000002D15D0012D2ED18078002104F0A6FF93
:102C5000164E80213943301C00F022FB301C00212D
:102C600000F01EFB291C061CA07804F097FF1AE058
:102C70000F4D4178281CFFF7C9FE391C281CFFF7AF
:102C80002EFE281CFFF700FF6178281C0122FFF7A9
:102C9000B8FE281CFFF71EFE002804D0281CFFF7F2
:102CA00014FEC6B2F5E7301CF8BDC0466003002034
:102CB000DC01002070B50578041C002D1AD0012D10
:102CC0001BD1894E301C00F099FA301C602100F0B5
:102CD000DFFA301C291C00F0B9FA301C291C00F066
:102CE000BFFAA078291C04F0FFFEA078291C04F08C
:102CF00055FF02E07D48FFF729FE8921201CFFF7E0
:102D00009BFF8821051C201CFFF796FF2D0245190B
:102D100065818B21201CFFF78FFF8A21051C201C59
:102D2000FFF78AFF2D024519A5818D21201CFFF791
:102D300083FF8C21051C201CFFF77EFF2D02451907
:102D4000E5818F21201CFFF777FF8E21051C201CB9
:102D5000FFF772FF2D02451925829121201CFFF7F4
:102D60006BFF9021051C201CFFF766FF2D02451903
:102D700065829321201CFFF75FFF9221051C201C18
:102D8000FFF75AFF2D024519A5829521201CFFF758
:102D900053FF9421051C201CFFF74EFF2D024519FF
:102DA000E5829721201CFFF747FF9621051C201C78
:102DB000FFF742FF2D02451925839921201CFFF7BB
:102DC0003BFF9821051C201CFFF736FF2D024519FB
:102DD00065839B21201CFFF72FFF9A21051C201CD7
:102DE000FFF72AFF2D024519A5839D21201CFFF71F
:102DF00023FF9C21051C201CFFF71EFF2D024519F7
:102E0000E5839F21201CFFF717FF9E21051C201C36
:102E1000FFF712FF2D0245192584A121201CFFF781
:102E20000BFFE31CD877E221201CFFF705FFE1210F
:102E3000051C201CFFF700FF2D024519A584E32186
:102E4000201CFFF7F9FEE31DD877E421201CFFF7D3
:102E5000F3FEE521051C201CFFF7EEFE0F231840B2
:102E60002B01C5182585E621201CFFF7E5FEE5218D
:102E7000051C201CFFF7E0FE0009C0B22D0145191A
:102E80006585E721201CFFF7D7FE231C2C33187023
:102E9000F421201C0022FFF79FFE627923791C2574
:102EA00092005B012A401A43D2B2201CF521FFF7A1
:102EB00093FE227A07231A40201CF221FFF78CFE92
:102EC000E178A37903225B010A401A43E379201CCD
:102ED0009B001D401543EAB2F421FFF77DFED0218F
:102EE000201CFFF7A9FE70BD60030020DC0100205C
:102EF000F0B5F7218DB00190FFF79EFEF821099003
:102F00000198FFF799FEF9210A900198FFF794FEC6
:102F1000019E0B90316B0A1CCB17161C1F1C5F49BE
:102F20005D4836184F41321C3B1C301C391C05F0E3
:102F30003BF80290039101980199408B019A069009
:102F4000098B019B0791D28A301C089212229A5E4B
:102F5000391CD31705F028F8030D040301980D035D
:102F60001422825E1D4302980399D31705F01CF8C2
:102F70000A069446020A604602430B12101C191CF2
:102F800000196941464A474B80185941019B1A8AEA
:102F9000002305F009F84810031CC9170490059197
:102FA0000B430020002B72D006990AB2D317029867
:102FB000039904F0F9FF079B041C1AB2D3170D1CE8
:102FC000301C391C04F0F0FF8C46664673040A9EE0
:102FD000C10B3701099E0B434204A4185D41330322
:102FE0000B9E3B433209D2B2134380225203D31AC1
:102FF000089EDF175A08F90737B21143D807002295
:10300000FB0012196B41801A9941274A274B04F0A3
:10301000CBFF049A059B04F0A3FF0D1C4F13CB04B8
:103020000199041C460B2020085E1E43321C3B1CE9
:10303000C11704F0B9FF321C3B1C04F0B5FF019A24
:10304000460E1E20105ECB01221C1E434F162B1C69
:10305000C11704F0A9FF36196F41C20C4C0322437B
:10306000CB14B6185F41300A019E3B061C24345F26
:103070001843E617250F33012B432201391280181C
:10308000594104F0D5FFEE21890505F065F90DB031
:10309000F0BDC046C046C046000CFEFFFFFFFFFF6C
:1030A0000000000000800000350C0000000000005F
:1030B00038B5FD21041CFFF7BFFDFE21051C201CB7
:1030C000FFF7BAFD216B214A8B1829020143282002
:1030D000225E89031205891A2A20225E5A43891A20
:1030E0008022D2018918221C2C321078E21DD27F56
:1030F00058435A4380231B02D2128012D2184243F3
:1031000080208003921212182420235EC9135A4390
:1031100080239B01D21892134A43D3135B43033499
:10312000E07FDB1143431B11D31AD843C01718406B
:10313000C8235B05984200DD181C001305F0A6FBB0
:10314000EA21890505F008F938BDC04600D4FEFF24
:1031500070B5FA21041CFFF76FFDFB21061C201C33
:10316000FFF76AFDFC210501201CFFF765FD360312
:1031700000093543C0B22843628903119B1A5B439F
:103180000E25615FC0101B1352004B43821A0C21A5
:10319000605E9B134243D2129B1805205843803037
:1031A0002363001205F072FB014904F0AFFF70BD0C
:1031B0000000C842437A002B04D18372C372C360FB
:1031C00001234372704730B585B0041C02AD00681E
:1031D0000291039203F0AAFF6B79E179227A0093BE
:1031E0002068002304F056F929792068029A03F038
:1031F0006DFF206803F090FF05B030BD70B5041C72
:103200001826FFF7D7FF2079331C43430D4D0821C3
:10321000EB18595604F0F2FCA079331C4343082103
:10322000EB18595604F0EAFC607908214643AD19C1
:10323000695604F0E3FC044B201C06CBFFF7C3FFE8
:1032400070BDC04620DF00005803002008B50068AC
:10325000002901D1012100E0002103F071FF08BD28
:1032600008B5031C032912D8081C1B6804F080FD54
:10327000050B0208181C002107E0181C012104E0BE
:10328000181C022101E0181C032103F085FF08BD72
:1032900008B50068032900D8042103F065FF08BDC4
:1032A00008B5006803F096FF08BD0000094B0A4A04
:1032B0000A491A6000225A711A71094B19601621C5
:1032C0001971182199711721597101215A72D971F7
:1032D0001A7270475803002000093D00FC090020C5
:1032E00060030020002303707047000008B5044B02
:1032F0001B68002B00D09847024B01221A7208BDB0
:1033000070030020001400400378002B0AD0064B05
:10331000081C197F072210409143014319779A7ABC
:10332000D209FCD17047C04600140040014B19601F
:103330007047C04670030020034B04211A690A43FA
:103340001A6130BF7047C04600ED00E0024B98693B
:103350003F2318407047C046001400400378002BFC
:103360000AD0064B081C19693F22104091430143C3
:1033700019619A7AD209FCD17047C0460014004006
:103380000378002B0BD0064B3F2211408A011869AD
:1033900004490140114319619A7AD209FCD170475E
:1033A000001400403FF0FFFF0378002B0BD0064BCA
:1033B0001F2211400A031869044901401143196191
:1033C0009A7AD209FCD1704700140040FF0FFEFF2B
:1033D00070B5161C0278041C0D1C002A0AD0191C9A
:1033E000FFF7BCFF201C311CFFF7CAFF201C291C63
:1033F000FFF7DAFF70BD00000378002B0BD0064BFF
:103400001F2211404A0418690449014011431961FF
:103410009A7AD209FCD1704700140040FFFFC1FF27
:103420000378002B0BD0064B0F2211408A05186938
:1034300004490140114319619A7AD209FCD17047BD
:1034400000140040FFFF3FFC0378002B09D0054B20
:103450008A06196989018909114319619A7AD20981
:10346000FCD170470014004070B51D1C0378041C8B
:10347000161C002B09D0FFF7BFFF201C311CFFF7E3
:10348000CFFF201C291CFFF7DFFF70BD0378002B46
:103490000AD0064B081C99693F2210409143014312
:1034A00099619A7AD209FCD17047C0460014004055
:1034B0000A4B0B4A9A605A7852B2002AFBDB094940
:1034C000064A51605A7852B2002AFBDB0649034A89
:1034D00051805A78D209FCD17047C046000C004098
:1034E000020400000205110004420000044B022106
:1034F0001A888A431A809A7AD209FCD17047C0464A
:1035000000140040044B02211A880A431A809A7A58
:10351000D209FCD17047C04600140040044B012181
:103520001A880A431A809A7AD209FCD17047C04699
:1035300000140040044B01211A888A431A809A7AA9
:10354000D209FCD17047C04600140040F7B52B4BA0
:103550000F1C9A6920210A439A61294A294B0026A7
:10356000051C9A82284CB7420AD1284B1A7870233E
:103570001A4240D023881A073DD5226901260192BC
:10358000281CFFF795FF281CFFF7B0FF281CFFF74A
:10359000C5FF62881E4B134063801E4B2380A27AB6
:1035A000194BD209FBD11C4A08211160C0218900A6
:1035B00050580002000A5050DA7901210A43DA71AA
:1035C0001A7F07218A431A77A37ADB09FCD1281CCA
:1035D000FFF798FF281CFFF7ADFF002F02D0012353
:1035E0002B70F7BD002EFAD0074B019A1A61A37A0F
:1035F000DB09FCD1F3E73E1CC2E7C04600040040F3
:10360000CE060000000800400014004038040040CE
:10361000FFBFFFFF080A000000E100E00368426806
:1036200072B6536062B67D200138C0B200281DD04A
:1036300020210139FDD1116A0B42F5D072B65361D8
:10364000936062B6F02149010139FDD172B68C2137
:103650005360C9000139FDD1106A034058425841F6
:10366000C0B262B6CD225201013AFDD170470CC8FA
:10367000C8070AD572B6A0215A619A600139FDD1F6
:103680009A6162B6DC239B0009E072B682215A611E
:10369000C9009A600139FDD19A6162B65023013B9D
:1036A000FDD170470368426872B630219360536160
:1036B0000139FDD1A02153600139FDD1106A62B6F4
:1036C000D4229200013AFDD10340581E8341D8B262
:1036D0007047F7B5041C0F1C019208250126391C00
:1036E00031404B1E9941C9B2201C7600013DFFF7C5
:1036F000BEFFF6B2002DF2D1019A002A06D172B6B1
:10370000226863685A6022685A6162B6F7BDF8B5EC
:10371000071C082500240126381CFFF7C3FF0028DA
:1037200000D034437600013DF6B2002DF4D1201CC8
:10373000F8BD70B500220E1C5521051CFFF7C9FF0E
:103740000024315D281C00220134FFF7C2FF082C41
:10375000F7D170BD00230374837443740723C21828
:10376000002111728B4201D0013BF8E77047000045
:1037700038B5041C0D1C081C002104F0B5F91822F2
:103780005543084B01215A195268EB569140064A9D
:10379000DB019B18201C21606360FFF7DBFF201C0E
:1037A00038BDC04620DF000000440041F0B585B0C0
:1037B0000391867C041C151C002E5AD1FFF72EFFA6
:1037C000002857D0201C002D02D0F021321C01E02F
:1037D000EC212A1CFFF77DFF0126002101910291B7
:1037E000351C201CFFF75EFF071C201CFFF75AFF4B
:1037F000012F02D1012816D132E0019AA318874285
:1038000019D1277CBD4204D21F7A37407A1E9741D6
:1038100002E0EF1B7A425741FFB2002F03D1082D7F
:1038200008D8657406E00199012763181A7A3243B3
:103830001A7203E002951A7AB2431A727600201CBB
:10384000391C0135F6B2FFF712FFEDB2002E04D19C
:10385000019B01260133DBB20193019A072AC0D9EB
:10386000402D06D9029B2374002B07D10123A3749A
:1038700004E000202074A07460740BE0237A002B15
:10388000F7D00023E218127A0399CA540133082BA7
:10389000F8D1012005B0F0BD031C00200139C9B2E8
:1038A000FF2905D01A7801335040024A105CF5E731
:1038B0007047C04670D4000008B50368C9B21B68E1
:1038C000984708BD7047000008B501700248FFF72F
:1038D0003DF8002008BDC046DC01002038B50D4C85
:1038E0008DB20178201CFFF791F8201C0121FFF711
:1038F000E3FF2912201CFFF7DFFFE9B2201CFFF7CE
:10390000DBFF201CFFF7C0F80A235B42584340B29C
:1039100038BDC046DC01002038B5094C0D1C0178CB
:10392000201CFFF773F8291C201CFFF7C5FF201C83
:103930000121FFF776F80A235B42584340B238BDB5
:10394000DC01002073B5114D0E1C02220178281CE9
:10395000FFF757F8FB24281CFEF7BCFF012807DC03
:103960000A20013C03F024FF002CF4D19C200BE042
:1039700001AC0222281C211C03F0E1FD23786278AF
:103980001B0213433380002040B276BDDC010020CF
:10399000F0B5061C87B00C1C081C111CFFF7BCFFFF
:1039A000002834D103AF391C201CFFF7CBFF019056
:1039B000019904A80090002000291FD13B88787845
:1039C0006A469382000906F0BFFD021C0B1C1549D4
:1039D000134800F0A5FE144A144B05F089FF041C9F
:1039E00038880D1C0005000D06F070FD021C0B1C34
:1039F000201C291C05F07CFF06F02CFE0490019889
:103A00006B46009A9875331C03CA03C302E0002377
:103A10003360B071301C07B0F0BDC046C046C04630
:103A200000000000000000407B14AE47E17A843FB4
:103A300010B50022041CFFF7ABFF201C10BD70471F
:103A400010B5084C4021201CFEF7E0FFFE21201C91
:103A5000FFF732FF201CFFF717F80F2003F0A8FE36
:103A600010BDC046DC01002038B5104C051C201CE0
:103A7000FEF76CFF281CFFF7E3FF201C4021FEF738
:103A8000C5FFE721201CFFF717FF201CFEF7FCFFF6
:103A900040210122201CFEF7B4FF201CFEF715FF79
:103AA000023843425841C0B238BDC046DC01002054
:103AB00070B5234C4021201CFEF7A8FFE321201CF9
:103AC000FFF7FAFE201CFEF7DFFF322003F070FE46
:103AD000201C40210322FEF794FF201CFEF7FAFE73
:103AE0000028FAD0201CFEF7F0FE86B2201CFEF75C
:103AF000ECFE3502ADB20543201CFEF7E6FEA8B28F
:103B000004F020FF06F054FD0A4B094A05F0F0FED0
:103B100006F0A0FDDE21890504F01EFC06F048FD3C
:103B2000054A064B06F074F906F094FD70BDC046D8
:103B3000D7A3703D0AF76540CDCCCCCCCC6C4740C8
:103B4000DC010020C046C04670B51A4C4021201C44
:103B5000FEF75CFFE521201CFFF7AEFE201CFEF700
:103B600093FF322003F024FE201C40210322FEF7A5
:103B700048FF201CFEF7AEFE0028FAD0201CFEF7FE
:103B8000A4FE86B2201CFEF7A0FE3502ADB20543AE
:103B9000201CFEF79AFEA8B204F0D4FE064904F0F9
:103BA000DBFBDE21890504F0D7FB044904F0FEFCB1
:103BB00070BDC046DC0100200000FA420000C04099
:103BC00000B589B000236A461370082822D804F093
:103BD000CFF805080B0E1114171A1D00684610497E
:103BE00016E068460F4913E068460F4910E0684642
:103BF0000E490DE068460E490AE068460D4907E0A7
:103C000068460D4904E068460C4901E00C496846E5
:103C100007F0BBFA69460B4803F018F809B000BD7D
:103C200082D9000096D90000ADD90000C1D90000AA
:103C3000D6D90000EDD9000005DA00001ADA00003C
:103C400030DA000064080020F0B5051CA4358FB000
:103C5000041C0021FA22281C07F0B1F900210F22D0
:103C600002A807F0ACF90AAE00210F2206A807F05F
:103C7000A6F90F220021301C07F0A1F91A4B281CCD
:103C8000FE33598A07F052FA184F02A8B98A07F092
:103C90004DFA3B1C5033198806A8543707F046FAF2
:103CA0003988301C07F042FAFA239B0001930096F2
:103CB000201C291C02AA06AB00F00EFD012804D12D
:103CC0000B4BE0540B4BE05406E0022806D1084BA6
:103CD0000122E054074BE254002003E00338431E66
:103CE000984101300FB0F0BD38DD000020DB00004E
:103CF0002A0400002B040000E1231B0210B54360DE
:103D0000012301700374041CC82003F051FD201C22
:103D100000F08EFA9620400003F04AFD201CFFF7C9
:103D200093FF201CFFF790FF10BD0000F0B5061CAC
:103D3000A4368BB0041CFA220D1C301C002107F0A5
:103D40003EF900210F2202A807F039F906A8002148
:103D50000F2207F034F91A4BE35C012B02D0022B3F
:103D600004D029E00720854227D802E00720042D4F
:103D700023D8144B2A1C48331988301C07F0D6F975
:103D8000114F02A8398807F0D1F9B98806A807F0C1
:103D9000CDF964230093201C311C02AA06AB00F06D
:103DA00091FC012803D1094B0020E55405E00238BD
:103DB000431E9841013000E008200BB0F0BDC04622
:103DC0002A04000038DD000020DB00004A03000068
:103DD000F0B5061CA4368FB0051C0021FA22301C59
:103DE00007F0EDF800210F2202A807F0E8F80AAF6B
:103DF00000210F2206A807F0E2F80F220021381C4C
:103E000007F0DDF8244B301CFE33598E07F08EF995
:103E1000224C02A8218807F089F9A18806A807F09A
:103E200085F9A31DD98F381C07F080F9FA235B00B0
:103E300001930097281C311C02AA06AB00F04CFC31
:103E400001281DD10F22002102A807F0B8F8218B0C
:103E500002A807F06BF94C340F22002106A807F0E6
:103E6000AEF8218806A807F061F90D4B281C02A9BD
:103E700006AA00F0D7FA0138431E9841C0B208E004
:103E8000022805D00338431E98410323181A00E086
:103E900001200FB0F0BDC04638DD000020DB00007F
:103EA000204E0000F0B5644B071C99B00025A437E4
:103EB000C5540391041C291C161C381CFA2207F057
:103EC0007EF8291C142204A807F079F8291C142272
:103ED00009A807F074F80EA8291C142207F06FF83F
:103EE000039B0720DF2B00D9A4E0301C07F055F915
:103EF00085420BD2735D1A1C303A092A03D9413B23
:103F0000052B00D991E00135EDB2F1E74B4B039A57
:103F1000998A381C331C07F009F9494D04A82988EF
:103F200007F004F9A98809A807F000F92B1C483309
:103F30000EAE1988301C07F0F9F8FA239B000193A4
:103F40000096201C391C04AA09AB00F0C5FB01280F
:103F500065D10021142204A807F031F800211422B1
:103F600009A807F02CF813AF00211422301C07F029
:103F700026F814220021381C07F021F8A98904A88A
:103F800007F0D4F8298C09A807F0FFF80235698FEB
:103F9000301C07F0FAF8E98F381C07F0F6F8294BC7
:103FA00000970193201C04A909AA331C00F086F98C
:103FB000051E012D2AD1FA22201C2349520000F0AF
:103FC00029FA231CA2331B88002B1DD01F4E201C56
:103FD000311C113007F0FCF806F084FFEF239B0042
:103FE000E054311C002007F0F3F8194B071CE618C9
:103FF00000216522301C06F0E2FF301C391C6422CF
:1040000007F0D2F80C4BE554002013E00228FBD057
:104010000520032D0ED0042D09D002200AE002282D
:1040200007D00328F9D1062004E0072002E0281C6D
:1040300000E0012019B0F0BD2204000038DD0000CE
:1040400020DB000020BF020055DA000054DA000037
:10405000BD030000F0B5051CA4358BB0041C0E1C7C
:10406000FA220021281C06F0AAFF00210F2202A834
:1040700006F0A5FF00210F2206A806F0A0FF124BB4
:10408000321CFE33D98A281C07F050F80F4F02A8C3
:10409000398807F04BF8B98806A807F047F8642379
:1040A0000093201C291C02AA06AB00F00BFB012880
:1040B00003D1074B0020E65403E00238431E984129
:1040C00001300BB0F0BDC04638DD000020DB000041
:1040D00042020000F0B5061CA4368BB0071C141C6D
:1040E000301C0021FA221D1C06F069FF02A80021E5
:1040F0000F2206F064FF06A800210F2206F05FFFE2
:104100000F4AA2235B00D15A301C221C2B1C07F043
:104110000DF80C4C02A8218807F008F8A18806A821
:1041200007F004F864230093381C06AB311C02AA84
:1041300000F0C8FA023843425841C0B20BB0F0BD9B
:1041400038DD000020DB000030B5051CA43585B04B
:10415000041C0021281CFA2206F031FF68460021C9
:104160000F2206F02CFF00232B70231C5522A533B1
:104170001A700A4B6846198806F0D8FF201C291CC3
:10418000022200F0B4FA201C6946642200F042F9D1
:104190000138431E9841400005B030BD20DB0000CF
:1041A000074BE12212025A60064A07499A606422CC
:1041B000DA6001221A7400225A5404495A54704792
:1041C00074030020881300002B0400002A04000060
:1041D000F7B5181C0191161C1F1C06F0DEFF051C0C
:1041E0000020041CAE4210D3731B9C420AD8019BD2
:1041F000391C18192A1C06F0B1FE002804D001341D
:10420000A4B2F1E7002000E00120FEBD08B5031CC8
:10421000002904D10448191C01F02AFD03E00348D9
:10422000191C03F0A3F908BD040A0020A007002010
:1042300008B5031C19784068FFF7E8FF08BD0000C7
:1042400008B5031C002904D1191C044801F07EFCA8
:1042500003E00348191C03F0AFF908BD040A00206D
:10426000A007002038B5041C0D1C2078002804D0BD
:10427000291C0134FFF7E4FFF7E738BD08B5002833
:1042800003D1044801F06CFC02E0034803F085F917
:1042900008BDC046040A0020A007002008B5002879
:1042A00003D1044801F084FC02E0034803F07FF9E5
:1042B00008BDC046040A0020A0070020F0B5051C78
:1042C00085B01135041C0391019200219022281C15
:1042D000029306F074FE231CA23300261E8003F016
:1042E00061FA371C009003F05DFA009BC01A0B9B2B
:1042F000984200D382E02078FFF7C0FF00280ED05C
:104300008E2F0CD82078FFF7C9FFE3195874231CAF
:10431000A2331A887E1CB6B201321A80371C231CC5
:10432000A2331E88201C291C321C039BFFF750FF60
:1043300000280ED0334C3449201C02F083FC334952
:10434000201C02F07FFC3248039902F091FC01200E
:1043500055E0019B002B15D0201C291C321CFFF7B7
:1043600037FF00280ED0274C2749201C02F06AFC9A
:104370002649201C02F066FC2548019902F078FCD1
:1043800002203CE0029B002B15D0201C291C321C73
:10439000FFF71EFF00280ED01A4C1B49201C02F00C
:1043A00051FC1A49201C02F04DFC1948029902F0F8
:1043B0005FFC032023E00A9B002B15D0201C291C46
:1043C000321CFFF705FF00280ED00E4C0E49201CB2
:1043D00002F038FC0D49201C02F034FC0C480A990C
:1043E00002F046FC04200AE003F0DCF9009B98424E
:1043F00000D378E703F0D6F9009074E7002005B009
:10440000F0BDC046640800208DDE000095DE00008F
:10441000040A002007B50023019200931A1CFFF73D
:104420004DFF0EBD13B51C1C002300930194FFF734
:1044300045FF16BD70B5002803D10E4801F096FB6C
:1044400016E003F0AFF9051C0B4C201C03F0A5F897
:10445000261C002804D003F0A5F9401B632803D9CB
:10446000301C03F095F803E0201C03F0A0F8EBE704
:1044700070BDC046040A0020A0070020F0B5874D9B
:10448000874E85B00F1C041C311C281C019302921E
:1044900002F0D8FB8349281C02F0D4FB391C281CED
:1044A00002F0E6FB311C281C02F0CCFB7E49281CE4
:1044B00002F0C8FB281C029902F0DAFB019B002BDA
:1044C0000BD0311C281C02F0BDFB7849281C02F0DF
:1044D000B9FB281C019902F0CBFB0A9B002B0CD0E6
:1044E0006E4D6F49281C02F0ADFB7149281C02F08B
:1044F000A9FB281C0A9902F0BBFB0B9B002B0CD0DC
:10450000664D6749281C02F09DFB6A49281C02F091
:1045100099FB281C0B9902F0ABFB237C002B02D0EB
:104520002078FFF787FF2178381C251CFFF79AFEBB
:104530001135E06803F03CF900219022281C06F0B8
:104540003EFD231C0026A2331E8003F02BF9371CEE
:10455000009003F027F9009BC01A0C9B984200D3EF
:1045600083E02078FFF78AFE00280FD08E2F0DD829
:104570007B1C9BB220780393FFF790FEE619231C67
:104580007074A2331A88039F01321A80231CA2334D
:104590001E88201C291C321C029BFFF719FE0028D4
:1045A0000ED03E4C3E49201C02F04CFB4249201CE0
:1045B00002F048FB201C029902F05AFB01206BE03C
:1045C000019B002B15D0201C291C321CFFF700FE7C
:1045D00000280ED0314C3249201C02F033FB364902
:1045E000201C02F02FFB201C019902F041FB02204D
:1045F00052E00A9B002B15D0201C291C321CFFF70F
:10460000E7FD00280ED0254C2549201C02F01AFB9E
:104610002949201C02F016FB201C0A9902F028FBF5
:10462000032039E00B9B002B15D0201C291C321CC9
:10463000FFF7CEFD00280ED0184C1949201C02F0BF
:1046400001FB1D49201C02F0FDFA201C0B9902F011
:104650000FFB042020E003F0A5F8009B984200D354
:1046600077E703F09FF8009073E70C4C0C4E201C8A
:10467000311C02F0E7FA1149201C02F0E3FA311C68
:10468000201C02F0DFFA0E49201C02F0DBFA201C8D
:10469000291C02F0EDFA002005B0F0BD64080020EE
:1046A0008DDE00009CDE0000A1DE0000A7DE000021
:1046B000ADDE0000B3DE000095DE0000B9DE0000D4
:1046C000C4DE00001FB5002400940194069C0294EF
:1046D000FFF7D4FE04B010BD1FB5069C0094002463
:1046E0000194079C0294FFF7C9FE04B010BDF8B511
:1046F000037C041C0E1C171C002B02D00078FFF753
:1047000099FE351CAB1B9BB2BB4205D228782178A1
:10471000FFF796FD0135F5E7E06803F049F8F8BDCD
:10472000F0B546464F46C0B48FB0161C1F1C009013
:10473000019100F0ADF9BC4A0023D356041C0D1CB6
:10474000904602940395013305D0301C391C01F0CA
:1047500021F8002806D1029803990FB00CBC9046AE
:104760009946F0BD0098019901F014F8814600289F
:1047700031D1301C391CA14B9F4A03F0C3FB0028E8
:10478000E9D001230493A94B04AC63604B46236238
:10479000009A019BA260E360994A9A4BA261E3618F
:1047A00042460023D356266167615A1C0ED0022B65
:1047B0000CD0201C01F01EF8002800D17BE0236AF9
:1047C000002B03D006F094FB236A0360A269E3691F
:1047D00002920393BFE700980199884B864A03F041
:1047E00091FB002822D0301C391C844B824A03F0F4
:1047F00089FB051E2CD0012304938C4B04AC636011
:1048000000232362009A019BA260E3607B4B7A4AFB
:10481000A261E36142460023D35626616761002B03
:10482000C7D0774A774BA261E361CFE7201C291CF0
:1048300000F0A8FF8146002842D0201C291C6F4BA5
:104840006D4A03F05FFB00286CD10294039582E768
:10485000301C391C00F096FF002800D17BE7301C8B
:10486000391C664B644A03F053FB002800D172E701
:10487000012304936D4B04AC6360009A019BA2601A
:10488000E36043461978256226616761002900D1FB
:104890007AE05D4A5D4BA261E36102293CD106F0FA
:1048A00027FB21230360236A002B8FD006F020FB17
:1048B000226A02608AE706F01BFB212303607EE781
:1048C0000098019900F05EFF0028B6D0301C391C1A
:1048D00000F058FF0028B0D0201C291C00F05AFF1F
:1048E00004AC002855D101230493504B206263602F
:1048F000009A019BA260E36043461D7826616761D0
:10490000002D41D03D493C48021C0B1C04F086FBA5
:10491000A061E161022DC2D0201C00F06BFF0028D5
:10492000C1D1BCE70098019900F02CFF02940395D7
:10493000002800D10FE7301C391C00F023FF02943F
:104940000395002800D106E704AC042304932661F4
:104950006761364B636000232362009A019BA2606B
:10496000E360264B244AA261E36142460023D3560A
:10497000022B04D0201C00F03DFF002893D106F04C
:10498000B7FA222303608EE71C4B1B4AA261E36146
:10499000C2E703230493254B2661676163604B469E
:1049A0002362009A019BA260E36042460023D35633
:1049B000002B3DD1164A174B00980199A261E36183
:1049C0000E4B0D4A03F0A4FA0028CED0124A134B26
:1049D000301C391C04F08CFF061C0F1C00F014FF67
:1049E000321C3B1C03F08EFA0028BED10C4A0D4B42
:1049F000A261E361B9E7C0460000000000000000CA
:104A0000000000000000F03F000000000000F0FF88
:104A1000000000E0FFFFEF47000000000000E03F63
:104A2000000000E0FFFFEFC709000020D0DE00001B
:104A3000104B0F4A00980199A261E3610E4A0F4B97
:104A400003F066FA002890D00D4A0E4B301C391C3A
:104A500004F04EFF061C0F1C00F0D6FE321C3B1C5F
:104A600003F050FA002800D07FE7074A074B7AE7A7
:104A7000000000000000F07F0000000000000000C7
:104A8000000000000000E03F000000000000F0FF18
:104A9000F0B55F4656464D464446F0B499464B46FF
:104AA0005C00934664088FB00D1C0F1C5A46211CF5
:104AB0000090061C824602935846114337D0690085
:104AC000490888466849049588452BDC28D0664902
:104AD0008C4227DC00D180E0002108910499002954
:104AE00000DA7EE0002833D15F4B9C4200D196E093
:104AF0005E4B9C426AD002988023DB05984201D12C
:104B000000F0E1FB5A4B0299994221D1049A002A04
:104B10001EDB291C009800F04BFD061C0D1C08E054
:104B2000002ED4D0534A131C434433430AD14F4D73
:104B30000026301C291C0FB03CBC90469946A2466A
:104B4000AB46F0BD4C4800F057FE061C0D1CF0E7CC
:104B50000098291C00F012FE534606908C46002B4C
:104B600020D0FB0F013B0493049E089B33436AD083
:104B7000424B9C4200DC8DE0414B9C4201DC00F04A
:104B800035FC404B984500DC89E3029E002E00DC9A
:104B900089E334493248021C0B1C04F0A9FE061CB0
:104BA0000D1CC6E74046002804D0304BBA009208DE
:104BB0009A42D6D1029C002C01DA00F0C4FB049E7C
:104BC000002E00DA73E3069E6546B2E7029C002CD5
:104BD00001DA00F076FC009EABE7002800D17BE70D
:104BE000A0E729498C422BDC26498C4200DC79E77E
:104BF00021158C4625498C4501DC00F086FC244BB0
:104C000061465B1A111CD9400A1C9A40824200D0AE
:104C100068E701220A4002239B1A089362E7154ABB
:104C2000131C4344334300D181E7164B984500DC05
:104C30007FE3029C002C00DA35E35E464D4678E7C0
:104C4000022108914EE70098009A291C2B1C05F0C0
:104C5000DFF8021C0B1C04F0E1F9061C0D1C68E7D0
:104C60009C7500883CE4377E0000F07F0000F03F38
:104C70000000E03F000010C008DF00000000E0413D
:104C80000000F043FFFFEF3FFFFF3F43130400002E
:104C900033040000E24A0023904509DC0698C54B26
:104CA000C34A614604F024FE3523069088465B42E1
:104CB0004046DC4902155218D21892460303DA4DD9
:104CC000DA4A1B0B1D43934201DC00F0F6FBD84A85
:104CD000934201DC00F036FCD64B01229244ED18E1
:104CE00000240021069A2B1C06920793C900D24B80
:104CF00088464344186859680A900B910A9A0B9B9E
:104D00000698079905F084F80A9A0B9B061C0F1C5D
:104D10000698079903F066FE021C0B1CA648A749DB
:104D200004F07CF90C900D910C9A0D9B301C391CF1
:104D300004F0DEFD029003910B1C802189056D10AB
:104D4000802000220D430003009201939C4A9D4B5A
:104D500029180B1900980199141C1D1C04F0C8FD9A
:104D6000021C0B1C301C391C05F052F80A9A0B9BD4
:104D7000061C0F1C201C291C05F04AF8021C0B1CE9
:104D80000698079905F044F8021C0B1C009801993D
:104D900004F0AEFD021C0B1C301C391C05F038F869
:104DA0000C9A0D9B04F0A4FD0690079102980399BC
:104DB000021C0B1C04F09CFD041C0D1C221C2B1C53
:104DC00004F096FD804A814B061C0F1C201C291CF8
:104DD00004F08EFD7E4A7F4B03F004FE221C2B1C48
:104DE00004F086FD7C4A7D4B03F0FCFD221C2B1C4D
:104DF00004F07EFD7A4A7B4B03F0F4FD221C2B1C51
:104E000004F076FD784A794B03F0ECFD221C2B1C54
:104E100004F06EFD764A774B03F0E4FD021C0B1C98
:104E2000301C391C04F064FD029A039B041C0D1C09
:104E30000098019903F0D6FD069A079B04F058FDEF
:104E4000221C2B1C03F0CEFD061C0F1C00980199A0
:104E5000021C0B1C04F04CFD674A684B0A900B9136
:104E600003F0C0FD321C3B1C03F0BCFD00240D1CF4
:104E7000221C009801992B1C04F03AFD221C2B1CCB
:104E8000009001910698079904F032FD5A4A5B4B55
:104E900006900791201C291C04F0BAFF0A9A0B9B6C
:104EA00004F0B6FF021C0B1C301C391C04F0B0FFD0
:104EB000029A039B04F01CFD021C0B1C0698079928
:104EC00003F090FD061C0F1C321C3B1C009801993E
:104ED00003F088FD4A4A4B4B0024201C0D1C04F0B3
:104EE00007FD494A494B06900791201C291C04F0F4
:104EF000FFFC009A019B02900391201C291C04F0E6
:104F000087FF021C0B1C301C391C04F081FF404A37
:104F1000404B04F0EDFC021C0B1C0298039903F0BB
:104F200061FD464B43441A685B6803F05BFD061C59
:104F300050460F1C05F0CAFA0D1C4149041C41449F
:104F40000A684B680698079902920393321C3B1C2F
:104F500003F048FD029A039B03F044FD221C2B1C26
:104F600003F040FD00220B1C00920193101C2B1C2F
:104F7000221C04F04DFF029A039B04F049FF069A9D
:104F8000079B04F045FF021C0B1C301C391C04F06D
:104F90003FFF02900391089B049C013B234300D0F8
:104FA000C2E11D481D49049005914BE0C046C04632
:104FB0000000000000004043000000000000F03F3F
:104FC0000000000000000000EF4E454A287ECA3F66
:104FD00065DBC9934A86CD3F01411DA96074D13F6D
:104FE0004D268F515555D53FFFAB6FDBB66DDB3F7F
:104FF000033333333333E33F000000000000084045
:10500000000000E009C7EE3FF5015B14E02F3EBE53
:10501000FD033ADC09C7EE3F000000000000F0BFCE
:10502000FFFF0F0001FCFFFF0000F03F8E98030020
:1050300079B60B000000F0FFF8DE0000E8DE0000AB
:10504000D8DE00000026321C4B465846494604F084
:10505000DFFE009A019B04F04BFC029A039B041CA8
:105060000D1C5846494604F043FC021C0B1C201C36
:10507000291C03F0B7FC009A019B02900391301C9D
:10508000494604F035FC00900191009A019B02987A
:10509000039903F0A7FCCC4B041C0D1C0F1C884685
:1050A000994200DC19E1C94A8B18034300D012E28F
:1050B000AC4BAB4A0298039903F094FC009A019B15
:1050C00008900991201C291C04F0A2FE021C0B1C54
:1050D0000898099902F030FFA946002800D0FAE1AB
:1050E0004A46BB4B802411156403C918201C084193
:1050F000C11948009C4A9D4B0B1C0903B54E090B76
:10510000400D0C43B4498519B44E081A04412E4190
:105110004046B343A146002800DA1EE200980199F8
:1051200004F076FE00900191009A019B0298039989
:1051300003F058FC4A46120590460024201C8C4A75
:105140008C4B0D1C0F1C04F0D3FB009A019B0890A4
:105150000991201C291C04F05BFE021C0B1C029808
:10516000039904F055FE844A844B04F0C1FB844A41
:10517000844B261C0D1C041C391C301C04F0B8FB8D
:10518000021C0B1C201C291C03F02CFC041C0D1CF5
:10519000221C2B1C0898099903F024FC089A099BEF
:1051A000061C0F1C04F034FE021C0B1C201C291CC6
:1051B00004F02EFE321C009001913B1C301C391C67
:1051C00004F096FB704A714B041C0D1C04F090FB1C
:1051D0006F4A704B04F01CFE221C2B1C04F088FB51
:1051E0006D4A6E4B03F0FEFB221C2B1C04F080FB6F
:1051F0006B4A6C4B04F00CFE221C2B1C04F078FB59
:10520000694A6A4B03F0EEFB221C2B1C04F070FB76
:10521000021C0B1C301C391C04F0FAFD041C0D1C74
:10522000221C2B1C301C391C04F062FB604A614BB1
:1052300002900391201C291C04F0EAFD021C0B1CA7
:105240000298039903F0EAFE009A019B041C0D1CCE
:10525000301C391C04F04CFB009A019B03F0C2FB8C
:10526000021C0B1C201C291C04F0D2FD321C3B1C10
:1052700004F0CEFD0B1C021C4F48504904F0C8FD41
:10528000464673181C15002C00DC60E1021C0498D3
:10529000059904F02DFB061C0D1CFFF74AFC029C2F
:1052A000002C00DA75E400260025FFF742FC4C488C
:1052B000089C031C4344234300D01AE1069861462E
:1052C000069A6346C3E4291C2B1C0098009A04F03C
:1052D0000FFB061C0D1CFFF72CFC4B005B089946CE
:1052E000404B994500DC25E13F480B1823430DD185
:1052F000009A019B201C04F08BFD021C0B1C0298E1
:10530000039902F00FFE002800D1E9E62C4A2D4B4C
:105310000498059904F0ECFA294A2A4B04F0E8FABB
:10532000061C0D1CFFF705FC2349244A0491059235
:1053300088E6029E002EB6DA80200006051C5E4636
:105340004D44FFF7F6FB069A63461B481B4903F0E2
:1053500065FE06908C46FFF732FCC046C046C0464C
:10536000FE822B654715973C0000000000000000FE
:1053700000000000432EE63FEF39FAFE422EE63FE2
:10538000396CA80C615C20BED0A4BE726937663E41
:10539000F16BD2C541BDBB3E2CDE25AF6A56113F35
:1053A00093BDBE166CC1663F3E5555555555C53F1C
:1053B0000000000000000040000000000000F03F7E
:1053C00059F3F8C21F6EA501FFFF8F40000070BFA8
:1053D00002FCFFFF01FCFFFF13040000FFFF0F00B2
:1053E000000010C0FFCB904000346F3F6C4B9845DD
:1053F00000DC54E76B4B984501DDFFF7C6FB6146C7
:10540000584B574A069804F003FD574A574B041C63
:105410000D1C04F06DFA564A564B061C0F1C201C3E
:10542000291C04F065FA221C009001912B1C201C01
:10543000291C04F05DFA504A504B02900391201C45
:10544000291C04F055FA021C0B1C4D484D4904F070
:10545000DFFC221C2B1C04F04BFA021C0B1C4A48DC
:105460004A4904F0D5FC021C0B1C0298039904F075
:105470003FFA474A474B04F03BFA021C0B1C0098CA
:10548000019904F0C5FC041C0D1C221C2B1C301CB3
:10549000391C03F0A7FA00220B1C00920193101C88
:1054A0003B1C321C04F0B4FC021C0B1C201C291CED
:1054B00004F0AEFC029003916DE500240021FFF79B
:1054C00011FC2B1C27492648009A03F0A7FD061C57
:1054D0000D1CFFF72EFB304A304B0498059904F061
:1054E00007FA2D4A2D4B04F003FA061C0D1CFFF79A
:1054F00020FB089E012E01D0FFF765FB80200006EF
:10550000051C069E6544FFF714FB002801D0FFF739
:105510001FFB6346C91A221C0A41101C8840A04286
:1055200001D0FFF7E5FA01231A4002239B1A0893E2
:10553000FFF7DEFA1C4B994500DDD1E500239846C4
:105540009946FAE58024E4020121FFF7CBFB4A46A5
:1055500000F006FA021C0B1C99E66442A146DDE548
:10556000000000000000F03F000000604715F73F1A
:1055700044DF5DF80BAE543E000000000000D03F59
:10558000555555555555D53F000000000000E03FEA
:10559000FE822B654715F73F9C7500883CE4377EFB
:1055A000FEFFEF3F0000F03F0000E03FC046C04676
:1055B000F0B55F4656464D464446F0B46C4E0D1C61
:1055C000371C83B0041C021C0B1C2F40B74200D1B7
:1055D000ADE0002900DC8BE02F1500D194E0654D93
:1055E00009038023090B5B037F190B43FE0700D5DA
:1055F00070E07F10C20FB8465B00002780219B1827
:105600001624420000970020890345189D4204DCBF
:1056100068185B1B009D6D180095D50F5B00013C61
:105620005B1952004908002CEFD1802100260906A1
:1056300020250196B446894609E0834246D0D40F1E
:105640005B00013D1B1952004908002D1CD0664625
:105650008C198342F1DD6718E60FBC46F6078246D7
:105660004E452CD01B1AA24280414042019F1B1A7A
:10567000121B7F18D40F5B00013D019750461B1988
:1056800052004908002DE2D1134328D10198430864
:10569000009D394E6A109219ED0702D58021090646
:1056A0000B4340460705B9181C1C0D1C201C291C67
:1056B00003B03CBC90469946A246AB46F0BDFF0FF6
:1056C000FF077E427E41B2468244CBE79442C2D974
:1056D000181CB4E7C20F5B009B18400089E70199D2
:1056E00001312FD0019C012323401B195B08CFE718
:1056F0006B005B081A43D9D0002700292BD1C10ABF
:10570000153F40050029FAD08022520311421ED1D4
:105710000023490001331142FBD001242022E41A66
:10572000D21A3F19041CD4402143984057E7201C4B
:10573000291C04F0DDF8221C2B1C03F053F9041C77
:105740000D1CB3E7009A002301320092A0E720224B
:1057500001240023E5E7221C2B1C201C291C04F03B
:1057600057FB021C0B1C03F059FC041C0D1C9DE78D
:105770000000F07F01FCFFFF0000E03F4B005908F4
:105780007047C0464800024B4008C018C00F704721
:10579000000010800B1C011C021C30B519430220B4
:1057A000002900D130BD802109068B4216D00D4959
:1057B00004205C180C498C42F4D90C4D5C198C42C5
:1057C000F0D90B4C590049080320A142EAD9074CF3
:1057D0000020A142E6D150425041E3E7002AE1D047
:1057E000EFE7C0460000F0FFFFFFDF7F0000F07F23
:1057F000FFFF0F0000207047024901487047C04674
:10580000000000000000F87FF0B546464F46C0B4E7
:10581000CA0F90464B004D4A5B0D9E1883B0041C86
:105820000D1C8C46071C132E3BDC002E5CDB484F06
:10583000021C37413B1C0B400343994648460B1C56
:10584000002827D07B081A1C0A4022430027002A80
:105850000AD0132E00D176E0291C80229943D2026F
:105860000B1C324113439C464046C10039486346F5
:1058700041180C684D683A1C201C291C03F0B2F832
:105880000090019100980199221C2B1C04F0C0FA91
:10589000021C0B1C101C191C03B00CBC9046994632
:1058A000F0BD332E0BDD0B1C8021021CC9008E4283
:1058B000F0D1291C03F096F8021C0B1CEAE7264ADB
:1058C0000126D2187642D64091460B1C021C064295
:1058D000E0D076080642C7D08023B443DB054846B3
:1058E0000341271C1F43BFE74E0076080643021CF6
:1058F0000B1C002ECED00903090B01434842014383
:1059000080200003090B0140680C40040B1C03437A
:105910004046C1000F4841180C684D68291C201CE6
:1059200003F060F800900191009801992B1C221C53
:1059300004F06EFA0D1C4146021CC80769004908B4
:10594000031C0B43A6E780273F0685E701FCFFFF0A
:10595000FFFF0F0010DF0000EDFBFFFF0000000065
:10596000F8B53D4E171C331C0B40041C0D1C0A1CC3
:105970001B1525D14B005B0818431ED0201C291C89
:105980002E4B2D4A03F0B4FF344B041C0D1C9F42D8
:1059900031DB0E4033150A1C363B3149DB198B4293
:1059A00015DD221C2B1C2648264900F061F8244AEC
:1059B000244B03F09DFF041C0D1C291C201CF8BD6A
:1059C00028498B421ED02649DB198B42E9DC002B8B
:1059D00005DD25491B050A401D1C1543EDE7191C73
:1059E000353118DA214B9F42DBDC17481749221C5E
:1059F0002B1C00F03DF8144A144B03F079FF041CF3
:105A00000D1CDAE7201C291C221C2B1C02F0EAFFCB
:105A1000041C0D1CD1E7144936331B050A401D1C1C
:105A20001543201C291C0A4A0A4B03F061FF041C81
:105A30000D1CC2E7C046C0460000000000005043F5
:105A40009C7500883CE4377E59F3F8C21F6EA501AF
:105A5000000000000000903C0000F07FB03CFFFF21
:105A6000FE070000FF070000FFFF0F8050C300008B
:105A700030B5DA0FD2074B005B08111C194330BD5B
:105A800008B5024801F0C2FD08BDC046A0070020CD
:105A900008B5024801F0BAFD08BDC046280900203B
:105AA000F7B51A4F1A49381C01F0A0FA19491A48DB
:105AB00001F09CFA19491A4801F098FA19491A4854
:105AC00001F094FA19491A4801F090FA194D032689
:105AD0000124281C184901F089FA391C0096231C5E
:105AE00001940022154801F06DFD291C00960194D7
:105AF00007220623124801F065FD0096291C019437
:105B00001F221E230F4801F05DFDF7BDF0090020A4
:105B100000080042000C0042F4090020001000427E
:105B2000F809002000140042EC090020001800428F
:105B3000FC090020000A0020001C0042A0070020F1
:105B400064080020280900203F20704713B5026830
:105B50006B46D97107335468191C0122A04716BD42
:105B600008B50069022100F027FC08BD08B50069EE
:105B7000032100F037FC08BD38B50D1C041C131CB4
:105B8000006903212A1C00F029FD002801D101230E
:105B9000636038BD10B5054C23685A1C04D10368F6
:105BA000DB6898472060031C181C10BD5C000020B7
:105BB000074A08B51368591C04D0012149421160F5
:105BC000181C03E00069022100F0FAFC08BDC04681
:105BD0005C00002008B503780349023303704222B9
:105BE000024800F0B1FD08BD18000020CF0E0020D3
:105BF00010B50178031C42780020A12908D1212A80
:105C00002FD118481849072200F09EFD012028E0F6
:105C1000212926D1202A05D113490722114800F055
:105C200027FC04E0222A10D19A780F4BDA710E4B30
:105C300096221968D200914210D1DC7901231C40D0
:105C40000CD1FA2001F02AF90AE0232A09D1DA78E6
:105C50009B7812021A43054B1A6002E001F024F906
:105C6000002010BDCF0E00200C00002014000020EA
:105C700070470000064BFA2189009960054900220F
:105C80000831196004495A6019611A767047C04694
:105C9000040A002070E30000CF0E002070B5C2B2ED
:105CA00019495301CB189E68184DC0242E40A405F5
:105CB00026439E60164E80010968301808325860ED
:105CC0005201505C0726B0430126304350549E6970
:105CD00035402C439C610F4C5C61505C7024A043A8
:105CE0001024204350549C680B488A18204080247C
:105CF00064032043986098684021800B800398607B
:105D000053790B43537170BDD80E0020FFFFFF8FF6
:105D1000F00C00202C0B0020FF3F00F038B5041CD5
:105D200008CC01211A78051C0A431A708022201C15
:105D30000021520005F043F92B689A78D107FCD472
:105D40005C6238BD134BF0B51B6899035A029B0186
:105D5000C90ED20E5B0F1F2900D105211F2A00D1C9
:105D60001D22072B00D1032304688E01278D0A49C9
:105D70001F2539403143218501682A400C8DAC43F1
:105D800022430A8502681903108D044B03400B431C
:105D90001385F0BD246080003FF8FFFFFF8FFFFFF9
:105DA000EFF3108303600123436072B6704703680A
:105DB000002B02D162B6BFF36F8F704737B505690C
:105DC000041C6846002D12D1FFF7EAFF019B013B3E
:105DD00003D3621DD57FEDB2F9E768460193FFF763
:105DE000E6FF0020854217D0206AE36913E0FFF741
:105DF000D7FF019B0025013B04D3221C34321578C8
:105E0000EDB2F8E768460193FFF7D1FF0020854225
:105E100002D0206BE36AC01A3EBD0000436810B593
:105E20001A68037A01215B01D318FF339A7A0A4377
:105E30009A72037A42685B01D318C2689C68910425
:105E40000B4A090922400A439A60037A42685B01BF
:105E5000D3189A684021920B92039A6043681A689B
:105E6000037A08335B01D3181A790A431A7110BDFB
:105E7000FF3F00F0F7B50569041C0E1C171C6846AF
:105E8000002D1FD1FFF78CFF019B013B5A1C06D050
:105E9000621DD17F5A1E00293AD0131CF6E76846CE
:105EA0000193FFF784FF0025E369BD4235D0226AE4
:105EB000934232D25A1CE261A269D3181B787355FF
:105EC0000135F1E7FFF76CFF019B013B5A1C08D03D
:105ED000221C343215785A1EEDB2002D18D0131C36
:105EE000F4E768460193FFF762FF0025E36ABD42CD
:105EF00026D0226B934241D322E0621D0021D1774C
:105F000030321678581E8E4214D1031C5A1CF4D11C
:105F100068460193FFF74BFF38E0226A934235D180
:105F20000023E361012323616846FFF739FF019BEA
:105F3000013BEBE71170201C0193FFF76FFFF6E7C1
:105F4000226B934222D10023E36223616846FFF76C
:105F500027FF019B013B5A1CDAD0221C343200215E
:105F6000117001321678581E8E4201D1031CF2E7DF
:105F70001170201C0193FFF751FFEAE75A1CE262FF
:105F8000A26AD3181B7873550135AFE7281CFEBDF4
:105F900037B54368027A1B68083252019A18041C0C
:105FA000D0790123FF21184253D0D371A0686569CD
:105FB00062680140002D20D1490152189168636147
:105FC0008904890C2162A16A68465160621DD377F9
:105FD000FFF7E6FE019B013B5A1C33D0221C3432F2
:105FE0001178581EC9B20132002903D00193012350
:105FF000137023E01170031CEEE74B01D3189A686D
:10600000A5699204920C22630022626168465D6079
:10601000FFF7C6FE019B013B01E011702B1C591CD0
:1060200010D0221C343201201070621DD17F5D1E01
:10603000C9B230320029F0D0019310706846FFF7E2
:10604000B6FE06E068460193FFF7B1FE201CFFF79D
:10605000E5FE37BD37B500236C46E3710734201CDD
:106060000D1CFFF7B7FD2B681818286001F06EFEB5
:10607000211C01F025FE2B681818286020783EBDF1
:1060800003290BD10D4BB2221B685200985C802172
:10609000494201439954022168220CE001290CD1A4
:1060A000064B92221B685200985C802149420143B2
:1060B000995402212822FF3299547047D80E0020AB
:1060C00038B5304B00240121051C1A201C7001F04A
:1060D0000BFD1A20012101F061FD2B4B192001213C
:1060E0001C7001F001FD1920012101F057FD274B23
:1060F0002021DA6901200A43DA61254B06241A7847
:1061000002431A70234B0F221978914319701978A2
:106110002143197020490C782043087019780A40EF
:106120001A701A7860210A431A701C4B1C4A5A8054
:106130005A78D209FCD11B4801F02EFB1A4C201CC6
:10614000FFF7ECFD201CFFF7FDFD23687F22197887
:106150000A401A701A7804210A431A701A890C210D
:106160008A431A81C121114A890050580002000A4D
:106170005050802111601A7802210A431A700123BD
:106180002B7038BDEC0C0020D40E00200004004021
:10619000584400413C44004159440041000C004037
:1061A00006400000D56B0000D80E002000E100E0A2
:1061B0000078002810D0094B01211B681A898A43F6
:1061C0001A811A8B08210A431A831A8B04210A4365
:1061D0001A83034B00221A607047C046D80E002075
:1061E000DC0F00200F4B9A69920B92039A611B6897
:1061F0000222FF331A7298798022524202439A7126
:106200001A7A9007FCD5084B081C997A7F22104017
:10621000914301439972997A802252420A439A72B9
:106220007047C046D80E00200050004110B50B79D1
:106230000C1C002B0BD1081CFFF7DAFC002804D142
:10624000094B9A69920B92039A6101200BE001F0CD
:106250007DFD211C01F068FD0028F6D1024B9A69F2
:10626000920B92039A6110BDD80E0020F8B50D1C58
:10627000832A16D1CAB242495301CB189C694148BE
:10628000AD012040C024A405204398613E48083257
:1062900045195D610B685201D15C7020814340203B
:1062A00065E0022A45D1382001F0C0FA374B344F5F
:1062B0008026036076000023421D03620361436170
:1062C000C36147608560C660D3772F32041CC36208
:1062D00003631370301C537004F036FEA061301C51
:1062E00004F032FEFF232A1C1A405201A062BF189C
:1062F000B968244A07260A40C02189050A43BA60C2
:10630000A16862681940126808314901885CAD00D3
:10631000B043032630438854A16862680B405B0198
:10632000A169D3185960201CFFF778FD184BEC5079
:1063300025E0822A1ED1CAB211495301CB189C69AB
:106340001048AD012040C024A405204398610E48A8
:10635000083245195D610B68520199180C7980204B
:10636000404220430871D15C7020814330200143BA
:10637000D15404E0002A02D1081CFFF78FFCF8BDBD
:10638000D80E0020FFFFFF8F2C0B0020A0E30000A1
:10639000B00E002038B5051C0124064BA200D258CF
:1063A000002A06D0211C281C0134FFF75FFFE4B24D
:1063B000F3E738BD6000002008B5084B8A00D058CC
:1063C000002803D003689B68984706E0C9B2044BD5
:1063D0004901591888688004800C08BDB00E00205F
:1063E000D80E002010B50C1CFFF7E6FF00280CD0DB
:1063F000064BE1B21B680831490159184A798023DC
:106400005B4213434B710223CB7110BDD80E0020A9
:1064100070B5CAB2134B14485401890159180319B5
:1064200059609D681149083229408025AD022943F1
:10643000996099684026890B890399600368510126
:1064400059180D7935430D715101591889794D0647
:10645000FAD551015918C979CD07FAD50419A068A0
:10646000C0B270BDF00C0020D80E0020FF3F00F03D
:1064700038B50C4B141C1B680D1CFF335A79402196
:106480000A435A710021FFF7C3FFA04200D9201C24
:106490000023A34204D0044A9A5CEA540133F8E78B
:1064A00038BDC046D80E0020F00C002010B5C9B28F
:1064B0000C48490143189A689204920C3F2A08D963
:1064C000141C9A68403CA404920BA40C920322432F
:1064D00002E09A68920B92039A6041188868C0B2F1
:1064E00010BDC046D80E0020F0B51C1C2F4B85B047
:1064F0001B68061C0D1C0292002B51D02C4F3978C2
:10650000C9B2002902D1192001F048FB64233B7075
:10651000284BAA00D058002805D0036802995B6870
:10652000221C984740E0301C291CFFF745FFA04281
:1065300004D2301C291CFFF73FFF041C291C301C0F
:10654000FFF7B4FF1C4FE9B24A0101913968039289
:106550008B18FF335A7A01210A4318495A72AB014A
:10656000C9180298221C04F008FD002C1BD0301C16
:10657000291CFFF721FF002815D1019B3A68083339
:106580005B01D31819794020014319710121D97198
:1065900003995318FF339A7A01210A439A7202E051
:1065A0000120404200E0201C05B0F0BDDC0F0020BF
:1065B000D40E0020B00E0020D80E0020F00C0020D9
:1065C00013B56C460734221C0123FFF78DFF012809
:1065D00001D1207801E00120404216BDF0B51C1C1D
:1065E0003F4B85B01B680E1C0292002B6AD08023A3
:1065F000DB019C4266D83B4D2978C9B2002902D103
:106600001A2001F0CBFA642300222B700092002C98
:1066100056D0354DF7B22B6801933B1C0833019AD5
:106620005B01D3189B79DB091AD0304B30491868CD
:1066300001F0A8FB2F4B1721584301F0A3FB3B1C93
:106640000833019A5B01D318DB799A0708D42A4BE7
:106650009A5D002A38D1421E002835D0101CEEE782
:10666000254B00229A55251E3F2D00D93F25234A50
:10667000B301D318181C02992A1C039304F07DFC63
:10668000194A7B01D318039AA9045A619A69890CA3
:10669000920B92030A439A613B1C019A08335B01F7
:1066A000D3180222DA715979802252420A435A7170
:1066B000009B029A5B1952190093641B0292A6E791
:1066C00000980BE0012008E001229A557B01ED18AB
:1066D000AB69101C9B0B9B03AB61404205B0F0BD46
:1066E000DC0F0020EC0C0020D80E00208C000020D5
:1066F00040420F0070110100240B00202C0B0020E1
:1067000070B50E4D1C1C8B01ED18281C0E1C111CA5
:10671000221C04F032FCF6B20949760189194D6158
:106720008A69084B201C13408B618B69A2049B0B68
:10673000920C9B0313438B6170BDC0462C0B002051
:10674000D80E0020FF3F00F0F7B5114B01901B78E9
:106750000F1C141C002B19D10E4B1E78002E01D1DA
:10676000151C08E00C4D0D482E888019361904F0D0
:1067700004FC2E800AE0002D08D0BA192B1C0198C9
:106780000021FFF7BDFF36182D1AF4E7201CFEBDCF
:10679000CE0E0020CC0E0020220B0020210A00206B
:1067A000F8B50E1C00AF151E012D28D9D31DDB082E
:1067B000DB006A46D21A9546081C04F0EEFC013054
:1067C0006C4640000323207063700222AA420ED25E
:1067D0003378002B0BD0511CC9B20136A354A94207
:1067E00004D0002302326354D2B2EFE72A1C0548DA
:1067F000211CFFF7A9FF431E9841C0B200E0002012
:10680000BD46F8BDCF0E002008B5044B00221A701B
:10681000034B04491A88FFF797FF08BDCC0E0020F0
:10682000220B0020210A0020F0B5204A87B0012366
:106830000026009102A91370051C0296FFF70AFCBE
:1068400003AC092701903A1C201C311C04F0B7FB53
:1068500002236370A023E371FA232372029B0122B7
:10686000DB196380019B62712371104A009B2770C2
:106870001670BB4205D1281C211C1A1CFFF764FFAF
:1068800011E00B4B01221A700A4B211C3A1C281CE8
:106890001E800296FFF758FF281C02A9FFF7DAFBBB
:1068A000281CFFF7B1FF012007B0F0BDCE0E00207D
:1068B000CC0E0020220B002070B5CE788AB0051CCB
:1068C0000C1C022E08D1C9882348FFF7ADFF031C1A
:1068D000581E8341D8B23DE001F038FA211C01F086
:1068E00004FA002803D0C3171B1AD80F32E0012E78
:1068F00004D1E2881949112A27D823E0032E29D18F
:10690000A278002A05D11649E2880B78934219D85B
:106910001BE0022A03D1A279281C124904E0012AB3
:1069200005D1A2791049281CFFF73AFF12E0032A8B
:1069300010D101F00BFA01A901F0E7F9A279281CA6
:1069400001A9F1E7D2B2002A00D10A78281CFFF78A
:10695000FBFE01200AB070BDCF0E0020BEE3000098
:10696000BAE30000D0E30000B0E3000073B5051CFB
:1069700048780C1C0B2878D801F0FAF9081C772805
:10698000773E4306474B686F00206FE0097801AA05
:10699000002903D111705170281C09E000231370E5
:1069A0005370334B1B78012B00D11370281C00212E
:1069B00002234FE08A780023012A04D101AA137030
:1069C00053702C4BEEE72A4A137049E08E78012E63
:1069D00007D1284B01AA00211E701170281C331CFE
:1069E00038E0002E08D1224A01231370224A91690F
:1069F000890B8903916138E0A178281CFFF7F2FB2D
:106A000033E0281CFFF758FF30E0281C00211B4A08
:106A10001FE00A780020D30628D1281CFFF7BAFC13
:106A2000A2781549154B02241A600A682A23FF33FD
:106A3000D05C2043D0544A20FF30145C01231C4317
:106A400014548A69920B92038A610EE00C4A281C46
:106A500000210123FFF754FE07E08A78084B1A60F3
:106A6000054B9A69920B92039A61012076BDC0464C
:106A7000200A0020CD0E0020D80E0020DC0F0020C0
:106A8000D00E0020F8B54B4B071C1C78002C00D012
:106A90008EE0494D2868838B19070DD5201CFFF720
:106AA000FDF82B6810201A1CFF32917A0143917275
:106AB000424A146008229A832B689A8B50071FD58C
:106AC00004229A833E4B1A78002A0AD01A78013A97
:106AD000D2B21A701B78002B03D11A20012101F0C9
:106AE0005DF8384B1A78002A0AD01A78013AD2B2E7
:106AF0001A701B78002B03D11920012101F04EF8E8
:106B00002B68FF331A7AD10626D510221A725A79C9
:106B100040210A432C495A710A786023381C1A42D2
:106B200002D1FFF723FF01E0FFF780FB002806D02A
:106B30002B688022FF33997952420A4301E0234BAC
:106B400020229A712B68FF331A7A500604D540220E
:106B50001A72597A0A435A722968FE230E8C00244D
:106B60001E40E1B2002E23D0321C012322411A42E2
:106B700016D0221C2868083252018218D079184297
:106B800003D1D279DA401A4207D0114BA200D05873
:106B9000002809D003681B6898470123A3409E433F
:106BA0000134092CDDD103E0381CFFF769FAF4E762
:106BB000F8BDC046CC0E0020D80E0020DC0F00200F
:106BC000EC0C0020D40E0020F00C0020FF500041FF
:106BD000B00E002008B50248FFF754FF08BDC046BC
:106BE000CF0E0020014A024B1A607047005000414E
:106BF000D80E0020F7B58A18061C0D1C01920C1C3B
:106C0000019B671B9C4207D0336821781B68301CAE
:106C1000984701340028F3D1381CFEBD08B503683D
:106C2000C9B21B68984708BD38B5051C0C1C081E66
:106C300007D004F0B2FA2B68021C5B68281C211CE8
:106C4000984738BD08B5FFF7EFFF08BD08B5FFF757
:106C5000EBFF08BD08B503681B68984708BD000036
:106C600008B50249FFF7E0FF08BDC04655DA00004D
:106C700038B5041CFFF7D8FF051C201CFFF7F0FFF8
:106C8000281838BDF0B58DB0161C0BAB0022019052
:106C90000C1C1A70012E00D80A266D462B35201CBC
:106CA000311C01F0B3F8201CCFB2311C01F06AF89E
:106CB000291C041C092F01D8303700E03737FFB2F8
:106CC0002F70013D002CEAD10198FFF7ADFF0DB008
:106CD000F0BD08B5002A02D1FFF7A0FF02E0D2B252
:106CE000FFF7D0FF08BD38B5041CFFF7F2FF051C05
:106CF000201CFFF7B5FF281838BD38B5041CFFF776
:106D0000E8FF051C201CFFF7ABFF401938BD000051
:106D1000F7B51C1C08AB1B78071C211C101C151C8C
:106D20000093FEF737FD002802D1381C504907E0D8
:106D3000281C211CFEF72EFD012804D14D49381CCA
:106D4000FFF772FF7CE0281C211C404B3E4A01F0FB
:106D5000F3F8002802D0381C4749F1E7281C211C11
:106D60003B4A3C4B01F0D4F80028F4D1281C211CEC
:106D7000394A3A4B01F0CCF8002808D02D21381CB4
:106D8000FFF768FF802109060190641800E0019078
:106D90000026334A334B00998E420AD0101C191C2E
:106DA000314A324B02F03AF90136021C0B1CF6B2A2
:106DB000F1E7281C211C01F015FE0D1C041C01F03C
:106DC00017F9061C03F0C0FB0B1C021C291C201C1D
:106DD00003F01EF80A22041C0D1C381C311CFFF79E
:106DE00051FF019B0099C618002904D0381C234983
:106DF000FFF71AFF3618009B002B20D01A4A1B4BB6
:106E0000201C291C02F074FD0D1C041C01F0F0F87C
:106E100001900A220199381CFFF734FF36180198B7
:106E200003F092FB0B1C021C291C201C02F0F0FF3B
:106E3000009B041C013BDBB20D1C0093DBE7301C04
:106E4000FEBDC046C046C046000000E0FFFFEF4167
:106E5000000000E0FFFFEFC10000000000000000A4
:106E6000000000000000E03F00000000000024409F
:106E7000DBE30000DFE30000E3E30000EAD2000010
:106E800037B5041C0698C1B20091201CFFF740FFE3
:106E9000051C201CFFF7E4FE28183EBD014B1860BE
:106EA0007047C04688000020024B012252421A60FF
:106EB0007047C04688000020154A1368581C25D02A
:106EC000013B1360002B21D172B6124A124B0432DF
:106ED0009A4207D8BFF34F8F104A114BDA60BFF3C5
:106EE0004F8F11E00F4B197DC807FBD5188B202160
:106EF000FF319208520001431983DA610A4A1A806D
:106F00001A7DD107FCD5E5E7C046FDE77047C046CE
:106F10008800002000200000030200000400FA05A1
:106F200000ED00E00040004102A5FFFF10B5002188
:106F3000041CA42204F043F8221CA4320023201CC9
:106F40001360536010BDF8B5051CA4352E68041CF1
:106F50000F1C701CA42100F059FF231CA8331B68D0
:106F6000994201D0A7552960F8BD021C0023A43224
:106F7000A83013600360704738B5021C041CA834A5
:106F8000A43223681268934207D0C55CA421581C20
:106F900000F03CFF281C216001E00120404238BD88
:106FA000031CA433A8301A680368D01A00D5A43093
:106FB0007047031C021CA833A4321B68126893425A
:106FC00001D0C05C01E0012040427047031CA433A3
:106FD00010B5041C1868A421013000F017FFA83474
:106FE0002368C81A43425841C0B210BD01607047BF
:106FF000F7B508AC267804689D1E27686C1EA5416D
:10700000ECB2920705683A4327063A432A600268C1
:10701000072529405068B501002C00D05C032943A6
:1070200001430C435460F7BD30B50368C0251C68AC
:10703000AD0312052A402243C024A40209042140C2
:107040001143196003685A6814435C6030BD0368DB
:1070500001211A680A431A60026811680123194263
:10706000FBD1D1691942F8D17047036802211A682F
:107070000A431A600268D3699907FCD47047036811
:107080001A7ED10702D41A7E9107FCD57047036897
:1070900000225A8370470368187E4007C00F70476C
:1070A0000368187EC009704703688022197E524227
:1070B0000A431A7670470368188DC0B27047036898
:1070C0001A7E01200242FBD01985704770B5036813
:1070D00001268D07ED0F31401C686D070907294314
:1070E0002143196004685100034800F04BFE013849
:1070F000C0B2207370BDC046006CDC020368012181
:107100001A680A431A600268116801231942FBD108
:10711000D1691942F8D17047036802211A680A43FD
:107120001A600268D3699907FCD470470368DA696A
:107130009107FCD41A6802218A431A607047000044
:1071400038B5041C0D1CFFF7F1FF23680122154020
:10715000AA0704491D68201C0D4015431D60FFF758
:10716000DBFF38BDFFFFFFBF70B5041C0D1E10D044
:10717000FFF7DCFF291C074800F052FE41000548DC
:1071800000F000FE26680138C0B23073201CFFF703
:10719000C3FF70BD006CDC0270B50125041C0D40FE
:1071A0008907CE0FFFF7C2FF23687107074A1E68E1
:1071B000201C16400E431E6023682A0704491D68E0
:1071C0000D4015431D60FFF7A7FF70BDFFFFFFDFF8
:1071D000FFFFFFEF03689A6A520A52021143996255
:1071E00003681A7E5107FCD5986AC0B270470368DD
:1071F00001211A680A431A600268116801231942C2
:10720000FBD1D1691942F8D17047036802211A688D
:107210000A431A600368DA699107FCD45A8B30215B
:107220008A4310210A435A830268D3695907FCD460
:1072300070470368802219685968D2020A435A606D
:10724000704700000368034A196859680A405A6089
:107250007047C046FFFFFBFF30B5036803241D687D
:107260000C40074A596824040A40ED0622436D0F7A
:107270005A60052D03D10268D3695907FCD430BD8B
:10728000FFFFFCFF49001143036830B5CDB2598BB5
:10729000032409092140012904D0598B09090C4014
:1072A000022CF4D1596AC90AC902294359620368F8
:1072B000002A03D11A7ED107FCD50DE0187E0122E9
:1072C0004008104008D1197E1142F7D05968C022F9
:1072D00092020A435A6003E05B8B01209B089843AB
:1072E00030BD0368283319700268107E01231840EE
:1072F00003D1518B1942F8D003E0528B181C92082D
:1073000090437047036828331970036800201A7E81
:10731000510703D55B8B01209B0898437047036896
:107320001868C006400F043843425841C0B2704745
:107330000368187E4007C00F70470368187E01235A
:10734000184070470368588BC006C00F7047036829
:10735000187E8007C00F70470368588B0007C00F66
:10736000704703681A68D206520F052A02D11A7EA6
:107370009107FCD528331878C0B270470368224AB9
:1073800030B5934211D0214A934211D0204A934202
:1073900011D0204A934211D01F4A934211D01F4A64
:1073A000934230D10E2319220DE0092314220AE062
:1073B0000A23152207E00B23162204E00C231722D0
:1073C00001E00D231822DCB2154901209B08A040E2
:1073D0009B0008605B180320C021890004405D58B1
:1073E000E000FF248440A5432C1CC0258540281CB8
:1073F000204358508023DB011A430A4B5A805A78A5
:1074000052B2002AFBDB30BD00080042000C0042F3
:10741000001000420014004200180042001C00420C
:1074200000E100E0000C0040F8B5041C151C0E1C27
:107430001F1CFFF7A3FF201CFFF709FEB1001C2251
:107440000A4069072368090C0A431A6022688423EA
:107450009375012E1AD10821012D00D110210C4B5A
:1074600079431868C00000F08DFC236807219A89D1
:107470000140D2044903D20C0A439A8123680004D4
:10748000C20C9889400B400310439881F8BDC04658
:107490008C000020F7B5019308AB041C1F780D1C6D
:1074A000161CFFF72BFE201CFFF768FFBF070C22FE
:1074B0001743C022920336051640C02292022D04C3
:1074C00023683E4301991540354307221D600A4059
:1074D0008021236889020A435A60F7BD38B5041C2D
:1074E0000D1CFFF74BFF201CFFF781FE23681422C1
:1074F0001A60074B6900186800F044FC2468421EBB
:10750000E068FF231A4098431043E06038BDC0464E
:107510008C00002010B5041C00F044F9E0602368E2
:10752000201CDB689847002808DA00F03BF9E36884
:10753000C01AA3689842F2D30120404210BDF7B5AB
:107540008A18071C0D1C01920C1C019B661B9C4297
:1075500007D0381CFFF7DEFF002802DB2070013463
:10756000F3E7301CFEBD01207047000008B503683A
:10757000014ADB69984708BD1304000010B5041CDC
:107580000069FFF764FD201C1430FFF7EEFC10BD0E
:1075900008B50069FFF773FD08BD08B51430FFF7A3
:1075A000FFFC08BD08B51430FFF703FD08BD08B5A2
:1075B0001430FFF7E1FC08BD08B50069FFF77FFD57
:1075C000012008BDF7B51D1C08AB1B78041C0093F7
:1075D00009AB1B78161C019300234360FA239B0020
:1075E0008360094B0F1C083303601430FFF79EFCC7
:1075F000009A231CC03327619A70019A1E705D7037
:10760000201CDA70FEBDC046E8E3000010B5041C83
:107610000069FFF740FD002807D02069FFF74BFD08
:10762000011C201C1430FFF78EFC2069FFF738FD89
:10763000002805D02069FFF737FD2069FFF727FDF7
:1076400010BDF023081C18403038434258417047A1
:10765000F0231B01194080239B0099420CD0C023CA
:107660009B00994206D080235B000520994204D0FC
:10767000002002E0072000E0062070470F23194099
:10768000012905D002394B424B410220C01A00E0CB
:1076900000207047F0B5031C85B00391C033041C73
:1076A000182718783B1C43431B4E0821F3185956E2
:1076B000151C00F0A3FA231CC13318780821474396
:1076C000F619715600F09AFA01210A1C039B2069F1
:1076D000FFF7AAFE291C201CFFF7BAFF291C071C74
:1076E000201CFFF7CBFF291C061C201CFFF7A9FF5D
:1076F000391C0090331C20690122FFF779FC231C00
:10770000C3331978013B1A782069FFF78DFC206993
:10771000FFF7ABFC05B0F0BD20DF0000FEE7000086
:1077200008B5034B1B68002B00D0984708BDC04626
:10773000E00F002038B50F490F4CA14204D100F0F2
:1077400079F800F053F80BE00C4D8D42F7D0002390
:10775000CA18E818A24204D2006804331060F7E7A0
:10776000FEE79042EBD0064B064A9342E7D2002256
:1077700004C3F9E70000002060010020D8E7000002
:10778000600100200410002008B500F02CF800284B
:1077900001D100F01DF808BD014B18607047C046CC
:1077A000E00F0020014B18687047C046E40F00202E
:1077B00070B5041E08D0054B1D681E1C00F012F8A1
:1077C00033685B1BA342F9D370BDC046E40F0020B1
:1077D00008B5034B1A6801321A60FFF76DFB08BD4C
:1077E000E40F0020704700207047704710B500F08C
:1077F000D5F803F083FBFFF7F8FF0120FFF7D8FF70
:10780000084C201CFEF75CFC201CFEF7D1FCFAF7AC
:107810009FFFFAF719FD044B002BFAD000E000BFE0
:10782000F7E7C046CF0E00200000000008B503F0C7
:107830008BFB08BD70B5494A1E21536802208B435B
:107840000343474953608B69082423438B61454CAC
:10785000454B9C829C8A20439882101CDA689407CE
:10786000FCD5424A012414701478E50704D53F4C36
:10787000647864B2002CF7DB01249460547864B21D
:10788000002CFBDB3A4D394C6560547864B2002C17
:10789000FBDB8225354CED016580547864B2002C09
:1078A000FBDB02249C84DC68E606FCD5314D2E4CC3
:1078B000E562DD682C4CEE06FBD5A58C2E4E3543DB
:1078C000A584DD68284CEE06FBD5A58C0226354341
:1078D000A584DC682506FCD5234CE4686606F8D54B
:1078E000DC68E506FCD500249460547864B2002C72
:1078F000FBDB224D1D4C656055781C4C6DB2002D94
:10790000FADB1E6A1E4D35401D621D6A8026B54396
:107910001D620323A3601B4B636053785BB2002B93
:10792000FBDB00230B72184A4B728B72CB72174B26
:10793000FF211A60164B174A1B6812685C01D20EB1
:10794000214011439A06520F12020B1C1343124A94
:107950001385436880221343436070BD004000419B
:10796000000400400C06000000080040000C00402D
:1079700001050100B805FF7D040A000000070300AF
:10798000FFFCFFFF03060100006CDC028C000020FE
:10799000246080002060800000400042314BFA21CA
:1079A000186810B5890000F0EDF92F4B01389842A6
:1079B00024D82E4A2E4B5060186AC0210002000ABB
:1079C0000906014319620024072194601160196AB5
:1079D00080220902090A12060A431A62254BFC2179
:1079E0001A6A0A431A62196AFC2292010A431A624D
:1079F000196AA022D2020A431A6200E0FEE7201CA4
:107A00000021013400F070F8142CF8D11A4C63787E
:107A10005BB2002BFADB194B6380194B5A7ED209FB
:107A2000012AFAD0E422D2009A803F22DA70597EED
:107A3000134AC9090129FAD0C0235B010020136150
:107A4000907000F023F863785BB2002BFBDB0D4AEB
:107A5000094B5A800C4BDA79D209012AFAD041221B
:107A60005A7010BD8C000020FFFFFF0010E000E006
:107A700000ED00E000040040000C00401E4000004B
:107A800000400042214000000048004200B5144A76
:107A9000517E131CC9090129F9D00138042813D8D3
:107AA0001969104A0A401A615A780F218A4300F076
:107AB0005FF9030509070300012102E0032100E04B
:107AC00002210A435A700AE01169F0231B050B4397
:107AD000136153780F218B4302210B43537000BD78
