:102000000080002011810000F9800000F9800000AC
:1020100000000000000000000000000000000000C0
:10202000000000000000000000000000F980000037
:102030000000000000000000F98000006581000041
:10204000F9800000F9800000F53D00002531000016
:10205000F9800000F9800000F9800000FD80000098
:10206000F980000061650000F9800000F98000003F
:10207000BD300000F980000071650000F9800000AB
:10208000F9800000F9800000DD510000E7510000F8
:10209000F1510000F9800000F9800000F980000093
:1020A000F9800000F9800000F9800000F98000004C
:1020B0000000000010B5064C2378002B07D1054B1B
:1020C000002B02D0044800E000BF0123237010BDA4
:1020D000700100200000000044F9000008B5084B22
:1020E000002B03D00748084900E000BF07480368F9
:1020F000002B03D0064B002B00D0984708BDC046EC
:102100000000000044F9000074010020600100207C
:10211000000000007047000070B5061C0024335D0D
:10212000074D0F2B03D8281C064905F0FDFA315D39
:10213000281C1022013405F076FB082CEFD170BD6D
:10214000B0080020B9E4000010B50B4800F0E6FF2D
:102150000A4801F03DFF0A4C0B21201C01F0A8FAAF
:10216000211C084801F064FB074801F0F5FF07480F
:1021700001F06AFD10BDC04623020020B00100201E
:102180009001002000020020C8010020A8010020CA
:10219000F8B50024201C0221013406F035FA172C72
:1021A000F8D12024201C0221013406F02DFA2A2C1B
:1021B000F8D11920022106F027FA1A20022106F090
:1021C00023FA0820012106F01FFA0820002106F05A
:1021D00075FA0920002106F017FA0920012106F0FE
:1021E00013FA0920012106F069FA0F20012106F0F7
:1021F0000BFA0F20002106F061FA0021132006F0EF
:1022000003FA0C2006F03AF9544E9621301C89014D
:1022100004F094FA524C9621201C890105F094FE9A
:102220000121082006F04AFA4E4805F0AFFF0820C9
:10223000002106F043FA4C49201C05F087FA4B4D6B
:1022400096239B004A49201C2B6005F06DFA2968F3
:102250000A22201C05F0F5FA464D0021281C01F049
:102260000FF90022281C131C0A2101F001F8112388
:102270000222281C142101F047F83F49201C05F0D8
:1022800065FA3E4801F0BAFE3D4D3E492870201CDB
:1022900005F04AFA2B78201C002B01D03A4900E0C7
:1022A0003A4905F053FA3A4F0026381C01F0A1FBD9
:1022B000384D3948291C01222E81AE7201F016FAE0
:1022C000B04213D03549201C05F02EFA281CFFF728
:1022D00023FF201C324905F039FA0123AB72381C68
:1022E000291C0C22331C01F0C0FB03E0201C2D49EB
:1022F00005F02CFA2C4D4421281C01F0A7FC0028E5
:102300000BD1201C294905F021FA294B0122281C58
:1023100028491A7001F0A4FC03E0201C264905F0AE
:1023200015FA2648772102F029F8002807D0201C4A
:10233000234905F00BFA234B01221A7003E0201CFD
:10234000214905F003FA2149201C05F0FFF9034853
:1023500004F0F5F91E4804F0CFFCF8BD8C0900200C
:10236000B00800201027000044E30000AC0100206A
:102370004AE30000230200205CE30000B0010020DB
:102380002002002063E3000074E300007BE3000010
:1023900000020020BA0100209001002083E3000029
:1023A000FAEB000090E30000A80100209CE300008D
:1023B0008C01002010C6FFFFA8E30000C801002028
:1023C000B5E3000022020020BFE30000CAE30000E2
:1023D000570E002000000000F0B5EB4E93B03078AF
:1023E000032801D900F0CFFC06F074FA0400640061
:1023F000A500E902E54C201C01F0F0FCFA210022C6
:10240000201C890101F032FDE14CE24D201C2978AD
:1024100002F076F9E04F00213870092006F04EF9FD
:10242000FA20400005F0B2FE0920012106F046F92D
:102430002978201C02F0C2F9D84D3870D849281CE0
:1024400005F072F9387802F00FF90521201C02F02E
:102450000DFA387002F008F9281CD24905F064F929
:10246000D14B0A22E15C281C05F0E1F90021201C77
:1024700002F0F2FB387002F0F7F8281CCB4905F0A7
:1024800053F9CB4B0A22E15C281C05F0D0F9C9496D
:10249000201C02F07FFB387002F0E6F8281CC649C9
:1024A00005F042F9CF235B00E15C281C0A2205F00D
:1024B0009CF93EE0B54C201C01F090FCFA2189010A
:1024C0000022201C01F0D2FCB14802F021FAB24DEA
:1024D000287002F0C9F8B14F2B78381C002B06D1B8
:1024E000B64905F033F90223337000F04CFCB449CF
:1024F00005F02CF9B34D2B685A1C2A60092B12D910
:10250000B149381C05F022F90027201C2F6001F08A
:102510005BFCFA21201C89003A1C01F0A7FCFA2080
:10252000C00005F033FE201C01F04EFCA74805F06A
:102530002DFE0123D8E7A64D002301210F202B708B
:1025400006F0BCF8FA20400005F020FE132005F04C
:10255000E9FF07F03DFA6424061C132005F0E2FFB2
:1025600007F036FA011C301C06F0D4FB013C061CB7
:10257000002CF2D1211C0F2006F0A0F8301C954948
:1025800006F02CFD09F05AF8784B774A08F0F6F976
:1025900009F0A6F89049041C07F02EF809F04EF84F
:1025A000734A744B07F080FD734A744B08F0E6F9E8
:1025B000734A744B07F05CFA09F092F80021061C8C
:1025C00006F09CFA00280BD18449301C06F0AAFAC8
:1025D000FE21002805D1301C06F0F4FAC1B200E05B
:1025E00001216B4802F004F96B4B187002F03CF8C3
:1025F000201C7B4906F0F2FC7A4906F0D3FE00214C
:10260000041C06F07BFA00280BD1201C754906F04B
:1026100089FAFF22002805D1201C06F0D3FAC2B2A5
:1026200000E00022704E0DA8311C09F0C5FD0DA977
:10263000281C09F0E3FD6D4B311C1A780DA809F038
:10264000BBFD281C0DA909F0D9FD694B0AAC1E7809
:10265000002E40D0674F381C01F0F6FC4F4E05901D
:102660006549301C05F060F8059808F0E7FF0B1C81
:102670000221021C0091301C05F0A6F9381C01F063
:102680002FFD5E49071C301C05F04EF8381C08F081
:10269000D5FF0B1C0221021C0091301C05F094F99F
:1026A000059A574E0A92A178227863780091E178D2
:1026B0000DA80191311C09F07FFD0DA9281C09F01E
:1026C0009DFD0A97A178227863780091E1780DA8A2
:1026D0000191311C12E04A4C321C331C211C009623
:1026E00001960DA809F068FD0DA9281C09F086FDCA
:1026F000009601960DA8211C321C331C09F05CFDCC
:10270000281C0DA909F07AFD3E4F3F49381C01F005
:10271000F5F83D4B051C9872204C2D4E78D0381C96
:1027200001F030FAC820800005F030FD3649381C31
:1027300001F07EFA3549051C201C04F0F5FF281C29
:1027400008F07CFF0B1C0221021C0091201C05F0EC
:102750003BF90A950AA988780A784B780090C978DD
:102760000DA8019126495DE07B0A6FC93A1D613FC2
:10277000333333333333F33F0000000000C06F4086
:10278000000000000000F03F21020020BC030020F8
:10279000C003002008000020B8010020B00800207D
:1027A000D5E30000E4E300004B030000F8E3000081
:1027B000420200000BE400000EE400001DE40000F3
:1027C0002DE400001C02002040E40000102700005F
:1027D000010000200000C8420000404000007E438D
:1027E0000000204100007F4378E40000C601002083
:1027F00020020020B001002057E4000062E4000045
:102800006CE4000000020020BA0100207DE400001A
:10281000ED49201C04F09AFFEC49009501950DA8A4
:102820002A1C2B1C09F0C8FC301C0DA909F0E6FC81
:10283000E74BE64D1F78002F2CD00BAF381CE54935
:1028400001F0BAFA0623FB56201C002B18D1E249EE
:1028500004F06AFF0B9808F0F1FE0B1C0221021C29
:102860000091201C05F0B0F80B990A910AA988780C
:102870000A784B780090C9780DA80191291C13E0C3
:10288000D64904F063FF0023009301930DA8291C8F
:102890001A1C09E0D249201C04F058FF0097019748
:1028A0000DA8291C3A1C3B1C09F086FC301C0DA904
:1028B00009F0A4FCCB4B1B78002B58D0CA49201C34
:1028C00004F032FFC94E0225301C01F0D9FD071C6F
:1028D00008F0B4FE0095021C0B1C201C05F074F8D7
:1028E000C349201C04F020FFB44BB34A0095201CC0
:1028F00005F06AF8BF49201C04F016FF301C01F0F7
:10290000E3FD061C08F09AFE0095021C0B1C201C1F
:1029100005F05AF80AAC0A97A178227863780091FA
:10292000AA4FE1780DA80191391C09F045FCB24D80
:102930000DA9281C09F062FC00231A1C00930193C6
:10294000391C0DA809F038FC0DA9281C09F056FC0B
:102950000A96A178227863780091E1780DA8019118
:10296000391C09F029FC281C0DA909F047FC002797
:10297000A24C201C01F028FA002F02D0A04805F03C
:1029800005FCA04CA049201C04F0CEFE391C0A22F4
:10299000201C04F02AFF9D4B9D4E1978964A301C4E
:1029A00002F020F89B4D287001F05EFE2D78002D7E
:1029B00000D17BE10137042F00D177E1D8E7914DB9
:1029C0009549281C04F0C2FE9449281C04F0ACFE72
:1029D000934C0A222168281C04F033FF20680A2146
:1029E00005F082FF8F49071C281C04F09DFE0A2277
:1029F000391C281C04F025FF8B49281C04F094FE88
:102A00008A4C281C21680A2204F01BFF2368002B33
:102A10000FD101238649281C236004F097FE684AE1
:102A2000684B7B4802F058F97A4B187001F01CFE95
:102A3000A9E1BB4200D309E1013323607D4C201C96
:102A400000F0C6FC0590201C00F0B8FC0690201C8D
:102A500000F0AAFC071C201C00F0C4FC0790201CFE
:102A600000F0CAFC0890201C00F0D0FC724E079ABF
:102A7000089B009701920293059A069B0390311CD4
:102A80000DA809F099FB0DA9281C04F05FFE201C7D
:102A900000F068FB201C00F087FC3C210A3005F0A8
:102AA000C7FF201CC9B200F041FC201C012100F02E
:102AB00047FB6249201C00F063FB201C00F080FBF8
:102AC0000590201C00F074FB0690201C00F068FBB1
:102AD000071C201C00F07CFB0790201C00F080FBF2
:102AE0000890201C00F084FB0799089A069B009729
:102AF000019102920390059A311C0DA809F05CFB2C
:102B00000DA9281C04F022FE3C4F381C01F066F988
:102B1000FA2100228901381C01F0A8F94849281C33
:102B200004F014FE642005F031FB281C05F014FAB3
:102B3000201C00F02BFB9621281C890105F004FACB
:102B40004049281C04F002FE201C00F041FC0590C6
:102B5000201C00F033FC0690201C00F025FC0790A0
:102B6000201C00F03FFC0890201C00F045FC099060
:102B7000201C00F04BFC079B0899099A00930191D7
:102B8000069B02920390059A311C0DA809F014FBD4
:102B90000DA9281C04F0DAFD381C01F01FF9FA21F8
:102BA0000022381C890101F061F9274B03221A70B9
:102BB000E9E0C046C046C04600000000000000003A
:102BC00080841E00000000008BE400006CE4000024
:102BD0008C010020A8010020A0E40000AAE400006D
:102BE000BBE4000022020020CCE40000C801002069
:102BF000DAE40000E7E4000001000020BC0300204C
:102C000088130000B0080020F6E400000000002057
:102C1000C0030020B80100207EE500004AE3000068
:102C2000AC01002084E500008AE50000A40100203A
:102C300097E5000023020020A5E500001521000013
:102C4000C2E50000CEE50000210200204F49281C0B
:102C500004F07CFD4E4F02230025381C33702560A4
:102C600002F074F84B4C207001F0FEFC642005F07B
:102C70008DFA381C01F04AFD207001F0F5FC64204B
:102C800005F084FA381C01F041FD207001F0ECFCE5
:102C9000642005F07BFA381C01F038FD207001F04B
:102CA000E3FC2378AB426ED035706CE03A4B0322E4
:102CB0001A70002D59D1201C384904F047FD384BBB
:102CC000384A1D6001231370374BF35C002B5AD038
:102CD0003649201C04F03AFD3549201C04F024FD3F
:102CE000EF239B00F15C0A22201C04F0A0FD314977
:102CF000201C04F019FD3049201C7718391C04F001
:102D000025FD284A0223EF2113708900735C012BF3
:102D10001BD1291C1022381C09F094FB051C291C0E
:102D2000201C0A2204F061FD612D2CD1201C2349B6
:102D300004F00CFDFA2189000022214801F096F8E8
:102D4000FA20C00005F022FA1DE0022B1BD1291C3D
:102D50001022381C09F076FB051C291C201C0A22B5
:102D600004F04DFD642D0ED1E0E70122062D00D1C7
:102D70001DE71449201C04F0E9FC094A1368591C9A
:102D80001160042BD2DC13B0F0BDC046D9E50000C1
:102D9000C0030020B80100202102002010E500003F
:102DA000FC010020C60100202204000029E50000EB
:102DB00037E5000047E50000BD03000057E50000CF
:102DC000BC03002062E50000F8B5051C0F1C161CB2
:102DD0000024B44208D02B68395D1B68281C984732
:102DE000002801D00134F4E7201CF8BD704708B575
:102DF000183004F065FE08BD08B5183004F074FE04
:102E000008BD38B5837D0D1C002B06D0041CC434CE
:102E1000201C04F07FFE002801D0002004E0201CCC
:102E2000291C04F034FE012038BD08B5183004F028
:102E300064FE08BDF7B50193FA239B0083600B4B3A
:102E400000250833041C4560036018300F1C161C55
:102E500004F010FE201CC43004F00CFE019B27611E
:102E60002675A575201C6375FEBDC046E8E500000B
:102E700070B50D49041C006905F01EF8206904F0C6
:102E8000D7FE1826207D331C4343084D0821EB183C
:102E9000595605F05BFC607D08214643AD19695623
:102EA00005F054FC70BDC046A086010090F0000003
:102EB000F7B5041C00200E1C151C0193824231D072
:102EC000271C1837381C04F0F4FD2069311C01223E
:102ED00004F0EAFE002823D0206904F054FF011C0E
:102EE000381C04F0D4FD01262069AE420ED004F057
:102EF000BBFE0221206904F0C1FE206904F043FFFB
:102F0000011C381C04F0C3FD0136EDE704F0A4FEFB
:102F1000019B002B05D02069032104F0AFFE00E0E7
:102F2000051CE8B2FEBD08B50123FFF7C1FF08BDCF
:102F300010B5B8235B00C154041CC43004F0B9FDC3
:102F40000123A37510BDF8B50022B82382755B007C
:102F5000041C0F1CC15C006904F0A6FE002805D10A
:102F60002069032104F08AFE02251DE0261CC436D8
:102F7000301C04F0B9FD00280FD0301C256904F086
:102F80009FFDC1B2281C04F0BEFE0028EED12069CE
:102F9000032104F073FE032506E0051C002F03D077
:102FA0002069032104F06AFE281CF8BD08B5012140
:102FB000FFF7C9FF08BD38B5041C006904F0C1FE65
:102FC000002879D0206904F0CAFE00280ED12069BB
:102FD00004F0CFFE00281FD0206904F0C5FE0028B1
:102FE0001AD0206904F0CAFE002815D1206904F027
:102FF0003BFE2069032104F041FE231CFC33DD6FFE
:10300000002D04D02368201C9B689847A847201CEB
:10301000183004F04EFD4FE0206904F0AAFE031CB6
:103020002069002B16D004F01FFE2069032104F054
:1030300025FE206904F0A2FE00283DD0201CC430EB
:1030400004F037FD0123A375FC34A36F002B33D0AC
:10305000984731E004F07EFE00282DD0206904F06E
:103060008DFE251C00280FD0C435281C04F03CFD23
:10307000FF21002803D0281C04F022FDC1B22069E2
:1030800004F052FEA07517E01835281C04F042FD2C
:10309000031C2069002B02D004F0DEFD08E004F0E0
:1030A00072FE011C281C04F0F2FC206904F0DCFD17
:1030B0002069032104F0E2FD38BD000008B5024894
:1030C000FFF779FF08BDC0462402002008B5034879
:1030D000034914221523FFF7ADFE08BD240200208A
:1030E00074090020094B0A4A0A491A6000225A71E1
:1030F0001A71094B1960162119711821997117213C
:10310000597101215A72D9711A727047A0030020B7
:1031100000093D0084090020A8030020002303705B
:103120007047000008B5044B1B68002B00D098477F
:10313000024B01221A7208BDB8030020001400409F
:103140000378002B0AD0064B081C197F0722104079
:103150009143014319779A7AD209FCD17047C0464E
:10316000001400400378002B07D0044B07211A7F7E
:103170008A431A779A7AD209FCD17047001400402A
:10318000014B19607047C046B8030020034B04216F
:103190001A690A431A6130BF7047C04600ED00E06B
:1031A000024B98693F2318407047C0460014004006
:1031B000024B98690005800E7047C046001400401D
:1031C000024B9869C003C00E7047C046001400400F
:1031D000024B98698002C00E7047C0460014004040
:1031E000024B98698001000F7047C04600140040F0
:1031F000014B9869800E7047001400400378002B43
:103200000AD0064B081C19693F2210409143014324
:1032100019619A7AD209FCD17047C0460014004067
:103220000378002B0BD0064B3F2211408A0118690E
:1032300004490140114319619A7AD209FCD17047BF
:10324000001400403FF0FFFF0378002B0BD0064B2B
:103250001F2211400A0318690449014011431961F2
:103260009A7AD209FCD1704700140040FF0FFEFF8C
:1032700070B5161C0278041C0D1C002A0AD0191CFB
:10328000FFF7BCFF201C311CFFF7CAFF201C291CC4
:10329000FFF7DAFF70BD00000378002B0BD0064B60
:1032A0001F2211404A041869044901401143196161
:1032B0009A7AD209FCD1704700140040FFFFC1FF89
:1032C0000378002B0BD0064B0F2211408A0518699A
:1032D00004490140114319619A7AD209FCD170471F
:1032E00000140040FFFF3FFC0378002B09D0054B82
:1032F0008A06196989018909114319619A7AD209E3
:10330000FCD170470014004070B51D1C0378041CEC
:10331000161C002B09D0FFF7BFFF201C311CFFF744
:10332000CFFF201C291CFFF7DFFF70BD0378002BA7
:103330000AD0064B081C99693F2210409143014373
:1033400099619A7AD209FCD17047C04600140040B6
:103350000A4B0B4A9A605A7852B2002AFBDB0949A1
:10336000064A51605A7852B2002AFBDB0649034AEA
:1033700051805A78D209FCD17047C046000C0040F9
:103380000204000002051100044200000378002B33
:1033900005D0034B034A5A809A7AD209FCD1704770
:1033A000001400400080FFFF08B5FFF7EFFF024B5D
:1033B00018693F23184008BD0014004008B5FFF706
:1033C000E5FF024B18690005800E08BD001400409F
:1033D00008B5FFF7DBFF024B1869C003C00E08BD3C
:1033E0000014004008B5FFF7D1FF024B18698002B6
:1033F000C00E08BD0014004008B5FFF7C7FF024B20
:1034000018698001000F08BD0014004008B5FFF7DF
:10341000BDFF024B1869800E08BDC0460014004075
:10342000044B02211A888A431A809A7AD209FCD165
:103430007047C04600140040044B02211A880A431A
:103440001A809A7AD209FCD17047C0460014004015
:10345000044B01211A880A431A809A7AD209FCD1B6
:103460007047C04600140040044B01211A888A436B
:103470001A809A7AD209FCD17047C04600140040E5
:10348000F7B52B4B0F1C9A6920210A439A61294AF0
:10349000294B0026051C9A82284CB7420AD1284B9A
:1034A0001A7870231A4240D023881A073DD5226922
:1034B00001260192281CFFF74BFF281CFFF7B0FFE5
:1034C000281CFFF7C5FF62881E4B134063801E4B0C
:1034D0002380A27A194BD209FBD11C4A0821116022
:1034E000C021890050580002000A5050DA790121A9
:1034F0000A43DA711A7F07218A431A77A37ADB0914
:10350000FCD1281CFFF798FF281CFFF7ADFF002F08
:1035100002D001232B70F7BD002EFAD0074B019A81
:103520001A61A37ADB09FCD1F3E73E1CC2E7C0466F
:1035300000040040CE0600000008004000140040D7
:1035400038040040FFBFFFFF080A000000E100E070
:103550000368426872B6536062B67D200138C0B21B
:1035600000281DD020210139FDD1116A0B42F5D070
:1035700072B65361936062B6F02149010139FDD101
:1035800072B68C215360C9000139FDD1106A034025
:1035900058425841C0B262B6CD225201013AFDD123
:1035A00070470CC8C8070AD572B6A0215A619A6044
:1035B0000139FDD19A6162B6DC239B0009E072B645
:1035C00082215A61C9009A600139FDD19A6162B6BF
:1035D0005023013BFDD170470368426872B6302129
:1035E000936053610139FDD1A02153600139FDD1B0
:1035F000106A62B6D4229200013AFDD10340581EEF
:103600008341D8B27047F7B5041C0F1C01920825FE
:103610000126391C31404B1E9941C9B2201C76004D
:10362000013DFFF7BEFFF6B2002DF2D1019A002A4C
:1036300006D172B6226863685A6022685A6162B61F
:10364000F7BDF8B5071C082500240126381CFFF734
:10365000C3FF002800D034437600013DF6B2002DB0
:10366000F4D1201CF8BD70B500220E1C5521051C9C
:10367000FFF7C9FF0024315D281C00220134FFF749
:10368000C2FF082CF7D170BD08B5CC210022FFF78E
:10369000BAFF08BD00230374837443740723C21860
:1036A000002111728B4201D0013BF8E77047000006
:1036B00038B5041C0D1C081C002104F0A5FF1822BD
:1036C0005543084B01215A195268EB569140064A5E
:1036D000DB019B18201C21606360FFF7DBFF201CCF
:1036E00038BDC04690F0000000440041F0B585B000
:1036F0000391867C041C151C002E5AD1FFF728FF6D
:10370000002857D0201C002D02D0F021321C01E0EF
:10371000EC212A1CFFF777FF01260021019102917D
:10372000351C201CFFF758FF071C201CFFF754FF17
:10373000012F02D1012816D132E0019AA318874245
:1037400019D1277CBD4204D21F7A37407A1E974197
:1037500002E0EF1B7A425741FFB2002F03D1082D40
:1037600008D8657406E00199012763181A7A324374
:103770001A7203E002951A7AB2431A727600201C7C
:10378000391C0135F6B2FFF70CFFEDB2002E04D163
:10379000019B01260133DBB20193019A072AC0D9AC
:1037A000402D06D9029B2374002B07D10123A3745B
:1037B00004E000202074A07460740BE0237A002BD6
:1037C000F7D00023E218127A0399CA540133082B68
:1037D000F8D1012005B0F0BD031C00200139C9B2A9
:1037E000FF2905D01A7801335040024A105CF5E7F2
:1037F0007047C04608E600000B78282B09D004D893
:10380000102B06D0222B06D103E03B2B01D0422BFC
:1038100001D1012000E000207047002303714371B3
:10382000037009234370012381608370C370704764
:1038300010B5041CFFF7F1FF0023201CA36110BD8D
:1038400010B5081C0C1C0721FFF7C6FFE379181AF6
:1038500043425841C0B210BDF8B5051C80680E1C2B
:10386000171CFFF717FF0024A868311C0122FFF77F
:103870003DFF00280BD0BC4205D1281C311CFFF7AE
:10388000DFFF002804D10134E4B2BC42ECD90020AF
:10389000F8BDF8B5041C80680F1C161CFFF758FE15
:1038A0000025A84216D0A068391CFFF7DCFEA068EE
:1038B000BE212A1CFFF7A7FEA068FFF7C2FE7055C5
:1038C0000135092DF8D1A068FFF742FE451E6B4275
:1038D0005D41EDB2281CF8BD10B5141CFFF7D9FFEF
:1038E000031C0020834208D0201C0821FFF774FF2E
:1038F000237A181A43425841C0B210BD1FB501AA1D
:10390000FFF7EAFF05B000BD70B5041C0D1C806810
:10391000161CFFF71DFEA068291CFFF7A4FEA06877
:103920004E210022FFF76FFEB178A0680022FFF75A
:103930006AFEF178A0680022FFF765FE2B78102B55
:1039400004D03179A0680022FFF75DFEA068FFF780
:10395000FFFDA068291CFFF786FE2278A068482199
:10396000FFF751FE142004F011FC2378002B02D045
:103970000A2004F00BFCA068FFF7EAFD70BD38B523
:10398000041C0D1C8068FFF7E3FDA068291CFFF7ED
:103990006AFEB4210022A068FFF735FEA068FFF799
:1039A0001BFE051CA068FFF7D3FD68426841C0B24A
:1039B00038BD1FB50A780C23102A17D001AC221C81
:1039C000FFF78AFF0023984210D022793F2A0CD0BB
:1039D00003D809231F2A09D005E00B235F2A05D04D
:1039E0000C237F2A02D0002300E00A23181C04B015
:1039F00010BD37B5041C8068FFF74CFE002323710F
:103A00006371A06869460122FFF770FE00282BD081
:103A1000201C6946FFF714FF0028F2D02378002B02
:103A200005D1201C6946FFF7AAFF002819D1201CE8
:103A300069466578FFF7BDFF854201D9607803E0EC
:103A4000201C6946FFF7B5FF2379607001332371AD
:103A5000201C6946FFF7D0FE0028D2D063790133DD
:103A6000CEE701232370E2E737BDF0B589B0041C2F
:103A70000F1C01930925082A04D9151C0C2A00D90A
:103A80000C25EDB2201C391CFFF793FFA84243D050
:103A900005AE201C391C321CFFF71EFF0023984284
:103AA0003BD03B78102B37D00B2D08D00C2D04D0F9
:103AB0001F230A2D04D13F2302E07F2300E05F2370
:103AC000321C201C391C3371FFF71EFF62782B1C3F
:103AD000954200D2131CDAB26370019B002B1BD1FC
:103AE000AA4219D965701D1C23799D4214DA03A9D5
:103AF000EAB2201CFFF7B0FE201C03A96678FFF78E
:103B000058FF864201D9607803E0201C03A9FFF723
:103B100050FF60700135E7E70123181C09B0F0BDC4
:103B200008B58068FFF758FD013843425841C0B2DC
:103B300008BD00000939C9B270B5051C022903D8B7
:103B40000E4B4900CC5A00E00D4CEB78002B11D005
:103B50002B78002B0ED104F013FB061C281CFFF75A
:103B6000DFFF002809D104F00BFB23B2C01AB042DA
:103B700003D2F3E720B204F009FB70BD08E70000B0
:103B8000EE02000010B5041C8068FFF7E1FCA0689D
:103B9000FFF77AFD2278A0684421FFF734FDA3786F
:103BA000002B03D06178201CFFF7C4FF10BD10B5B7
:103BB00053781478DB02E4001C430B78A4B2102B7A
:103BC0000BD1D1799079081AC00104F0DBFE0F23E4
:103BD0009C431038E4000419A4B220B210BD0000C8
:103BE00030B585B001AA051C0C1CFFF775FE002836
:103BF00005D0281C211C01AAFFF7D9FF00E00248CC
:103C000000B205B030BDC04680E4000008B5064BE8
:103C1000984206DB05F080FEF021890505F0C2FB25
:103C200000E0024808BDC04681E4FFFF0000FEC27C
:103C300008B5FFF7D5FFFFF7E9FF08BD08B5036832
:103C4000C9B21B68984708BD7047000008B50170ED
:103C50000248FFF70DF9002008BDC04624020020ED
:103C600038B50D4C8DB20178201CFFF761F9201C8E
:103C70000121FFF7E3FF2912201CFFF7DFFFE9B264
:103C8000201CFFF7DBFF201CFFF790F90A235B42A3
:103C9000584340B238BDC0462402002038B5094C14
:103CA0000D1C0178201CFFF743F9291C201CFFF78D
:103CB000C5FF201C0121FFF746F90A235B42584348
:103CC00040B238BD2402002073B5114D0E1C0222F3
:103CD0000178281CFFF727F9FB24281CFFF78CF834
:103CE000012807DC0A20013C04F050FA002CF4D132
:103CF0009C200BE001AC0222281C211C04F00DF9D1
:103D0000237862781B0213433380002040B276BDD3
:103D10002402002000000000F0B5061C87B00C1C37
:103D2000081C111CFFF7BAFF002834D103AF391C5F
:103D3000201CFFF7C9FF0190019904A80090002002
:103D400000291FD13B8878786A469382000907F0E2
:103D500041FC021C0B1C1549134801F051FA144A8E
:103D6000144B06F00BFE041C38880D1C0005000DDA
:103D700007F0F2FB021C0B1C201C291C06F0FEFDA8
:103D800007F0AEFC049001986B46009A9875331CBE
:103D900003CA03C302E000233360B071301C07B0D4
:103DA000F0BDC046C046C046000000000000004014
:103DB0007B14AE47E17A843F10B50022041CFFF764
:103DC000ABFF201C10BD0000034BA5221A72DA794C
:103DD000D209FCD17047C04600100040044B0221BC
:103DE0001A788A431A70DA79D209FCD17047C04632
:103DF00000100040064B02211A788A431A70D979C4
:103E0000034AC909FBD1937901210B439371704790
:103E1000001000400E4B0F4A30B59A600E4A5A60AF
:103E20005A78D209FCD10D4A094B0D495A80042217
:103E3000CA670C4BC02149005A50C02189005D5807
:103E4000094C2C405C501A600123037030BDC04601
:103E5000000C0040020400000203110003420000B5
:103E600004E100E000E100E0FFFF00FFF8B50378A7
:103E7000051C0F1C161C002B01D1FFF7CBFF4A4C71
:103E800000232370E379DB09FCD1484B9F4225DCFA
:103E9000002F23D0FA235B00BF02FA21F818890013
:103EA00004F070FD424B98421CDC424B98421DDCF2
:103EB000414B98421EDC414B98421FDC404B9842DC
:103EC00020DCFF2822DC7F2824DC3F2825DC1F287B
:103ED00026DC0F2827DD0123102226E080220B2379
:103EE000D20122E080220A2392011EE080220923CF
:103EF00052011AE080220823120116E080220723D3
:103F0000D20012E08022062392000EE080220523D8
:103F100052000AE00423802207E00323402204E049
:103F20000223202201E0002308220121002E24D0B8
:103F300060790B260143617160780F21884330431B
:103F4000607060780B401B01014019436170237859
:103F500004210B432370E379DB09FCD1FA26B60078
:103F6000564380239B00281CF618FFF72DFF23786B
:103F700002221343B612237010E02079014321710D
:103F800060780F210B40884303436370237804213A
:103F90008B432370E379DB09FCD1DFE7E379DB09AD
:103FA000FCD1301CF8BDC046001000407F3E000030
:103FB000FF1F0000FF0F0000FF070000FF030000CD
:103FC000FF010000014B00221A707047BC03002063
:103FD0007047000010B5084C4021201CFEF7A8FFD8
:103FE000FE21201CFFF72AFE201CFEF7DFFF0F201A
:103FF00004F0CCF810BDC0462402002038B5104CA7
:10400000051C201CFEF734FF281CFFF7E3FF201CD3
:104010004021FEF78DFFE721201CFFF70FFE201C3B
:10402000FEF7C4FF40210122201CFEF77CFF201C6C
:10403000FEF7DDFE023843425841C0B238BDC046EB
:10404000240200200000000070B5234C4021201CF9
:10405000FEF76EFFE321201CFFF7F0FD201CFEF7AA
:10406000A5FF322004F092F8201C40210322FEF725
:104070005AFF201CFEF7C0FE0028FAD0201CFEF7D5
:10408000B6FE86B2201CFEF7B2FE3502ADB2054385
:10409000201CFEF7ACFEA8B205F09AFC07F0CEFAA1
:1040A0000A4B094A06F06AFC07F01AFBDE21890573
:1040B00005F078F907F0C2FA054A064B06F0EEFE65
:1040C00007F00EFB70BDC046D7A3703D0AF76540F0
:1040D000CDCCCCCCCC6C474024020020C046C0469E
:1040E00070B51A4C4021201CFEF722FFE521201C50
:1040F000FFF7A4FD201CFEF759FF322004F046F81C
:10410000201C40210322FEF70EFF201CFEF774FE48
:104110000028FAD0201CFEF76AFE86B2201CFEF7AB
:1041200066FE3502ADB20543201CFEF760FEA8B264
:1041300005F04EFC064905F035F9DE21890505F04C
:1041400031F9044905F058FA70BDC0462402002038
:104150000000FA420000C040FF23037343738373DF
:10416000C3737047F7B5061C0191072500240F2083
:1041700030560021012704F0A1FA019B391C0D20C3
:10418000A9401940305604F099FA0F203056391CD6
:1041900004F094FA0E2064003056E4B204F0BEFA43
:1041A000002800D03C43013DE1D2201CFEBD0000B0
:1041B000F8B5041C0C2020560F1C161C431C10D1F3
:1041C000114D2178281CFEF7B3FE391C281CFEF780
:1041D00018FE281C311CFEF714FE281CFEF7E6FE14
:1041E00010E0002104F06AFA7F213940201CFFF71B
:1041F000B9FF311C201CFFF7B5FF0C202056012110
:1042000004F05CFAF8BDC0462402002070B5041C1E
:104210000C2020560E1C431C15D1154D2178281C4E
:10422000FEF786FE311C281CFEF7EBFD281CFEF76E
:10423000BDFE2178281C0122FEF775FE281CFEF722
:10424000D6FDC5B211E0002104F038FA80213143D7
:10425000201CFFF787FF0021201CFFF783FF051CB0
:104260000C202056012104F029FA281C70BDC046FC
:104270002402002070B5041C0C2020560E1C431C88
:104280001BD11B4D2178281CFEF752FE311C281C27
:10429000FEF7B7FD281CFEF789FE21780222281CB4
:1042A000FEF741FE281CFEF7A2FD041C281CFEF7A9
:1042B0009EFD25020543ADB218E0002104F0FEF991
:1042C00080213143201CFFF74DFF0021201CFFF708
:1042D00049FF0021061C201CFFF744FF350205435F
:1042E0000C2020560121ADB204F0E8F9281C70BD65
:1042F0002402002008B5FFF7BDFF40BA80B208BD18
:1043000010B58821041CFFF7F5FF8A212082201CAC
:10431000FFF7F0FF8C216082201CFFF7EBFF8E215E
:10432000A082201CFFF7E6FF9021E082201CFFF70F
:10433000E1FF92212083201CFFF7DCFF94216083A2
:10434000201CFFF7D7FF9621A083201CFFF7D2FF88
:104350009821E083201CFFF7CDFF9A212084201CA8
:10436000FFF7C8FF9C216084201CFFF7C3FF9E213C
:10437000A084201CFFF7BEFFE08410BD772310B59A
:10438000041C03700C202056431C03D11748FEF771
:104390006FFD18E0012104F091F90C202056012155
:1043A00004F032F90F202056431C0CD0012104F0F8
:1043B0002BF90D202056012104F026F90E2020565D
:1043C000002104F021F9201CD021FFF71FFF00235A
:1043D000582808D1201CFFF793FF201CF4213F220E
:1043E000FFF7E6FE0123181C10BDC0462402002082
:1043F00070B5041C0C2020560E1C431C1ED11F4DF2
:104400002178281CFEF794FD311C281CFEF7F9FCCE
:10441000281CFEF7CBFD21780322281CFEF783FD24
:10442000281CFEF7E4FC0402281CFEF7E0FC044311
:10443000281CFEF7DCFC250205431CE0002104F0EB
:104440003DF980213143201CFFF78CFE0021201C08
:10445000FFF788FE00210502201CFFF783FE0021E4
:104460000543201CFFF77EFE2D0205430C2020563D
:10447000012104F023F9281C70BDC046240200204D
:1044800010B5FA21041CFFF7B3FF218A0212521A59
:10449000C01149005243411A1220235E12134B43AC
:1044A0001420215EDB124A4392139B1805205843C7
:1044B0008030A360001205F02FFA024904F08EFD4F
:1044C00010BDC0460000C842F0B58BB00190FFF7A8
:1044D000D7FFF7210198FFF78BFF019E0690B16887
:1044E0000A1CCB17161C1F1C5A49594836184F4135
:1044F000321C3B1C301C391C04F042FB029003911F
:104500000198019A008C019B0790D28B0198089228
:104510009B8B391C09931822825E301CD31704F040
:104520002FFB030D0D031D43019B04031A229A5E0A
:1045300002980399D31704F023FB0A069446020A53
:10454000604602430B12101C191C00196941424AB3
:10455000424B80185941019BDA8A002304F010FB7A
:104560004810031CC917049005910B430020002B31
:104570006BD0079B029803991AB2D31704F000FB83
:10458000041C08980D1C02B2D317301C391C04F00F
:10459000F7FA8C466646C10B73040B434204069E31
:1045A000A4185D41802337115B03DB1B099EDF17D5
:1045B0005A08F90737B21143D8070022FB00121935
:1045C0006B41801A9941264A264B04F0D9FA049A85
:1045D000059B04F0B1FA019A041CCB04460B26207B
:1045E000105E1E434F130D1C321C3B1CC11704F000
:1045F000C7FA321C3B1C04F0C3FACB01460E1E4323
:10460000019B221C2420185E4F162B1CC11704F09E
:10461000B7FA36196F41C20C4C032243CB14B618BB
:104620005F41300A019E3B062224345F1843E6179F
:10463000250F33012B43220139128018594104F010
:10464000FBFAEE21890504F0ADFE0BB0F0BDC046CB
:10465000000CFEFFFFFFFFFF0000000000800000D5
:10466000350C00000000000010B588B000236A4639
:104670001370082822D804F023F905080B0E111432
:10468000171A1D006846134916E06846124913E0E0
:104690006846124910E0684611490DE06846114924
:1046A0000AE06846104907E06846104904E0684699
:1046B0000F4901E00F49684607F0B7FD0E4C0F495E
:1046C000201C03F031F8201C694603F02DF808B0D7
:1046D00010BDC04620EB000034EB00004BEB0000A7
:1046E0005FEB000074EB00008BEB0000A3EB00001D
:1046F000B8EB0000CEEB0000B0080020E6EB0000B5
:1047000008B500F0AFFB002008BD0000F0B5051CA7
:10471000A4358FB0041C0021FA22281C07F095FC58
:1047200000210F2202A807F090FC0AAE00210F2200
:1047300006A807F08AFC0F220021301C07F085FC38
:104740001A4B281CFE33598A07F036FD184F02A871
:10475000B98A07F031FD3B1C5033198806A854373D
:1047600007F02AFD3988301C07F026FDFA239B004C
:1047700001930096201C291C02AA06AB00F0DCFC69
:10478000012804D10B4BE0540B4BE05406E0022807
:1047900006D1084B0122E054074BE254002003E00D
:1047A0000338431E984101300FB0F0BDE8EE000021
:1047B000C0EC00002A0400002B040000E1231B02CF
:1047C00010B54360012301700374041CC82003F07A
:1047D000DDFC201C00F02EFB9620400003F0D6FCF0
:1047E000201CFFF793FF201CFFF790FF10BD000077
:1047F000F0B5051CA4358BB0041C0E1CFA22002158
:10480000281C07F022FC00210F2202A807F01DFC43
:1048100000210F2206A807F018FC114AA4235B0010
:10482000D15A281C321C07F0C7FC0E4F02A8398849
:1048300007F0C2FCB98806A807F0BEFCC8230093A5
:10484000201C06AB291C02AA00F06CFC02230128E4
:1048500002D1054BE6540023181C0BB0F0BDC04636
:10486000E8EE0000C0EC00004A030000F0B5061CB2
:10487000A4368BB0041CFA220D1C301C002107F05A
:10488000E4FB00210F2202A807F0DFFB06A80021AD
:104890000F2207F0DAFB1A4BE35C012B02D0022B4C
:1048A00004D029E00720854227D802E00720042D04
:1048B00023D8144B2A1C48331988301C07F07CFC81
:1048C000114F02A8398807F077FCB98806A807F0CD
:1048D00073FC64230093201C311C02AA06AB00F079
:1048E00021FC012803D1094B0020E55405E00238E2
:1048F000431E9841013000E008200BB0F0BDC046D7
:104900002A040000E8EE0000C0EC00004B030000A9
:10491000F0B5061CA4368FB0051C0021FA22301C0D
:1049200007F093FB00210F2202A807F08EFB0AAFCD
:1049300000210F2206A807F088FB0F220021381C57
:1049400007F083FB244B301CFE33598E07F034FCF8
:10495000224C02A8218807F02FFCA18806A807F0A6
:104960002BFCA31DD98F381C07F026FCFA235B0013
:1049700001930097281C311C02AA06AB00F0DCFB57
:1049800001281DD10F22002102A807F05EFB218B18
:1049900002A807F011FC4C340F22002106A807F0F2
:1049A00054FB218806A807F007FC0D4B281C02A920
:1049B00006AA00F010FB0138431E9841C0B208E07F
:1049C000022805D00338431E98410323181A00E03B
:1049D00001200FB0F0BDC046E8EE0000C0EC0000C2
:1049E000204E0000F0B5644B071C99B00025A43799
:1049F000C5540391041C291C161C381CFA2207F00C
:104A000024FB291C142204A807F01FFB291C1422D4
:104A100009A807F01AFB0EA8291C142207F015FBA1
:104A2000039B0720DF2B00D9A4E0301C07F005FC16
:104A300085420BD2735D1A1C303A092A03D9413BD7
:104A4000052B00D991E00135EDB2F1E74B4B039A0C
:104A5000998A381C331C07F0AFFB494D04A82988FC
:104A600007F0AAFBA98809A807F0A6FB2B1C48336E
:104A70000EAE1988301C07F09FFBFA239B000193B0
:104A80000096201C391C04AA09AB00F055FB012834
:104A900065D10021142204A807F0D7FA00211422BE
:104AA00009A807F0D2FA13AF00211422301C07F036
:104AB000CCFA14220021381C07F0C7FAA98904A8EF
:104AC00007F07AFB298C09A807F0AFFB0235698F44
:104AD000301C07F0AAFBE98F381C07F0A6FB294B16
:104AE00000970193201C04A909AA331C00F0FEF9C9
:104AF000051E012D2AD1FA22201C2349520000F064
:104B000062FA231CA2331B88002B1DD01F4E201CD1
:104B1000311C113007F0ACFB07F02AFAEF239B00A1
:104B2000E054311C002007F0A3FB194B071CE618CA
:104B300000216522301C07F088FA301C391C6422E1
:104B400007F082FB0C4BE554002013E00228FBD059
:104B50000520032D0ED0042D09D002200AE00228E2
:104B600007D00328F9D1062004E0072002E0281C22
:104B700000E0012019B0F0BD22040000E8EE0000C2
:104B8000C0EC000020BF0200F8EB0000F7EB0000D3
:104B9000BD030000F0B52C4E8BB0051C0C1C081C8E
:104BA000311C07F038FB002806D0201C274907F0ED
:104BB00032FB0723002844D12E1CA436301C0021D0
:104BC000FA2207F042FA00210F2202A807F03DFA6C
:104BD00000210F2206A807F038FA1D4B221C4C3387
:104BE0001988301C07F0E8FA1A4F02A8398807F034
:104BF000E3FAB98806A807F0DFFAFA235B0000930E
:104C0000311C281C02AA06AB00F08CFA061E012EED
:104C100013D1201C0C4907F0FEFA002802D1CF2343
:104C20005B00EE54201C094907F0F5FA0023984276
:104C300007D1CF225200AB5403E0023E731E9E41C7
:104C4000731C181C0BB0F0BD0BE40000FBEB000064
:104C5000E8EE0000C0EC0000F0B5051CA4358BB0F8
:104C6000041C0E1CFA220021281C07F0EEF900217A
:104C70000F2202A807F0E9F900210F2206A807F089
:104C8000E4F9124B321CFE33D98A281C07F094FA3F
:104C90000F4F02A8398807F08FFAB98806A807F0E5
:104CA0008BFA64230093201C291C02AA06AB00F097
:104CB00039FA012803D1074B0020E65403E00238FB
:104CC000431E984101300BB0F0BDC046E8EE000035
:104CD000C0EC000042020000F0B5061CA4368BB008
:104CE000071C141C301C0021FA221D1C07F0ADF912
:104CF00002A800210F2207F0A8F906A800210F2220
:104D000007F0A3F90F4AA2235B00D15A301C221CE2
:104D10002B1C07F051FA0C4C02A8218807F04CFA22
:104D2000A18806A807F048FA64230093381C06AB54
:104D3000311C02AA00F0F6F9023843425841C0B2D1
:104D40000BB0F0BDE8EE0000C0EC000030B5051C73
:104D5000A43585B0041C0021281CFA2207F075F93F
:104D6000684600210F2207F070F900232B70231CE6
:104D70005522A5331A700A4B6846198807F01CFAA9
:104D8000201C291C022200F0E2F9201C6946642242
:104D900000F019F90138431E9841400005B030BDBC
:104DA000C0EC0000074BE12212025A60064A074994
:104DB0009A606422DA6001221A7400225A5404496B
:104DC0005A547047C0030020881300002B040000D1
:104DD0002A040000F7B5181C0191161C1F1C07F0CF
:104DE0002CFA051C0020041CAE4210D3731B9C42FD
:104DF0000AD8019B391C18192A1C07F0F5F800285D
:104E000004D00134A4B2F1E7002000E00120FEBD8F
:104E100008B5031C002904D10448191C01F08EFCBC
:104E200003E00348191C03F08FF808BD8C0900202B
:104E3000EC07002008B5031C19784068FFF7E8FF6D
:104E400008BD000008B5002803D1044801F077FC34
:104E500002E0034803F080F808BDC0468C0900203A
:104E6000EC07002008B50078FFF7ECFF08BD000054
:104E700008B5031C002904D1191C044801F0CCFB1F
:104E800003E00348191C03F085F808BD8C090020D5
:104E9000EC07002038B5041C0D1C2078002804D035
:104EA000291C0134FFF7E4FFF7E738BD08B50028F7
:104EB00003D1044801F0BAFB02E0034803F05BF8B9
:104EC00008BDC0468C090020EC07002008B500286A
:104ED00003D1044801F0D2FB02E0034803F055F887
:104EE00008BDC0468C090020EC070020F0B5051C69
:104EF00085B01135041C0391019200219022281CD9
:104F0000029307F0A2F8231CA23300261E8003F0B0
:104F100037F9371C009003F033F9009BC01A0B9B44
:104F2000984245D22078FFF7C1FF00280ED08E2F7F
:104F30000CD82078FFF7CAFFE3195874231CA2335A
:104F40001A887E1CB6B201321A80371C231CA23389
:104F50001E88201C291C321C039BFFF73BFF0028E6
:104F600028D1019B002B06D0201C291C321CFFF7E6
:104F700031FF002820D1029B002B06D0201C291CC9
:104F8000321CFFF727FF002818D10A9B002B06D000
:104F9000201C291C321CFFF71DFF002810D103F034
:104FA000EFF8009B9842B6D203F0EAF80090B2E71F
:104FB000002006E0012004E0022002E0032000E0DF
:104FC000042005B0F0BD07B50023019200931A1C20
:104FD000FFF78CFF0EBD13B51C1C0023009301943A
:104FE000FFF784FF16BD000070B5002803D10E48FE
:104FF00001F022FB16E003F0C3F8051C0B4C201C4B
:1050000002F0B9FF261C002804D003F0B9F8401BB9
:10501000632803D9301C02F0A9FF03E0201C02F032
:10502000B4FFEBE770BDC0468C090020EC07002000
:10503000F0B585B003920293037C041C0D1C002B79
:1050400002D00078FFF7D0FF2178281C261CFFF73C
:1050500021FF1136E06803F099F800219022301CFE
:1050600006F0F3FF231C0025A2331D8003F088F80F
:105070002F1C019003F084F8019BC01A0C9B9842EE
:1050800045D22078FFF712FF00280ED08E2F0CD8C3
:105090002078FFF71BFFE3195874231CA2331A88EA
:1050A0007D1CADB201321A802F1C231CA2331D8837
:1050B000201C311C2A1C039BFFF78CFE002828D1E2
:1050C000029B002B06D0201C311C2A1CFFF782FEFD
:1050D000002820D10A9B002B06D0201C311C2A1C42
:1050E000FFF778FE002818D10B9B002B06D0201C60
:1050F000311C2A1CFFF76EFE002810D103F040F887
:10510000019B9842B6D203F03BF80190B2E7002031
:1051100006E0012004E0022002E0032000E0042079
:1051200005B0F0BD1FB5002400940194069C0294C4
:10513000FFF77EFF04B010BD1FB5069C009400244D
:105140000194079C0294FFF773FF04B010BDF8B5FB
:10515000037C041C0E1C171C002B02D00078FFF7E8
:1051600043FF351CAB1B9BB2BB4205D2287821788C
:10517000FFF77EFE0135F5E7E06803F007F8F8BDBC
:10518000154B70B58000C45801262268257E937B9C
:105190001D40637E1D40354204D0201CA368984703
:1051A000226896730226354204D0201CE368984793
:1051B000226896731026354204D0201C2369984734
:1051C000226896732026354204D06369201C9847D4
:1051D00023689E7370BDC046880F002008B500206C
:1051E000FFF7CEFF08BD08B50120FFF7C9FF08BDD6
:1051F00008B50220FFF7C4FF08BD00000000000052
:10520000F0B546464F46C0B48FB0161C1F1C009028
:10521000019100F0ADF9BC4A0023D356041C0D1CCB
:10522000904602940395013305D0301C391C01F0DF
:1052300021F8002806D1029803990FB00CBC9046C3
:105240009946F0BD0098019901F014F881460028B4
:1052500031D1301C391CA14B9F4A03F005FC0028BA
:10526000E9D001230493A94B04AC63604B4623624D
:10527000009A019BA260E360994A9A4BA261E361A4
:1052800042460023D356266167615A1C0ED0022B7A
:105290000CD0201C01F01EF8002800D17BE0236A0E
:1052A000002B03D006F06AFE236A0360A269E3695B
:1052B00002920393BFE700980199884B864A03F056
:1052C000D3FB002822D0301C391C844B824A03F0C7
:1052D000CBFB051E2CD0012304938C4B04AC6360E4
:1052E00000232362009A019BA260E3607B4B7A4A11
:1052F000A261E36142460023D35626616761002B19
:10530000C7D0774A774BA261E361CFE7201C291C05
:1053100000F0A8FF8146002842D0201C291C6F4BBA
:105320006D4A03F0A1FB00286CD10294039582E73B
:10533000301C391C00F096FF002800D17BE7301CA0
:10534000391C664B644A03F095FB002800D172E7D4
:10535000012304936D4B04AC6360009A019BA2602F
:10536000E36043461978256226616761002900D110
:105370007AE05D4A5D4BA261E36102293CD106F00F
:10538000FDFD21230360236A002B8FD006F0F6FD7C
:10539000226A02608AE706F0F1FD212303607EE7BE
:1053A0000098019900F05EFF0028B6D0301C391C2F
:1053B00000F058FF0028B0D0201C291C00F05AFF34
:1053C00004AC002855D101230493504B2062636044
:1053D000009A019BA260E36043461D7826616761E5
:1053E000002D41D03D493C48021C0B1C04F05CFEE2
:1053F000A061E161022DC2D0201C00F06BFF0028EB
:10540000C1D1BCE70098019900F02CFF02940395EC
:10541000002800D10FE7301C391C00F023FF029454
:105420000395002800D106E704AC04230493266109
:105430006761364B636000232362009A019BA26080
:10544000E360264B244AA261E36142460023D3561F
:10545000022B04D0201C00F03DFF002893D106F061
:105460008DFD222303608EE71C4B1B4AA261E36182
:10547000C2E703230493254B2661676163604B46B3
:105480002362009A019BA260E36042460023D35648
:10549000002B3DD1164A174B00980199A261E36198
:1054A0000E4B0D4A03F0E6FA0028CED0124A134BF9
:1054B000301C391C05F062FA061C0F1C00F014FFAA
:1054C000321C3B1C03F0D0FA0028BED10C4A0D4B15
:1054D000A261E361B9E7C0460000000000000000DF
:1054E000000000000000F03F000000000000F0FF9E
:1054F000000000E0FFFFEF47000000000000E03F79
:10550000000000E0FFFFEFC70900002044F00000AA
:10551000104B0F4A00980199A261E3610E4A0F4BAC
:1055200003F0A8FA002890D00D4A0E4B301C391C0D
:1055300005F024FA061C0F1C00F0D6FE321C3B1CA2
:1055400003F092FA002800D07FE7074A074B7AE77A
:10555000000000000000F07F0000000000000000DC
:10556000000000000000E03F000000000000F0FF2D
:10557000F0B55F4656464D464446F0B499464B4614
:105580005C00934664088FB00D1C0F1C5A46211C0A
:105590000090061C824602935846114337D069009A
:1055A000490888466849049588452BDC28D0664917
:1055B0008C4227DC00D180E0002108910499002969
:1055C00000DA7EE0002833D15F4B9C4200D196E0A8
:1055D0005E4B9C426AD002988023DB05984201D141
:1055E00000F0E1FB5A4B0299994221D1049A002A1A
:1055F0001EDB291C009800F04BFD061C0D1C08E06A
:10560000002ED4D0534A131C434433430AD14F4D88
:105610000026301C291C0FB03CBC90469946A2467F
:10562000AB46F0BD4C4800F057FE061C0D1CF0E7E1
:105630000098291C00F012FE534606908C46002B61
:1056400020D0FB0F013B0493049E089B33436AD098
:10565000424B9C4200DC8DE0414B9C4201DC00F05F
:1056600035FC404B984500DC89E3029E002E00DCAF
:1056700089E334493248021C0B1C05F07FF9061CF3
:105680000D1CC6E74046002804D0304BBA009208F3
:105690009A42D6D1029C002C01DA00F0C4FB049E91
:1056A000002E00DA73E3069E6546B2E7029C002CEA
:1056B00001DA00F076FC009EABE7002800D17BE722
:1056C000A0E729498C422BDC26498C4200DC79E793
:1056D00021158C4625498C4501DC00F086FC244BC5
:1056E00061465B1A111CD9400A1C9A40824200D0C4
:1056F00068E701220A4002239B1A089362E7154AD1
:10570000131C4344334300D181E7164B984500DC1A
:105710007FE3029C002C00DA35E35E464D4678E7D5
:10572000022108914EE70098009A291C2B1C05F0D5
:10573000B5FB021C0B1C04F0B7FC061C0D1C68E733
:105740009C7500883CE4377E0000F07F0000F03F4D
:105750000000E03F000010C078F000000000E041D1
:105760000000F043FFFFEF3FFFFF3F431304000043
:1057700033040000E24A0023904509DC0698C54B3B
:10578000C34A614605F0FAF83523069088465B4225
:105790004046DC4902155218D21892460303DA4DEE
:1057A000DA4A1B0B1D43934201DC00F0F6FBD84A9A
:1057B000934201DC00F036FCD64B01229244ED18F6
:1057C00000240021069A2B1C06920793C900D24B95
:1057D00088464344186859680A900B910A9A0B9BB3
:1057E0000698079905F05AFB0A9A0B9B061C0F1C9A
:1057F0000698079904F03CF9021C0B1CA648A7491F
:1058000004F052FC0C900D910C9A0D9B301C391C2D
:1058100005F0B4F8029003910B1C802189056D10EE
:10582000802000220D430003009201939C4A9D4B6F
:1058300029180B1900980199141C1D1C05F09EF8DD
:10584000021C0B1C301C391C05F028FB0A9A0B9B10
:10585000061C0F1C201C291C05F020FB021C0B1C25
:105860000698079905F01AFB021C0B1C0098019979
:1058700005F084F8021C0B1C301C391C05F00EFBD3
:105880000C9A0D9B05F07AF80690079102980399FF
:10589000021C0B1C05F072F8041C0D1C221C2B1C96
:1058A00005F06CF8804A814B061C0F1C201C291C3B
:1058B00005F064F87E4A7F4B04F0DAF8221C2B1CBA
:1058C00005F05CF87C4A7D4B04F0D2F8221C2B1CBE
:1058D00005F054F87A4A7B4B04F0CAF8221C2B1CC2
:1058E00005F04CF8784A794B04F0C2F8221C2B1CC6
:1058F00005F044F8764A774B04F0BAF8021C0B1C0A
:10590000301C391C05F03AF8029A039B041C0D1C4C
:105910000098019904F0ACF8069A079B05F02EF860
:10592000221C2B1C04F0A4F8061C0F1C00980199E3
:10593000021C0B1C05F022F8674A684B0A900B9179
:1059400004F096F8321C3B1C04F092F800240D1C65
:10595000221C009801992B1C05F010F8221C2B1C0E
:10596000009001910698079905F008F85A4A5B4B98
:1059700006900791201C291C05F090FA0A9A0B9BAF
:1059800005F08CFA021C0B1C301C391C05F086FA41
:10599000029A039B04F0F2FF021C0B1C0698079965
:1059A00004F066F8061C0F1C321C3B1C0098019981
:1059B00004F05EF84A4A4B4B0024201C0D1C04F0F6
:1059C000DDFF494A494B06900791201C291C04F031
:1059D000D5FF009A019B02900391201C291C05F021
:1059E0005DFA021C0B1C301C391C05F057FA404AAA
:1059F000404B04F0C3FF021C0B1C0298039904F0F7
:105A000037F8464B43441A685B6804F031F8061CCB
:105A100050460F1C05F0A0FD0D1C4149041C4144DB
:105A20000A684B680698079902920393321C3B1C44
:105A300004F01EF8029A039B04F01AF8221C2B1C97
:105A400004F016F800220B1C00920193101C2B1C72
:105A5000221C05F023FA029A039B05F01FFA069A0E
:105A6000079B05F01BFA021C0B1C301C391C05F0AF
:105A700015FA02900391089B049C013B234300D03C
:105A8000C2E11D481D49049005914BE0C046C04647
:105A90000000000000004043000000000000F03F54
:105AA0000000000000000000EF4E454A287ECA3F7B
:105AB00065DBC9934A86CD3F01411DA96074D13F82
:105AC0004D268F515555D53FFFAB6FDBB66DDB3F94
:105AD000033333333333E33F00000000000008405A
:105AE000000000E009C7EE3FF5015B14E02F3EBE69
:105AF000FD033ADC09C7EE3F000000000000F0BFE4
:105B0000FFFF0F0001FCFFFF0000F03F8E98030035
:105B100079B60B000000F0FF68F0000058F00000BC
:105B200048F000000026321C4B465846494605F016
:105B3000B5F9009A019B04F021FF029A039B041C13
:105B40000D1C5846494604F019FF021C0B1C201C72
:105B5000291C03F08DFF009A019B02900391301CD9
:105B6000494604F00BFF00900191009A019B0298B6
:105B7000039903F07DFFCC4B041C0D1C0F1C8846C1
:105B8000994200DC19E1C94A8B18034300D012E2A4
:105B9000AC4BAB4A0298039903F06AFF009A019B51
:105BA00008900991201C291C05F078F9021C0B1C97
:105BB0000898099902F072FFA946002800D0FAE17E
:105BC0004A46BB4B802411156403C918201C0841A8
:105BD000C11948009C4A9D4B0B1C0903B54E090B8B
:105BE000400D0C43B4498519B44E081A04412E41A6
:105BF0004046B343A146002800DA1EE2009801990E
:105C000005F04CF900900191009A019B02980399CC
:105C100003F02EFF4A46120590460024201C8C4AB1
:105C20008C4B0D1C0F1C04F0A9FE009A019B0890E0
:105C30000991201C291C05F031F9021C0B1C02984B
:105C4000039905F02BF9844A844B04F097FE844AAB
:105C5000844B261C0D1C041C391C301C04F08EFEC9
:105C6000021C0B1C201C291C03F002FF041C0D1C31
:105C7000221C2B1C0898099903F0FAFE089A099B2C
:105C8000061C0F1C05F00AF9021C0B1C201C291C09
:105C900005F004F9321C009001913B1C301C391CAA
:105CA00004F06CFE704A714B041C0D1C04F066FE7F
:105CB0006F4A704B05F0F2F8221C2B1C04F05EFEBC
:105CC0006D4A6E4B03F0D4FE221C2B1C04F056FED2
:105CD0006B4A6C4B05F0E2F8221C2B1C04F04EFEC4
:105CE000694A6A4B03F0C4FE221C2B1C04F046FEDA
:105CF000021C0B1C301C391C05F0D0F8041C0D1CB8
:105D0000221C2B1C301C391C04F038FE604A614BED
:105D100002900391201C291C05F0C0F8021C0B1CEA
:105D20000298039904F0C0F9009A019B041C0D1C11
:105D3000301C391C04F022FE009A019B03F098FEEF
:105D4000021C0B1C201C291C05F0A8F8321C3B1C53
:105D500005F0A4F80B1C021C4F48504905F09EF8B2
:105D6000464673181C15002C00DC60E1021C0498E8
:105D7000059904F003FE061C0D1CFFF74AFC029C6B
:105D8000002C00DA75E400260025FFF742FC4C48A1
:105D9000089C031C4344234300D01AE10698614643
:105DA000069A6346C3E4291C2B1C0098009A04F051
:105DB000E5FD061C0D1CFFF72CFC4B005B0899460B
:105DC000404B994500DC25E13F480B1823430DD19A
:105DD000009A019B201C05F061F8021C0B1C029824
:105DE000039902F051FE002800D1E9E62C4A2D4B20
:105DF0000498059904F0C2FD294A2A4B04F0BEFD1F
:105E0000061C0D1CFFF705FC2349244A049105924A
:105E100088E6029E002EB6DA80200006051C5E464B
:105E20004D44FFF7F6FB069A63461B481B4904F0F6
:105E30003BF906908C46FFF732FCC046C046C04690
:105E4000FE822B654715973C000000000000000013
:105E500000000000432EE63FEF39FAFE422EE63FF7
:105E6000396CA80C615C20BED0A4BE726937663E56
:105E7000F16BD2C541BDBB3E2CDE25AF6A56113F4A
:105E800093BDBE166CC1663F3E5555555555C53F31
:105E90000000000000000040000000000000F03F93
:105EA00059F3F8C21F6EA501FFFF8F40000070BFBD
:105EB00002FCFFFF01FCFFFF13040000FFFF0F00C7
:105EC000000010C0FFCB904000346F3F6C4B9845F2
:105ED00000DC54E76B4B984501DDFFF7C6FB6146DC
:105EE000584B574A069804F0D9FF574A574B041CA1
:105EF0000D1C04F043FD564A564B061C0F1C201C7B
:105F0000291C04F03BFD221C009001912B1C201C3D
:105F1000291C04F033FD504A504B02900391201C81
:105F2000291C04F02BFD021C0B1C4D484D4904F0AC
:105F3000B5FF221C2B1C04F021FD021C0B1C4A483F
:105F40004A4904F0ABFF021C0B1C0298039904F0B1
:105F500015FD474A474B04F011FD021C0B1C00982D
:105F6000019904F09BFF041C0D1C221C2B1C301CEF
:105F7000391C03F07DFD00220B1C00920193101CC4
:105F80003B1C321C04F08AFF021C0B1C201C291C29
:105F900004F084FF029003916DE500240021FFF7D7
:105FA00011FC2B1C27492648009A04F07DF8061C9A
:105FB0000D1CFFF72EFB304A304B0498059904F076
:105FC000DDFC2D4A2D4B04F0D9FC061C0D1CFFF7FF
:105FD00020FB089E012E01D0FFF765FB8020000604
:105FE000051C069E6544FFF714FB002801D0FFF74F
:105FF0001FFB6346C91A221C0A41101C8840A0429C
:1060000001D0FFF7E5FA01231A4002239B1A0893F7
:10601000FFF7DEFA1C4B994500DDD1E500239846D9
:106020009946FAE58024E4020121FFF7CBFB4A46BA
:1060300000F006FA021C0B1C99E66442A146DDE55D
:10604000000000000000F03F000000604715F73F2F
:1060500044DF5DF80BAE543E000000000000D03F6E
:10606000555555555555D53F000000000000E03FFF
:10607000FE822B654715F73F9C7500883CE4377E10
:10608000FEFFEF3F0000F03F0000E03FC046C0468B
:10609000F0B55F4656464D464446F0B46C4E0D1C76
:1060A000371C83B0041C021C0B1C2F40B74200D1CC
:1060B000ADE0002900DC8BE02F1500D194E0654DA8
:1060C00009038023090B5B037F190B43FE0700D5EF
:1060D00070E07F10C20FB8465B00002780219B183C
:1060E0001624420000970020890345189D4204DCD5
:1060F00068185B1B009D6D180095D50F5B00013C77
:106100005B1952004908002CEFD1802100260906B6
:1061100020250196B446894609E0834246D0D40F33
:106120005B00013D1B1952004908002D1CD066463A
:106130008C198342F1DD6718E60FBC46F6078246EC
:106140004E452CD01B1AA24280414042019F1B1A8F
:10615000121B7F18D40F5B00013D019750461B199D
:1061600052004908002DE2D1134328D10198430879
:10617000009D394E6A109219ED0702D5802109065B
:106180000B4340460705B9181C1C0D1C201C291C7C
:1061900003B03CBC90469946A246AB46F0BDFF0F0B
:1061A000FF077E427E41B2468244CBE79442C2D989
:1061B000181CB4E7C20F5B009B18400089E70199E7
:1061C00001312FD0019C012323401B195B08CFE72D
:1061D0006B005B081A43D9D0002700292BD1C10AD4
:1061E000153F40050029FAD08022520311421ED1EA
:1061F0000023490001331142FBD001242022E41A7C
:10620000D21A3F19041CD4402143984057E7201C60
:10621000291C04F0B3FB221C2B1C03F029FC041CDA
:106220000D1CB3E7009A002301320092A0E7202260
:1062300001240023E5E7221C2B1C201C291C04F050
:106240002DFE021C0B1C03F02FFF041C0D1C9DE7F0
:106250000000F07F01FCFFFF0000E03F4B00590809
:106260007047C0464800024B4008C018C00F704736
:10627000000010800B1C011C021C30B519430220C9
:10628000002900D130BD802109068B4216D00D496E
:1062900004205C180C498C42F4D90C4D5C198C42DA
:1062A000F0D90B4C590049080320A142EAD9074C08
:1062B0000020A142E6D150425041E3E7002AE1D05C
:1062C000EFE7C0460000F0FFFFFFDF7F0000F07F38
:1062D000FFFF0F0000207047024901487047C04689
:1062E000000000000000F87FF0B546464F46C0B4FD
:1062F000CA0F90464B004D4A5B0D9E1883B0041C9C
:106300000D1C8C46071C132E3BDC002E5CDB484F1B
:10631000021C37413B1C0B400343994648460B1C6B
:10632000002827D07B081A1C0A4022430027002A95
:106330000AD0132E00D176E0291C80229943D20284
:106340000B1C324113439C464046C100394863460A
:1063500041180C684D683A1C201C291C03F088FB6E
:106360000090019100980199221C2B1C04F096FDCD
:10637000021C0B1C101C191C03B00CBC9046994647
:10638000F0BD332E0BDD0B1C8021021CC9008E4298
:10639000F0D1291C03F06CFB021C0B1CEAE7264A17
:1063A0000126D2187642D64091460B1C021C0642AA
:1063B000E0D076080642C7D08023B443DB054846C8
:1063C0000341271C1F43BFE74E0076080643021C0B
:1063D0000B1C002ECED00903090B01434842014398
:1063E00080200003090B0140680C40040B1C034390
:1063F0004046C1000F4841180C684D68291C201CFC
:1064000003F036FB00900191009801992B1C221C8F
:1064100004F044FD0D1C4146021CC80769004908F0
:10642000031C0B43A6E780273F0685E701FCFFFF1F
:10643000FFFF0F0080F00000EDFBFFFF00000000F9
:10644000F8B53D4E171C331C0B40041C0D1C0A1CD8
:106450001B1525D14B005B0818431ED0201C291C9E
:106460002E4B2D4A04F08AFA344B041C0D1C9F421B
:1064700031DB0E4033150A1C363B3149DB198B42A8
:1064800015DD221C2B1C2648264900F061F8244A01
:10649000244B04F073FA041C0D1C291C201CF8BDAD
:1064A00028498B421ED02649DB198B42E9DC002BA0
:1064B00005DD25491B050A401D1C1543EDE7191C88
:1064C000353118DA214B9F42DBDC17481749221C73
:1064D0002B1C00F03DF8144A144B04F04FFA041C36
:1064E0000D1CDAE7201C291C221C2B1C03F0C0FA0F
:1064F000041C0D1CD1E7144936331B050A401D1C32
:106500001543201C291C0A4A0A4B04F037FA041CC4
:106510000D1CC2E7C046C04600000000000050430A
:106520009C7500883CE4377E59F3F8C21F6EA501C4
:10653000000000000000903C0000F07FB03CFFFF36
:10654000FE070000FF070000FFFF0F8050C30000A0
:1065500030B5DA0FD2074B005B08111C194330BD70
:1065600008B5024801F040FD08BDC046EC07002018
:1065700008B5024801F038FD08BDC046B00800204B
:10658000F7B5164F1649381C01F0D4FA15491648CC
:1065900001F0D0FA1549164801F0CCFA1549164811
:1065A00001F0C8FA1549164801F0C4FA154D032642
:1065B0000124281C144901F0BDFA391C0096231C43
:1065C00001940022114801F0EBFC0096291C019473
:1065D0001F221E230E4801F0E3FCF7BD78090020BE
:1065E00000080042000C00427C090020001000421C
:1065F00080090020001400427409002000180042A5
:106600008409002088090020001C0042EC070020BB
:10661000B00800203F20704713B502686B46D9715F
:1066200007335468191C0122A04716BD08B500693C
:10663000022100F033FC08BD08B50069032100F019
:1066400043FC08BD38B50D1C041C131C0069032154
:106650002A1C00F035FD002801D10123636038BDFC
:1066600010B5054C23685A1C04D10368DB689847B1
:106670002060031C181C10BD5C000020074A08B5F0
:106680001368591C04D0012149421160181C03E011
:106690000069022100F006FD08BDC0465C00002034
:1066A00008B503780349023303704222024800F020
:1066B000BDFD08BD18000020570E002010B5017860
:1066C000031C42780020A12908D1212A2FD1184883
:1066D0001849072200F0AAFD012028E0212926D12F
:1066E000202A05D113490722114800F033FC04E0A9
:1066F000222A10D19A780F4BDA710E4B9622196824
:10670000D200914210D1DC7901231C400CD1FA2037
:1067100001F068F90AE0232A09D1DA789B7812029D
:106720001A43054B1A6002E001F062F9002010BD27
:10673000570E00200C000020140000207047704706
:10674000064BFA2189009960054900220831196039
:1067500004495A6019611A767047C0468C090020B6
:10676000E0F40000570E002070B5C2B21949530181
:10677000CB189E68184DC0242E40A40526439E6069
:10678000164E800109683018083258605201505C7A
:106790000726B0430126304350549E6935402C43B0
:1067A0009C610F4C5C61505C7024A043102420431A
:1067B00050549C680B488A1820408024640320436E
:1067C000986098684021800B8003986053790B4350
:1067D000537170BD600E0020FFFFFF8F780C00200A
:1067E000B40A0020FF3F00F038B5041C08CC01219A
:1067F0001A78051C0A431A708022201C00215200BE
:1068000005F023FC2B689A78D107FCD45C6238BD74
:10681000134BF0B51B6899035A029B01C90ED20EA7
:106820005B0F1F2900D105211F2A00D11D22072B34
:1068300000D1032304688E01278D0A491F253940A2
:106840003143218501682A400C8DAC4322430A85DF
:1068500002681903108D044B03400B431385F0BDF0
:10686000246080003FF8FFFFFF8FFFFFEFF31083EE
:1068700003600123436072B670470368002B02D1A6
:1068800062B6BFF36F8F704737B50569041C684661
:10689000002D12D1FFF7EAFF019B013B03D3621DDC
:1068A000D57FEDB2F9E768460193FFF7E6FF0020D8
:1068B000854217D0206AE36913E0FFF7D7FF019BF9
:1068C0000025013B04D3221C34321578EDB2F8E7E1
:1068D00068460193FFF7D1FF0020854202D0206B6C
:1068E000E36AC01A3EBD0000436810B51A68037A17
:1068F00001215B01D318FF339A7A0A439A72037A13
:1069000042685B01D318C2689C6891040B4A09096C
:1069100022400A439A60037A42685B01D3189A685E
:106920004021920B92039A6043681A68037A0833F5
:106930005B01D3181A790A431A7110BDFF3F00F0AA
:10694000F7B50569041C0E1C171C6846002D1FD1E5
:10695000FFF78CFF019B013B5A1C06D0621DD17FC3
:106960005A1E00293AD0131CF6E768460193FFF738
:1069700084FF0025E369BD4235D0226A934232D2BA
:106980005A1CE261A269D3181B7873550135F1E7EF
:10699000FFF76CFF019B013B5A1C08D0221C3432CC
:1069A00015785A1EEDB2002D18D0131CF4E7684676
:1069B0000193FFF762FF0025E36ABD4226D0226BF8
:1069C000934241D322E0621D0021D1773032167804
:1069D000581E8E4214D1031C5A1CF4D168460193F0
:1069E000FFF74BFF38E0226A934235D10023E36181
:1069F000012323616846FFF739FF019B013BEBE769
:106A00001170201C0193FFF76FFFF6E7226B934292
:106A100022D10023E36223616846FFF727FF019B31
:106A2000013B5A1CDAD0221C343200211170013291
:106A30001678581E8E4201D1031CF2E71170201CFB
:106A40000193FFF751FFEAE75A1CE262A26AD318EA
:106A50001B7873550135AFE7281CFEBD37B5436879
:106A6000027A1B68083252019A18041CD07901235B
:106A7000FF21184253D0D371A06865696268014054
:106A8000002D20D149015218916863618904890C55
:106A90002162A16A68465160621DD377FFF7E6FE66
:106AA000019B013B5A1C33D0221C34321178581EF2
:106AB000C9B20132002903D001930123137023E0EE
:106AC0001170031CEEE74B01D3189A68A569920474
:106AD000920C22630022626168465D60FFF7C6FE89
:106AE000019B013B01E011702B1C591C10D0221C92
:106AF000343201201070621DD17F5D1EC9B2303268
:106B00000029F0D0019310706846FFF7B6FE06E04A
:106B100068460193FFF7B1FE201CFFF7E5FE37BD85
:106B200037B500236C46E3710734201C0D1CFFF7BA
:106B3000B7FD2B681818286001F0B0FE211C01F089
:106B400067FE2B681818286020783EBD03290BD1FA
:106B50000D4BB2221B685200985C802149420143D0
:106B60009954022168220CE001290CD1064B922293
:106B70001B685200985C80214942014399540221CC
:106B80002822FF3299547047600E002038B5304BF0
:106B900000240121051C1A201C7001F035FD1A206B
:106BA000012101F08BFD2B4B192001211C7001F0FC
:106BB0002BFD1920012101F081FD274B2021DA69ED
:106BC00001200A43DA61254B06241A7802431A7021
:106BD000234B0F22197891431970197821431970AA
:106BE00020490C782043087019780A401A701A78E6
:106BF00060210A431A701C4B1C4A5A805A78D209E9
:106C0000FCD11B4801F0B6FA1A4C201CFFF7ECFD32
:106C1000201CFFF7FDFD23687F2219780A401A70B7
:106C20001A7804210A431A701A890C218A431A819E
:106C3000C121114A890050580002000A5050802199
:106C400011601A7802210A431A7001232B7038BD93
:106C5000740C00205C0E00200004004058440041E9
:106C60003C44004159440041000C004006400000F3
:106C7000B9760000600E002000E100E000780028F6
:106C800010D0094B01211B681A898A431A811A8B7B
:106C900008210A431A831A8B04210A431A83034BDF
:106CA00000221A607047C046600E0020640F00206A
:106CB0000F4B9A69920B92039A611B680222FF3371
:106CC0001A7298798022524202439A711A7A900776
:106CD000FCD5084B081C997A7F2210409143014350
:106CE0009972997A802252420A439A727047C0463A
:106CF000600E0020005000410078002805D0034BB2
:106D000001211B681A890A431A817047600E00200E
:106D100010B50B790C1C002B0BD1081CFFF7CEFC17
:106D2000002804D1094B9A69920B92039A610120C1
:106D30000BE001F0B3FD211C01F09EFD0028F6D10F
:106D4000024B9A69920B92039A6110BD600E00206B
:106D5000F8B50D1C832A16D1CAB242495301CB188B
:106D60009C694148AD012040C024A405204398619E
:106D70003E48083245195D610B685201D15C7020B4
:106D80008143402065E0022A45D1382001F03CFAD9
:106D9000374B344F8026036076000023421D036288
:106DA00003614361C36147608560C660D3772F325A
:106DB000041CC36203631370301C537005F00AF99E
:106DC000A061301C05F006F9FF232A1C1A4052016D
:106DD000A062BF18B968244A07260A40C021890565
:106DE0000A43BA60A1686268194012680831490113
:106DF000885CAD00B043032630438854A1686268C4
:106E00000B405B01A169D3185960201CFFF76CFD92
:106E1000184BEC5025E0822A1ED1CAB21149530109
:106E2000CB189C691048AD012040C024A405204324
:106E300098610E48083245195D610B685201991836
:106E40000C798020404220430871D15C702081433E
:106E500030200143D15404E0002A02D1081CFFF77E
:106E600083FCF8BD600E0020FFFFFF8FB40A0020F6
:106E700010F50000380E002038B5051C0124064B23
:106E8000A200D258002A06D0211C281C0134FFF78A
:106E90005FFFE4B2F3E738BD6000002008B5084B9F
:106EA0008A00D058002803D003689B68984706E002
:106EB000C9B2044B4901591888688004800C08BD88
:106EC000380E0020600E002010B50C1CFFF7E6FF06
:106ED00000280CD0064BE1B21B6808314901591853
:106EE0004A7980235B4213434B710223CB7110BD5F
:106EF000600E002070B5CAB2134B144854018901CA
:106F00005918031959609D68114908322940802594
:106F1000AD022943996099684026890B89039960DD
:106F20000368510159180D7935430D7151015918F4
:106F300089794D06FAD551015918C979CD07FAD585
:106F40000419A068C0B270BD780C0020600E00204B
:106F5000FF3F00F038B50C4B141C1B680D1CFF33B1
:106F60005A7940210A435A710021FFF7C3FFA0421A
:106F700000D9201C0023A34204D0044A9A5CEA549E
:106F80000133F8E738BDC046600E0020780C0020C1
:106F900010B5C9B20C48490143189A689204920C82
:106FA0003F2A08D9141C9A68403CA404920BA40CF4
:106FB0009203224302E09A68920B92039A6041186E
:106FC0008868C0B210BDC046600E0020F0B51C1C21
:106FD0002F4B85B01B68061C0D1C0292002B51D054
:106FE0002C4F3978C9B2002902D1192001F066FB73
:106FF00064233B70284BAA00D058002805D00368B2
:1070000002995B68221C984740E0301C291CFFF75E
:1070100045FFA04204D2301C291CFFF73FFF041C8F
:10702000291C301CFFF7B4FF1C4FE9B24A01019143
:10703000396803928B18FF335A7A01210A431849A1
:107040005A72AB01C9180298221C04F0DCFF002C14
:107050001BD0301C291CFFF721FF002815D1019BF4
:107060003A6808335B01D31819794020014319713C
:107070000121D97103995318FF339A7A01210A43E8
:107080009A7202E00120404200E0201C05B0F0BDF1
:10709000640F00205C0E0020380E0020600E0020DF
:1070A000780C002013B56C460734221C0123FFF72F
:1070B0008DFF012801D1207801E00120404216BD5A
:1070C000F0B51C1C3F4B85B01B680E1C0292002BB8
:1070D0006AD08023DB019C4266D83B4D2978C9B237
:1070E000002902D11A2001F0E9FA642300222B7052
:1070F0000092002C56D0354DF7B22B6801933B1C03
:107100000833019A5B01D3189B79DB091AD0304B05
:107110003049186801F0E8FB2F4B1721584301F064
:10712000E3FB3B1C0833019A5B01D318DB799A0718
:1071300008D42A4B9A5D002A38D1421E002835D047
:10714000101CEEE7254B00229A55251E3F2D00D935
:107150003F25234AB301D318181C02992A1C039314
:1071600004F051FF194A7B01D318039AA9045A610C
:107170009A69890C920B92030A439A613B1C019A0B
:1071800008335B01D3180222DA7159798022524206
:107190000A435A71009B029A5B1952190093641BAF
:1071A0000292A6E700980BE0012008E001229A5520
:1071B0007B01ED18AB69101C9B0B9B03AB6140423C
:1071C00005B0F0BD640F0020740C0020600E00209C
:1071D0008C00002040420F0070110100AC0A00201A
:1071E000B40A002070B50E4D1C1C8B01ED18281C34
:1071F0000E1C111C221C04F006FFF6B20949760190
:1072000089194D618A69084B201C13408B618B6979
:10721000A2049B0B920C9B0313438B6170BDC04671
:10722000B40A0020600E0020FF3F00F0F7B5114BBC
:1072300001901B780F1C141C002B19D10E4B1E78CB
:10724000002E01D1151C08E00C4D0D482E88801928
:10725000361904F0D8FE2E800AE0002D08D0BA19A5
:107260002B1C01980021FFF7BDFF36182D1AF4E7FB
:10727000201CFEBD560E0020540E0020AA0A00203D
:10728000A9090020F8B50E1C00AF151E012D28D944
:10729000D31DDB08DB006A46D21A9546081C04F0B1
:1072A000CCFF01306C464000032320706370022243
:1072B000AA420ED23378002B0BD0511CC9B2013632
:1072C000A354A94204D0002302326354D2B2EFE7A0
:1072D0002A1C0548211CFFF7A9FF431E9841C0B294
:1072E00000E00020BD46F8BD570E002008B5044B55
:1072F00000221A70034B04491A88FFF797FF08BD54
:10730000540E0020AA0A0020A9090020F0B5204A46
:1073100087B001230026009102A91370051C029674
:10732000FFF7FEFB03AC092701903A1C201C311C1F
:1073300004F08BFE02236370A023E371FA2323720F
:10734000029B0122DB196380019B62712371104A49
:10735000009B27701670BB4205D1281C211C1A1CEB
:10736000FFF764FF11E00B4B01221A700A4B211C3E
:107370003A1C281C1E800296FFF758FF281C02A901
:10738000FFF7CEFB281CFFF7B1FF012007B0F0BDCF
:10739000560E0020540E0020AA0A002070B5CE78A8
:1073A0008AB0051C0C1C022E08D1C9882348FFF79F
:1073B000ADFF031C581E8341D8B23DE001F06EFAC8
:1073C000211C01F03AFA002803D0C3171B1AD80F6A
:1073D00032E0012E04D1E2881949112A27D823E08E
:1073E000032E29D1A278002A05D11649E2880B780C
:1073F000934219D81BE0022A03D1A279281C124912
:1074000004E0012A05D1A2791049281CFFF73AFFB0
:1074100012E0032A10D101F041FA01A901F01DFA8E
:10742000A279281C01A9F1E7D2B2002A00D10A787A
:10743000281CFFF7FBFE01200AB070BD570E00208C
:107440002EF500002AF5000040F5000020F50000B0
:1074500073B5051C48780C1C0B2878D801F030FA5D
:10746000081C7728773E4306474B686F00206FE083
:10747000097801AA002903D111705170281C09E074
:10748000002313705370334B1B78012B00D1137002
:10749000281C002102234FE08A780023012A04D10E
:1074A00001AA137053702C4BEEE72A4A137049E07F
:1074B0008E78012E07D1284B01AA00211E70117071
:1074C000281C331C38E0002E08D1224A01231370F7
:1074D000224A9169890B8903916138E0A178281CBF
:1074E000FFF7E6FB33E0281CFFF758FF30E0281CCD
:1074F00000211B4A1FE00A780020D30628D1281C4F
:10750000FFF7BAFCA2781549154B02241A600A68E5
:107510002A23FF33D05C2043D0544A20FF30145C30
:1075200001231C4314548A69920B92038A610EE072
:107530000C4A281C00210123FFF754FE07E08A783B
:10754000084B1A60054B9A69920B92039A610120CD
:1075500076BDC046A8090020550E0020600E002010
:10756000640F0020580E0020F8B54B4B071C1C7808
:10757000002C00D08EE0494D2868838B19070DD56B
:10758000201CFFF7F1F82B6810201A1CFF32917AAB
:1075900001439172424A146008229A832B689A8BA5
:1075A00050071FD504229A833E4B1A78002A0AD02E
:1075B0001A78013AD2B21A701B78002B03D11A2024
:1075C000012101F07BF8384B1A78002A0AD01A788A
:1075D000013AD2B21A701B78002B03D11920012175
:1075E00001F06CF82B68FF331A7AD10626D51022E9
:1075F0001A725A7940210A432C495A710A78602339
:10760000381C1A4202D1FFF723FF01E0FFF780FB8D
:10761000002806D02B688022FF33997952420A4312
:1076200001E0234B20229A712B68FF331A7A50060F
:1076300004D540221A72597A0A435A722968FE23E5
:107640000E8C00241E40E1B2002E23D0321C0123F8
:1076500022411A4216D0221C286808325201821890
:10766000D079184203D1D279DA401A4207D0114BAF
:10767000A200D058002809D003681B68984701234E
:10768000A3409E430134092CDDD103E0381CFFF7F1
:107690005DFAF4E7F8BDC046540E0020600E0020ED
:1076A000640F0020740C00205C0E0020780C002079
:1076B000FF500041380E002008B50248FFF754FF84
:1076C00008BDC046570E0020014A024B1A607047A1
:1076D00000500041600E0020F7B58A18061C0D1CF2
:1076E00001920C1C019B671B9C4207D033682178D8
:1076F0001B68301C984701340028F3D1381CFEBDAC
:1077000008B50368C9B21B68984708BD38B5051CA1
:107710000C1C081E07D004F090FD2B68021C5B684F
:10772000281C211C984738BD08B5FFF7EFFF08BD9E
:1077300008B503681B68984708BD000008B50249F2
:10774000FFF7E4FF08BDC046F8EB000038B5041CA5
:10775000FFF7DCFF051C201CFFF7F0FF281838BDE1
:10776000F0B58DB0161C0BAB002201900C1C1A70EA
:10777000012E00D80A266D462B35201C311C01F045
:10778000F7F8201CCFB2311C01F0AEF8291C041C04
:10779000092F01D8303700E03737FFB22F70013D95
:1077A000002CEAD10198FFF7B1FF0DB0F0BDF8B59C
:1077B000041C0D1C161E04D10368C9B21B6898472F
:1077C00012E00A2A0DD100290ADA2D21FFF7B0FFB5
:1077D0006942071C321C201CFFF7C2FFC01903E0DE
:1077E00000E0D2B2FFF7BCFFF8BD38B5041CFFF7CC
:1077F000DEFF051C201CFFF7A1FF281838BD38B597
:10780000041CFFF7D4FF051C201CFFF797FF40194D
:1078100038BD08B5002A02D1FFF772FF02E0D2B2EC
:10782000FFF79EFF08BD08B5FFF7F3FF08BD38B5A9
:10783000041CFFF7EEFF051C201CFFF77FFF281834
:1078400038BD38B5041CFFF7E4FF051C201CFFF70A
:1078500075FF401938BD0000F7B51C1C08AB1B783C
:10786000071C211C101C151C0093FEF703FD0028AB
:1078700002D1381C504907E0281C211CFEF7FAFCF5
:10788000012804D14D49381CFFF740FF7CE0281C3B
:10789000211C404B3E4A01F001F9002802D0381C5F
:1078A0004749F1E7281C211C3B4A3C4B01F0E2F818
:1078B0000028F4D1281C211C394A3A4B01F0DAF88F
:1078C000002808D02D21381CFFF732FF802109063F
:1078D0000190641800E001900026334A334B009970
:1078E0008E420AD0101C191C314A324B02F0DCFBCC
:1078F0000136021C0B1CF6B2F1E7281C211C02F019
:10790000B7F80D1C041C01F077F9061C03F062FEA9
:107910000B1C021C291C201C03F0C0FA0A22041CA8
:107920000D1C381C311CFFF71BFF019B0099C6186A
:10793000002904D0381C2349FFF7E8FE3618009BC5
:10794000002B20D01A4A1B4B201C291C03F016F8D0
:107950000D1C041C01F050F901900A220199381CF9
:10796000FFF7FEFE3618019803F034FE0B1C021CD4
:10797000291C201C03F092FA009B041C013BDBB283
:107980000D1C0093DBE7301CFEBDC046C046C04660
:10799000000000E0FFFFEF41000000E0FFFFEFC14B
:1079A0000000000000000000000000000000E03FB8
:1079B00000000000000024404BF500004FF50000DF
:1079C00053F5000057F5000037B5041C0698C1B206
:1079D0000091201CFFF740FF051C201CFFF7AEFEA6
:1079E00028183EBD014B18607047C0468800002033
:1079F000024B012252421A607047C04688000020A4
:107A0000154A1368581C25D0013B1360002B21D167
:107A100072B6124A124B04329A4207D8BFF34F8F04
:107A2000104A114BDA60BFF34F8F11E00F4B197DF5
:107A3000C807FBD5188B2021FF3192085200014363
:107A40001983DA610A4A1A801A7DD107FCD5E5E765
:107A5000C046FDE77047C0468800002000200000B7
:107A6000030200000400FA0500ED00E000400041C0
:107A700002A5FFFF10B50021041CA42204F0E5FAC2
:107A8000221CA4320023201C1360536010BDF8B5E3
:107A9000051CA4352E68041C0F1C701CA42100F0CA
:107AA00067FF231CA8331B68994201D0A7552960A2
:107AB000F8BD021C0023A432A83013600360704795
:107AC00038B5021C041CA834A432236812689342FF
:107AD00007D0C55CA421581C00F04AFF281C216077
