:1020000000800020394700002147000021470000E0
:1020100000000000000000000000000000000000C0
:102020000000000000000000000000002147000048
:102030000000000000000000214700008D47000064
:1020400021470000214700002147000045250000EE
:1020500021470000214700002147000025470000DC
:10206000214700006D2F000021470000214700009C
:1020700015250000214700007D2F000021470000AA
:1020800021470000214700002147000021470000B0
:102090000000000021470000214700002147000008
:1020A0002147000021470000214700002147000090
:1020B0000000000010B5064C2378002B07D1054B1B
:1020C000002B02D0044800E000BF0123237010BDA4
:1020D0001001002000000000F065000008B5084B6A
:1020E000002B03D00748084900E000BF07480368F9
:1020F000002B03D0064B002B00D0984708BDC046EC
:1021000000000000F0650000140100200C01002018
:10211000000000007047000000B589B000236A4647
:102120001370082822D802F025FE05080B0E1114A2
:10213000171A1D006846104916E068460F4913E05B
:1021400068460F4910E068460E490DE068460E49A2
:102150000AE068460D4907E068460D4904E0684614
:102160000C4901E00C49684602F07EFF69460B48C5
:1021700001F0DEFF09B000BD3057000044570000F9
:102180005B5700006F570000845700009B5700000A
:10219000B3570000C8570000DE5700007C0800203D
:1021A00010B5FA240121A400082002F0F9FC201C3B
:1021B00002F000FB0021082002F0F2FC201C02F0DB
:1021C000F9FA10BD08B5024800F0B8F908BDC046DC
:1021D0002D01002000000000F8B50024201C022181
:1021E000013402F083FC172CF8D12024201C02219A
:1021F000013402F07BFC2A2CF8D11920022102F0D4
:1022000075FC1A20022102F071FC0820012102F065
:102210006DFC0820002102F0C3FC0920002102F01F
:1022200065FC0F20012102F061FC0F20002102F06B
:10223000B7FC1320002102F059FC3F4C9621201CD2
:10224000890100F081FF0121082002F0A9FC3B4830
:1022500002F0B0FA0820002102F0A2FC384E394BFF
:10226000301C197800F056FB374D38492870201C77
:1022700001F05EFF2878FFF74FFF2E4B2C4A301CF1
:1022800000F062FB2870FFF747FF3149201C01F086
:102290005BFF201C00F0D6FE201C00F056FF2D4CEA
:1022A0000021201C00F076FA0022201C131C0A21B9
:1022B00000F0B2F902221123201C142100F0F8F9D9
:1022C000201C0A2100F006FA201C012100F048F928
:1022D000201C214900F056F90021082002F060FC82
:1022E0001E4F381C01F00EFA201C00F051F9381C6A
:1022F00001F052F9381C01F0C7F90121082002F061
:102300004FFC174802F056FA0021082002F048FC62
:10231000301C00F053FB2870FFF7FEFE642002F033
:1023200049FA301C00F09EFA2870FFF7F5FEF8BD60
:1023300060EA0000000000007C0800201027000078
:10234000B0020020000000202C010020F657000001
:10235000055800002D01002015210000470D002028
:1023600088130000C046C046F8B5051C0F1C161C9B
:102370000024B44208D02B68395D1B68281C98479C
:10238000002801D00134F4E7201CF8BD704708B5DF
:10239000183001F051FF08BD08B5183001F060FF9A
:1023A00008BD38B5837D0D1C002B06D0041CC43439
:1023B000201C01F06BFF002801D0002004E0201C4D
:1023C000291C01F020FF012038BD08B5183001F0AC
:1023D00050FF08BDF7B50193FA239B0083600B4BB8
:1023E00000250833041C4560036018300F1C161CC0
:1023F00001F0FCFE201CC43001F0F8FE019B2761B7
:102400002675A575201C6375FEBDC04618580000D2
:1024100038B5041C006901F0EEFF002879D020696E
:1024200001F0F7FF00280ED1206901F0FCFF002821
:102430001FD0206901F0F2FF00281AD0206901F0B6
:10244000F7FF002815D1206901F0A8FF20690321BA
:1024500001F0AEFF231CFC33DD6F002D04D0236898
:10246000201C9B689847A847201C183001F0DDFE0F
:102470004FE0206901F0D7FF031C2069002B16D024
:1024800001F08CFF2069032101F092FF206901F027
:10249000CFFF00283DD0201CC43001F0C6FE012330
:1024A000A375FC34A36F002B33D0984731E001F0C3
:1024B000ABFF00282DD0206901F0BAFF251C0028B1
:1024C0000FD0C435281C01F0CBFEFF21002803D01B
:1024D000281C01F0B1FEC1B2206901F07FFFA07598
:1024E00017E01835281C01F0D1FE031C2069002BD1
:1024F00002D001F04BFF08E001F09FFF011C281CF7
:1025000001F081FE206901F049FF2069032101F0FB
:102510004FFF38BD08B50248FFF77AFF08BDC04637
:102520003001002008B50348034914221523FFF7A2
:1025300051FF08BD30010020640800200023037013
:102540007047000008B5044B1B68002B00D098476B
:10255000024B01221A7208BDAC0200200014004098
:102560000378002B0AD0064B081C197F0722104065
:102570009143014319779A7AD209FCD17047C0463A
:1025800000140040014B19607047C046AC020020A7
:10259000034B04211A690A431A6130BF7047C046D1
:1025A00000ED00E00378002B0AD0064B081C1969E7
:1025B0003F2210409143014319619A7AD209FCD11C
:1025C0007047C046001400400378002B0BD0064B28
:1025D0003F2211408A0118690449014011431961E1
:1025E0009A7AD209FCD17047001400403FF0FFFFF7
:1025F0000378002B0BD0064B1F2211400A031869E9
:1026000004490140114319619A7AD209FCD17047FB
:1026100000140040FF0FFEFF70B5161C0278041C6A
:102620000D1C002A0AD0191CFFF7BCFF201C311C0E
:10263000FFF7CAFF201C291CFFF7DAFF70BD00005E
:102640000378002B0BD0064B1F2211404A04186957
:1026500004490140114319619A7AD209FCD17047AB
:1026600000140040FFFFC1FF0378002B0BD0064B86
:102670000F2211408A05186904490140114319616C
:102680009A7AD209FCD1704700140040FFFF3FFC4A
:102690000378002B09D0054B8A061969890189093D
:1026A000114319619A7AD209FCD170470014004095
:1026B00070B51D1C0378041C161C002B09D0FFF7F5
:1026C000BFFF201C311CFFF7CFFF201C291CFFF788
:1026D000DFFF70BD0378002B0AD0064B081C9969F8
:1026E0003F2210409143014399619A7AD209FCD16B
:1026F0007047C046001400400A4B0B4A9A605A7853
:1027000052B2002AFBDB0949064A51605A7852B29C
:10271000002AFBDB0649034A51805A78D209FCD1D2
:102720007047C046000C0040020400000205110082
:1027300004420000044B02211A888A431A809A7AC4
:10274000D209FCD17047C04600140040044B02215E
:102750001A880A431A809A7AD209FCD17047C04677
:1027600000140040044B01211A880A431A809A7A07
:10277000D209FCD17047C04600140040044B01212F
:102780001A888A431A809A7AD209FCD17047C046C7
:1027900000140040F7B52B4B0F1C9A6920210A4307
:1027A0009A61294A294B0026051C9A82284CB74277
:1027B0000AD1284B1A7870231A4240D023881A076E
:1027C0003DD5226901260192281CFFF795FF281CA0
:1027D000FFF7B0FF281CFFF7C5FF62881E4B1340B0
:1027E00063801E4B2380A27A194BD209FBD11C4A6D
:1027F00008211160C021890050580002000A505081
:10280000DA7901210A43DA711A7F07218A431A779C
:10281000A37ADB09FCD1281CFFF798FF281CFFF7DF
:10282000ADFF002F02D001232B70F7BD002EFAD090
:10283000074B019A1A61A37ADB09FCD1F3E73E1C2E
:10284000C2E7C04600040040CE0600000008004079
:102850000014004038040040FFBFFFFF080A0000DA
:1028600000E100E0F0B5051CA4358FB0041C002188
:10287000FA22281C02F020FB00210F2202A802F0FD
:102880001BFB0AAE00210F2206A802F015FB0F2247
:102890000021301C02F010FB1A4B281CFE33598A11
:1028A00002F0C0FB184F02A8B98A02F0BBFB3B1C28
:1028B0005033198806A8543702F0B4FB3988301C0D
:1028C00002F0B0FBFA239B0001930096201C291C08
:1028D00002AA06AB00F026FB012804D10B4BE05402
:1028E0000B4BE05406E0022806D1084B0122E054CD
:1028F000074BE254002003E00338431E98410130A7
:102900000FB0F0BD1C5F0000045D00002A04000051
:102910002B040000E1231B0210B54360012301706A
:102920000374041CC82001F045FF201C00F0BAF815
:102930009620400001F03EFF201CFFF793FF201C73
:10294000FFF790FF10BD0000F0B5061CA4368BB059
:10295000071C141C301C0021FA221D1C02F0ACFACA
:1029600002A800210F2202F0A7FA06A800210F22D8
:1029700002F0A2FA0F4AA2235B00D15A301C221C9B
:102980002B1C02F04FFB0C4C02A8218802F04AFBE2
:10299000A18806A802F046FB64230093381C06AB0E
:1029A000311C02AA00F0B4FA023843425841C0B2C6
:1029B0000BB0F0BD1C5F0000045D000030B5051CCD
:1029C000A43585B0041C0021281CFA2202F074FAF8
:1029D000684600210F2202F06FFA00232B70231C9F
:1029E0005522A5331A700A4B6846198802F01AFB63
:1029F000201C291C022200F0A0FA201C6946642237
:102A000000F040F90138431E9841400005B030BD48
:102A1000045D0000074BE12252025A60064A074952
:102A20009A606422DA6001221A7400225A5404491E
:102A30005A547047B0020020881300002B04000095
:102A40002A040000F7B5181C0191161C1F1C02F087
:102A500013FB051C0020041CAE4210D3731B9C42C8
:102A60000AD8019B391C18192A1C02F00DFA0028FB
:102A700004D00134A4B2F1E7002000E00120FEBD43
:102A800008B5031C002904D10448191C00F05CFBA4
:102A900003E00348191C01F06BFD08BD7C08002011
:102AA000DC06002008B5031C19784068FFF7E8FF32
:102AB00008BD000008B5031C002904D1191C0448F6
:102AC00000F0B0FA03E00348191C01F077FD08BDDF
:102AD0007C080020DC06002038B5041C0D1C207882
:102AE000002804D0291C0134FFF7E4FFF7E738BDC4
:102AF00008B5002803D1044800F09EFA02E003481C
:102B000001F04DFD08BDC0467C080020DC06002019
:102B100008B5002803D1044800F0B6FA02E00348E3
:102B200001F047FD08BDC0467C080020DC060020FF
:102B3000F0B5051C85B01135041C039101920021EC
:102B40009022281C029302F0B7F9231CA23300261E
:102B50001E8001F029FE371C009001F025FE009B2D
:102B6000C01A0B9B984200D382E02078FFF7C0FF89
:102B700000280ED08E2F0CD82078FFF7C9FFE3195C
:102B80005874231CA2331A887E1CB6B201321A80F4
:102B9000371C231CA2331E88201C291C321C039BBB
:102BA000FFF750FF00280ED0334C3449201C01F0B1
:102BB000BBFA3349201C01F0B7FA201C039901F03D
:102BC000C3FA012055E0019B002B15D0201C291CC5
:102BD000321CFFF737FF00280ED0274C2749201C56
:102BE00001F0A2FA2649201C01F09EFA201C01994E
:102BF00001F0AAFA02203CE0029B002B15D0201C19
:102C0000291C321CFFF71EFF00280ED01A4C1B494E
:102C1000201C01F089FA1A49201C01F085FA201CB9
:102C2000029901F091FA032023E00A9B002B15D0B2
:102C3000201C291C321CFFF705FF00280ED00E4C6B
:102C40000E49201C01F070FA0D49201C01F06CFAAD
:102C5000201C0A9901F078FA04200AE001F0A4FD92
:102C6000009B984200D378E701F09EFD009074E746
:102C7000002005B0F0BDC0467C0800207160000057
:102C80007960000007B50023019200931A1CFFF73A
:102C90004FFF0EBD10B5002803D1094800F0D2F94E
:102CA0000CE0084C201C01F075FC201C01F077FCA6
:102CB000002803D0201C01F07CFCF6E710BDC046C4
:102CC0007C080020DC060020F0B5874D874E85B0DB
:102CD0000F1C041C311C281C0193029201F024FAE1
:102CE0008349281C01F020FA391C281C01F02CFA19
:102CF000311C281C01F018FA7E49281C01F014FA36
:102D0000281C029901F020FA019B002B0BD0311CEA
:102D1000281C01F009FA7849281C01F005FA281C42
:102D2000019901F011FA0A9B002B0CD06E4D6F49EE
:102D3000281C01F0F9F97149281C01F0F5F9281C4B
:102D40000A9901F001FA0B9B002B0CD0664D6749E4
:102D5000281C01F0E9F96A49281C01F0E5F9281C52
:102D60000B9901F0F1F9237C002B02D02078FFF7BA
:102D700091FF2178381C251CFFF7AEFE1135E06865
:102D800001F018FD00219022281C02F095F8231C68
:102D90000026A2331E8001F007FD371C009001F0D1
:102DA00003FD009BC01A0C9B984200D383E020785F
:102DB000FFF79EFE00280FD08E2F0DD87B1C9BB2F4
:102DC00020780393FFF7A4FEE619231C7074A23346
:102DD0001A88039F01321A80231CA2331E88201CEC
:102DE000291C321C029BFFF72DFE00280ED03E4C02
:102DF0003E49201C01F098F94249201C01F094F949
:102E0000201C029901F0A0F901206BE0019B002B2E
:102E100015D0201C291C321CFFF714FE00280ED0F0
:102E2000314C3249201C01F07FF93649201C01F059
:102E30007BF9201C019901F087F9022052E00A9BDE
:102E4000002B15D0201C291C321CFFF7FBFD00288D
:102E50000ED0254C2549201C01F066F92949201C7B
:102E600001F062F9201C0A9901F06EF9032039E0A3
:102E70000B9B002B15D0201C291C321CFFF7E2FDF8
:102E800000280ED0184C1949201C01F04DF91D499D
:102E9000201C01F049F9201C0B9901F055F9042080
:102EA00020E001F081FC009B984200D377E701F01D
:102EB0007BFC009073E70C4C0C4E201C311C01F085
:102EC00033F91149201C01F02FF9311C201C01F0AD
:102ED0002BF90E49201C01F027F9201C291C01F0B8
:102EE00033F9002005B0F0BD7C08002071600000BF
:102EF00080600000856000008B6000009160000031
:102F000097600000796000009D600000A8600000EC
:102F10001FB5002400940194069C0294FFF7D4FE90
:102F200004B010BD1FB5069C009400240194079CBA
:102F30000294FFF7C9FE04B010BDF8B5037C041C71
:102F40000E1C171C002B02D00078FFF7A3FE351CC7
:102F5000AB1B9BB2BB4205D228782178FFF7AAFDB4
:102F60000135F5E7E06801F025FCF8BD08B5024839
:102F700001F04EFB08BDC046DC06002008B5024843
:102F800001F046FB08BDC046A0070020F7B5164F6C
:102F90001649381C01F08AF91549164801F086F9DE
:102FA0001549164801F082F91549164801F07EF9D5
:102FB0001549164801F07AF9154D03260124281CFD
:102FC000144901F073F9391C0096231C0194002266
:102FD000114801F0F9FA0096291C01941F221E23C2
:102FE0000E4801F0F1FAF7BD680800200008004221
:102FF000000C00426C080020001000427008002005
:1030000000140042640800200018004274080020E8
:1030100078080020001C0042DC060020A0070020E9
:103020003F20704713B502686B46D9710733546867
:10303000191C0122A04716BD08B50069022100F045
:1030400033FC08BD08B50069032100F043FC08BD4E
:1030500038B50D1C041C131C006903212A1C00F048
:1030600035FD002801D10123636038BD10B5054C42
:1030700023685A1C04D10368DB6898472060031C4E
:10308000181C10BD54000020074A08B51368591CCD
:1030900004D0012149421160181C03E0006902219B
:1030A00000F006FD08BDC0465400002008B50378B6
:1030B0000349023303704222024800F0BDFD08BDFF
:1030C00010000020470D002010B50178031C427845
:1030D0000020A12908D1212A2FD1184818490722F8
:1030E00000F0AAFD012028E0212926D1202A05D1BF
:1030F00013490722114800F033FC04E0222A10D1C2
:103100009A780F4BDA710E4B96221968D2009142D1
:1031100010D1DC7901231C400CD1FA2001F01EF8FB
:103120000AE0232A09D1DA789B7812021A43054B68
:103130001A6002E001F018F8002010BD470D0020D1
:10314000040000200C00002070477047064BFA2155
:1031500089009960054900220831196004495A60C4
:1031600019611A767047C0467C0800200865000087
:10317000470D002070B5C2B219495301CB189E68A3
:10318000184DC0242E40A40526439E60164E800193
:1031900009683018083258605201505C0726B04365
:1031A0000126304350549E6935402C439C610F4C9E
:1031B0005C61505C7024A0431024204350549C68F0
:1031C0000B488A1820408024640320439860986844
:1031D0004021800B8003986053790B43537170BD7D
:1031E000500D0020FFFFFF8F680B0020A409002076
:1031F000FF3F00F038B5041C08CC01211A78051CEB
:103200000A431A708022201C0021520001F054FE53
:103210002B689A78D107FCD45C6238BD134BF0B5AB
:103220001B6899035A029B01C90ED20E5B0F1F291E
:1032300000D105211F2A00D11D22072B00D1032315
:1032400004688E01278D0A491F25394031432185A5
:1032500001682A400C8DAC4322430A850268190399
:10326000108D044B03400B431385F0BD2460800098
:103270003FF8FFFFFF8FFFFFEFF310830360012391
:10328000436072B670470368002B02D162B6BFF389
:103290006F8F704737B50569041C6846002D12D141
:1032A000FFF7EAFF019B013B03D3621DD57FEDB21F
:1032B000F9E768460193FFF7E6FF0020854217D043
:1032C000206AE36913E0FFF7D7FF019B0025013B6C
:1032D00004D3221C34321578EDB2F8E76846019326
:1032E000FFF7D1FF0020854202D0206BE36AC01AAD
:1032F0003EBD0000436810B51A68037A01215B01E6
:10330000D318FF339A7A0A439A72037A42685B01B0
:10331000D318C2689C6891040B4A090922400A43E9
:103320009A60037A42685B01D3189A684021920B35
:1033300092039A6043681A68037A08335B01D318D2
:103340001A790A431A7110BDFF3F00F0F7B50569FD
:10335000041C0E1C171C6846002D1FD1FFF78CFFA4
:10336000019B013B5A1C06D0621DD17F5A1E0029C9
:103370003AD0131CF6E768460193FFF784FF002557
:10338000E369BD4235D0226A934232D25A1CE261CF
:10339000A269D3181B7873550135F1E7FFF76CFF6D
:1033A000019B013B5A1C08D0221C343215785A1E4E
:1033B000EDB2002D18D0131CF4E768460193FFF717
:1033C00062FF0025E36ABD4226D0226B934241D3BF
:1033D00022E0621D0021D17730321678581E8E42CD
:1033E00014D1031C5A1CF4D168460193FFF74BFF1C
:1033F00038E0226A934235D10023E361012323613F
:103400006846FFF739FF019B013BEBE71170201C79
:103410000193FFF76FFFF6E7226B934222D100235F
:10342000E36223616846FFF727FF019B013B5A1CBB
:10343000DAD0221C34320021117001321678581E65
:103440008E4201D1031CF2E71170201C0193FFF79B
:1034500051FFEAE75A1CE262A26AD3181B7873553F
:103460000135AFE7281CFEBD37B54368027A1B68FB
:10347000083252019A18041CD0790123FF21184206
:1034800053D0D371A068656962680140002D20D1D6
:1034900049015218916863618904890C2162A16A0B
:1034A00068465160621DD377FFF7E6FE019B013B42
:1034B0005A1C33D0221C34321178581EC9B2013242
:1034C000002903D001930123137023E01170031C22
:1034D000EEE74B01D3189A68A5699204920C226317
:1034E0000022626168465D60FFF7C6FE019B013BFA
:1034F00001E011702B1C591C10D0221C3432012009
:103500001070621DD17F5D1EC9B230320029F0D02B
:10351000019310706846FFF7B6FE06E06846019317
:10352000FFF7B1FE201CFFF7E5FE37BD37B50023DE
:103530006C46E3710734201C0D1CFFF7B7FD2B68A8
:103540001818286001F004FC211C01F0BBFB2B685B
:103550001818286020783EBD03290BD10D4BB222EC
:103560001B685200985C8021494201439954022112
:1035700068220CE001290CD1064B92221B685200F4
:10358000985C802149420143995402212822FF324C
:1035900099547047500D002038B5304B002401215C
:1035A000051C1A201C7001F0A1FA1A20012101F05B
:1035B000F7FA2B4B192001211C7001F097FA192002
:1035C000012101F0EDFA274B2021DA6901200A439D
:1035D000DA61254B06241A7802431A70234B0F2216
:1035E00019789143197019782143197020490C7882
:1035F0002043087019780A401A701A7860210A432B
:103600001A701C4B1C4A5A805A78D209FCD11B48AC
:1036100001F0C4F81A4C201CFFF7ECFD201CFFF74A
:10362000FDFD23687F2219780A401A701A78042158
:103630000A431A701A890C218A431A81C121114A3E
:10364000890050580002000A5050802111601A78F9
:1036500002210A431A7001232B7038BD640B00202D
:103660004C0D002000040040584400413C440041FF
:1036700059440041000C004006400000C5400000D5
:10368000500D002000E100E00078002810D0094B28
:1036900001211B681A898A431A811A8B08210A435F
:1036A0001A831A8B04210A431A83034B00221A60DF
:1036B0007047C046500D0020540E00200F4B9A69F1
:1036C000920B92039A611B680222FF331A72987957
:1036D0008022524202439A711A7A9007FCD5084B15
:1036E000081C997A7F221040914301439972997A7C
:1036F000802252420A439A727047C046500D002001
:10370000005000410078002805D0034B01211B68C0
:103710001A890A431A817047500D002010B50B79A1
:103720000C1C002B0BD1081CFFF7CEFC002804D189
:10373000094B9A69920B92039A6101200BE001F008
:1037400007FB211C01F0F2FA0028F6D1024B9A691E
:10375000920B92039A6110BD500D0020F8B50D1C1C
:10376000832A16D1CAB242495301CB189C694148F9
:10377000AD012040C024A405204398613E48083292
:1037800045195D610B685201D15C70208143402076
:1037900065E0022A45D1382001F04AF8374B344F12
:1037A0008026036076000023421D036203614361AB
:1037B000C36147608560C660D3772F32041CC36243
:1037C00003631370301C537001F054FBA061301C74
:1037D00001F050FBFF232A1C1A405201A062BF18BF
:1037E000B968244A07260A40C02189050A43BA60FD
:1037F000A16862681940126808314901885CAD000F
:10380000B043032630438854A16862680B405B01D3
:10381000A169D3185960201CFFF76CFD184BEC50C0
:1038200025E0822A1ED1CAB211495301CB189C69E6
:103830001048AD012040C024A405204398610E48E3
:10384000083245195D610B68520199180C79802086
:10385000404220430871D15C7020814330200143F5
:10386000D15404E0002A02D1081CFFF783FCF8BD04
:10387000500D0020FFFFFF8FA409002038650000D5
:10388000280D002038B5051C0124064BA200D25893
:10389000002A06D0211C281C0134FFF75FFFE4B288
:1038A000F3E738BD5800002008B5084B8A00D0580F
:1038B000002803D003689B68984706E0C9B2044B10
:1038C0004901591888688004800C08BD280D002023
:1038D000500D002010B50C1CFFF7E6FF00280CD09F
:1038E000064BE1B21B680831490159184A79802317
:1038F0005B4213434B710223CB7110BD500D00206E
:1039000070B5CAB2134B14485401890159180319F0
:1039100059609D681149083229408025AD0229432C
:10392000996099684026890B890399600368510161
:1039300059180D7935430D715101591889794D0682
:10394000FAD551015918C979CD07FAD50419A068DB
:10395000C0B270BD680B0020500D0020FF3F00F08A
:1039600038B50C4B141C1B680D1CFF335A794021D1
:103970000A435A710021FFF7C3FFA04200D9201C5F
:103980000023A34204D0044A9A5CEA540133F8E7C6
:1039900038BDC046500D0020680B002010B5C9B2DC
:1039A0000C48490143189A689204920C3F2A08D99E
:1039B000141C9A68403CA404920BA40C920322436A
:1039C00002E09A68920B92039A6041188868C0B22C
:1039D00010BDC046500D0020F0B51C1C2F4B85B00B
:1039E0001B68061C0D1C0292002B51D02C4F3978FD
:1039F000C9B2002902D1192001F0D2F864233B702A
:103A0000284BAA00D058002805D0036802995B68AB
:103A1000221C984740E0301C291CFFF745FFA042BC
:103A200004D2301C291CFFF73FFF041C291C301C4A
:103A3000FFF7B4FF1C4FE9B24A01019139680392C4
:103A40008B18FF335A7A01210A4318495A72AB0185
:103A5000C9180298221C01F026FA002C1BD0301C39
:103A6000291CFFF721FF002815D1019B3A68083374
:103A70005B01D31819794020014319710121D971D3
:103A800003995318FF339A7A01210A439A7202E08C
:103A90000120404200E0201C05B0F0BD540E002083
:103AA0004C0D0020280D0020500D0020680B002038
:103AB00013B56C460734221C0123FFF78DFF012844
:103AC00001D1207801E00120404216BDF0B51C1C58
:103AD0003F4B85B01B680E1C0292002B6AD08023DE
:103AE000DB019C4266D83B4D2978C9B2002902D13E
:103AF0001A2001F055F8642300222B700092002C4C
:103B000056D0354DF7B22B6801933B1C0833019A10
:103B10005B01D3189B79DB091AD0304B3049186808
:103B200001F032F92F4B1721584301F02DF93B1CBE
:103B30000833019A5B01D318DB799A0708D42A4B22
:103B40009A5D002A38D1421E002835D0101CEEE7BD
:103B5000254B00229A55251E3F2D00D93F25234A8B
:103B6000B301D318181C02992A1C039301F09BF986
:103B7000194A7B01D318039AA9045A619A69890CDE
:103B8000920B92030A439A613B1C019A08335B0132
:103B9000D3180222DA715979802252420A435A71AB
:103BA000009B029A5B1952190093641B0292A6E7CC
:103BB00000980BE0012008E001229A557B01ED18E6
:103BC000AB69101C9B0B9B03AB61404205B0F0BD81
:103BD000540E0020640B0020500D002084000020B3
:103BE00040420F00701101009C090020A409002030
:103BF00070B50E4D1C1C8B01ED18281C0E1C111CE1
:103C0000221C01F050F9F6B20949760189194D617B
:103C10008A69084B201C13408B618B69A2049B0BA3
:103C2000920C9B0313438B6170BDC046A409002016
:103C3000500D0020FF3F00F0F7B5114B01901B78AD
:103C40000F1C141C002B19D10E4B1E78002E01D115
:103C5000151C08E00C4D0D482E888019361901F00E
:103C600022F92E800AE0002D08D0BA192B1C0198E9
:103C70000021FFF7BDFF36182D1AF4E7201CFEBD0A
:103C8000460D0020440D00209A09002099080020CC
:103C9000F8B50E1C00AF151E012D28D9D31DDB0869
:103CA000DB006A46D21A9546081C01F0E5F901309E
:103CB0006C4640000323207063700222AA420ED299
:103CC0003378002B0BD0511CC9B20136A354A94242
:103CD00004D0002302326354D2B2EFE72A1C054815
:103CE000211CFFF7A9FF431E9841C0B200E000204D
:103CF000BD46F8BD470D002008B5044B00221A70E0
:103D0000034B04491A88FFF797FF08BD440D0020B4
:103D10009A09002099080020F0B5204A87B00123B5
:103D20000026009102A91370051C0296FFF7FEFB06
:103D300003AC092701903A1C201C311C01F0BCF88F
:103D400002236370A023E371FA232372029B0122F2
:103D5000DB196380019B62712371104A009B2770FD
:103D60001670BB4205D1281C211C1A1CFFF764FFEA
:103D700011E00B4B01221A700A4B211C3A1C281C23
:103D80001E800296FFF758FF281C02A9FFF7CEFB02
:103D9000281CFFF7B1FF012007B0F0BD460D002041
:103DA000440D00209A09002070B5CE788AB0051C19
:103DB0000C1C022E08D1C9882348FFF7ADFF031C55
:103DC000581E8341D8B23DE000F0C2FF211C00F034
:103DD0008EFF002803D0C3171B1AD80F32E0012E24
:103DE00004D1E2881949112A27D823E0032E29D1CA
:103DF000A278002A05D11649E2880B78934219D897
:103E00001BE0022A03D1A279281C124904E0012AEE
:103E100005D1A2791049281CFFF73AFF12E0032AC6
:103E200010D100F095FF01A900F071FFA279281CC4
:103E300001A9F1E7D2B2002A00D10A78281CFFF7C5
:103E4000FBFE01200AB070BD470D00205665000042
:103E500052650000686500004865000073B5051CE8
:103E600048780C1C0B2878D800F084FF081C7728B1
:103E7000773E4306474B686F00206FE0097801AA40
:103E8000002903D111705170281C09E00023137020
:103E90005370334B1B78012B00D11370281C002169
:103EA00002234FE08A780023012A04D101AA13706B
:103EB00053702C4BEEE72A4A137049E08E78012E9E
:103EC00007D1284B01AA00211E701170281C331C39
:103ED00038E0002E08D1224A01231370224A91694A
:103EE000890B8903916138E0A178281CFFF7E6FB74
:103EF00033E0281CFFF758FF30E0281C00211B4A44
:103F00001FE00A780020D30628D1281CFFF7BAFC4E
:103F1000A2781549154B02241A600A682A23FF3338
:103F2000D05C2043D0544A20FF30145C01231C4352
:103F300014548A69920B92038A610EE00C4A281C81
:103F400000210123FFF754FE07E08A78084B1A602E
:103F5000054B9A69920B92039A61012076BDC04687
:103F600098080020450D0020500D0020540E002020
:103F7000480D0020F8B54B4B071C1C78002C00D0D6
:103F80008EE0494D2868838B19070DD5201CFFF75B
:103F9000F1F82B6810201A1CFF32917A01439172BC
:103FA000424A146008229A832B689A8B50071FD5C7
:103FB00004229A833E4B1A78002A0AD01A78013AD2
:103FC000D2B21A701B78002B03D11A20012100F005
:103FD000E7FD384B1A78002A0AD01A78013AD2B293
:103FE0001A701B78002B03D11920012100F0D8FD95
:103FF0002B68FF331A7AD10626D510221A725A7905
:1040000040210A432C495A710A786023381C1A420D
:1040100002D1FFF723FF01E0FFF780FB002806D065
:104020002B688022FF33997952420A4301E0234BE7
:1040300020229A712B68FF331A7A500604D5402249
:104040001A72597A0A435A722968FE230E8C002488
:104050001E40E1B2002E23D0321C012322411A421D
:1040600016D0221C2868083252018218D0791842D2
:1040700003D1D279DA401A4207D0114BA200D058AE
:10408000002809D003681B6898470123A3409E437A
:104090000134092CDDD103E0381CFFF75DFAF4E7A9
:1040A000F8BDC046440D0020500D0020540E0020E5
:1040B000640B00204C0D0020680B0020FF500041D5
:1040C000280D002008B50248FFF754FF08BDC04680
:1040D000470D0020014A024B1A6070470050004112
:1040E000500D0020F7B58A18061C0D1C01920C1CFF
:1040F000019B671B9C4207D0336821781B68301CEA
:10410000984701340028F3D1381CFEBD38B5051C92
:104110000C1C081E07D000F0AFFF2B68021C5B6868
:10412000281C211C984738BD08B5FFF7EFFF08BDD4
:1041300008B5FFF7EBFF08BD08B50249FFF7E6FF3A
:1041400008BDC046C557000038B5041CFFF7DEFFA8
:10415000051C201CFFF7F0FF281838BD014B186024
:104160007047C04680000020024B012252421A6074
:104170007047C04680000020154A1368581C25D09F
:10418000013B1360002B21D172B6124A124B04324C
:104190009A4207D8BFF34F8F104A114BDA60BFF332
:1041A0004F8F11E00F4B197DC807FBD5188B2021CD
:1041B000FF319208520001431983DA610A4A1A80DA
:1041C0001A7DD107FCD5E5E7C046FDE77047C0463C
:1041D0008000002000200000030200000400FA0517
:1041E00000ED00E00040004102A5FFFF10B50021F6
:1041F000041CA42200F060FE221CA4320023201C18
:104200001360536010BDF8B5051CA4352E68041C5E
:104210000F1C701CA42100F0FBFD231CA8331B689D
:10422000994201D0A7552960F8BD021C0023A43291
:10423000A83013600360704738B5021C041CA83412
:10424000A43223681268934207D0C55CA421581C8D
:1042500000F0DEFD281C216001E00120404238BD55
:10426000031CA433A8301A680368D01A00D5A43000
:104270007047031C021CA833A4321B6812689342C7
:1042800001D0C05C01E0012040427047031CA43310
:1042900010B5041C1868A421013000F0B9FDA83441
:1042A0002368C81A43425841C0B210BD016070472C
:1042B000F7B508AC267804689D1E27686C1EA541DA
:1042C000ECB2920705683A4327063A432A6002682F
:1042D000072529405068B501002C00D05C03294314
:1042E00001430C435460F7BD30B50368C0251C681A
:1042F000AD0312052A402243C024A4020904214030
:104300001143196003685A6814435C6030BD036848
:1043100001211A680A431A600268116801231942D0
:10432000FBD1D1691942F8D17047036802211A689C
:104330000A431A600268D3699907FCD4704703687E
:104340001A7ED10702D41A7E9107FCD57047036804
:1043500000225A8370470368187E4007C00F7047D9
:104360000368187EC009704703688022197E524294
:104370000A431A7670470368188DC0B27047036805
:104380001A7E01200242FBD0198570470368802203
:1043900019685968D2020A435A6070470368034A91
:1043A000196859680A405A607047C046FFFFFBFF12
:1043B00030B5036803241D680C40074A596824047B
:1043C0000A40ED0622436D0F5A60052D03D10268A5
:1043D000D3695907FCD430BDFFFFFCFF03682833C5
:1043E0001970036800201A7E510703D55B8B0120EA
:1043F0009B089843704703681868C006400F04384C
:1044000043425841C0B270470368187E4007C00F4E
:1044100070470368187E0123184070470368588B63
:10442000C006C00F70470368187E8007C00F704732
:104430000368588B0007C00F704703681A68D206DC
:10444000520F052A02D11A7E9107FCD5283318781D
:10445000C0B270470368224A30B5934211D0214A56
:10446000934211D0204A934211D0204A934211D056
:104470001F4A934211D01F4A934230D10E23192272
:104480000DE0092314220AE00A23152207E00B237A
:10449000162204E00C23172201E00D231822DCB2BF
:1044A000154901209B08A0409B0008605B18032071
:1044B000C021890004405D58E000FF248440A543EA
:1044C0002C1CC0258540281C204358508023DB012C
:1044D0001A430A4B5A805A7852B2002AFBDB30BD8D
:1044E00000080042000C004200100042001400428C
:1044F00000180042001C004200E100E0000C0040F7
:10450000F8B5041C151C0E1C1F1CFFF7A3FF201C74
:10451000FFF7FDFEB1001C220A4069072368090C61
:104520000A431A60226884239375012E1AD1082148
:10453000012D00D110210C4B79431868C00000F008
:1045400023FC236807219A890140D2044903D20C35
:104550000A439A8123680004C20C9889400B4003E7
:1045600010439881F8BDC0468400002001207047A8
:1045700008B50368014ADB69984708BD13040000C9
:1045800010B5041C0069FFF7C2FE201C1430FFF7B1
:104590004CFE10BD08B50069FFF7D1FE08BD08B597
:1045A0001430FFF75DFE08BD08B51430FFF761FE5B
:1045B00008BD08B51430FFF73FFE08BD08B5006917
:1045C000FFF7DDFE012008BDF7B51D1C08AB1B7809
:1045D000041C009309AB1B78161C01930023436055
:1045E000FA239B008360094B0F1C083303601430CF
:1045F000FFF7FCFD009A231CC03327619A70019AD3
:104600001E705D70201CDA70FEBDC046886500001B
:1046100010B5041C0069FFF79EFE002807D0206932
:10462000FFF7A9FE011C201C1430FFF7ECFD2069E8
:10463000FFF796FE002805D02069FFF795FE206958
:10464000FFF785FE10BDF023081C184030384342A8
:1046500058417047F0231B01194080239B00994269
:104660000CD0C0239B00994206D080235B0005201C
:10467000994204D0002002E0072000E006207047A5
:104680000F231940012905D002394B424B4102202A
:10469000C01A00E000207047F0B5031C85B00391FC
:1046A000C033041C182718783B1C43431B4E0821B9
:1046B000F3185956151C00F0A3FA231CC1331878BF
:1046C00008214743F619715600F09AFA01210A1C95
:1046D000039B2069FFF714FF291C201CFFF7BAFF7A
:1046E000291C071C201CFFF7CBFF291C061C201CC3
:1046F000FFF7A9FF391C0090331C20690122FFF746
:10470000D7FD231CC3331978013B1A782069FFF7C2
:10471000EBFD2069FFF709FE05B0F0BDB4600000B5
:10472000FEE7000008B5034B1B68002B00D098473C
:1047300008BDC046580E002038B50F490F4CA142A5
:1047400004D100F079F800F053F80BE00C4D8D42E5
:10475000F7D00023CA18E818A24204D20068043334
:104760001060F7E7FEE79042EBD0064B064A934213
:10477000E7D2002204C3F9E7000000201001002066
:10478000F4650000100100207C0E002008B500F048
:104790002CF8002801D100F01DF808BD014B18606D
:1047A0007047C046580E0020014B18687047C0463D
:1047B0005C0E002070B5041E08D0054B1D681E1C41
:1047C00000F012F833685B1BA342F9D370BDC046FA
:1047D0005C0E002008B5034B1A6801321A60FFF71F
:1047E000CBFC08BD5C0E002070470020704770476E
:1047F00010B500F0D5F800F017FBFFF7F8FF012027
:10480000FFF7D8FF084C201CFEF7C6FE201CFEF761
:104810003BFFFDF7E1FCFDF7C3FC044B002BFAD096
:1048200000E000BFF7E7C046470D00200000000091
:1048300008B500F01FFB08BD70B5494A1E2153683A
:1048400002208B430343474953608B690824234369
:104850008B61454C454B9C829C8A20439882101C5E
:10486000DA689407FCD5424A012414701478E507ED
:1048700004D53F4C647864B2002CF7DB01249460CB
:10488000547864B2002CFBDB3A4D394C65605478A7
:1048900064B2002CFBDB8225354CED016580547839
:1048A00064B2002CFBDB02249C84DC68E606FCD5A9
:1048B000314D2E4CE562DD682C4CEE06FBD5A58C07
:1048C0002E4E3543A584DD68284CEE06FBD5A58C1D
:1048D00002263543A584DC682506FCD5234CE46814
:1048E0006606F8D5DC68E506FCD5002494605478AB
:1048F00064B2002CFBDB224D1D4C656055781C4CCE
:104900006DB2002DFADB1E6A1E4D35401D621D6A18
:104910008026B5431D620323A3601B4B636053785D
:104920005BB2002BFBDB00230B72184A4B728B72BD
:10493000CB72174BFF211A60164B174A1B6812687F
:104940005C01D20E214011439A06520F12020B1C39
:104950001343124A1385436880221343436070BD9A
:1049600000400041000400400C0600000008004028
:10497000000C004001050100B805FF7D040A00009D
:1049800000070300FFFCFFFF03060100006CDC02D0
:1049900084000020246080002060800000400042ED
:1049A000314BFA21186810B5890000F0EDF92F4B52
:1049B0000138984224D82E4A2E4B5060186AC021E4
:1049C0000002000A090601431962002407219460CD
:1049D0001160196A80220902090A12060A431A6242
:1049E000254BFC211A6A0A431A62196AFC229201B9
:1049F0000A431A62196AA022D2020A431A6200E02C
:104A0000FEE7201C0021013400F070F8142CF8D1CE
:104A10001A4C63785BB2002BFADB194B6380194B9D
:104A20005A7ED209012AFAD0E422D2009A803F228B
:104A3000DA70597E134AC9090129FAD0C0235B01F3
:104A400000201361907000F023F863785BB2002BB4
:104A5000FBDB0D4A094B5A800C4BDA79D209012A4B
:104A6000FAD041225A7010BD84000020FFFFFF00E1
:104A700010E000E000ED00E000040040000C004009
:104A80001E4000000040004221400000004800425B
:104A900000B5144A517E131CC9090129F9D0013807
:104AA000042813D81969104A0A401A615A780F214C
:104AB0008A4300F05FF9030509070300012102E0C2
:104AC000032100E002210A435A700AE01169F02331
:104AD0001B050B43136153780F218B4302210B43BA
:104AE000537000BD00400042FFFFFFF010B51824D6
:104AF000021C201C5043274B1818007A40B201308A
:104B000046D0032944D8081C211C00F033F9023395
:104B10001121624398569A18C3011F4852681B1806
:104B200099184031022008700121914059602FE00E
:104B30006243985618499A185268C3015B1899182D
:104B400040310620087001219140596099611FE0B1
:104B500051435A56104859184B68D2011118C818B9
:104B60004030062404700120984048600B495218D8
:104B700050600DE0624398569A18C3010648526887
:104B80001B1899184031022008700121914099604A
:104B900010BDC046B4600000004400411044004114
:104BA00018235843134AF0B5131808241C5701342E
:104BB0001FD08256104ED2015D6801249019231C2B
:104BC0008668AB401E420BD10E1C771EBE414019B9
:104BD00034404030A50004780426B4432C430470CC
:104BE000002903D105495218536002E0024E921980
:104BF0009361F0BDB46000000044004110440041E6
:104C000018224243F8B52D4D0824AA181457031C46
:104C1000621C50D0481C00240C284CD800F0AAF884
:104C2000071E1E1E1E1E1E1E1E0A0A0A0A00012440
:104C3000644240E0092902D1181C002103E00A293E
:104C400004D1181C0221FFF751FF23E000240B2997
:104C500031D1181C0121FFF749FF2CE018225343E2
:104C6000EA185268EB560120141C04405508DB0179
:104C7000002C11D0124C1B195D1930352E780C0107
:104C80000F21314021439A18C9B22970403213785C
:104C90001843107000240EE0094E0F279B195D1970
:104CA00030352E789A18BE433143C9B2297040324C
:104CB000137818431070201CF8BDC046B460000083
:104CC0000044004170B544680E1C0025002C09D03A
:104CD0002368201C5B68311C9847002804DB2D18D2
:104CE000E468F3E7281C01E00120404270BD38B5BC
:104CF00044680D1C002C08D02368201C9B68291CCC
:104D00009847002802D1E468F4E7201C38BD38B584
:104D100044680D1C002C07D02368201C291CDB686C
:104D20009847E4682D18F5E72C7038BD38B544680D
:104D30000D1C002C08D02368201C1B68291C9847D8
:104D4000002803D1E468F4E7201C00E0012038BD0E
:104D5000064B0122196810B51140054805D10224FF
:104D600004700424447041601A6010BD680E002075
:104D7000600E002002B4714649084900095C4900F0
:104D80008E4402BC7047C046002934D00123002263
:104D900010B488422CD301242407A14204D28142BA
:104DA00002D209011B01F8E7E400A14204D28142CA
:104DB00002D249005B00F8E7884201D3401A1A4347
:104DC0004C08A04202D3001B5C0822438C08A0427E
:104DD00002D3001B9C082243CC08A04202D3001B34
:104DE000DC082243002803D01B0901D00909E3E7AE
:104DF000101C10BC7047002801D00020C04307B42D
:104E0000024802A14018029003BDC04619000000EC
:104E10000029F0D003B5FFF7B9FF0EBC4243891A51
:104E20001847C0467047C04670B50E4B0E4D002463
:104E3000ED1AAD101E1CAC4204D0A300F3589847E5
:104E40000134F8E700F068FC084B094D0024ED1A26
:104E5000AD101E1CAC4204D0A300F3589847013497
:104E6000F8E770BDEC000020EC000020EC00002012
:104E70000801002008B5034B011C186800F06CF80D
:104E800008BDC046E800002030B50023934208D09A
:104E9000C55C0133CC18013C2478A542F6D0281B10
:104EA00000E0002030BD10B50023934203D0CC5C5D
:104EB000C4540133F9E710BD031C8218934202D099
:104EC00019700133FAE7704730B5002940D0043932
:104ED0000B68002B00DAC9181E4A1368141C002B3B
:104EE00002D14B60116033E099420FD208680A1872
:104EF0009A4205D113685268C01808604A6000E001
:104F00004B60216024E08A4203D8131C5A68002AAF
:104F1000F9D11D685C198C420BD1096869185818C1
:104F20001960904214D114685268091919605A60C6
:104F30000EE08C4202D90C23036009E008680C18CB
:104F4000944203D114685268001908604A6059609D
:104F500030BDC046700E002070B50323CD1C9D43AC
:104F60000835061C0C2D01D20C2501E0002D3FDB7D
:104F70008D423DD3204B1C681A1C211C002913D0E4
:104F80000868431B0DD40B2B02D90B60CC181EE014
:104F90008C4202D1636813601AE0486860600C1CA0
:104FA00016E00C1C4968E9E7144C2068002803D17E
:104FB000301C00F025F82060301C291C00F020F87F
:104FC000431C15D0C41C03239C4384420AD1256092
:104FD000201C0B300722231D9043C31A0BD05A42CA
:104FE000E25008E0211A301C00F00AF80130EED13E
:104FF0000C233360002070BD700E00206C0E00206A
:1050000038B5074C0023051C081C236000F06AFB20
:10501000431C03D12368002B00D02B6038BDC04651
:10502000780E00200EB400B59CB01DAB04CB8222DC
:1050300002A992008A810A4A02908A604A6101228A
:105040005242CA81074A086110681D9A019300F014
:105050007BF8029A002313701CB008BC03B01847F9
:10506000FFFFFF7FE8000020031C0A7801311A705F
:105070000133002AF9D170470023C25C0133002AB2
:10508000FBD1581E70470000F0B58D6885B0071C35
:105090000C1C03920193AB4245D390228B89D20022
:1050A00013423DD062690326564309692068F20F16
:1050B000401A96190290021C0198013212187610BB
:1050C000964200D2161C381C5A050FD5311CFFF72A
:1050D00043FF051E13D0029A2169FFF7E4FEA2895F
:1050E000184B134080221343A38111E0321C00F0BF
:1050F000C9FA051E0CD1381C2169FFF7E5FE0C2307
:105100003B60A389402213430120A381404217E062
:10511000029B2561ED1825606661019DF61AA66067
:105120000198A84200D2019D2A1C2068039900F032
:1051300090FAA2680020531BA36023685D192560C4
:1051400005B0F0BD7FFBFFFFF0B59FB00390059366
:105150008B890E1C171C19060FD53269002A0CD139
:105160004021FFF7F9FE30603061002803D1039938
:105170000C230B60C9E04023736106AD00236B6113
:1051800020236B763023AB763C1C2378002B03D195
:10519000E21B029211D003E0252BF9D00134F4E791
:1051A0000398311C3A1C029BFFF76EFF013000D1BF
:1051B000A6E06969029A8B186B612378002B00D1F5
:1051C0009EE0012252426A606A4600235B3201344B
:1051D0002B60EB60AB601370AB654E4F2178381CD1
:1051E000052200F02BFA002807D0C71B2B680120EE
:1051F000B840184328600134EFE72B68D90603D57F
:105200006A4620215B3211701A0703D56A462B21AA
:105210005B32117022782A2A01D0099B0EE0059A90
:10522000111D12680591002A01DB099204E0524227
:10523000EA60022213432B60013409E02278303AFD
:10524000092A04D80A214B4301349B18F6E7099335
:1052500023782E2B18D163782A2B09D1059B023491
:105260001A1D1B680592002B0DDA01235B420AE030
:10527000013400232278303A092A04D80A214B430A
:1052800001349B18F6E70793234F2178381C03223B
:1052900000F0D4F9002806D0C71B2B684020B84086
:1052A00018432860013421781C480622671C29769F
:1052B00000F0C4F9002812D0194B002B06D1059B31
:1052C0000722073393430833059314E005AB00939B
:1052D0000398291C321C134B00E000BF07E005AB0C
:1052E00000930398291C321C0E4B00F091F8049097
:1052F0000499013104D06A69049953186B6143E73A
:10530000B3895A0601D40B9801E0012040421FB036
:10531000F0BDC046BA650000C0650000C46500006D
:105320000000000089500000F7B5151C01930A69C0
:105330008B68061C0C1C934200DA131C221C2B6089
:1053400043321278002A01D001332B602068800696
:1053500002D52B6802332B60216806270F401FD02F
:10536000231C43331B785A1E9341226892061FD593
:10537000E11840313020C870211C5A1C4531097891
:10538000A21840320233D17012E0221C301C019965
:1053900019320123089FB847013011D0009F01370F
:1053A0000097E0682968009F431A9F42EDDBD7E72A
:1053B000221C301C01994332089FB847013002D1AA
:1053C0000120404223E0206806212B68E26801406A
:1053D0000025042903D1D51AEB43DB171D40A26831
:1053E00023699A4201DDD31AED1800270097009F28
:1053F000AF420BDA221C301C01991A320123089F9C
:10540000B8470130DCD0009F0137EFE70020FEBD38
:10541000F0B50D1C8BB043350692059007930495AB
:105420000B7E0C1C109A6E2B00D1A7E011D8632BB9
:1054300022D009D8002B00D1B0E0582B00D0C0E01A
:1054400045310B707B4D4EE0642B1CD0692B1AD07C
:10545000B7E0732B00D1A5E009D86F2B29D0702BB2
:1054600000D0AEE00E68202333430B6036E0752B8E
:105470001FD0782B32D0A4E013680D1C191D4235C3
:1054800011601B689FE0216813680E0603D5191D83
:1054900011601E6805E04806F9D5191D116000214C
:1054A0005E5E644B002E3BDA049D2D2276422A700C
:1054B00036E0216813680E0603D5191D11601E68B9
:1054C00004E04806F9D5191D1E881160594B227E4B
:1054D000039308276F2A1ED00A271CE0231C78217B
:1054E0004533554D197011682368081D03951060E8
:1054F0001E0601D50E6802E05806FBD50E88D907B6
:1055000002D52022134323601027002E03D12268E6
:1055100020239A432260231C002243331A7001E0A7
:1055200003930A276368A360002B03DB256804222A
:1055300095432560002E02D1049D002B0ED0049DC2
:10554000301C391CFFF764FC0398013D435C301CA0
:105550002B70391CFFF718FC061EF1D1082F09D15A
:105560002168C90706D5626823699A4202DC013DB9
:1055700030232B70049E731B23612AE00868136894
:105580004969050604D5181D10601B68196005E0FF
:105590004606F8D5181D10601B681980002323618A
:1055A000049D16E01368191D11601D68281CFFF783
:1055B00063FD63682061984200D9236120696060BF
:1055C00004E0251C42352B7001232361049E002337
:1055D0003370079E05980096211C09AA069BFFF7C9
:1055E000A3FE013002D10120404221E02A1C05988F
:1055F00006992369079DA8470130F4D02668B607AD
:1056000005D4099BE068984212DA181C10E00025C6
:10561000E0680999431A9D42F3DA221C059806991D
:1056200019320123079EB0470130DCD00135EFE786
:105630000BB0F0BDCB650000DC650000C9B282187C
:10564000904204D003788B4202D00130F8E700206A
:10565000704770B5814201D300230CE08C18A04242
:10566000FAD28518131C013B0BD351426618F65C25
:105670006918CE54F7E7934203D0CC5CC45401338D
:10568000F9E770BDF8B5061C0C1C151C002904D1E7
:10569000111CFFF761FC041C18E0002A03D1FFF77E
:1056A00013FC2C1C12E000F013F8A8420ED2301CA0
:1056B000291CFFF751FC071E07D0211C2A1CFFF7ED
:1056C000F2FB301C211CFFF7FFFB3C1C201CF8BD2B
:1056D00004390B68181F002B02DAC8581B18181F52
:1056E00070470000094A1368002B0CD0181869464F
:1056F000884202D81060181C7047054B0C2201200C
:105700001A604042F8E7034B1360EFE7740E002085
:10571000780E00207C0E0020F8B5C046F8BC08BC0E
:105720009E467047F8B5C046F8BC08BC9E46704718
:105730004C4F524157414E5F414E535745525F4F78
:105740004B0D0A004C4F524157414E5F414E53574B
:1057500045525F4552524F520D0A004C4F5241572D
:10576000414E5F4E4F5F414E535745520D0A004C1C
:105770004F524157414E5F494E49545F4552524F37
:10578000520D0A004C4F524157414E5F4C454E4717
:1057900054485F4552524F520D0A004C4F524157E8
:1057A000414E5F53454E44494E475F4552524F521A
:1057B0000D0A004C4F524157414E5F4E4F545F4AC5
:1057C0004F494E45440D0A004C4F524157414E5FE0
:1057D000494E5055545F4552524F520D0A004C4F9E
:1057E000524157414E5F56455253494F4E5F4552C5
:1057F000524F520D0A00312E20537769746368208E
:105800006F6E3A2000537461727420736C6565701A
:105810000000000000000000000000000000000088
:10582000A323000069230000992300008F230000B8
:10583000CB2300008D2300006D61632072657375BA
:105840006D650D0A006D6163207365742064657673
:10585000616464722025730D0A006D6163207365B5
:1058600074206465766575692025730D0A006D6185
:105870006320736574206170706575692025730DF0
:105880000A006D616320736574206E776B736B65BE
:10589000792025730D0A006D6163207365742061A2
:1058A0007070736B65792025730D0A006D6163203C
:1058B000736574206170706B65792025730D0A0023
:1058C0006D61632073657420707772696478202538
:1058D000750D0A006D616320736574206472202564
:1058E000750D0A006D616320736574206164722018
:1058F00025730D0A00726164696F207365742066F8
:105900006465762025750D0A00726164696F2073E5
:1059100065742070726C656E2025750D0A007261C9
:1059200064696F20736574206372632025730D0AA8
:1059300000726164696F207365742063722025733F
:105940000D0A00726164696F207365742077647456
:1059500020256C750D0A00726164696F207365748F
:105960002062772025750D0A00726164696F2067D7
:105970006574206D6F640D0A00726164696F206741
:10598000657420667265710D0A00726164696F202A
:10599000676574207077720D0A00726164696F2008
:1059A0006765742073660D0A006F6666006D61633B
:1059B0005F70617573656400726164696F5F6572C1
:1059C00072000D0A0034323934393637323435003A
:1059D0006D61635F65727200696E76616C69645FA8
:1059E000646174615F6C656E006B6579735F6E6F87
:1059F000745F696E6974006E6F745F6A6F696E655B
:105A0000640064656E696564006D6163207365742C
:105A1000206368206672657120257520256C750DE0
:105A20000A006D6163207365742063682064637984
:105A3000636C652025752025750D0A006D61632056
:105A400073657420636820647272616E67652025D7
:105A5000752025752025750D0A006D61632073651D
:105A60007420636820737461747573202575202514
:105A7000730D0A006D61632067657420646576614B
:105A80006464720D0A006D6163206765742064654B
:105A9000766575690D0A006D616320676574206124
:105AA00070706575690D0A006D616320676574200B
:105AB00064720D0A006D6163206765742062616E17
:105AC000640D0A006D6163206765742070777269E8
:105AD00064780D0A006F6B00726164696F206765FE
:105AE0007420727862770D0A00726164696F2067B2
:105AF000657420626974726174650D0A0072616474
:105B0000696F206765742063720D0A0072616469B1
:105B10006F20676574207764740D0A007261646990
:105B20006F206765742062770D0A00726164696F87
:105B30002067657420736E720D0A00726164696F6C
:105B400020676574206372630D0A00726164696F77
:105B5000206765742070726C656E0D0A007379732E
:105B600020676574207665720D0A006D616320738D
:105B7000657420726574782025750D0A00524E32C6
:105B800039303300696E76616C69645F706172618F
:105B90006D006D616320676574206164720D0A0099
:105BA0006D61632067657420646379636C657073ED
:105BB0000D0A006D616320676574206D72676E0D5C
:105BC0000A006D6163206765742067776E620D0A55
:105BD000006D616320676574207374617475730D63
:105BE0000A006D61632067657420636820667265D2
:105BF000712025750D0A006D61632067657420634F
:105C00006820646379636C652025750D0A006D61F9
:105C1000632067657420636820647272616E6765D3
:105C20002025750D0A006D61632067657420636827
:105C3000207374617475732025750D0A0072616498
:105C4000696F20727820300D0A006D6163206765EE
:105C50007420726574780D0A00726164696F206740
:105C6000657420666465760D0A006D616320736556
:105C70007420757063747220256C750D0A006D6157
:105C800063206765742075706374720D0A006D611E
:105C9000632073657420646E63747220256C750DC7
:105CA0000A006D61632067657420646E6374720D11
:105CB0000A006D6163206A6F696E206F7461610D07
:105CC0000A006D616320736574206C696E6B636894
:105CD0006B2025750D0A006D616320736574207259
:105CE000783220257520256C750D0A006D616320C2
:105CF00073657420727864656C6179312025750D47
:105D00000A000000DB5E0000DE5E0000EC5E0000CA
:105D1000F75E0000FE5E00000A5F0000115F0000F9
:105D2000D05E0000646000006E600000A9590000B1
:105D3000AD590000B8590000C2590000C559000013
:105D4000D0590000D8590000E9590000F759000067
:105D5000025A00007D5B0000845B0000D55A000001
:105D60007379732072657365740D0A0073797320FB
:105D7000666163746F727952455345540D0A00731E
:105D80007973206765742068776575690D0A0073FB
:105D9000797320676574207664640D0A006D616311
:105DA0002072657365742025730D0A006D61632090
:105DB000747820636E662025752025730D0A006DAA
:105DC000616320747820756E636E662025752025CA
:105DD000730D0A006D6163206A6F696E20616270E5
:105DE0000D0A006D616320736176650D0A006D61B7
:105DF000632070617573650D0A00726164696F20BC
:105E000074782025730D0A00726164696F206377CE
:105E1000206F6E0D0A00726164696F206377206FD6
:105E200066660D0A00726164696F20736574206D87
:105E30006F642025730D0A00726164696F207365B9
:105E400074206672657120256C750D0A007261649C
:105E5000696F20736574207077722025690D0A00C0
:105E6000726164696F207365742073662025730DF9
:105E70000A00726164696F207365742072786277BA
:105E80002025730D0A00726164696F2073657420A8
:105E9000727862772025732E25730D0A0072616473
:105EA000696F20736574206269747261746520255E
:105EB000750D0A006D61632072657365740D0A00CB
:105EC00073797320736C65657020256C750D0A00FD
:105ED000726164696F5F72782020006F6B00696E79
:105EE00076616C69645F706172616D006E6F5F6690
:105EF0007265655F6368006D61635F7278007261EF
:105F000064696F5F74785F6F6B00524E3234383360
:105F1000006163636570746564000000605D00008B
:105F20006C5D00007F5D00008F5D00009D5D0000E6
:105F3000AC5D0000BF5D0000D45D0000E35D0000CB
:105F4000EE5D000038580000455800005A58000027
:105F50006E5800008258000097580000AC580000AE
:105F6000C0580000D4580000E4580000095A00004E
:105F7000225A00003C5A00005A5A0000745A00008D
:105F8000865A0000975A0000A85A0000B55A00002F
:105F9000C45A0000925B0000A05B0000B35B0000ED
:105FA000C25B0000D15B0000E25B0000F75B000019
:105FB0000E5C0000265C00003D5C0000FA5D000005
:105FC000085E0000165E0000255E0000385E0000DE
:105FD0004D5E0000605E0000725E0000865E0000A4
:105FE0009D5E0000F5580000095900001E59000090
:105FF0003159000043590000575900006959000009
:10600000795900008A5900009A590000D85A0000B6
:10601000E95A0000FD5A00000C5B00001C5B000008
:106020002B5B00003B5B00004B5B00005D5B0000F6
:106030006B5B00004A5C0000595C00006A5C000079
:106040007E5C00008E5C0000A25C0000B25C000080
:10605000C25C0000D75C0000EC5C0000B45E000095
:10606000C05E00006D61635F74785F6F6B006F6E80
:10607000005B554152545D2000666F756E643A00B6
:10608000636D643A00616E73313A00616E73323A47
:1060900000616E73333A00616E73343A006E6F20A4
:1060A000616E737765720A005F6275666665723A43
:1060B00000000000000000000B00000002000000D3
:1060C00004000000FF00FFFFFFFF0B0000000000C6
:1060D0000A0000000200000004000000FF00FFFFB3
:1060E000FFFF0A00000000000E0000000800000092
:1060F00004000000FF00FFFFFFFF0E000000000093
:1061000009000000040000001C000000FF00010066
:106110000100090000000000080000000400000069
:106120001C000000FF000000000010000000000044
:106130000F000000040000001C000000FF0001032D
:1061400001030F0000000000140000000500000023
:106150002C000000FF00020002000400000000000C
:10616000150000000800000004000000FF00FFFF11
:10617000FFFF050000000000060000000400000012
:106180001C000000060000010001060000000000E5
:1061900007000000040000001C00000007000101CF
:1061A00001010700000000001200000004000000D0
:1061B0001C000000FF0000030003020000000000BC
:1061C00010000000040000001C000000FF0000029E
:1061D00000020000000000001300000005000000A5
:1061E0002C000000FF00030003000300000000007B
:1061F00011000000040000001C000000FF0001026C
:106200000102010000000000020000000100000087
:10621000020000000000FFFFFFFF0200010000007D
:106220000800000001000000180000000200000447
:106230000004080001000000090000000100000047
:106240001800000003000104010409000000000020
:106250000400000001000000000000000400FFFF37
:10626000FFFF040000000000050000000100000026
:10627000000000000500FFFFFFFF05000100000017
:106280000200000001000000000000000A00FFFF03
:10629000FFFF0200000000001600000002000000E6
:1062A00004000000FF00FFFFFFFF060000000000E9
:1062B000170000000200000004000000FF00FFFFC4
:1062C000FFFF0700000000000C00000003000000BA
:1062D00004000000FF00FFFFFFFF0C0001000000B2
:1062E0000A0000000300000004000000FF00FFFFA0
:1062F000FFFF0A00010000000B0000000300000087
:1063000004000000FF00FFFFFFFF0B000100000082
:10631000030000000B00000004000000FF00FFFF6E
:10632000FFFFFF00000000001B0000000B0000004A
:1063300004000000FF00FFFFFFFFFF00000000005F
:106340001C0000000600000000000000FF00FFFF2E
:10635000FFFFFF0000000000180000000600000022
:1063600000000000FF00FFFFFFFFFF000000000033
:10637000190000000600000000000000FF00FFFF01
:10638000FFFFFF00010000001600000003000000F6
:1063900000000000FF00FFFFFFFFFF000100000002
:1063A000170000000300000000000000FF00FFFFD6
:1063B000FFFFFF00000000001600000002000000C8
:1063C00000000000FF00FFFFFFFFFF0000000000D3
:1063D000170000000200000000000000FF00FFFFA7
:1063E000FFFFFF000000000013000000020000009B
:1063F00000000000FF00FFFFFFFFFF0000000000A3
:10640000100000000200000000000000FF00FFFF7D
:10641000FFFFFF000000000012000000020000006B
:1064200000000000FF00FFFFFFFFFF000000000072
:10643000110000000200000000000000FF00FFFF4C
:10644000FFFFFF00000000000D000000040000003E
:106450000C000000FF000100FFFF0D000000000025
:1064600015000000050000000C000000FF00030004
:10647000FFFFFF0000000000060000000400000015
:106480000C000000FF000001FFFFFF000000000003
:1064900007000000040000000C000000FF000101E4
:1064A000FFFFFF00000000000300000001000000EB
:1064B00002000000FF00FFFFFFFFFF0000000000E0
:1064C0000200000001000000020000001400FFFFB5
:1064D000FFFF0200000000000600000001000000B5
:1064E000020000000600000100010600000000009C
:1064F0000700000001000000020000000700010189
:106500000101070000000000000000000000000082
:106510002530000051300000393000008930000083
:106520006D30000045300000213000000000000008
:106530000000000000000000693400004D3300003E
:106540009532000000000000416461667275697454
:1065500000000403090412010002EF0201409A2323
:106560000B800001010203014665617468657220B9
:106570004D30006E616E00696E66006F7666002EAB
:10658000000000000000000000000000000000000B
:10659000BD450000E54000009F450000B3450000F8
:1065A000A94500009545000071450000994600008E
:1065B000814500006D4500004300232D302B200055
:1065C000686C4C00656667454647003031323334AD
:1065D000353637383941424344454600303132334D
:1065E000343536373839616263646566000000000F
:0465F00000000000A7
:1065F4000100000000C2010000000800FFFFFFFFCF
:10660400080B00020202000009040000010202005B
:1066140000052400100104240206052406000105D7
:10662400240101010705810310001009040100027F
:106634000A0000000705020240000007058302402B
:1066440000000000FFFFFFFF0000000083000000C7
:1066540002000000820000000000000000000000B2
:106664000000000000000000000000000000000026
:10667400FFFFFFFF40420F00000000000000000089
:106684000000000000000000000000000000000006
:106694000000000000000000B865000000000000D9
:1066A40000000000000000000000000000000000E6
:1066B40000000000000000000000000000000000D6
:1066C40000000000000000000000000000000000C6
:1066D400000000000000000088000020DD20000011
:1066E400C521000025250000152A00008D2F00007B
:1066F4004D310000D5400000B5200000000000002E
:040000030000473979
:00000001FF
