:1020000000800020857700006D7700006D7700006C
:1020100000000000000000000000000000000000C0
:102020000000000000000000000000006D770000CC
:1020300000000000000000006D770000D97700006C
:102040006D7700006D7700006D7700008D32000025
:102050006D7700006D7700006D77000071770000EC
:102060006D770000E15A00006D7700006D77000089
:10207000352B00006D770000F15A00006D770000ED
:102080006D7700006D7700006D7700006D770000C0
:10209000000000006D7700006D7700006D77000094
:1020A0006D7700006D7700006D7700006D770000A0
:1020B0000000000010B5064C2378002B07D1054B1B
:1020C000002B02D0044800E000BF0123237010BDA4
:1020D0006001002000000000DCE7000008B5084BAC
:1020E000002B03D00748084900E000BF07480368F9
:1020F000002B03D0064B002B00D0984708BDC046EC
:1021000000000000DCE70000640100205401002012
:10211000000000007047000038B50024201C022198
:10212000013405F009FD172CF8D12024201C0221D0
:10213000013405F001FD2A2CF8D11920022105F007
:10214000FBFC1A20022105F0F7FC0820012105F014
:10215000F3FC0820002105F049FD0920002105F0CD
:10216000EBFC0920012105F0E7FC0920012105F025
:102170003DFD0F20012105F0DFFC0F20002105F0BF
:1021800035FD1320002105F0D7FC314C9621201C91
:10219000890103F093FD0121082005F027FD2D485A
:1021A00005F02EFB0820002105F020FD2A49201C07
:1021B00004F084FD294D0021281C01F08FF9002234
:1021C000281C131C0A2101F0C9F81123281C142112
:1021D000022201F00FF9224801F00EFC214D2249A4
:1021E0002870201C04F058FD2B78201C002B01D0F7
:1021F0001E4900E01E4904F061FD1E4877220023BD
:102200000124427003220370C27003714371847110
:10221000C471047200F01CFD602801D1164B1C70C3
:10222000164C4421201C01F017FB002806D1144B4A
:102230000122201C13491A7001F018FB124B13489D
:10224000197801F029FD124B187001F081FC38BD9E
:1022500048090020102700000CD300009D01002039
:10226000DC010020A001002012D3000023D30000D5
:1022700026D30000A40100209E010020940100202C
:102280009C01002010C6FFFF000000207C030020FE
:102290009F01002084B030B587B001AC0A900B914B
:1022A0000C920AA8211C01220D9301F047FA002884
:1022B00004D10AA801F016FA012363E0201C0721CB
:1022C00001F0B2FAE279022382425BD12378222B19
:1022D00005D0282B03D00125102B52D100E000257A
:1022E0000AA801F063F9211C0AA801F0EAF9012209
:1022F00044210AA801F0B5F9FA20800005F080FA1F
:102300000AA801F053F9211C0AA801F0DAF90AA879
:10231000BE21002201F0A5F900240AA801F0BFF9AE
:1023200003ABE0540134092CF7D158781A78000235
:102330001043002D0CD0DA7900B2C000102A05D16C
:102340009B790C22D31A0F229043181880B20DE00B
:102350001A796023134001D1072306E0202B01D115
:10236000032302E0402B01D10123984300B206F081
:10237000B5FAF621890506F017F8054B1860002319
:1023800000E00323181C07B030BC08BC04B0184799
:10239000D801002000000000F0B5C54D8BB02C78AE
:1023A000012C25D0002C02D0022C3AD016E2C14BD1
:1023B000C14F1978381C01F06FFCC04E307001F02D
:1023C000C7FB0521381C01F081FC307001F0C0FB17
:1023D000211C381C01F070FE307001F0B9FBB849C7
:1023E000381C01F007FE307001F0B2FB01230EE053
:1023F000B14801F0BDFCB14E307001F0A9FB33785B
:10240000B048002B05D1B04904F058FC02232B70D2
:10241000E4E1AE4904F052FCAD4805F0F1F92C704E
:10242000DCE1AC4E00233370AB4B1B78002B44D067
:10243000AA4F381C01F004FBA24D0290A849281CA9
:1024400004F02AFC029808F0DBF80094021C0B1C34
:10245000281C04F03DFD381C01F03EFBA149071C7F
:10246000281C04F019FC381C08F0CAF80094021C5F
:102470000B1C281C04F02CFD029A04AC0492A178D9
:10248000227863780091984DE17807A80191291C82
:1024900008F074FE07A9301C08F092FE0497A1789A
:1024A000227863780091E17807A80191291C08F04F
:1024B00065FE301C07A908F083FE8C4B1A69009258
:1024C000186859689A68DB68FFF7E4FE7D4C814D17
:1024D00000281FD18649201C04F0DEFB854E3068A1
:1024E00008F08EF80B1C0221021C0091201C04F045
:1024F000EFFC366804A9049688780A784B78009037
:10250000C97807A80191784908F038FE281C07A966
:1025100008F056FE784B1B78002B27D005AE301CF8
:10252000764901F04DFA0623F356002B1ED174496B
:10253000201C04F0B1FB059808F062F80B1C022186
:10254000021C0091201C04F0C3FC059B04A9049309
:1025500088780A784B780090C97807A80191624979
:1025600008F00CFE281C07A908F02AFE654B1B7812
:10257000002B66D06449201C04F08EFB634D0226BC
:10258000281C00F0B5FD071C08F03AF80096021C64
:102590000B1C201C04F09CFC5D49201C04F07CFBFF
:1025A000281C00F055FD029008F02AF80096021C45
:1025B0000B1C201C04F08CFC5649201C04F06CFB06
:1025C000281C00F065FC0390281C00F061FC08F05A
:1025D00017F80096021C0B1C201C04F079FC04ACBC
:1025E0000497A1782278637800913F4FE17807A89B
:1025F0000191391C08F0C2FD364D07A9281C08F0CE
:10260000DFFD029A07A80492A178227863780091EE
:10261000E1780191391C08F0B1FD07A9281C08F0E8
:10262000CFFD039B07A80493A178227863780091DB
:10263000E1780191391C08F0A1FD281C07A908F0D8
:10264000BFFD354B1C4D1978224A281C01F0FAFBBE
:102650001A4F387001F07CFA1A4C3B78201C002B82
:102660001DD12E4904F02AFB2D4BEB5C002B66D0CC
:102670002C49201C04F022FB2B49201C04F00CFBED
:10268000EF239B00E95C0A22201C04F052FB27493F
:10269000201C04F001FB264A201CA9184DE0062B43
:1026A0004AD1244904F00AFB014B01221A7046E08A
:1026B0007C010020000000207C0300209F010020FE
:1026C0002AD30000480900202DD300003DD300008C
:1026D0001027000001000020A0010020DC010020E4
:1026E00050D300005BD3000065D3000080010020C0
:1026F00076D30000D80100209C0100209401002026
:1027000085D300009E0100208FD30000A40100208B
:102710009DD30000AAD3000008000020B9D3000018
:1027200022040000D2D30000E0D30000F0D3000068
:10273000BD03000000D400002B4904F0BFFA0121C2
:10274000082005F053FA9620400005F059F80021C2
:10275000082005F04BFA234B214A281C01F0ECFC21
:10276000387001F0F5F92149201C04F095FA204B4E
:102770000A221968201C0131196004F0E4FA1D4E88
:10278000301C00F0A9FD3C21023005F0C7FB301CD5
:10279000C9B200F041FE301C022100F085FD301C62
:1027A000154900F093FD0021082005F01FFA134899
:1027B00005F026F8FA20400005F022F81049201C08
:1027C00004F07CFA281C01F0F1FC387001F0C0F92B
:1027D000281C01F009FA387001F0BAF90BB0F0BD0D
:1027E00020A10700000000001FD400003BD400001F
:1027F000980100209D01002015210000C0D4010097
:1028000049D40000C046C04608B5084800F03AFD6B
:10281000074801F0DCF8074800F0A0F9064801F08D
:1028200019F806480B2100F06BFF08BD9D01002040
:10283000DC010020A4010020940100208001002080
:10284000F8B5051C0F1C161C0024B44208D02B68D8
:10285000395D1B68281C9847002801D00134F4E733
:10286000201CF8BD704708B5183004F0ADFB08BD5A
:1028700008B5183004F0BCFB08BD38B5837D0D1CCD
:10288000002B06D0041CC434201C04F0C7FB002815
:1028900001D0002004E0201C291C04F07CFB012056
:1028A00038BD08B5183004F0ACFB08BDF7B501938E
:1028B000FA239B0083600B4B00250833041C456002
:1028C000036018300F1C161C04F058FB201CC43089
:1028D00004F054FB019B27612675A575201C6375C8
:1028E000FEBDC04658D4000070B50D49041C0069F7
:1028F00004F01CFE206904F0B0FC1826207D331C77
:102900004343084D0821EB18595605F09FF9607DA7
:1029100008214643AD19695605F098F970BDC046C7
:10292000A086010028DF0000F7B5041C00200E1C63
:10293000151C0193824231D0271C1837381C04F033
:102940003CFB2069311C012204F0C4FC002823D088
:10295000206904F02EFD011C381C04F01CFB01262C
:102960002069AE420ED004F095FC0221206904F0EB
:102970009BFC206904F01DFD011C381C04F00BFBBE
:102980000136EDE704F07DFC019B002B05D02069AA
:10299000032104F089FC00E0051CE8B2FEBD08B587
:1029A0000123FFF7C1FF08BD10B5B8235B00C15478
:1029B000041CC43004F001FB0123A37510BDF8B55D
:1029C0000022B82382755B00041C0F1CC15C0069E7
:1029D00004F080FC002805D12069032104F064FC88
:1029E00002251DE0261CC436301C04F001FB002823
:1029F0000FD0301C256904F0E7FAC1B2281C04F09E
:102A000098FC0028EED12069032104F04DFC032539
:102A100006E0051C002F03D02069032104F044FCCC
:102A2000281CF8BD08B50121FFF7C9FF08BD38B55E
:102A3000041C006904F09BFC002879D0206904F094
:102A4000A4FC00280ED1206904F0A9FC00281FD0A6
:102A5000206904F09FFC00281AD0206904F0A4FC2F
:102A6000002815D1206904F015FC2069032104F029
:102A70001BFC231CFC33DD6F002D04D02368201CBD
:102A80009B689847A847201C183004F096FA4FE03E
:102A9000206904F084FC031C2069002B16D004F08C
:102AA000F9FB2069032104F0FFFB206904F07CFCA2
:102AB00000283DD0201CC43004F07FFA0123A37508
:102AC000FC34A36F002B33D0984731E004F058FC5E
:102AD00000282DD0206904F067FC251C00280FD0A9
:102AE000C435281C04F084FAFF21002803D0281CD8
:102AF00004F06AFAC1B2206904F02CFCA07517E05A
:102B00001835281C04F08AFA031C2069002B02D017
:102B100004F0B7FB08E004F04CFC011C281C04F096
:102B20003AFA206904F0B6FB2069032104F0BCFBEB
:102B300038BD000008B50248FFF779FF08BDC04660
:102B4000E401002008B50348034914221523FFF7C8
:102B5000ADFE08BDE40100203009002077220023EB
:102B600042700A2203708270C3708371C371037252
:102B700070470000F8B50578041C0F1C161C002DCA
:102B800013D0012D21D18078002105F02FF87F216D
:102B900039400E4800F054FB311C0C4800F050FB4B
:102BA000A078291C05F022F80FE0094D4178281C77
:102BB000FFF7FAFE391C281CFFF75FFE281C311CAA
:102BC000FFF75BFE281CFFF72DFFF8BD6803002010
:102BD000E4010020F8B50578041C0F1C002D15D069
:102BE000012D2ED18078002105F000F8164E8021AD
:102BF0003943301C00F024FB301C002100F020FB86
:102C0000291C061CA07804F0F1FF1AE00F4D417852
:102C1000281CFFF7C9FE391C281CFFF72EFE281CB4
:102C2000FFF700FF6178281C0122FFF7B8FE281C7F
:102C3000FFF71EFE002804D0281CFFF714FEC6B2C2
:102C4000F5E7301CF8BDC04668030020E401002011
:102C500070B50578041C002D1AD0012D1BD1894EAA
:102C6000301C00F09BFA301C602100F0E1FA301CAF
:102C7000291C00F0BBFA301C291C00F0C1FAA07816
:102C8000291C04F059FFA078291C04F0AFFF02E0D2
:102C90007D48FFF729FE8921201CFFF79BFF882133
:102CA000051C201CFFF796FF2D02451965818B211D
:102CB000201CFFF78FFF8A21051C201CFFF78AFFCD
:102CC0002D024519A5818D21201CFFF783FF8C2142
:102CD000051C201CFFF77EFF2D024519E5818F2181
:102CE000201CFFF777FF8E21051C201CFFF772FFC9
:102CF0002D02451925829121201CFFF76BFF9021A1
:102D0000051C201CFFF766FF2D02451965829321E3
:102D1000201CFFF75FFF9221051C201CFFF75AFFC4
:102D20002D024519A5829521201CFFF753FF942100
:102D3000051C201CFFF74EFF2D024519E582972147
:102D4000201CFFF747FF9621051C201CFFF742FFC0
:102D50002D02451925839921201CFFF73BFF98215F
:102D6000051C201CFFF736FF2D02451965839B21AA
:102D7000201CFFF72FFF9A21051C201CFFF72AFFBC
:102D80002D024519A5839D21201CFFF723FF9C21BF
:102D9000051C201CFFF71EFF2D024519E5839F210E
:102DA000201CFFF717FF9E21051C201CFFF712FFB8
:102DB0002D0245192584A121201CFFF70BFFE31CE0
:102DC000D877E221201CFFF705FFE121051C201C1C
:102DD000FFF700FF2D024519A584E321201CFFF712
:102DE000F9FEE31DD877E421201CFFF7F3FEE5216F
:102DF000051C201CFFF7EEFE0F2318402B01C51801
:102E00002585E621201CFFF7E5FEE521051C201C99
:102E1000FFF7E0FE0009C0B22D0145196585E721E5
:102E2000201CFFF7D7FE231C2C331870F421201C24
:102E30000022FFF79FFE627923791C2592005B0137
:102E40002A401A43D2B2201CF521FFF793FE227AC2
:102E500007231A40201CF221FFF78CFEE178A379AA
:102E600003225B010A401A43E379201C9B001D40AA
:102E70001543EAB2F421FFF77DFED021201CFFF7B5
:102E8000A9FE70BD68030020E401002000000000DE
:102E9000F0B5F7218DB00190FFF79CFEF821099065
:102EA0000198FFF797FEF9210A900198FFF792FE2B
:102EB000019E0B90316B0A1CCB17161C1F1C5F491F
:102EC0005D4836184F41321C3B1C301C391C05F044
:102ED00093F80290039101980199408B019A069012
:102EE000098B019B0791D28A301C089212229A5EAC
:102EF000391CD31705F080F8030D040301980D0366
:102F00001422825E1D4302980399D31705F074F8CA
:102F10000A069446020A604602430B12101C191C52
:102F200000196941464A474B80185941019B1A8A4A
:102F3000002305F061F84810031CC917049005919F
:102F40000B430020002B72D006990AB2D3170298C7
:102F5000039905F051F8079B041C1AB2D3170D1CF6
:102F6000301C391C05F048F88C46664673040A9EEE
:102F7000C10B3701099E0B434204A4185D41330382
:102F80000B9E3B433209D2B2134380225203D31A21
:102F9000089EDF175A08F90737B21143D8070022F5
:102FA000FB0012196B41801A9941274A274B05F003
:102FB00023F8049A059B04F0FBFF0D1C4F13CB0470
:102FC0000199041C460B2020085E1E43321C3B1C4A
:102FD000C11705F011F8321C3B1C05F00DF8019AE1
:102FE000460E1E20105ECB01221C1E434F162B1CCA
:102FF000C11705F001F836196F41C20C4C0322438A
:10300000CB14B6185F41300A019E3B061C24345F86
:103010001843E617250F33012B432201391280187C
:10302000594105F02DF8EE21890505F0BDF90DB0E7
:10303000F0BDC046C046C046000CFEFFFFFFFFFFCC
:103040000000000000800000350C000000000000BF
:1030500038B5FD21041CFFF7BDFDFE21051C201C19
:10306000FFF7B8FD216B214A8B1829020143282064
:10307000225E89031205891A2A20225E5A43891A80
:103080008022D2018918221C2C321078E21DD27FB6
:1030900058435A4380231B02D2128012D218424353
:1030A00080208003921212182420235EC9135A43F1
:1030B00080239B01D21892134A43D3135B430334FA
:1030C000E07FDB1143431B11D31AD843C0171840CC
:1030D000C8235B05984200DD181C001305F0FEFBB9
:1030E000EA21890505F060F938BDC04600D4FEFF2D
:1030F00070B5FA21041CFFF76DFDFB21061C201C96
:10310000FFF768FDFC210501201CFFF763FD360376
:1031100000093543C0B22843628903119B1A5B43FF
:103120000E25615FC0101B1352004B43821A0C2105
:10313000605E9B134243D2129B1805205843803097
:103140002363001205F0CAFB014905F007F870BDC2
:103150000000C842437A002B04D18372C372C3605B
:1031600001234372704730B585B0041C02AD00687E
:103170000291039204F002F86B79E179227A0093CC
:103180002068002304F0AEF929792068029A03F040
:10319000C5FF206803F0E8FF05B030BD70B5041C22
:1031A0001826FFF7D7FF2079331C43430D4D082124
:1031B000EB18595604F04AFDA079331C434308210B
:1031C000EB18595604F042FD607908214643AD19C9
:1031D000695604F03BFD044B201C06CBFFF7C3FFF0
:1031E00070BDC04628DF00006003002008B50068FD
:1031F000002901D1012100E0002103F0C9FF08BD31
:1032000008B5031C032912D8081C1B6804F0D8FD5C
:10321000050B0208181C002107E0181C012104E01E
:10322000181C022101E0181C032103F0DDFF08BD7A
:1032300008B50068032900D8042103F0BDFF08BDCC
:1032400008B5006803F0EEFF08BD0000094B0A4A0C
:103250000A491A6000225A711A71094B1960162125
:103260001971182199711721597101215A72D97157
:103270001A7270476003002000093D0040090020D9
:1032800068030020002303707047000008B5044B5A
:103290001B68002B00D09847024B01221A7208BD10
:1032A00078030020001400400378002B0AD0064B5E
:1032B000081C197F072210409143014319779A7A1D
:1032C000D209FCD17047C04600140040014B196080
:1032D0007047C04678030020024B98690005800EB5
:1032E0007047C046001400400378002B0AD0064BFC
:1032F000081C19693F2210409143014319619A7AD1
:10330000D209FCD17047C046001400400378002B5E
:103310000BD0064B3F2211408A0118690449014035
:10332000114319619A7AD209FCD170470014004008
:103330003FF0FFFF0378002B0BD0064B1F221140FC
:103340000A03186904490140114319619A7AD209A4
:10335000FCD1704700140040FF0FFEFF70B5161C33
:103360000278041C0D1C002A0AD0191CFFF7BCFFB0
:10337000201C311CFFF7CAFF201C291CFFF7DAFFB5
:1033800070BD00000378002B0BD0064B1F221140AC
:103390004A04186904490140114319619A7AD20913
:1033A000FCD1704700140040FFFFC1FF0378002BE1
:1033B0000BD0064B0F2211408A05186904490140C1
:1033C000114319619A7AD209FCD170470014004068
:1033D000FFFF3FFC0378002B09D0054B8A061969D3
:1033E00089018909114319619A7AD209FCD1704780
:1033F0000014004070B51D1C0378041C161C002B23
:1034000009D0FFF7BFFF201C311CFFF7CFFF201CA6
:10341000291CFFF7DFFF70BD0378002B0BD0064B94
:103420003F2211408A019869044901401143996182
:103430009A7AD209FCD17047001400403FF0FFFF98
:103440000A4B0B4A9A605A7852B2002AFBDB0949B0
:10345000064A51605A7852B2002AFBDB0649034AF9
:1034600051805A78D209FCD17047C046000C004008
:10347000020400000205110004420000044B022176
:103480001A888A431A809A7AD209FCD17047C046BA
:1034900000140040044B02211A880A431A809A7AC9
:1034A000D209FCD17047C04600140040044B0121F2
:1034B0001A880A431A809A7AD209FCD17047C0460A
:1034C00000140040044B01211A888A431A809A7A1A
:1034D000D209FCD17047C04600140040F7B52B4B11
:1034E0000F1C9A6920210A439A61294A294B002618
:1034F000051C9A82284CB7420AD1284B1A787023AF
:103500001A4240D023881A073DD52269012601922C
:10351000281CFFF795FF281CFFF7B0FF281CFFF7BA
:10352000C5FF62881E4B134063801E4B2380A27A26
:10353000194BD209FBD11C4A08211160C021890016
:1035400050580002000A5050DA7901210A43DA711A
:103550001A7F07218A431A77A37ADB09FCD1281C3A
:10356000FFF798FF281CFFF7ADFF002F02D00123C3
:103570002B70F7BD002EFAD0074B019A1A61A37A7F
:10358000DB09FCD1F3E73E1CC2E7C0460004004063
:10359000CE0600000008004000140040380400403F
:1035A000FFBFFFFF080A000000E100E00368426877
:1035B00072B6536062B67D200138C0B200281DD0BB
:1035C00020210139FDD1116A0B42F5D072B6536149
:1035D000936062B6F02149010139FDD172B68C21A8
:1035E0005360C9000139FDD1106A03405842584167
:1035F000C0B262B6CD225201013AFDD170470CC86B
:10360000C8070AD572B6A0215A619A600139FDD166
:103610009A6162B6DC239B0009E072B682215A618E
:10362000C9009A600139FDD19A6162B65023013B0D
:10363000FDD170470368426872B6302193605361D0
:103640000139FDD1A02153600139FDD1106A62B664
:10365000D4229200013AFDD10340581E8341D8B2D2
:103660007047F7B5041C0F1C019208250126391C70
:1036700031404B1E9941C9B2201C7600013DFFF735
:10368000BEFFF6B2002DF2D1019A002A06D172B621
:10369000226863685A6022685A6162B6F7BDF8B55D
:1036A000071C082500240126381CFFF7C3FF00284B
:1036B00000D034437600013DF6B2002DF4D1201C39
:1036C000F8BD70B500220E1C5521051CFFF7C9FF7F
:1036D0000024315D281C00220134FFF7C2FF082CB2
:1036E000F7D170BD00230374837443740723C21899
:1036F000002111728B4201D0013BF8E770470000B6
:1037000038B5041C0D1C081C002104F015FA182201
:103710005543084B01215A195268EB569140064A0D
:10372000DB019B18201C21606360FFF7DBFF201C7E
:1037300038BDC04628DF000000440041F0B585B028
:103740000391867C041C151C002E5AD1FFF72EFF16
:10375000002857D0201C002D02D0F021321C01E09F
:10376000EC212A1CFFF77DFF012600210191029127
:10377000351C201CFFF75EFF071C201CFFF75AFFBB
:10378000012F02D1012816D132E0019AA3188742F5
:1037900019D1277CBD4204D21F7A37407A1E974147
:1037A00002E0EF1B7A425741FFB2002F03D1082DF0
:1037B00008D8657406E00199012763181A7A324324
:1037C0001A7203E002951A7AB2431A727600201C2C
:1037D000391C0135F6B2FFF712FFEDB2002E04D10D
:1037E000019B01260133DBB20193019A072AC0D95C
:1037F000402D06D9029B2374002B07D10123A3740B
:1038000004E000202074A07460740BE0237A002B85
:10381000F7D00023E218127A0399CA540133082B17
:10382000F8D1012005B0F0BD031C00200139C9B258
:10383000FF2905D01A7801335040024A105CF5E7A1
:103840007047C04678D4000008B50368C9B21B6849
:10385000984708BD7047000008B501700248FFF79F
:1038600043F8002008BDC046E401002038B50D4CE7
:103870008DB20178201CFFF797F8201C0121FFF77B
:10388000E3FF2912201CFFF7DFFFE9B2201CFFF73E
:10389000DBFF201CFFF7C6F80A235B42584340B207
:1038A00038BDC046E401002038B5094C0D1C017834
:1038B000201CFFF779F8291C201CFFF7C5FF201CEE
:1038C0000121FFF77CF80A235B42584340B238BD20
:1038D000E401002073B5114D0E1C02220178281C52
:1038E000FFF75DF8FB24281CFEF7C2FF012807DC68
:1038F0000A20013C03F084FF002CF4D19C200BE053
:1039000001AC0222281C211C03F041FE23786278BE
:103910001B0213433380002040B276BDE401002037
:10392000F0B5061C87B00C1C081C111CFFF7BCFF6F
:10393000002834D103AF391C201CFFF7CBFF0190C6
:10394000019904A80090002000291FD13B887878B5
:103950006A469382000906F01FFE021C0B1C1549E3
:10396000134800F00DFF144A144B05F0E9FF041C46
:1039700038880D1C0005000D06F0D0FD021C0B1C44
:10398000201C291C05F0DCFF06F08CFE0490019839
:103990006B46009A9875331C03CA03C302E00023E8
:1039A0003360B071301C07B0F0BDC046C046C046A1
:1039B00000000000000000407B14AE47E17A843F25
:1039C00010B50022041CFFF7ABFF201C10BD704790
:1039D00010B5084C4021201CFEF7E6FFFE21201CFC
:1039E000FFF732FF201CFFF71DF80F2003F008FF40
:1039F00010BDC046E401002038B5104C051C201C49
:103A0000FEF772FF281CFFF7E3FF201C4021FEF7A2
:103A1000CBFFE721201CFFF717FF201CFFF702F860
:103A200040210122201CFEF7BAFF201CFEF71BFFDD
:103A3000023843425841C0B238BDC046E4010020BC
:103A400070B5234C4021201CFEF7AEFFE321201C63
:103A5000FFF7FAFE201CFEF7E5FF322003F0D0FE50
:103A6000201C40210322FEF79AFF201CFEF700FFD6
:103A70000028FAD0201CFEF7F6FE86B2201CFEF7C6
:103A8000F2FE3502ADB20543201CFEF7ECFEA8B2F3
:103A900004F080FF06F0B4FD0A4B094A05F050FF20
:103AA00006F000FEDE21890504F07EFC06F0A8FD8C
:103AB000054A064B06F0D4F906F0F4FD70BDC04689
:103AC000D7A3703D0AF76540CDCCCCCCCC6C474039
:103AD000E4010020C046C04670B51A4C4021201CAD
:103AE000FEF762FFE521201CFFF7AEFE201CFEF76B
:103AF00099FF322003F084FE201C40210322FEF7B0
:103B00004EFF201CFEF7B4FE0028FAD0201CFEF762
:103B1000AAFE86B2201CFEF7A6FE3502ADB2054312
:103B2000201CFEF7A0FEA8B204F034FF064904F002
:103B30003BFCDE21890504F037FC044904F05EFDFE
:103B400070BDC046E40100200000FA420000C04001
:103B500010B588B000236A461370082822D804F0F4
:103B60002FF905080B0E1114171A1D00684613498A
:103B700016E06846124913E06846124910E06846AC
:103B800011490DE0684611490AE06846104907E00E
:103B90006846104904E068460F4901E00F4968464D
:103BA00007F025FB0E4C0F49201C03F075F8201C74
:103BB000694603F071F808B010BDC0468AD900000C
:103BC0009ED90000B5D90000C9D90000DED9000097
:103BD000F5D900000DDA000022DA000038DA000022
:103BE0004809002050DA0000F0B5051CA4358FB05C
:103BF000041C0021FA22281C07F009FA00210F22D8
:103C000002A807F004FA0AAE00210F2206A807F066
:103C1000FEF90F220021301C07F0F9F91A4B281C7D
:103C2000FE33598A07F0AAFA184F02A8B98A07F09A
:103C3000A5FA3B1C5033198806A8543707F09EFAA2
:103C40003988301C07F09AFAFA239B0001930096FA
:103C5000201C291C02AA06AB00F06EFD012804D12D
:103C60000B4BE0540B4BE05406E0022806D1084B06
:103C70000122E054074BE254002003E00338431EC6
:103C8000984101300FB0F0BD40DD000028DB00009E
:103C90002A0400002B040000E1231B0210B543603E
:103CA000012301700374041CC82003F0A9FD201C2B
:103CB00000F0F0FA9620400003F0A2FD201CFFF770
:103CC00093FF201CFFF790FF10BD0000F0B5061C0D
:103CD000A4368BB0041CFA220D1C301C002107F006
:103CE00096F900210F2202A807F091F906A80021F9
:103CF0000F2207F08CF91A4BE35C012B02D0022B48
:103D000004D029E00720854227D802E00720042DAF
:103D100023D8144B2A1C48331988301C07F02EFA7C
:103D2000114F02A8398807F029FAB98806A807F0C8
:103D300025FA64230093201C311C02AA06AB00F074
:103D4000F1FC012803D1094B0020E55405E00238BD
:103D5000431E9841013000E008200BB0F0BDC04682
:103D60002A04000040DD000028DB00004A030000B8
:103D7000F0B5061CA4368FB0051C0021FA22301CB9
:103D800007F045F900210F2202A807F040F90AAF19
:103D900000210F2206A807F03AF90F220021381C53
:103DA00007F035F9244B301CFE33598E07F0E6F945
:103DB000224C02A8218807F0E1F9A18806A807F0A3
:103DC000DDF9A31DD98F381C07F0D8F9FA235B0061
:103DD00001930097281C311C02AA06AB00F0ACFC32
:103DE00001281DD10F22002102A807F010F9218B14
:103DF00002A807F0C3F94C340F22002106A807F0EF
:103E000006F9218806A807F0B9F90D4B281C02A96C
:103E100006AA00F037FB0138431E9841C0B208E003
:103E2000022805D00338431E98410323181A00E0E6
:103E300001200FB0F0BDC04640DD000028DB0000CF
:103E4000204E0000F0B5644B071C99B00025A43744
:103E5000C5540391041C291C161C381CFA2207F0B7
:103E6000D6F8291C142204A807F0D1F8291C142222
:103E700009A807F0CCF80EA8291C142207F0C7F8EF
:103E8000039B0720DF2B00D9A4E0301C07F0B7F913
:103E900085420BD2735D1A1C303A092A03D9413B83
:103EA000052B00D991E00135EDB2F1E74B4B039AB8
:103EB000998A381C331C07F061F9494D04A82988F8
:103EC00007F05CF9A98809A807F058F92B1C4833BA
:103ED0000EAE1988301C07F051F9FA239B000193AC
:103EE0000096201C391C04AA09AB00F025FC01280F
:103EF00065D10021142204A807F089F800211422BA
:103F000009A807F084F813AF00211422301C07F031
:103F10007EF814220021381C07F079F8A98904A83A
:103F200007F02CF9298C09A807F061F90235698F8F
:103F3000301C07F05CF9E98F381C07F058F9294B61
:103F400000970193201C04A909AA331C00F0E8F98A
:103F5000051E012D2AD1FA22201C2349520000F00F
:103F600089FA231CA2331B88002B1DD01F4E201C56
:103F7000311C113007F05EF906F0DCFFEF239B00E7
:103F8000E054311C002007F055F9194B071CE618C6
:103F900000216522301C07F03AF8301C391C6422DD
:103FA00007F034F90C4BE554002013E00228FBD055
:103FB0000520032D0ED0042D09D002200AE002288E
:103FC00007D00328F9D1062004E0072002E0281CCE
:103FD00000E0012019B0F0BD2204000040DD000027
:103FE00028DB000020BF020062DA000061DA000076
:103FF000BD030000F0B52C4E8BB0051C0C1C081C3A
:10400000311C07F0EAF8002806D0201C274907F0E9
:10401000E4F80723002844D12E1CA436301C0021CC
:10402000FA2206F0F4FF00210F2202A806F0EFFFAB
:1040300000210F2206A806F0EAFF1D4B221C4C337C
:104040001988301C07F09AF81A4F02A8398807F02F
:1040500095F8B98806A807F091F8FA235B00009359
:10406000311C281C02AA06AB00F05CFB061E012EC8
:1040700013D1201C0C4907F0B0F8002802D1CF233F
:104080005B00EE54201C094907F0A7F80023984272
:1040900007D1CF225200AB5403E0023E731E9E4173
:1040A000731C181C0BB0F0BD2AD3000065DA0000A9
:1040B00040DD000028DB0000F0B5051CA4358BB006
:1040C000041C0E1CFA220021281C06F0A0FF00216F
:1040D0000F2202A806F09BFF00210F2206A806F07F
:1040E00096FF124B321CFE33D98A281C07F046F883
:1040F0000F4F02A8398807F041F8B98806A807F0E1
:104100003DF864230093201C291C02AA06AB00F092
:1041100009FB012803D1074B0020E65403E00238D5
:10412000431E984101300BB0F0BDC04640DD000099
:1041300028DB000042020000F0B5061CA4368BB05C
:10414000071C141C301C0021FA221D1C06F05FFF06
:1041500002A800210F2206F05AFF06A800210F2214
:1041600006F055FF0F4AA2235B00D15A301C221CD7
:104170002B1C07F003F80C4C02A8218806F0FEFF68
:10418000A18806A806F0FAFF64230093381C06AB4A
:10419000311C02AA00F0C6FA023843425841C0B2AC
:1041A0000BB0F0BD40DD000028DB000030B5051C81
:1041B000A43585B0041C0021281CFA2206F027FF34
:1041C000684600210F2206F022FF00232B70231CDB
:1041D0005522A5331A700A4B6846198806F0CEFF9F
:1041E000201C291C022200F0B2FA201C694664221D
:1041F00000F040F90138431E9841400005B030BD41
:1042000028DB0000074BE12212025A60064A0749E8
:104210009A606422DA6001221A7400225A54044916
:104220005A5470477C030020881300002B040000C0
:104230002A040000F7B5181C0191161C1F1C06F07B
:10424000DEFF051C0020041CAE4210D3731B9C42F1
:104250000AD8019B391C18192A1C06F0A7FE002851
:1042600004D00134A4B2F1E7002000E00120FEBD3B
:1042700008B5031C002904D10448191C01F01EFDD7
:1042800003E00348191C03F099F908BD4809002010
:10429000A807002008B5031C19784068FFF7E8FF5D
:1042A00008BD000008B5031C002904D1191C0448EE
:1042B00001F072FC03E00348191C03F0A5F908BDE6
:1042C00048090020A807002038B5041C0D1C2078E0
:1042D000002804D0291C0134FFF7E4FFF7E738BDBC
:1042E00008B5002803D1044801F060FC02E003484F
:1042F00003F07BF908BDC04648090020A80700204C
:1043000008B5002803D1044801F078FC02E0034816
:1043100003F075F908BDC04648090020A807002031
:10432000F0B5051C85B01135041C039101920021E4
:104330009022281C029306F06AFE231CA23300265A
:104340001E8003F057FA371C009003F053FA009BCD
:10435000C01A0B9B984200D382E02078FFF7C0FF81
:1043600000280ED08E2F0CD82078FFF7C9FFE31954
:104370005874231CA2331A887E1CB6B201321A80EC
:10438000371C231CA2331E88201C291C321C039BB3
:10439000FFF750FF00280ED0334C3449201C02F0A8
:1043A00077FC3349201C02F073FC201C039902F0B7
:1043B00085FC012055E0019B002B15D0201C291CF9
:1043C000321CFFF737FF00280ED0274C2749201C4E
:1043D00002F05EFC2649201C02F05AFC201C0199C8
:1043E00002F06CFC02203CE0029B002B15D0201C4C
:1043F000291C321CFFF71EFF00280ED01A4C1B4947
:10440000201C02F045FC1A49201C02F041FC201C33
:10441000029902F053FC032023E00A9B002B15D0E5
:10442000201C291C321CFFF705FF00280ED00E4C63
:104430000E49201C02F02CFC0D49201C02F028FC27
:10444000201C0A9902F03AFC04200AE003F0D2F999
:10445000009B984200D378E703F0CCF9009074E712
:10446000002005B0F0BDC0464809002095DE0000E0
:104470009DDE000007B50023019200931A1CFFF790
:104480004FFF0EBD13B51C1C002300930194FFF7D2
:1044900047FF16BD70B5002803D10E4801F08CFB14
:1044A00016E003F0A7F9051C0B4C201C03F09DF847
:1044B000261C002804D003F09DF9401B632803D973
:1044C000301C03F08DF803E0201C03F098F8EBE7B4
:1044D00070BDC04648090020A8070020F0B5874DF0
:1044E000874E85B00F1C041C311C281C01930292BE
:1044F00002F0CEFB8349281C02F0CAFB391C281CA1
:1045000002F0DCFB311C281C02F0C2FB7E49281C97
:1045100002F0BEFB281C029902F0D0FB019B002B8D
:104520000BD0311C281C02F0B3FB7849281C02F088
:10453000AFFB281C019902F0C1FB0A9B002B0CD099
:104540006E4D6F49281C02F0A3FB7149281C02F034
:104550009FFB281C0A9902F0B1FB0B9B002B0CD08F
:10456000664D6749281C02F093FB6A49281C02F03B
:104570008FFB281C0B9902F0A1FB237C002B02D09F
:104580002078FFF787FF2178381C251CFFF79CFE59
:104590001135E06803F034F900219022281C06F060
:1045A00036FD231C0026A2331E8003F023F9371C9E
:1045B000009003F01FF9009BC01A0C9B984200D397
:1045C00083E02078FFF78CFE00280FD08E2F0DD8C7
:1045D0007B1C9BB220780393FFF792FEE619231C05
:1045E0007074A2331A88039F01321A80231CA233ED
:1045F0001E88201C291C321C029BFFF71BFE002872
:104600000ED03E4C3E49201C02F042FB4249201C89
:1046100002F03EFB201C029902F050FB01206BE0EF
:10462000019B002B15D0201C291C321CFFF702FE19
:1046300000280ED0314C3249201C02F029FB3649AB
:10464000201C02F025FB201C019902F037FB022000
:1046500052E00A9B002B15D0201C291C321CFFF7AE
:10466000E9FD00280ED0254C2549201C02F010FB46
:104670002949201C02F00CFB201C0A9902F01EFBA9
:10468000032039E00B9B002B15D0201C291C321C69
:10469000FFF7D0FD00280ED0184C1949201C02F05D
:1046A000F7FA1D49201C02F0F3FA201C0B9902F0C6
:1046B00005FB042020E003F09DF8009B984200D306
:1046C00077E703F097F8009073E70C4C0C4E201C32
:1046D000311C02F0DDFA1149201C02F0D9FA311C1C
:1046E000201C02F0D5FA0E49201C02F0D1FA201C41
:1046F000291C02F0E3FA002005B0F0BD48090020B3
:1047000095DE0000A4DE0000A9DE0000AFDE0000A0
:10471000B5DE0000BBDE00009DDE0000C1DE000053
:10472000CCDE00001FB5002400940194069C029486
:10473000FFF7D4FE04B010BD1FB5069C0094002402
:104740000194079C0294FFF7C9FE04B010BDF8B5B0
:10475000037C041C0E1C171C002B02D00078FFF7F2
:1047600099FE351CAB1B9BB2BB4205D22878217841
:10477000FFF798FD0135F5E7E06803F041F8F8BD73
:10478000F0B546464F46C0B48FB0161C1F1C0090B3
:10479000019100F0ADF9BC4A0023D356041C0D1C56
:1047A000904602940395013305D0301C391C01F06A
:1047B00021F8002806D1029803990FB00CBC90464E
:1047C0009946F0BD0098019901F014F8814600283F
:1047D00031D1301C391CA14B9F4A03F0BBFB002890
:1047E000E9D001230493A94B04AC63604B462362D8
:1047F000009A019BA260E360994A9A4BA261E3612F
:1048000042460023D356266167615A1C0ED0022B04
:104810000CD0201C01F01EF8002800D17BE0236A98
:10482000002B03D006F08CFB236A0360A269E369C6
:1048300002920393BFE700980199884B864A03F0E0
:1048400089FB002822D0301C391C844B824A03F09B
:1048500081FB051E2CD0012304938C4B04AC6360B8
:1048600000232362009A019BA260E3607B4B7A4A9B
:10487000A261E36142460023D35626616761002BA3
:10488000C7D0774A774BA261E361CFE7201C291C90
:1048900000F0A8FF8146002842D0201C291C6F4B45
:1048A0006D4A03F057FB00286CD10294039582E710
:1048B000301C391C00F096FF002800D17BE7301C2B
:1048C000391C664B644A03F04BFB002800D172E7A9
:1048D000012304936D4B04AC6360009A019BA260BA
:1048E000E36043461978256226616761002900D19B
:1048F0007AE05D4A5D4BA261E36102293CD106F09A
:104900001FFB21230360236A002B8FD006F018FBC6
:10491000226A02608AE706F013FB212303607EE728
:104920000098019900F05EFF0028B6D0301C391CB9
:1049300000F058FF0028B0D0201C291C00F05AFFBE
:1049400004AC002855D101230493504B20626360CE
:10495000009A019BA260E36043461D78266167616F
:10496000002D41D03D493C48021C0B1C04F07EFB4D
:10497000A061E161022DC2D0201C00F06BFF002875
:10498000C1D1BCE70098019900F02CFF0294039577
:10499000002800D10FE7301C391C00F023FF0294DF
:1049A0000395002800D106E704AC04230493266194
:1049B0006761364B636000232362009A019BA2600B
:1049C000E360264B244AA261E36142460023D356AA
:1049D000022B04D0201C00F03DFF002893D106F0EC
:1049E000AFFA222303608EE71C4B1B4AA261E361EE
:1049F000C2E703230493254B2661676163604B463E
:104A00002362009A019BA260E36042460023D356D2
:104A1000002B3DD1164A174B00980199A261E36122
:104A20000E4B0D4A03F09CFA0028CED0124A134BCD
:104A3000301C391C04F084FF061C0F1C00F014FF0E
:104A4000321C3B1C03F086FA0028BED10C4A0D4BE9
:104A5000A261E361B9E7C046000000000000000069
:104A6000000000000000F03F000000000000F0FF28
:104A7000000000E0FFFFEF47000000000000E03F03
:104A8000000000E0FFFFEFC709000020D8DE0000B3
:104A9000104B0F4A00980199A261E3610E4A0F4B37
:104AA00003F05EFA002890D00D4A0E4B301C391CE2
:104AB00004F046FF061C0F1C00F0D6FE321C3B1C07
:104AC00003F048FA002800D07FE7074A074B7AE74F
:104AD000000000000000F07F000000000000000067
:104AE000000000000000E03F000000000000F0FFB8
:104AF000F0B55F4656464D464446F0B499464B469F
:104B00005C00934664088FB00D1C0F1C5A46211C94
:104B10000090061C824602935846114337D0690024
:104B2000490888466849049588452BDC28D06649A1
:104B30008C4227DC00D180E00021089104990029F3
:104B400000DA7EE0002833D15F4B9C4200D196E032
:104B50005E4B9C426AD002988023DB05984201D1CB
:104B600000F0E1FB5A4B0299994221D1049A002AA4
:104B70001EDB291C009800F04BFD061C0D1C08E0F4
:104B8000002ED4D0534A131C434433430AD14F4D13
:104B90000026301C291C0FB03CBC90469946A2460A
:104BA000AB46F0BD4C4800F057FE061C0D1CF0E76C
:104BB0000098291C00F012FE534606908C46002BEC
:104BC00020D0FB0F013B0493049E089B33436AD023
:104BD000424B9C4200DC8DE0414B9C4201DC00F0EA
:104BE00035FC404B984500DC89E3029E002E00DC3A
:104BF00089E334493248021C0B1C04F0A1FE061C58
:104C00000D1CC6E74046002804D0304BBA0092087D
:104C10009A42D6D1029C002C01DA00F0C4FB049E1B
:104C2000002E00DA73E3069E6546B2E7029C002C74
:104C300001DA00F076FC009EABE7002800D17BE7AC
:104C4000A0E729498C422BDC26498C4200DC79E71D
:104C500021158C4625498C4501DC00F086FC244B4F
:104C600061465B1A111CD9400A1C9A40824200D04E
:104C700068E701220A4002239B1A089362E7154A5B
:104C8000131C4344334300D181E7164B984500DCA5
:104C90007FE3029C002C00DA35E35E464D4678E760
:104CA000022108914EE70098009A291C2B1C05F060
:104CB000D7F8021C0B1C04F0D9F9061C0D1C68E780
:104CC0009C7500883CE4377E0000F07F0000F03FD8
:104CD0000000E03F000010C010DF00000000E041D5
:104CE0000000F043FFFFEF3FFFFF3F4313040000CE
:104CF00033040000E24A0023904509DC0698C54BC6
:104D0000C34A614604F01CFE3523069088465B4288
:104D10004046DC4902155218D21892460303DA4D78
:104D2000DA4A1B0B1D43934201DC00F0F6FBD84A24
:104D3000934201DC00F036FCD64B01229244ED1880
:104D400000240021069A2B1C06920793C900D24B1F
:104D500088464344186859680A900B910A9A0B9B3D
:104D60000698079905F07CF80A9A0B9B061C0F1C05
:104D70000698079903F05EFE021C0B1CA648A74983
:104D800004F074F90C900D910C9A0D9B301C391C99
:104D900004F0D6FD029003910B1C802189056D1053
:104DA000802000220D430003009201939C4A9D4BFA
:104DB00029180B1900980199141C1D1C04F0C0FD42
:104DC000021C0B1C301C391C05F04AF80A9A0B9B7C
:104DD000061C0F1C201C291C05F042F8021C0B1C91
:104DE0000698079905F03CF8021C0B1C00980199E5
:104DF00004F0A6FD021C0B1C301C391C05F030F819
:104E00000C9A0D9B04F09CFD069007910298039963
:104E1000021C0B1C04F094FD041C0D1C221C2B1CFA
:104E200004F08EFD804A814B061C0F1C201C291C9F
:104E300004F086FD7E4A7F4B03F0FCFD221C2B1CF8
:104E400004F07EFD7C4A7D4B03F0F4FD221C2B1CFC
:104E500004F076FD7A4A7B4B03F0ECFD221C2B1C00
:104E600004F06EFD784A794B03F0E4FD221C2B1C04
:104E700004F066FD764A774B03F0DCFD021C0B1C48
:104E8000301C391C04F05CFD029A039B041C0D1CB1
:104E90000098019903F0CEFD069A079B04F050FD9F
:104EA000221C2B1C03F0C6FD061C0F1C0098019948
:104EB000021C0B1C04F044FD674A684B0A900B91DE
:104EC00003F0B8FD321C3B1C03F0B4FD00240D1CA4
:104ED000221C009801992B1C04F032FD221C2B1C73
:104EE000009001910698079904F02AFD5A4A5B4BFD
:104EF00006900791201C291C04F0B2FF0A9A0B9B14
:104F000004F0AEFF021C0B1C301C391C04F0A8FF7F
:104F1000029A039B04F014FD021C0B1C06980799CF
:104F200003F088FD061C0F1C321C3B1C00980199E5
:104F300003F080FD4A4A4B4B0024201C0D1C04F05A
:104F4000FFFC494A494B06900791201C291C04F09C
:104F5000F7FC009A019B02900391201C291C04F08D
:104F60007FFF021C0B1C301C391C04F079FF404AE7
:104F7000404B04F0E5FC021C0B1C0298039903F063
:104F800059FD464B43441A685B6803F053FD061C09
:104F900050460F1C05F0C2FA0D1C4149041C414447
:104FA0000A684B680698079902920393321C3B1CCF
:104FB00003F040FD029A039B03F03CFD221C2B1CD6
:104FC00003F038FD00220B1C00920193101C2B1CD7
:104FD000221C04F045FF029A039B04F041FF069A4D
:104FE000079B04F03DFF021C0B1C301C391C04F015
:104FF00037FF02900391089B049C013B234300D0A0
:10500000C2E11D481D49049005914BE0C046C046D1
:105010000000000000004043000000000000F03FDE
:105020000000000000000000EF4E454A287ECA3F05
:1050300065DBC9934A86CD3F01411DA96074D13F0C
:105040004D268F515555D53FFFAB6FDBB66DDB3F1E
:10505000033333333333E33F0000000000000840E4
:10506000000000E009C7EE3FF5015B14E02F3EBEF3
:10507000FD033ADC09C7EE3F000000000000F0BF6E
:10508000FFFF0F0001FCFFFF0000F03F8E980300C0
:1050900079B60B000000F0FF00DF0000F0DE00003A
:1050A000E0DE00000026321C4B465846494604F01C
:1050B000D7FE009A019B04F043FC029A039B041C58
:1050C0000D1C5846494604F03BFC021C0B1C201CDE
:1050D000291C03F0AFFC009A019B02900391301C45
:1050E000494604F02DFC00900191009A019B029822
:1050F000039903F09FFCCC4B041C0D1C0F1C88462D
:10510000994200DC19E1C94A8B18034300D012E22E
:10511000AC4BAB4A0298039903F08CFC009A019BBC
:1051200008900991201C291C04F09AFE021C0B1CFB
:105130000898099902F028FFA946002800D0FAE152
:105140004A46BB4B802411156403C918201C084132
:10515000C11948009C4A9D4B0B1C0903B54E090B15
:10516000400D0C43B4498519B44E081A04412E4130
:105170004046B343A146002800DA1EE20098019998
:1051800004F06EFE00900191009A019B0298039931
:1051900003F050FC4A46120590460024201C8C4A1D
:1051A0008C4B0D1C0F1C04F0CBFB009A019B08904C
:1051B0000991201C291C04F053FE021C0B1C0298B0
:1051C000039904F04DFE844A844B04F0B9FB844AF1
:1051D000844B261C0D1C041C391C301C04F0B0FB35
:1051E000021C0B1C201C291C03F024FC041C0D1C9D
:1051F000221C2B1C0898099903F01CFC089A099B97
:10520000061C0F1C04F02CFE021C0B1C201C291C6D
:1052100004F026FE321C009001913B1C301C391C0E
:1052200004F08EFB704A714B041C0D1C04F088FBCB
:105230006F4A704B04F014FE221C2B1C04F080FB00
:105240006D4A6E4B03F0F6FB221C2B1C04F078FB1E
:105250006B4A6C4B04F004FE221C2B1C04F070FB08
:10526000694A6A4B03F0E6FB221C2B1C04F068FB26
:10527000021C0B1C301C391C04F0F2FD041C0D1C1C
:10528000221C2B1C301C391C04F05AFB604A614B59
:1052900002900391201C291C04F0E2FD021C0B1C4F
:1052A0000298039903F0E2FE009A019B041C0D1C76
:1052B000301C391C04F044FB009A019B03F0BAFB3C
:1052C000021C0B1C201C291C04F0CAFD321C3B1CB8
:1052D00004F0C6FD0B1C021C4F48504904F0C0FDF1
:1052E000464673181C15002C00DC60E1021C049873
:1052F000059904F025FB061C0D1CFFF74AFC029CD7
:10530000002C00DA75E400260025FFF742FC4C482B
:10531000089C031C4344234300D01AE106986146CD
:10532000069A6346C3E4291C2B1C0098009A04F0DB
:1053300007FB061C0D1CFFF72CFC4B005B08994675
:10534000404B994500DC25E13F480B1823430DD124
:10535000009A019B201C04F083FD021C0B1C029888
:10536000039902F007FE002800D1E9E62C4A2D4BF4
:105370000498059904F0E4FA294A2A4B04F0E0FA6B
:10538000061C0D1CFFF705FC2349244A04910592D5
:1053900088E6029E002EB6DA80200006051C5E46D6
:1053A0004D44FFF7F6FB069A63461B481B4903F082
:1053B0005DFE06908C46FFF732FCC046C046C046F4
:1053C000FE822B654715973C00000000000000009E
:1053D00000000000432EE63FEF39FAFE422EE63F82
:1053E000396CA80C615C20BED0A4BE726937663EE1
:1053F000F16BD2C541BDBB3E2CDE25AF6A56113FD5
:1054000093BDBE166CC1663F3E5555555555C53FBB
:105410000000000000000040000000000000F03F1D
:1054200059F3F8C21F6EA501FFFF8F40000070BF47
:1054300002FCFFFF01FCFFFF13040000FFFF0F0051
:10544000000010C0FFCB904000346F3F6C4B98457C
:1054500000DC54E76B4B984501DDFFF7C6FB614666
:10546000584B574A069804F0FBFC574A574B041C0C
:105470000D1C04F065FA564A564B061C0F1C201CE6
:10548000291C04F05DFA221C009001912B1C201CA9
:10549000291C04F055FA504A504B02900391201CED
:1054A000291C04F04DFA021C0B1C4D484D4904F018
:1054B000D7FC221C2B1C04F043FA021C0B1C4A488C
:1054C0004A4904F0CDFC021C0B1C0298039904F01D
:1054D00037FA474A474B04F033FA021C0B1C00987A
:1054E000019904F0BDFC041C0D1C221C2B1C301C5B
:1054F000391C03F09FFA00220B1C00920193101C30
:105500003B1C321C04F0ACFC021C0B1C201C291C94
:1055100004F0A6FC029003916DE500240021FFF742
:1055200011FC2B1C27492648009A03F09FFD061CFE
:105530000D1CFFF72EFB304A304B0498059904F000
:10554000FFF92D4A2D4B04F0FBF9061C0D1CFFF74B
:1055500020FB089E012E01D0FFF765FB802000068E
:10556000051C069E6544FFF714FB002801D0FFF7D9
:105570001FFB6346C91A221C0A41101C8840A04226
:1055800001D0FFF7E5FA01231A4002239B1A089382
:10559000FFF7DEFA1C4B994500DDD1E50023984664
:1055A0009946FAE58024E4020121FFF7CBFB4A4645
:1055B00000F006FA021C0B1C99E66442A146DDE5E8
:1055C000000000000000F03F000000604715F73FBA
:1055D00044DF5DF80BAE543E000000000000D03FF9
:1055E000555555555555D53F000000000000E03F8A
:1055F000FE822B654715F73F9C7500883CE4377E9B
:10560000FEFFEF3F0000F03F0000E03FC046C04615
:10561000F0B55F4656464D464446F0B46C4E0D1C00
:10562000371C83B0041C021C0B1C2F40B74200D156
:10563000ADE0002900DC8BE02F1500D194E0654D32
:1056400009038023090B5B037F190B43FE0700D579
:1056500070E07F10C20FB8465B00002780219B18C6
:105660001624420000970020890345189D4204DC5F
:1056700068185B1B009D6D180095D50F5B00013C01
:105680005B1952004908002CEFD180210026090641
:1056900020250196B446894609E0834246D0D40FBE
:1056A0005B00013D1B1952004908002D1CD06646C5
:1056B0008C198342F1DD6718E60FBC46F607824677
:1056C0004E452CD01B1AA24280414042019F1B1A1A
:1056D000121B7F18D40F5B00013D019750461B1928
:1056E00052004908002DE2D1134328D10198430804
:1056F000009D394E6A109219ED0702D580210906E6
:105700000B4340460705B9181C1C0D1C201C291C06
:1057100003B03CBC90469946A246AB46F0BDFF0F95
:10572000FF077E427E41B2468244CBE79442C2D913
:10573000181CB4E7C20F5B009B18400089E7019971
:1057400001312FD0019C012323401B195B08CFE7B7
:105750006B005B081A43D9D0002700292BD1C10A5E
:10576000153F40050029FAD08022520311421ED174
:105770000023490001331142FBD001242022E41A06
:10578000D21A3F19041CD4402143984057E7201CEB
:10579000291C04F0D5F8221C2B1C03F04BF9041C27
:1057A0000D1CB3E7009A002301320092A0E72022EB
:1057B00001240023E5E7221C2B1C201C291C04F0DB
:1057C0004FFB021C0B1C03F051FC041C0D1C9DE73D
:1057D0000000F07F01FCFFFF0000E03F4B00590894
:1057E0007047C0464800024B4008C018C00F7047C1
:1057F000000010800B1C011C021C30B51943022054
:10580000002900D130BD802109068B4216D00D49F8
:1058100004205C180C498C42F4D90C4D5C198C4264
:10582000F0D90B4C590049080320A142EAD9074C92
:105830000020A142E6D150425041E3E7002AE1D0E6
:10584000EFE7C0460000F0FFFFFFDF7F0000F07FC2
:10585000FFFF0F0000207047024901487047C04613
:10586000000000000000F87FF0B546464F46C0B487
:10587000CA0F90464B004D4A5B0D9E1883B0041C26
:105880000D1C8C46071C132E3BDC002E5CDB484FA6
:10589000021C37413B1C0B400343994648460B1CF6
:1058A000002827D07B081A1C0A4022430027002A20
:1058B0000AD0132E00D176E0291C80229943D2020F
:1058C0000B1C324113439C464046C1003948634695
:1058D00041180C684D683A1C201C291C03F0AAF8DA
:1058E0000090019100980199221C2B1C04F0B8FA39
:1058F000021C0B1C101C191C03B00CBC90469946D2
:10590000F0BD332E0BDD0B1C8021021CC9008E4222
:10591000F0D1291C03F08EF8021C0B1CEAE7264A82
:105920000126D2187642D64091460B1C021C064234
:10593000E0D076080642C7D08023B443DB05484652
:105940000341271C1F43BFE74E0076080643021C95
:105950000B1C002ECED00903090B01434842014322
:1059600080200003090B0140680C40040B1C03431A
:105970004046C1000F4841180C684D68291C201C86
:1059800003F058F800900191009801992B1C221CFB
:1059900004F066FA0D1C4146021CC807690049085C
:1059A000031C0B43A6E780273F0685E701FCFFFFAA
:1059B000FFFF0F0018DF0000EDFBFFFF00000000FD
:1059C000F8B53D4E171C331C0B40041C0D1C0A1C63
:1059D0001B1525D14B005B0818431ED0201C291C29
:1059E0002E4B2D4A03F0ACFF344B041C0D1C9F4280
:1059F00031DB0E4033150A1C363B3149DB198B4233
:105A000015DD221C2B1C2648264900F061F8244A8B
:105A1000244B03F095FF041C0D1C291C201CF8BD11
:105A200028498B421ED02649DB198B42E9DC002B2A
:105A300005DD25491B050A401D1C1543EDE7191C12
:105A4000353118DA214B9F42DBDC17481749221CFD
:105A50002B1C00F03DF8144A144B03F071FF041C9A
:105A60000D1CDAE7201C291C221C2B1C02F0E2FF73
:105A7000041C0D1CD1E7144936331B050A401D1CBC
:105A80001543201C291C0A4A0A4B03F059FF041C29
:105A90000D1CC2E7C046C046000000000000504395
:105AA0009C7500883CE4377E59F3F8C21F6EA5014F
:105AB000000000000000903C0000F07FB03CFFFFC1
:105AC000FE070000FF070000FFFF0F8050C300002B
:105AD00030B5DA0FD2074B005B08111C194330BDFB
:105AE00008B5024801F0BAFD08BDC046A80700206D
:105AF00008B5024801F0B2FD08BDC0466C080020A0
:105B0000F7B5164F1649381C01F098FA1549164892
:105B100001F094FA1549164801F090FA1549164813
:105B200001F08CFA1549164801F088FA154D032644
:105B30000124281C144901F081FA391C0096231C09
:105B400001940022114801F065FD0096291C019482
:105B50001F221E230E4801F05DFDF7BD3409002011
:105B600000080042000C00423809002000100042EA
:105B70003C090020001400423009002000180042B7
:105B80004009002044090020001C0042A807002012
:105B90006C0800203F20704713B502686B46D9712E
:105BA00007335468191C0122A04716BD08B50069C7
:105BB000022100F027FC08BD08B50069032100F0B0
:105BC00037FC08BD38B50D1C041C131C00690321EB
:105BD0002A1C00F029FD002801D10123636038BD93
:105BE00010B5054C23685A1C04D10368DB6898473C
:105BF0002060031C181C10BD5C000020074A08B57B
:105C00001368591C04D0012149421160181C03E09B
:105C10000069022100F0FAFC08BDC0465C000020CB
:105C200008B503780349023303704222024800F0AA
:105C3000B1FD08BD18000020130E002010B501783A
:105C4000031C42780020A12908D1212A2FD118480D
:105C50001849072200F09EFD012028E0212926D1C5
:105C6000202A05D113490722114800F027FC04E03F
:105C7000222A10D19A780F4BDA710E4B96221968AE
:105C8000D200914210D1DC7901231C400CD1FA20C2
:105C900001F02CF90AE0232A09D1DA789B78120264
:105CA0001A43054B1A6002E001F026F9002010BDEE
:105CB000130E00200C00002014000020704700008C
:105CC000064BFA21890099600549002208311960C4
:105CD00004495A6019611A767047C0464809002085
:105CE00078E30000130E002070B5C2B219495301C9
:105CF000CB189E68184DC0242E40A40526439E60F4
:105D0000164E800109683018083258605201505C04
:105D10000726B0430126304350549E6935402C433A
:105D20009C610F4C5C61505C7024A04310242043A4
:105D300050549C680B488A182040802464032043F8
:105D4000986098684021800B8003986053790B43DA
:105D5000537170BD1C0E0020FFFFFF8F340C00201C
:105D6000700A0020FF3F00F038B5041C08CC012168
:105D70001A78051C0A431A708022201C0021520048
:105D800005F045F92B689A78D107FCD45C6238BDE0
:105D9000134BF0B51B6899035A029B01C90ED20E32
:105DA0005B0F1F2900D105211F2A00D11D22072BBF
:105DB00000D1032304688E01278D0A491F2539402D
:105DC0003143218501682A400C8DAC4322430A856A
:105DD00002681903108D044B03400B431385F0BD7B
:105DE000246080003FF8FFFFFF8FFFFFEFF3108379
:105DF00003600123436072B670470368002B02D131
:105E000062B6BFF36F8F704737B50569041C6846EB
:105E1000002D12D1FFF7EAFF019B013B03D3621D66
:105E2000D57FEDB2F9E768460193FFF7E6FF002062
:105E3000854217D0206AE36913E0FFF7D7FF019B83
:105E40000025013B04D3221C34321578EDB2F8E76B
:105E500068460193FFF7D1FF0020854202D0206BF6
:105E6000E36AC01A3EBD0000436810B51A68037AA1
:105E700001215B01D318FF339A7A0A439A72037A9D
:105E800042685B01D318C2689C6891040B4A0909F7
:105E900022400A439A60037A42685B01D3189A68E9
:105EA0004021920B92039A6043681A68037A083380
:105EB0005B01D3181A790A431A7110BDFF3F00F035
:105EC000F7B50569041C0E1C171C6846002D1FD170
:105ED000FFF78CFF019B013B5A1C06D0621DD17F4E
:105EE0005A1E00293AD0131CF6E768460193FFF7C3
:105EF00084FF0025E369BD4235D0226A934232D245
:105F00005A1CE261A269D3181B7873550135F1E779
:105F1000FFF76CFF019B013B5A1C08D0221C343256
:105F200015785A1EEDB2002D18D0131CF4E7684600
:105F30000193FFF762FF0025E36ABD4226D0226B82
:105F4000934241D322E0621D0021D177303216788E
:105F5000581E8E4214D1031C5A1CF4D1684601937A
:105F6000FFF74BFF38E0226A934235D10023E3610B
:105F7000012323616846FFF739FF019B013BEBE7F3
:105F80001170201C0193FFF76FFFF6E7226B93421D
:105F900022D10023E36223616846FFF727FF019BBC
:105FA000013B5A1CDAD0221C34320021117001321C
:105FB0001678581E8E4201D1031CF2E71170201C86
:105FC0000193FFF751FFEAE75A1CE262A26AD31875
:105FD0001B7873550135AFE7281CFEBD37B5436804
:105FE000027A1B68083252019A18041CD0790123E6
:105FF000FF21184253D0D371A068656962680140DF
:10600000002D20D149015218916863618904890CDF
:106010002162A16A68465160621DD377FFF7E6FEF0
:10602000019B013B5A1C33D0221C34321178581E7C
:10603000C9B20132002903D001930123137023E078
:106040001170031CEEE74B01D3189A68A5699204FE
:10605000920C22630022626168465D60FFF7C6FE13
:10606000019B013B01E011702B1C591C10D0221C1C
:10607000343201201070621DD17F5D1EC9B23032F2
:106080000029F0D0019310706846FFF7B6FE06E0D5
:1060900068460193FFF7B1FE201CFFF7E5FE37BD10
:1060A00037B500236C46E3710734201C0D1CFFF745
:1060B000B7FD2B681818286001F070FE211C01F054
:1060C00027FE2B681818286020783EBD03290BD1C5
:1060D0000D4BB2221B685200985C8021494201435B
:1060E0009954022168220CE001290CD1064B92221E
:1060F0001B685200985C8021494201439954022157
:106100002822FF32995470471C0E002038B5304BBE
:1061100000240121051C1A201C7001F00DFD1A201D
:10612000012101F063FD2B4B192001211C7001F0AE
:1061300003FD1920012101F059FD274B2021DA69C7
:1061400001200A43DA61254B06241A7802431A70AB
:10615000234B0F2219789143197019782143197034
:1061600020490C782043087019780A401A701A7870
:1061700060210A431A701C4B1C4A5A805A78D20973
:10618000FCD11B4801F030FB1A4C201CFFF7ECFD42
:10619000201CFFF7FDFD23687F2219780A401A7042
:1061A0001A7804210A431A701A890C218A431A8129
:1061B000C121114A890050580002000A5050802124
:1061C00011601A7802210A431A7001232B7038BD1E
:1061D000300C0020180E00200004004058440041FC
:1061E0003C44004159440041000C0040064000007E
:1061F000216C00001C0E002000E100E00078002867
:1062000010D0094B01211B681A898A431A811A8B05
:1062100008210A431A831A8B04210A431A83034B69
:1062200000221A607047C0461C0E0020200F00207C
:106230000F4B9A69920B92039A611B680222FF33FB
:106240001A7298798022524202439A711A7A900700
:10625000FCD5084B081C997A7F22104091430143DA
:106260009972997A802252420A439A727047C046C4
:106270001C0E00200050004110B50B790C1C002BA7
:106280000BD1081CFFF7DAFC002804D1094B9A69EE
:10629000920B92039A6101200BE001F07FFD211C1B
:1062A00001F06AFD0028F6D1024B9A69920B920325
:1062B0009A6110BD1C0E0020F8B50D1C832A16D162
:1062C000CAB242495301CB189C694148AD012040F4
:1062D000C024A405204398613E48083245195D61F9
:1062E0000B685201D15C70208143402065E0022A96
:1062F00045D1382001F0C2FA374B344F8026036075
:1063000076000023421D036203614361C36147605D
:106310008560C660D3772F32041CC3620363137099
:10632000301C537004F038FEA061301C04F034FEC1
:10633000FF232A1C1A405201A062BF18B968244AE0
:1063400007260A40C02189050A43BA60A16862682D
:106350001940126808314901885CAD00B04303263A
:1063600030438854A16862680B405B01A169D3186F
:106370005960201CFFF778FD184BEC5025E0822A6D
:106380001ED1CAB211495301CB189C691048AD0106
:106390002040C024A405204398610E4808324519C6
:1063A0005D610B68520199180C79802040422043AE
:1063B0000871D15C7020814330200143D15404E046
:1063C000002A02D1081CFFF78FFCF8BD1C0E00202C
:1063D000FFFFFF8F700A0020A8E30000F40D0020EB
:1063E00038B5051C0124064BA200D258002A06D05D
:1063F000211C281C0134FFF75FFFE4B2F3E738BD2E
:106400006000002008B5084B8A00D058002803D04F
:1064100003689B68984706E0C9B2044B49015918C4
:1064200088688004800C08BDF40D00201C0E00203C
:1064300010B50C1CFFF7E6FF00280CD0064BE1B2AC
:106440001B680831490159184A7980235B4213437C
:106450004B710223CB7110BD1C0E002070B5CAB267
:10646000134B1448540189015918031959609D6848
:106470001149083229408025AD0229439960996865
:106480004026890B890399600368510159180D79D9
:1064900035430D715101591889794D06FAD55101CD
:1064A0005918C979CD07FAD50419A068C0B270BDD2
:1064B000340C00201C0E0020FF3F00F038B50C4BC0
:1064C000141C1B680D1CFF335A7940210A435A7172
:1064D0000021FFF7C3FFA04200D9201C0023A342E4
:1064E00004D0044A9A5CEA540133F8E738BDC04648
:1064F0001C0E0020340C002010B5C9B20C48490114
:1065000043189A689204920C3F2A08D9141C9A687E
:10651000403CA404920BA40C9203224302E09A682C
:10652000920B92039A6041188868C0B210BDC046B1
:106530001C0E0020F0B51C1C2F4B85B01B68061CE0
:106540000D1C0292002B51D02C4F3978C9B2002972
:1065500002D1192001F04AFB64233B70284BAA00AA
:10656000D058002805D0036802995B68221C984720
:1065700040E0301C291CFFF745FFA04204D2301C2C
:10658000291CFFF73FFF041C291C301CFFF7B4FF38
:106590001C4FE9B24A010191396803928B18FF330D
:1065A0005A7A01210A4318495A72AB01C918029854
:1065B000221C04F00AFD002C1BD0301C291CFFF704
:1065C00021FF002815D1019B3A6808335B01D318DD
:1065D00019794020014319710121D9710399531888
:1065E000FF339A7A01210A439A7202E00120404265
:1065F00000E0201C05B0F0BD200F0020180E002088
:10660000F40D00201C0E0020340C002013B56C4645
:106610000734221C0123FFF78DFF012801D12078C8
:1066200001E00120404216BDF0B51C1C3F4B85B077
:106630001B680E1C0292002B6AD08023DB019C4257
:1066400066D83B4D2978C9B2002902D11A2001F041
:10665000CDFA642300222B700092002C56D0354DC9
:10666000F7B22B6801933B1C0833019A5B01D318E6
:106670009B79DB091AD0304B3049186801F0AAFB2E
:106680002F4B1721584301F0A5FB3B1C0833019AFF
:106690005B01D318DB799A0708D42A4B9A5D002A4C
:1066A00038D1421E002835D0101CEEE7254B0022C1
:1066B0009A55251E3F2D00D93F25234AB301D318F3
:1066C000181C02992A1C039304F07FFC194A7B01D1
:1066D000D318039AA9045A619A69890C920B920300
:1066E0000A439A613B1C019A08335B01D3180222CA
:1066F000DA715979802252420A435A71009B029AF8
:106700005B1952190093641B0292A6E700980BE0F4
:10671000012008E001229A557B01ED18AB69101C9D
:106720009B0B9B03AB61404205B0F0BD200F0020E6
:10673000300C00201C0E00208C00002040420F0076
:1067400070110100680A0020700A002070B50E4D1B
:106750001C1C8B01ED18281C0E1C111C221C04F0A3
:1067600034FCF6B20949760189194D618A69084BF2
:10677000201C13408B618B69A2049B0B920C9B0322
:1067800013438B6170BDC046700A00201C0E0020B0
:10679000FF3F00F0F7B5114B01901B780F1C141C44
:1067A000002B19D10E4B1E78002E01D1151C08E0CC
:1067B0000C4D0D482E888019361904F006FC2E80E9
:1067C0000AE0002D08D0BA192B1C01980021FFF710
:1067D000BDFF36182D1AF4E7201CFEBD120E002056
:1067E000100E0020660A002065090020F8B50E1C76
:1067F00000AF151E012D28D9D31DDB08DB006A462A
:10680000D21A9546081C04F0FAFC01306C46400090
:106810000323207063700222AA420ED23378002B29
:106820000BD0511CC9B20136A354A94204D0002395
:1068300002326354D2B2EFE72A1C0548211CFFF74D
:10684000A9FF431E9841C0B200E00020BD46F8BD3C
:10685000130E002008B5044B00221A70034B0449A4
:106860001A88FFF797FF08BD100E0020660A002067
:1068700065090020F0B5204A87B001230026009169
:1068800002A91370051C0296FFF70AFC03AC092746
:1068900001903A1C201C311C04F0B9FB02236370E8
:1068A000A023E371FA232372029B0122DB19638088
:1068B000019B62712371104A009B27701670BB42C6
:1068C00005D1281C211C1A1CFFF764FF11E00B4B9B
:1068D00001221A700A4B211C3A1C281C1E800296A9
:1068E000FFF758FF281C02A9FFF7DAFB281CFFF767
:1068F000B1FF012007B0F0BD120E0020100E0020E5
:10690000660A002070B5CE788AB0051C0C1C022ED9
:1069100008D1C9882348FFF7ADFF031C581E8341E7
:10692000D8B23DE001F03AFA211C01F006FA002845
:1069300003D0C3171B1AD80F32E0012E04D1E2880E
:106940001949112A27D823E0032E29D1A278002A39
:1069500005D11649E2880B78934219D81BE0022A28
:1069600003D1A279281C124904E0012A05D1A27999
:106970001049281CFFF73AFF12E0032A10D101F05A
:106980000DFA01A901F0E9F9A279281C01A9F1E7A2
:10699000D2B2002A00D10A78281CFFF7FBFE0120A2
:1069A0000AB070BD130E0020C6E30000C2E3000071
:1069B000D8E30000B8E3000073B5051C48780C1C50
:1069C0000B2878D801F0FCF9081C7728773E43069D
:1069D000474B686F00206FE0097801AA002903D1B6
:1069E00011705170281C09E0002313705370334B51
:1069F0001B78012B00D11370281C002102234FE0CB
:106A00008A780023012A04D101AA137053702C4BF9
:106A1000EEE72A4A137049E08E78012E07D1284B01
:106A200001AA00211E701170281C331C38E0002EB2
:106A300008D1224A01231370224A9169890B8903E4
:106A4000916138E0A178281CFFF7F2FB33E0281CA5
:106A5000FFF758FF30E0281C00211B4A1FE00A788E
:106A60000020D30628D1281CFFF7BAFCA2781549CC
:106A7000154B02241A600A682A23FF33D05C204396
:106A8000D0544A20FF30145C01231C4314548A69FB
:106A9000920B92038A610EE00C4A281C002101230C
:106AA000FFF754FE07E08A78084B1A60054B9A6995
:106AB000920B92039A61012076BDC04664090020C2
:106AC000110E00201C0E0020200F0020140E0020AC
:106AD000F8B54B4B071C1C78002C00D08EE0494DBC
:106AE0002868838B19070DD5201CFFF7FDF82B684C
:106AF00010201A1CFF32917A01439172424A1460AD
:106B000008229A832B689A8B50071FD504229A83F8
:106B10003E4B1A78002A0AD01A78013AD2B21A707B
:106B20001B78002B03D11A20012101F05FF8384BAC
:106B30001A78002A0AD01A78013AD2B21A701B7851
:106B4000002B03D11920012101F050F82B68FF33ED
:106B50001A7AD10626D510221A725A7940210A4390
:106B60002C495A710A786023381C1A4202D1FFF767
:106B700023FF01E0FFF780FB002806D02B6880226E
:106B8000FF33997952420A4301E0234B20229A7144
:106B90002B68FF331A7A500604D540221A72597AAC
:106BA0000A435A722968FE230E8C00241E40E1B26B
:106BB000002E23D0321C012322411A4216D0221C5F
:106BC0002868083252018218D079184203D1D2794C
:106BD000DA401A4207D0114BA200D058002809D041
:106BE00003681B6898470123A3409E430134092C86
:106BF000DDD103E0381CFFF769FAF4E7F8BDC046C1
:106C0000100E00201C0E0020200F0020300C002051
:106C1000180E0020340C0020FF500041F40D00201D
:106C200008B50248FFF754FF08BDC046130E002008
:106C3000014A024B1A607047005000411C0E0020B0
:106C4000F7B58A18061C0D1C01920C1C019B671BD2
:106C50009C4207D0336821781B68301C9847013468
:106C60000028F3D1381CFEBD08B50368C9B21B6803
:106C7000984708BD38B5051C0C1C081E07D004F049
:106C8000BEFA2B68021C5B68281C211C984738BD83
:106C900008B5FFF7EFFF08BD08B5FFF7EBFF08BD2C
:106CA00008B503681B68984708BD000008B502498D
:106CB000FFF7E0FF08BDC04662DA000038B5041CEB
:106CC000FFF7D8FF051C201CFFF7F0FF281838BD80
:106CD000F0B58DB0161C0BAB002201900C1C1A7085
:106CE000012E00D80A266D462B35201C311C01F0E0
:106CF000B5F8201CCFB2311C01F06CF8291C041C23
:106D0000092F01D8303700E03737FFB22F70013D2F
:106D1000002CEAD10198FFF7ADFF0DB0F0BD08B52A
:106D2000002A02D1FFF7A0FF02E0D2B2FFF7D0FFA6
:106D300008BD38B5041CFFF7F2FF051C201CFFF747
:106D4000B5FF281838BD38B5041CFFF7E8FF051C4F
:106D5000201CFFF7ABFF401938BD00000000000009
:106D6000F7B51C1C08AB1B78071C211C101C151C3C
:106D70000093FEF73FFD002802D1381C504907E080
:106D8000281C211CFEF736FD012804D14D49381C72
:106D9000FFF770FF7CE0281C211C404B3E4A01F0AD
:106DA000F3F8002802D0381C4749F1E7281C211CC1
:106DB0003B4A3C4B01F0D4F80028F4D1281C211C9C
:106DC000394A3A4B01F0CCF8002808D02D21381C64
:106DD000FFF766FF802109060190641800E001902A
:106DE0000026334A334B00998E420AD0101C191CDE
:106DF000314A324B02F03AF90136021C0B1CF6B252
:106E0000F1E7281C211C01F015FE0D1C041C01F0EB
:106E100017F9061C03F0C0FB0B1C021C291C201CCC
:106E200003F01EF80A22041C0D1C381C311CFFF74D
:106E30004FFF019B0099C618002904D0381C234934
:106E4000FFF718FF3618009B002B20D01A4A1B4B67
:106E5000201C291C02F074FD0D1C041C01F0F0F82C
:106E600001900A220199381CFFF732FF3618019869
:106E700003F092FB0B1C021C291C201C02F0F0FFEB
:106E8000009B041C013BDBB20D1C0093DBE7301CB4
:106E9000FEBDC046C046C046000000E0FFFFEF4117
:106EA000000000E0FFFFEFC1000000000000000054
:106EB000000000000000E03F00000000000024404F
:106EC000E3E30000E7E30000EBE30000EFE3000092
:106ED00037B5041C0698C1B20091201CFFF740FF93
:106EE000051C201CFFF7E2FE28183EBD014B186070
:106EF0007047C04688000020024B012252421A60AF
:106F00007047C04688000020154A1368581C25D0D9
:106F1000013B1360002B21D172B6124A124B04328E
:106F20009A4207D8BFF34F8F104A114BDA60BFF374
:106F30004F8F11E00F4B197DC807FBD5188B20210F
:106F4000FF319208520001431983DA610A4A1A801C
:106F50001A7DD107FCD5E5E7C046FDE77047C0467E
:106F60008800002000200000030200000400FA0551
:106F700000ED00E00040004102A5FFFF10B5002138
:106F8000041CA42204F043F8221CA4320023201C79
:106F90001360536010BDF8B5051CA4352E68041CA1
:106FA0000F1C701CA42100F059FF231CA8331B6880
:106FB000994201D0A7552960F8BD021C0023A432D4
:106FC000A83013600360704738B5021C041CA83455
:106FD000A43223681268934207D0C55CA421581CD0
:106FE00000F03CFF281C216001E00120404238BD38
:106FF000031CA433A8301A680368D01A00D5A43043
:107000007047031C021CA833A4321B681268934209
:1070100001D0C05C01E0012040427047031CA43352
:1070200010B5041C1868A421013000F017FFA83423
:107030002368C81A43425841C0B210BD016070476E
:10704000F7B508AC267804689D1E27686C1EA5411C
:10705000ECB2920705683A4327063A432A60026871
:10706000072529405068B501002C00D05C03294356
:1070700001430C435460F7BD30B50368C0251C685C
:10708000AD0312052A402243C024A4020904214072
:107090001143196003685A6814435C6030BD03688B
:1070A00001211A680A431A60026811680123194213
:1070B000FBD1D1691942F8D17047036802211A68DF
:1070C0000A431A600268D3699907FCD470470368C1
:1070D0001A7ED10702D41A7E9107FCD57047036847
:1070E00000225A8370470368187E4007C00F70471C
:1070F0000368187EC009704703688022197E5242D7
:107100000A431A7670470368188DC0B27047036847
:107110001A7E01200242FBD01985704770B50368C2
:1071200001268D07ED0F31401C686D0709072943C3
:107130002143196004685100034800F04BFE0138F8
:10714000C0B2207370BDC046006CDC020368012130
:107150001A680A431A600268116801231942FBD1B8
:10716000D1691942F8D17047036802211A680A43AD
:107170001A600268D3699907FCD470470368DA691A
:107180009107FCD41A6802218A431A6070470000F4
:1071900038B5041C0D1CFFF7F1FF236801221540D0
:1071A000AA0704491D68201C0D4015431D60FFF708
:1071B000DBFF38BDFFFFFFBF70B5041C0D1E10D0F4
:1071C000FFF7DCFF291C074800F052FE410005488C
:1071D00000F000FE26680138C0B23073201CFFF7B3
:1071E000C3FF70BD006CDC0270B50125041C0D40AE
:1071F0008907CE0FFFF7C2FF23687107074A1E6891
:10720000201C16400E431E6023682A0704491D688F
:107210000D4015431D60FFF7A7FF70BDFFFFFFDFA7
:10722000FFFFFFEF03689A6A520A52021143996204
:1072300003681A7E5107FCD5986AC0B2704703688C
:1072400001211A680A431A60026811680123194271
:10725000FBD1D1691942F8D17047036802211A683D
:107260000A431A600368DA699107FCD45A8B30210B
:107270008A4310210A435A830268D3695907FCD410
:1072800070470368802219685968D2020A435A601D
:10729000704700000368034A196859680A405A6039
:1072A0007047C046FFFFFBFF30B5036803241D682D
:1072B0000C40074A596824040A40ED0622436D0F2A
:1072C0005A60052D03D10268D3695907FCD430BD3B
:1072D000FFFFFCFF49001143036830B5CDB2598B65
:1072E000032409092140012904D0598B09090C40C4
:1072F000022CF4D1596AC90AC902294359620368A8
:10730000002A03D11A7ED107FCD50DE0187E012298
:107310004008104008D1197E1142F7D05968C022A8
:1073200092020A435A6003E05B8B01209B0898435A
:1073300030BD0368283319700268107E012318409D
:1073400003D1518B1942F8D003E0528B181C9208DC
:1073500090437047036828331970036800201A7E31
:10736000510703D55B8B01209B0898437047036846
:107370001868C006400F043843425841C0B27047F5
:107380000368187E4007C00F70470368187E01230A
:10739000184070470368588BC006C00F70470368D9
:1073A000187E8007C00F70470368588B0007C00F16
:1073B000704703681A68D206520F052A02D11A7E56
:1073C0009107FCD528331878C0B270470368224A69
:1073D00030B5934211D0214A934211D0204A9342B2
:1073E00011D0204A934211D01F4A934211D01F4A14
:1073F000934230D10E2319220DE0092314220AE012
:107400000A23152207E00B23162204E00C2317227F
:1074100001E00D231822DCB2154901209B08A04091
:107420009B0008605B180320C021890004405D5860
:10743000E000FF248440A5432C1CC0258540281C67
:10744000204358508023DB011A430A4B5A805A7854
:1074500052B2002AFBDB30BD00080042000C0042A3
:10746000001000420014004200180042001C0042BC
:1074700000E100E0000C0040F8B5041C151C0E1CD7
:107480001F1CFFF7A3FF201CFFF709FEB1001C2201
:107490000A4069072368090C0A431A60226884239A
:1074A0009375012E1AD10821012D00D110210C4B0A
:1074B00079431868C00000F08DFC236807219A8981
:1074C0000140D2044903D20C0A439A812368000484
:1074D000C20C9889400B400310439881F8BDC04608
:1074E0008C000020F7B5019308AB041C1F780D1C1D
:1074F000161CFFF72BFE201CFFF768FFBF070C22AE
:107500001743C022920336051640C02292022D0472
:1075100023683E4301991540354307221D600A4008
:107520008021236889020A435A60F7BD38B5041CDC
:107530000D1CFFF74BFF201CFFF781FE2368142270
:107540001A60074B6900186800F044FC2468421E6A
:10755000E068FF231A4098431043E06038BDC046FE
:107560008C00002010B5041C00F044F9E060236892
:10757000201CDB689847002808DA00F03BF9E36834
:10758000C01AA3689842F2D30120404210BDF7B55B
:107590008A18071C0D1C01920C1C019B661B9C4247
:1075A00007D0381CFFF7DEFF002802DB2070013413
:1075B000F3E7301CFEBD01207047000008B50368EA
:1075C000014ADB69984708BD1304000010B5041C8C
:1075D0000069FFF764FD201C1430FFF7EEFC10BDBE
:1075E00008B50069FFF773FD08BD08B51430FFF753
:1075F000FFFC08BD08B51430FFF703FD08BD08B552
:107600001430FFF7E1FC08BD08B50069FFF77FFD06
:10761000012008BDF7B51D1C08AB1B78041C0093A6
:1076200009AB1B78161C019300234360FA239B00CF
:107630008360094B0F1C083303601430FFF79EFC76
:10764000009A231CC03327619A70019A1E705D70E6
:10765000201CDA70FEBDC046F8E3000010B5041C23
:107660000069FFF740FD002807D02069FFF74BFDB8
:10767000011C201C1430FFF78EFC2069FFF738FD39
:10768000002805D02069FFF737FD2069FFF727FDA7
:1076900010BDF023081C1840303843425841704751
:1076A000F0231B01194080239B0099420CD0C0237A
:1076B0009B00994206D080235B000520994204D0AC
:1076C000002002E0072000E0062070470F23194049
:1076D000012905D002394B424B410220C01A00E07B
:1076E00000207047F0B5031C85B00391C033041C23
:1076F000182718783B1C43431B4E0821F318595692
:10770000151C00F0A3FA231CC13318780821474345
:10771000F619715600F09AFA01210A1C039B2069A0
:10772000FFF7AAFE291C201CFFF7BAFF291C071C23
:10773000201CFFF7CBFF291C061C201CFFF7A9FF0C
:10774000391C0090331C20690122FFF779FC231CAF
:10775000C3331978013B1A782069FFF78DFC206943
:10776000FFF7ABFC05B0F0BD28DF0000FEE700002E
:1077700008B5034B1B68002B00D0984708BDC046D6
:10778000240F002038B50F490F4CA14204D100F05E
:1077900079F800F053F80BE00C4D8D42F7D0002340
:1077A000CA18E818A24204D2006804331060F7E750
:1077B000FEE79042EBD0064B064A9342E7D2002206
:1077C00004C3F9E70000002060010020E8E70000A2
:1077D00060010020480F002008B500F02CF80028B8
:1077E00001D100F01DF808BD014B18607047C0467C
:1077F000240F0020014B18687047C046280F002056
:1078000070B5041E08D0054B1D681E1C00F012F850
:1078100033685B1BA342F9D370BDC046280F00201C
:1078200008B5034B1A6801321A60FFF76DFB08BDFB
:10783000280F0020704700207047704710B500F0F7
:10784000D5F803F083FBFFF7F8FF0120FFF7D8FF1F
:10785000084C201CFEF75AFC201CFEF7CFFCFAF760
:107860005BFCFAF799FD044B002BFAD000E000BF57
:10787000F7E7C046130E00200000000008B503F033
:107880008BFB08BD70B5494A1E21536802208B430B
:107890000343474953608B69082423438B61454C5C
:1078A000454B9C829C8A20439882101CDA6894077E
:1078B000FCD5424A012414701478E50704D53F4CE6
:1078C000647864B2002CF7DB01249460547864B2CD
:1078D000002CFBDB3A4D394C6560547864B2002CC7
:1078E000FBDB8225354CED016580547864B2002CB9
:1078F000FBDB02249C84DC68E606FCD5314D2E4C73
:10790000E562DD682C4CEE06FBD5A58C2E4E35438A
:10791000A584DD68284CEE06FBD5A58C02263543F0
:10792000A584DC682506FCD5234CE4686606F8D5FA
:10793000DC68E506FCD500249460547864B2002C21
:10794000FBDB224D1D4C656055781C4C6DB2002D43
:10795000FADB1E6A1E4D35401D621D6A8026B54346
:107960001D620323A3601B4B636053785BB2002B43
:10797000FBDB00230B72184A4B728B72CB72174BD6
:10798000FF211A60164B174A1B6812685C01D20E61
:10799000214011439A06520F12020B1C1343124A44
:1079A0001385436880221343436070BD004000414B
:1079B000000400400C06000000080040000C0040DD
:1079C00001050100B805FF7D040A0000000703005F
:1079D000FFFCFFFF03060100006CDC028C000020AE
:1079E000246080002060800000400042314BFA217A
:1079F000186810B5890000F0EDF92F4B0138984256
:107A000024D82E4A2E4B5060186AC0210002000A6A
:107A10000906014319620024072194601160196A64
:107A200080220902090A12060A431A62254BFC2128
:107A30001A6A0A431A62196AFC2292010A431A62FC
:107A4000196AA022D2020A431A6200E0FEE7201C53
:107A50000021013400F070F8142CF8D11A4C63782E
:107A60005BB2002BFADB194B6380194B5A7ED209AB
:107A7000012AFAD0E422D2009A803F22DA70597E9D
:107A8000134AC9090129FAD0C0235B010020136100
:107A9000907000F023F863785BB2002BFBDB0D4A9B
:107AA000094B5A800C4BDA79D209012AFAD04122CB
:107AB0005A7010BD8C000020FFFFFF0010E000E0B6
:107AC00000ED00E000040040000C00401E400000FB
:107AD00000400042214000000048004200B5144A26
